{
  "contractName": "SPFNft",
  "abi": [
    {
      "inputs": [],
      "stateMutability": "nonpayable",
      "type": "constructor"
    },
    {
      "anonymous": false,
      "inputs": [
        {
          "indexed": true,
          "internalType": "address",
          "name": "owner",
          "type": "address"
        },
        {
          "indexed": true,
          "internalType": "address",
          "name": "approved",
          "type": "address"
        },
        {
          "indexed": true,
          "internalType": "uint256",
          "name": "tokenId",
          "type": "uint256"
        }
      ],
      "name": "Approval",
      "type": "event"
    },
    {
      "anonymous": false,
      "inputs": [
        {
          "indexed": true,
          "internalType": "address",
          "name": "owner",
          "type": "address"
        },
        {
          "indexed": true,
          "internalType": "address",
          "name": "operator",
          "type": "address"
        },
        {
          "indexed": false,
          "internalType": "bool",
          "name": "approved",
          "type": "bool"
        }
      ],
      "name": "ApprovalForAll",
      "type": "event"
    },
    {
      "anonymous": false,
      "inputs": [
        {
          "indexed": false,
          "internalType": "uint256",
          "name": "_fromTokenId",
          "type": "uint256"
        },
        {
          "indexed": false,
          "internalType": "uint256",
          "name": "_toTokenId",
          "type": "uint256"
        }
      ],
      "name": "BatchMetadataUpdate",
      "type": "event"
    },
    {
      "anonymous": false,
      "inputs": [
        {
          "indexed": true,
          "internalType": "address",
          "name": "_from",
          "type": "address"
        },
        {
          "indexed": false,
          "internalType": "uint256",
          "name": "_value",
          "type": "uint256"
        }
      ],
      "name": "Deposit",
      "type": "event"
    },
    {
      "anonymous": false,
      "inputs": [
        {
          "indexed": false,
          "internalType": "uint256",
          "name": "result",
          "type": "uint256"
        }
      ],
      "name": "LogRes",
      "type": "event"
    },
    {
      "anonymous": false,
      "inputs": [
        {
          "indexed": false,
          "internalType": "uint256",
          "name": "_tokenId",
          "type": "uint256"
        }
      ],
      "name": "MetadataUpdate",
      "type": "event"
    },
    {
      "anonymous": false,
      "inputs": [
        {
          "indexed": false,
          "internalType": "uint256",
          "name": "tokenId",
          "type": "uint256"
        },
        {
          "indexed": false,
          "internalType": "uint256",
          "name": "price",
          "type": "uint256"
        },
        {
          "indexed": false,
          "internalType": "address",
          "name": "creator",
          "type": "address"
        },
        {
          "indexed": false,
          "internalType": "uint256",
          "name": "startDate",
          "type": "uint256"
        },
        {
          "indexed": false,
          "internalType": "uint256",
          "name": "endDate",
          "type": "uint256"
        },
        {
          "indexed": false,
          "internalType": "uint256",
          "name": "depositTerm",
          "type": "uint256"
        },
        {
          "indexed": false,
          "internalType": "uint256",
          "name": "depositInterest",
          "type": "uint256"
        },
        {
          "indexed": false,
          "internalType": "string",
          "name": "interest",
          "type": "string"
        },
        {
          "indexed": false,
          "internalType": "uint256",
          "name": "rewardsClaimed",
          "type": "uint256"
        },
        {
          "indexed": false,
          "internalType": "uint256",
          "name": "payOff",
          "type": "uint256"
        },
        {
          "indexed": false,
          "internalType": "uint256",
          "name": "rewardsAvailable",
          "type": "uint256"
        },
        {
          "indexed": false,
          "internalType": "uint256",
          "name": "rewardProfit",
          "type": "uint256"
        }
      ],
      "name": "NFTItemCreated",
      "type": "event"
    },
    {
      "anonymous": false,
      "inputs": [
        {
          "indexed": true,
          "internalType": "address",
          "name": "previousOwner",
          "type": "address"
        },
        {
          "indexed": true,
          "internalType": "address",
          "name": "newOwner",
          "type": "address"
        }
      ],
      "name": "OwnershipTransferred",
      "type": "event"
    },
    {
      "anonymous": false,
      "inputs": [
        {
          "indexed": false,
          "internalType": "uint256",
          "name": "profit",
          "type": "uint256"
        }
      ],
      "name": "ProfitClaimed",
      "type": "event"
    },
    {
      "anonymous": false,
      "inputs": [
        {
          "indexed": true,
          "internalType": "address",
          "name": "from",
          "type": "address"
        },
        {
          "indexed": true,
          "internalType": "address",
          "name": "to",
          "type": "address"
        },
        {
          "indexed": true,
          "internalType": "uint256",
          "name": "tokenId",
          "type": "uint256"
        }
      ],
      "name": "Transfer",
      "type": "event"
    },
    {
      "anonymous": false,
      "inputs": [
        {
          "indexed": true,
          "internalType": "address",
          "name": "_to",
          "type": "address"
        },
        {
          "indexed": false,
          "internalType": "uint256",
          "name": "_value",
          "type": "uint256"
        }
      ],
      "name": "Withdrawal",
      "type": "event"
    },
    {
      "inputs": [
        {
          "internalType": "address",
          "name": "to",
          "type": "address"
        },
        {
          "internalType": "uint256",
          "name": "tokenId",
          "type": "uint256"
        }
      ],
      "name": "approve",
      "outputs": [],
      "stateMutability": "nonpayable",
      "type": "function"
    },
    {
      "inputs": [
        {
          "internalType": "address",
          "name": "owner",
          "type": "address"
        }
      ],
      "name": "balanceOf",
      "outputs": [
        {
          "internalType": "uint256",
          "name": "",
          "type": "uint256"
        }
      ],
      "stateMutability": "view",
      "type": "function",
      "constant": true
    },
    {
      "inputs": [
        {
          "internalType": "uint256",
          "name": "tokenId",
          "type": "uint256"
        }
      ],
      "name": "getApproved",
      "outputs": [
        {
          "internalType": "address",
          "name": "",
          "type": "address"
        }
      ],
      "stateMutability": "view",
      "type": "function",
      "constant": true
    },
    {
      "inputs": [
        {
          "internalType": "address",
          "name": "owner",
          "type": "address"
        },
        {
          "internalType": "address",
          "name": "operator",
          "type": "address"
        }
      ],
      "name": "isApprovedForAll",
      "outputs": [
        {
          "internalType": "bool",
          "name": "",
          "type": "bool"
        }
      ],
      "stateMutability": "view",
      "type": "function",
      "constant": true
    },
    {
      "inputs": [],
      "name": "listingPrice",
      "outputs": [
        {
          "internalType": "uint256",
          "name": "",
          "type": "uint256"
        }
      ],
      "stateMutability": "view",
      "type": "function",
      "constant": true
    },
    {
      "inputs": [],
      "name": "name",
      "outputs": [
        {
          "internalType": "string",
          "name": "",
          "type": "string"
        }
      ],
      "stateMutability": "view",
      "type": "function",
      "constant": true
    },
    {
      "inputs": [],
      "name": "owner",
      "outputs": [
        {
          "internalType": "address",
          "name": "",
          "type": "address"
        }
      ],
      "stateMutability": "view",
      "type": "function",
      "constant": true
    },
    {
      "inputs": [
        {
          "internalType": "uint256",
          "name": "tokenId",
          "type": "uint256"
        }
      ],
      "name": "ownerOf",
      "outputs": [
        {
          "internalType": "address",
          "name": "",
          "type": "address"
        }
      ],
      "stateMutability": "view",
      "type": "function",
      "constant": true
    },
    {
      "inputs": [],
      "name": "renounceOwnership",
      "outputs": [],
      "stateMutability": "nonpayable",
      "type": "function"
    },
    {
      "inputs": [
        {
          "internalType": "address",
          "name": "from",
          "type": "address"
        },
        {
          "internalType": "address",
          "name": "to",
          "type": "address"
        },
        {
          "internalType": "uint256",
          "name": "tokenId",
          "type": "uint256"
        }
      ],
      "name": "safeTransferFrom",
      "outputs": [],
      "stateMutability": "nonpayable",
      "type": "function"
    },
    {
      "inputs": [
        {
          "internalType": "address",
          "name": "from",
          "type": "address"
        },
        {
          "internalType": "address",
          "name": "to",
          "type": "address"
        },
        {
          "internalType": "uint256",
          "name": "tokenId",
          "type": "uint256"
        },
        {
          "internalType": "bytes",
          "name": "data",
          "type": "bytes"
        }
      ],
      "name": "safeTransferFrom",
      "outputs": [],
      "stateMutability": "nonpayable",
      "type": "function"
    },
    {
      "inputs": [
        {
          "internalType": "address",
          "name": "operator",
          "type": "address"
        },
        {
          "internalType": "bool",
          "name": "approved",
          "type": "bool"
        }
      ],
      "name": "setApprovalForAll",
      "outputs": [],
      "stateMutability": "nonpayable",
      "type": "function"
    },
    {
      "inputs": [
        {
          "internalType": "bytes4",
          "name": "interfaceId",
          "type": "bytes4"
        }
      ],
      "name": "supportsInterface",
      "outputs": [
        {
          "internalType": "bool",
          "name": "",
          "type": "bool"
        }
      ],
      "stateMutability": "view",
      "type": "function",
      "constant": true
    },
    {
      "inputs": [],
      "name": "symbol",
      "outputs": [
        {
          "internalType": "string",
          "name": "",
          "type": "string"
        }
      ],
      "stateMutability": "view",
      "type": "function",
      "constant": true
    },
    {
      "inputs": [
        {
          "internalType": "uint256",
          "name": "tokenId",
          "type": "uint256"
        }
      ],
      "name": "tokenURI",
      "outputs": [
        {
          "internalType": "string",
          "name": "",
          "type": "string"
        }
      ],
      "stateMutability": "view",
      "type": "function",
      "constant": true
    },
    {
      "inputs": [
        {
          "internalType": "address",
          "name": "from",
          "type": "address"
        },
        {
          "internalType": "address",
          "name": "to",
          "type": "address"
        },
        {
          "internalType": "uint256",
          "name": "tokenId",
          "type": "uint256"
        }
      ],
      "name": "transferFrom",
      "outputs": [],
      "stateMutability": "nonpayable",
      "type": "function"
    },
    {
      "inputs": [
        {
          "internalType": "address",
          "name": "newOwner",
          "type": "address"
        }
      ],
      "name": "transferOwnership",
      "outputs": [],
      "stateMutability": "nonpayable",
      "type": "function"
    },
    {
      "inputs": [],
      "name": "usdtAddress",
      "outputs": [
        {
          "internalType": "address",
          "name": "",
          "type": "address"
        }
      ],
      "stateMutability": "view",
      "type": "function",
      "constant": true
    },
    {
      "inputs": [],
      "name": "usdtToken",
      "outputs": [
        {
          "internalType": "contract IERC20",
          "name": "",
          "type": "address"
        }
      ],
      "stateMutability": "view",
      "type": "function",
      "constant": true
    },
    {
      "inputs": [
        {
          "internalType": "uint256",
          "name": "newPrice",
          "type": "uint256"
        }
      ],
      "name": "setListingPrice",
      "outputs": [],
      "stateMutability": "nonpayable",
      "type": "function"
    },
    {
      "inputs": [
        {
          "internalType": "uint256",
          "name": "tokenId",
          "type": "uint256"
        }
      ],
      "name": "getNftItem",
      "outputs": [
        {
          "components": [
            {
              "internalType": "uint256",
              "name": "tokenId",
              "type": "uint256"
            },
            {
              "internalType": "uint256",
              "name": "price",
              "type": "uint256"
            },
            {
              "internalType": "address",
              "name": "creator",
              "type": "address"
            },
            {
              "internalType": "uint256",
              "name": "startDate",
              "type": "uint256"
            },
            {
              "internalType": "uint256",
              "name": "endDate",
              "type": "uint256"
            },
            {
              "internalType": "uint256",
              "name": "depositTerm",
              "type": "uint256"
            },
            {
              "internalType": "uint256",
              "name": "depositInterest",
              "type": "uint256"
            },
            {
              "internalType": "string",
              "name": "interest",
              "type": "string"
            },
            {
              "internalType": "uint256",
              "name": "rewardsClaimed",
              "type": "uint256"
            },
            {
              "internalType": "uint256",
              "name": "payOff",
              "type": "uint256"
            },
            {
              "internalType": "uint256",
              "name": "rewardsAvailable",
              "type": "uint256"
            },
            {
              "internalType": "uint256",
              "name": "rewardProfit",
              "type": "uint256"
            },
            {
              "internalType": "bool",
              "name": "isListed",
              "type": "bool"
            }
          ],
          "internalType": "struct SPFNft.NFTItem",
          "name": "",
          "type": "tuple"
        }
      ],
      "stateMutability": "view",
      "type": "function",
      "constant": true
    },
    {
      "inputs": [],
      "name": "listedItemsCount",
      "outputs": [
        {
          "internalType": "uint256",
          "name": "",
          "type": "uint256"
        }
      ],
      "stateMutability": "view",
      "type": "function",
      "constant": true
    },
    {
      "inputs": [
        {
          "internalType": "string",
          "name": "tokenURI",
          "type": "string"
        }
      ],
      "name": "tokenURIExists",
      "outputs": [
        {
          "internalType": "bool",
          "name": "",
          "type": "bool"
        }
      ],
      "stateMutability": "view",
      "type": "function",
      "constant": true
    },
    {
      "inputs": [],
      "name": "totalSupply",
      "outputs": [
        {
          "internalType": "uint256",
          "name": "",
          "type": "uint256"
        }
      ],
      "stateMutability": "view",
      "type": "function",
      "constant": true
    },
    {
      "inputs": [
        {
          "internalType": "uint256",
          "name": "index",
          "type": "uint256"
        }
      ],
      "name": "tokenByIndex",
      "outputs": [
        {
          "internalType": "uint256",
          "name": "",
          "type": "uint256"
        }
      ],
      "stateMutability": "view",
      "type": "function",
      "constant": true
    },
    {
      "inputs": [
        {
          "internalType": "address",
          "name": "owner",
          "type": "address"
        },
        {
          "internalType": "uint256",
          "name": "index",
          "type": "uint256"
        }
      ],
      "name": "tokenOfOwnerByIndex",
      "outputs": [
        {
          "internalType": "uint256",
          "name": "",
          "type": "uint256"
        }
      ],
      "stateMutability": "view",
      "type": "function",
      "constant": true
    },
    {
      "inputs": [],
      "name": "getOwnedNfts",
      "outputs": [
        {
          "components": [
            {
              "internalType": "uint256",
              "name": "tokenId",
              "type": "uint256"
            },
            {
              "internalType": "uint256",
              "name": "price",
              "type": "uint256"
            },
            {
              "internalType": "address",
              "name": "creator",
              "type": "address"
            },
            {
              "internalType": "uint256",
              "name": "startDate",
              "type": "uint256"
            },
            {
              "internalType": "uint256",
              "name": "endDate",
              "type": "uint256"
            },
            {
              "internalType": "uint256",
              "name": "depositTerm",
              "type": "uint256"
            },
            {
              "internalType": "uint256",
              "name": "depositInterest",
              "type": "uint256"
            },
            {
              "internalType": "string",
              "name": "interest",
              "type": "string"
            },
            {
              "internalType": "uint256",
              "name": "rewardsClaimed",
              "type": "uint256"
            },
            {
              "internalType": "uint256",
              "name": "payOff",
              "type": "uint256"
            },
            {
              "internalType": "uint256",
              "name": "rewardsAvailable",
              "type": "uint256"
            },
            {
              "internalType": "uint256",
              "name": "rewardProfit",
              "type": "uint256"
            },
            {
              "internalType": "bool",
              "name": "isListed",
              "type": "bool"
            }
          ],
          "internalType": "struct SPFNft.NFTItem[]",
          "name": "",
          "type": "tuple[]"
        }
      ],
      "stateMutability": "view",
      "type": "function",
      "constant": true
    },
    {
      "inputs": [],
      "name": "getAllNfts",
      "outputs": [
        {
          "components": [
            {
              "internalType": "uint256",
              "name": "tokenId",
              "type": "uint256"
            },
            {
              "internalType": "uint256",
              "name": "price",
              "type": "uint256"
            },
            {
              "internalType": "address",
              "name": "creator",
              "type": "address"
            },
            {
              "internalType": "uint256",
              "name": "startDate",
              "type": "uint256"
            },
            {
              "internalType": "uint256",
              "name": "endDate",
              "type": "uint256"
            },
            {
              "internalType": "uint256",
              "name": "depositTerm",
              "type": "uint256"
            },
            {
              "internalType": "uint256",
              "name": "depositInterest",
              "type": "uint256"
            },
            {
              "internalType": "string",
              "name": "interest",
              "type": "string"
            },
            {
              "internalType": "uint256",
              "name": "rewardsClaimed",
              "type": "uint256"
            },
            {
              "internalType": "uint256",
              "name": "payOff",
              "type": "uint256"
            },
            {
              "internalType": "uint256",
              "name": "rewardsAvailable",
              "type": "uint256"
            },
            {
              "internalType": "uint256",
              "name": "rewardProfit",
              "type": "uint256"
            },
            {
              "internalType": "bool",
              "name": "isListed",
              "type": "bool"
            }
          ],
          "internalType": "struct SPFNft.NFTItem[]",
          "name": "",
          "type": "tuple[]"
        }
      ],
      "stateMutability": "view",
      "type": "function",
      "constant": true
    },
    {
      "inputs": [],
      "name": "Time_call",
      "outputs": [
        {
          "internalType": "uint256",
          "name": "",
          "type": "uint256"
        }
      ],
      "stateMutability": "view",
      "type": "function",
      "constant": true
    },
    {
      "inputs": [
        {
          "internalType": "uint256",
          "name": "tokenId",
          "type": "uint256"
        }
      ],
      "name": "burnToken",
      "outputs": [],
      "stateMutability": "nonpayable",
      "type": "function"
    },
    {
      "inputs": [
        {
          "internalType": "string",
          "name": "tokenURI",
          "type": "string"
        },
        {
          "internalType": "uint256",
          "name": "price",
          "type": "uint256"
        },
        {
          "internalType": "uint256",
          "name": "startDate",
          "type": "uint256"
        },
        {
          "internalType": "uint256",
          "name": "endDate",
          "type": "uint256"
        },
        {
          "internalType": "uint256",
          "name": "depositTerm",
          "type": "uint256"
        },
        {
          "internalType": "uint256",
          "name": "depositInterest",
          "type": "uint256"
        },
        {
          "internalType": "string",
          "name": "interest",
          "type": "string"
        },
        {
          "internalType": "uint256",
          "name": "payOff",
          "type": "uint256"
        }
      ],
      "name": "mintToken",
      "outputs": [
        {
          "internalType": "uint256",
          "name": "",
          "type": "uint256"
        }
      ],
      "stateMutability": "payable",
      "type": "function",
      "payable": true
    },
    {
      "inputs": [
        {
          "internalType": "uint256",
          "name": "amount",
          "type": "uint256"
        }
      ],
      "name": "deposit",
      "outputs": [],
      "stateMutability": "payable",
      "type": "function",
      "payable": true
    },
    {
      "inputs": [
        {
          "internalType": "uint256",
          "name": "_amount",
          "type": "uint256"
        }
      ],
      "name": "withdraw",
      "outputs": [],
      "stateMutability": "payable",
      "type": "function",
      "payable": true
    },
    {
      "inputs": [
        {
          "internalType": "uint256",
          "name": "tokenId",
          "type": "uint256"
        }
      ],
      "name": "claim",
      "outputs": [],
      "stateMutability": "payable",
      "type": "function",
      "payable": true
    },
    {
      "inputs": [],
      "name": "getUSDTBalance",
      "outputs": [
        {
          "internalType": "uint256",
          "name": "",
          "type": "uint256"
        }
      ],
      "stateMutability": "view",
      "type": "function",
      "constant": true
    }
  ],
  "bytecode": "0x6080604052731bbd7945868303a6b09e5232ded5eb1e7d095758600860006101000a81548173ffffffffffffffffffffffffffffffffffffffff021916908373ffffffffffffffffffffffffffffffffffffffff160217905550731bbd7945868303a6b09e5232ded5eb1e7d095758600960006101000a81548173ffffffffffffffffffffffffffffffffffffffff021916908373ffffffffffffffffffffffffffffffffffffffff1602179055506000601355348015620000c057600080fd5b506040518060400160405280600d81526020017f5374616765506f696e744e6674000000000000000000000000000000000000008152506040518060400160405280600681526020017f5350464e4654000000000000000000000000000000000000000000000000000081525081600090805190602001906200014592919062000296565b5080600190805190602001906200015e92919062000296565b5050506200018162000175620001c860201b60201c565b620001d060201b60201c565b33600a60006101000a81548173ffffffffffffffffffffffffffffffffffffffff021916908373ffffffffffffffffffffffffffffffffffffffff160217905550620003aa565b600033905090565b6000600760009054906101000a900473ffffffffffffffffffffffffffffffffffffffff16905081600760006101000a81548173ffffffffffffffffffffffffffffffffffffffff021916908373ffffffffffffffffffffffffffffffffffffffff1602179055508173ffffffffffffffffffffffffffffffffffffffff168173ffffffffffffffffffffffffffffffffffffffff167f8be0079c531659141344cd1fd0a4f28419497f9722a3daafe3b4186f6b6457e060405160405180910390a35050565b828054620002a49062000375565b90600052602060002090601f016020900481019282620002c8576000855562000314565b82601f10620002e357805160ff191683800117855562000314565b8280016001018555821562000314579182015b8281111562000313578251825591602001919060010190620002f6565b5b50905062000323919062000327565b5090565b5b808211156200034257600081600090555060010162000328565b5090565b7f4e487b7100000000000000000000000000000000000000000000000000000000600052602260045260246000fd5b600060028204905060018216806200038e57607f821691505b602082108103620003a457620003a362000346565b5b50919050565b61593880620003ba6000396000f3fe6080604052600436106102045760003560e01c8063715018a611610118578063a22cb465116100a0578063c78f19f91161006f578063c78f19f914610759578063c87b56dd14610784578063ccb4918d146107c1578063e985e9c5146107ec578063f2fde38b1461082957610204565b8063a22cb465146106c0578063a98ad46c146106e9578063b6b55f2514610714578063b88d4fde1461073057610204565b80638bc82885116100e75780638bc82885146105e45780638da5cb5b1461061457806395d89b411461063f5780639785fac81461066a5780639ab4a4451461069557610204565b8063715018a614610550578063732e8d73146105675780637b47ec1a146105925780637c726b69146105bb57610204565b80632f745c591161019b5780634f6ccce71161016a5780634f6ccce7146104315780636352211e1461046e5780636f1a0af5146104ab57806370a08231146104e857806370cbcb431461052557610204565b80632f745c5914610372578063379607f5146103af57806342842e0e146103cb57806343d32ae7146103f457610204565b8063095ea7b3116101d7578063095ea7b3146102d957806318160ddd1461030257806323b872dd1461032d5780632e1a7d4d1461035657610204565b806301ffc9a714610209578063032610301461024657806306fdde0314610271578063081812fc1461029c575b600080fd5b34801561021557600080fd5b50610230600480360381019061022b919061399a565b610852565b60405161023d91906139e2565b60405180910390f35b34801561025257600080fd5b5061025b6108b3565b6040516102689190613a16565b60405180910390f35b34801561027d57600080fd5b506102866108bb565b6040516102939190613aca565b60405180910390f35b3480156102a857600080fd5b506102c360048036038101906102be9190613b18565b61094d565b6040516102d09190613b86565b60405180910390f35b3480156102e557600080fd5b5061030060048036038101906102fb9190613bcd565b610993565b005b34801561030e57600080fd5b50610317610aaa565b6040516103249190613a16565b60405180910390f35b34801561033957600080fd5b50610354600480360381019061034f9190613c0d565b610ab7565b005b610370600480360381019061036b9190613b18565b610b17565b005b34801561037e57600080fd5b5061039960048036038101906103949190613bcd565b610c22565b6040516103a69190613a16565b60405180910390f35b6103c960048036038101906103c49190613b18565b610cc7565b005b3480156103d757600080fd5b506103f260048036038101906103ed9190613c0d565b610ea9565b005b34801561040057600080fd5b5061041b60048036038101906104169190613d95565b610ec9565b60405161042891906139e2565b60405180910390f35b34801561043d57600080fd5b5061045860048036038101906104539190613b18565b610f05565b6040516104659190613a16565b60405180910390f35b34801561047a57600080fd5b5061049560048036038101906104909190613b18565b610f76565b6040516104a29190613b86565b60405180910390f35b3480156104b757600080fd5b506104d260048036038101906104cd9190613b18565b610ffc565b6040516104df9190613f6e565b60405180910390f35b3480156104f457600080fd5b5061050f600480360381019061050a9190613f90565b611191565b60405161051c9190613a16565b60405180910390f35b34801561053157600080fd5b5061053a611248565b6040516105479190614198565b60405180910390f35b34801561055c57600080fd5b5061056561148f565b005b34801561057357600080fd5b5061057c6114a3565b6040516105899190614198565b60405180910390f35b34801561059e57600080fd5b506105b960048036038101906105b49190613b18565b6116f5565b005b3480156105c757600080fd5b506105e260048036038101906105dd9190613b18565b611701565b005b6105fe60048036038101906105f991906141ba565b611756565b60405161060b9190613a16565b60405180910390f35b34801561062057600080fd5b506106296118c5565b6040516106369190613b86565b60405180910390f35b34801561064b57600080fd5b506106546118ef565b6040516106619190613aca565b60405180910390f35b34801561067657600080fd5b5061067f611981565b60405161068c9190613a16565b60405180910390f35b3480156106a157600080fd5b506106aa611a3c565b6040516106b79190613b86565b60405180910390f35b3480156106cc57600080fd5b506106e760048036038101906106e291906142d4565b611a62565b005b3480156106f557600080fd5b506106fe611a78565b60405161070b9190614373565b60405180910390f35b61072e60048036038101906107299190613b18565b611a9e565b005b34801561073c57600080fd5b506107576004803603810190610752919061442f565b611ba9565b005b34801561076557600080fd5b5061076e611c0b565b60405161077b9190613a16565b60405180910390f35b34801561079057600080fd5b506107ab60048036038101906107a69190613b18565b611c11565b6040516107b89190613aca565b60405180910390f35b3480156107cd57600080fd5b506107d6611d23565b6040516107e39190613a16565b60405180910390f35b3480156107f857600080fd5b50610813600480360381019061080e91906144b2565b611d34565b60405161082091906139e2565b60405180910390f35b34801561083557600080fd5b50610850600480360381019061084b9190613f90565b611dc8565b005b6000634906490660e01b7bffffffffffffffffffffffffffffffffffffffffffffffffffffffff1916827bffffffffffffffffffffffffffffffffffffffffffffffffffffffff191614806108ac57506108ab82611e4b565b5b9050919050565b600042905090565b6060600080546108ca90614521565b80601f01602080910402602001604051908101604052809291908181526020018280546108f690614521565b80156109435780601f1061091857610100808354040283529160200191610943565b820191906000526020600020905b81548152906001019060200180831161092657829003601f168201915b5050505050905090565b600061095882611f2d565b6004600083815260200190815260200160002060009054906101000a900473ffffffffffffffffffffffffffffffffffffffff169050919050565b600061099e82610f76565b90508073ffffffffffffffffffffffffffffffffffffffff168373ffffffffffffffffffffffffffffffffffffffff1603610a0e576040517f08c379a0000000000000000000000000000000000000000000000000000000008152600401610a05906145c4565b60405180910390fd5b8073ffffffffffffffffffffffffffffffffffffffff16610a2d611f78565b73ffffffffffffffffffffffffffffffffffffffff161480610a5c5750610a5b81610a56611f78565b611d34565b5b610a9b576040517f08c379a0000000000000000000000000000000000000000000000000000000008152600401610a9290614656565b60405180910390fd5b610aa58383611f80565b505050565b6000600d80549050905090565b610ac8610ac2611f78565b82612039565b610b07576040517f08c379a0000000000000000000000000000000000000000000000000000000008152600401610afe906146e8565b60405180910390fd5b610b128383836120ce565b505050565b600a60009054906101000a900473ffffffffffffffffffffffffffffffffffffffff1673ffffffffffffffffffffffffffffffffffffffff163373ffffffffffffffffffffffffffffffffffffffff1614610ba7576040517f08c379a0000000000000000000000000000000000000000000000000000000008152600401610b9e90614754565b60405180910390fd5b60006006600a610bb791906148d6565b82610bc29190614921565b9050610bcf3033836123c7565b503373ffffffffffffffffffffffffffffffffffffffff167f7fcf532c15f0a6db0bd6d0e038bea71d30d808c7d98cb3bf7268a95bf5081b6534604051610c169190613a16565b60405180910390a25050565b6000610c2d83611191565b8210610c6e576040517f08c379a0000000000000000000000000000000000000000000000000000000008152600401610c65906149c7565b60405180910390fd5b601060008473ffffffffffffffffffffffffffffffffffffffff1673ffffffffffffffffffffffffffffffffffffffff168152602001908152602001600020600083815260200190815260200160002054905092915050565b6000600f600083815260200190815260200160002090503373ffffffffffffffffffffffffffffffffffffffff168160020160009054906101000a900473ffffffffffffffffffffffffffffffffffffffff1673ffffffffffffffffffffffffffffffffffffffff1614610d70576040517f08c379a0000000000000000000000000000000000000000000000000000000008152600401610d6790614a33565b60405180910390fd5b8060050154816008015410610dba576040517f08c379a0000000000000000000000000000000000000000000000000000000008152600401610db190614a9f565b60405180910390fd5b600081600a015411610e01576040517f08c379a0000000000000000000000000000000000000000000000000000000008152600401610df890614b0b565b60405180910390fd5b610e1f303383600a015484600b0154610e1a9190614921565b6123c7565b610e5e576040517f08c379a0000000000000000000000000000000000000000000000000000000008152600401610e5590614b77565b60405180910390fd5b60018160080154610e6f9190614b97565b600f6000848152602001908152602001600020600801819055506000600f6000848152602001908152602001600020600a01819055505050565b610ec483838360405180602001604052806000815250611ba9565b505050565b600060011515600e83604051610edf9190614c29565b908152602001604051809103902060009054906101000a900460ff161515149050919050565b6000610f0f610aaa565b8210610f50576040517f08c379a0000000000000000000000000000000000000000000000000000000008152600401610f47906149c7565b60405180910390fd5b600d8281548110610f6457610f63614c40565b5b90600052602060002001549050919050565b600080610f8283612474565b9050600073ffffffffffffffffffffffffffffffffffffffff168173ffffffffffffffffffffffffffffffffffffffff1603610ff3576040517f08c379a0000000000000000000000000000000000000000000000000000000008152600401610fea90614cbb565b60405180910390fd5b80915050919050565b6110046137cb565b600f6000838152602001908152602001600020604051806101a001604052908160008201548152602001600182015481526020016002820160009054906101000a900473ffffffffffffffffffffffffffffffffffffffff1673ffffffffffffffffffffffffffffffffffffffff1673ffffffffffffffffffffffffffffffffffffffff168152602001600382015481526020016004820154815260200160058201548152602001600682015481526020016007820180546110c590614521565b80601f01602080910402602001604051908101604052809291908181526020018280546110f190614521565b801561113e5780601f106111135761010080835404028352916020019161113e565b820191906000526020600020905b81548152906001019060200180831161112157829003601f168201915b505050505081526020016008820154815260200160098201548152602001600a8201548152602001600b8201548152602001600c820160009054906101000a900460ff1615151515815250509050919050565b60008073ffffffffffffffffffffffffffffffffffffffff168273ffffffffffffffffffffffffffffffffffffffff1603611201576040517f08c379a00000000000000000000000000000000000000000000000000000000081526004016111f890614d4d565b60405180910390fd5b600360008373ffffffffffffffffffffffffffffffffffffffff1673ffffffffffffffffffffffffffffffffffffffff168152602001908152602001600020549050919050565b6060600061125533611191565b905060008167ffffffffffffffff81111561127357611272613c6a565b5b6040519080825280602002602001820160405280156112ac57816020015b6112996137cb565b8152602001906001900390816112915790505b50905060005b828110156114865760006112c63383610c22565b90506000600f6000838152602001908152602001600020905080604051806101a001604052908160008201548152602001600182015481526020016002820160009054906101000a900473ffffffffffffffffffffffffffffffffffffffff1673ffffffffffffffffffffffffffffffffffffffff1673ffffffffffffffffffffffffffffffffffffffff1681526020016003820154815260200160048201548152602001600582015481526020016006820154815260200160078201805461138e90614521565b80601f01602080910402602001604051908101604052809291908181526020018280546113ba90614521565b80156114075780601f106113dc57610100808354040283529160200191611407565b820191906000526020600020905b8154815290600101906020018083116113ea57829003601f168201915b505050505081526020016008820154815260200160098201548152602001600a8201548152602001600b8201548152602001600c820160009054906101000a900460ff16151515158152505084848151811061146657611465614c40565b5b60200260200101819052505050808061147e90614d6d565b9150506112b2565b50809250505090565b6114976124b1565b6114a1600061252f565b565b60606000600d8054905067ffffffffffffffff8111156114c6576114c5613c6a565b5b6040519080825280602002602001820160405280156114ff57816020015b6114ec6137cb565b8152602001906001900390816114e45790505b50905060005b600d805490508110156116ed576000600f6000600d848154811061152c5761152b614c40565b5b90600052602060002001548152602001908152602001600020905080604051806101a001604052908160008201548152602001600182015481526020016002820160009054906101000a900473ffffffffffffffffffffffffffffffffffffffff1673ffffffffffffffffffffffffffffffffffffffff1673ffffffffffffffffffffffffffffffffffffffff168152602001600382015481526020016004820154815260200160058201548152602001600682015481526020016007820180546115f690614521565b80601f016020809104026020016040519081016040528092919081815260200182805461162290614521565b801561166f5780601f106116445761010080835404028352916020019161166f565b820191906000526020600020905b81548152906001019060200180831161165257829003601f168201915b505050505081526020016008820154815260200160098201548152602001600a8201548152602001600b8201548152602001600c820160009054906101000a900460ff1615151515815250508383815181106116ce576116cd614c40565b5b60200260200101819052505080806116e590614d6d565b915050611505565b508091505090565b6116fe816125f5565b50565b6117096124b1565b6000811161174c576040517f08c379a000000000000000000000000000000000000000000000000000000000815260040161174390614e01565b60405180910390fd5b8060138190555050565b600060405160200161176790614e6d565b604051602081830303815290604052805190602001208360405160200161178e9190614c29565b6040516020818303038152906040528051906020012014806117f957506040516020016117ba90614ece565b60405160208183030381529060405280519060200120836040516020016117e19190614c29565b60405160208183030381529060405280519060200120145b611838576040517f08c379a000000000000000000000000000000000000000000000000000000000815260040161182f90614f2f565b60405180910390fd5b611842600c612648565b61184c600b612648565b6000611858600c61265e565b9050611864338261266c565b61186e818b61268a565b61187e818a8a8a8a8a8a8a612735565b6001600e8b6040516118909190614c29565b908152602001604051809103902060006101000a81548160ff0219169083151502179055508091505098975050505050505050565b6000600760009054906101000a900473ffffffffffffffffffffffffffffffffffffffff16905090565b6060600180546118fe90614521565b80601f016020809104026020016040519081016040528092919081815260200182805461192a90614521565b80156119775780601f1061194c57610100808354040283529160200191611977565b820191906000526020600020905b81548152906001019060200180831161195a57829003601f168201915b5050505050905090565b60006006600a61199191906148d6565b600860009054906101000a900473ffffffffffffffffffffffffffffffffffffffff1673ffffffffffffffffffffffffffffffffffffffff166370a08231306040518263ffffffff1660e01b81526004016119ec9190613b86565b602060405180830381865afa158015611a09573d6000803e3d6000fd5b505050506040513d601f19601f82011682018060405250810190611a2d9190614f64565b611a379190614fc0565b905090565b600960009054906101000a900473ffffffffffffffffffffffffffffffffffffffff1681565b611a74611a6d611f78565b8383612be1565b5050565b600860009054906101000a900473ffffffffffffffffffffffffffffffffffffffff1681565b600a60009054906101000a900473ffffffffffffffffffffffffffffffffffffffff1673ffffffffffffffffffffffffffffffffffffffff163373ffffffffffffffffffffffffffffffffffffffff1614611b2e576040517f08c379a0000000000000000000000000000000000000000000000000000000008152600401611b259061503d565b60405180910390fd5b60006006600a611b3e91906148d6565b82611b499190614921565b9050611b563330836123c7565b503373ffffffffffffffffffffffffffffffffffffffff167fe1fffcc4923d04b559f4d29a8bfc6cda04eb5b0d3c460751c2402c5c5cc9109c34604051611b9d9190613a16565b60405180910390a25050565b611bba611bb4611f78565b83612039565b611bf9576040517f08c379a0000000000000000000000000000000000000000000000000000000008152600401611bf0906146e8565b60405180910390fd5b611c0584848484612d4d565b50505050565b60135481565b6060611c1c82611f2d565b6000600660008481526020019081526020016000208054611c3c90614521565b80601f0160208091040260200160405190810160405280929190818152602001828054611c6890614521565b8015611cb55780601f10611c8a57610100808354040283529160200191611cb5565b820191906000526020600020905b815481529060010190602001808311611c9857829003601f168201915b505050505090506000611cc6612da9565b90506000815103611cdb578192505050611d1e565b600082511115611d10578082604051602001611cf892919061505d565b60405160208183030381529060405292505050611d1e565b611d1984612dc0565b925050505b919050565b6000611d2f600b61265e565b905090565b6000600560008473ffffffffffffffffffffffffffffffffffffffff1673ffffffffffffffffffffffffffffffffffffffff16815260200190815260200160002060008373ffffffffffffffffffffffffffffffffffffffff1673ffffffffffffffffffffffffffffffffffffffff16815260200190815260200160002060009054906101000a900460ff16905092915050565b611dd06124b1565b600073ffffffffffffffffffffffffffffffffffffffff168173ffffffffffffffffffffffffffffffffffffffff1603611e3f576040517f08c379a0000000000000000000000000000000000000000000000000000000008152600401611e36906150f3565b60405180910390fd5b611e488161252f565b50565b60007f80ac58cd000000000000000000000000000000000000000000000000000000007bffffffffffffffffffffffffffffffffffffffffffffffffffffffff1916827bffffffffffffffffffffffffffffffffffffffffffffffffffffffff19161480611f1657507f5b5e139f000000000000000000000000000000000000000000000000000000007bffffffffffffffffffffffffffffffffffffffffffffffffffffffff1916827bffffffffffffffffffffffffffffffffffffffffffffffffffffffff1916145b80611f265750611f2582612e28565b5b9050919050565b611f3681612e92565b611f75576040517f08c379a0000000000000000000000000000000000000000000000000000000008152600401611f6c90614cbb565b60405180910390fd5b50565b600033905090565b816004600083815260200190815260200160002060006101000a81548173ffffffffffffffffffffffffffffffffffffffff021916908373ffffffffffffffffffffffffffffffffffffffff160217905550808273ffffffffffffffffffffffffffffffffffffffff16611ff383610f76565b73ffffffffffffffffffffffffffffffffffffffff167f8c5be1e5ebec7d5bd14f71427d1e84f3dd0314c0f7b2291e5b200ac8c7c3b92560405160405180910390a45050565b60008061204583610f76565b90508073ffffffffffffffffffffffffffffffffffffffff168473ffffffffffffffffffffffffffffffffffffffff16148061208757506120868185611d34565b5b806120c557508373ffffffffffffffffffffffffffffffffffffffff166120ad8461094d565b73ffffffffffffffffffffffffffffffffffffffff16145b91505092915050565b8273ffffffffffffffffffffffffffffffffffffffff166120ee82610f76565b73ffffffffffffffffffffffffffffffffffffffff1614612144576040517f08c379a000000000000000000000000000000000000000000000000000000000815260040161213b90615185565b60405180910390fd5b600073ffffffffffffffffffffffffffffffffffffffff168273ffffffffffffffffffffffffffffffffffffffff16036121b3576040517f08c379a00000000000000000000000000000000000000000000000000000000081526004016121aa90615217565b60405180910390fd5b6121c08383836001612ed3565b8273ffffffffffffffffffffffffffffffffffffffff166121e082610f76565b73ffffffffffffffffffffffffffffffffffffffff1614612236576040517f08c379a000000000000000000000000000000000000000000000000000000000815260040161222d90615185565b60405180910390fd5b6004600082815260200190815260200160002060006101000a81549073ffffffffffffffffffffffffffffffffffffffff02191690556001600360008573ffffffffffffffffffffffffffffffffffffffff1673ffffffffffffffffffffffffffffffffffffffff168152602001908152602001600020600082825403925050819055506001600360008473ffffffffffffffffffffffffffffffffffffffff1673ffffffffffffffffffffffffffffffffffffffff16815260200190815260200160002060008282540192505081905550816002600083815260200190815260200160002060006101000a81548173ffffffffffffffffffffffffffffffffffffffff021916908373ffffffffffffffffffffffffffffffffffffffff160217905550808273ffffffffffffffffffffffffffffffffffffffff168473ffffffffffffffffffffffffffffffffffffffff167fddf252ad1be2c89b69c2b068fc378daa952ba7f163c4a11628f55a4df523b3ef60405160405180910390a46123c28383836001612f66565b505050565b6000600860009054906101000a900473ffffffffffffffffffffffffffffffffffffffff1673ffffffffffffffffffffffffffffffffffffffff166323b872dd8585856040518463ffffffff1660e01b815260040161242893929190615237565b6020604051808303816000875af1158015612447573d6000803e3d6000fd5b505050506040513d601f19601f8201168201806040525081019061246b9190615283565b90509392505050565b60006002600083815260200190815260200160002060009054906101000a900473ffffffffffffffffffffffffffffffffffffffff169050919050565b6124b9611f78565b73ffffffffffffffffffffffffffffffffffffffff166124d76118c5565b73ffffffffffffffffffffffffffffffffffffffff161461252d576040517f08c379a0000000000000000000000000000000000000000000000000000000008152600401612524906152fc565b60405180910390fd5b565b6000600760009054906101000a900473ffffffffffffffffffffffffffffffffffffffff16905081600760006101000a81548173ffffffffffffffffffffffffffffffffffffffff021916908373ffffffffffffffffffffffffffffffffffffffff1602179055508173ffffffffffffffffffffffffffffffffffffffff168173ffffffffffffffffffffffffffffffffffffffff167f8be0079c531659141344cd1fd0a4f28419497f9722a3daafe3b4186f6b6457e060405160405180910390a35050565b6125fe81612f6c565b600060066000838152602001908152602001600020805461261e90614521565b90501461264557600660008281526020019081526020016000206000612644919061384b565b5b50565b6001816000016000828254019250508190555050565b600081600001549050919050565b6126868282604051806020016040528060008152506130ba565b5050565b61269382612e92565b6126d2576040517f08c379a00000000000000000000000000000000000000000000000000000000081526004016126c99061538e565b60405180910390fd5b806006600084815260200190815260200160002090805190602001906126f992919061388b565b507ff8e1a15aba9398e019f0b49df1a4fde98ee17ae345cb5f6b5e2c27f5033e8ce7826040516127299190613a16565b60405180910390a15050565b60648711612778576040517f08c379a000000000000000000000000000000000000000000000000000000000815260040161276f906153fa565b60405180910390fd5b600087905060006064600c6006600a61279191906148d6565b8761279c9190614921565b6127a69190614fc0565b6127b09190614fc0565b905060006040516020016127c390614e6d565b60405160208183030381529060405280519060200120856040516020016127ea9190614c29565b604051602081830303815290604052805190602001200361282f57828260016128139190614b97565b8461281e9190614921565b612828919061541a565b905061296d565b6000826006600a61284091906148d6565b61284a9190614b97565b905060006001905060005b898110156128a35782826128699190614921565b91506001811115612890576006600a61288291906148d6565b8261288d9190614fc0565b91505b808061289b90614d6d565b915050612855565b507f276db9d23116a976ba7effdda4335966433395e9df409133c37051b393bee4c5816040516128d39190613a16565b60405180910390a160026006600a6128eb91906148d6565b6128f5919061545b565b856129009190614921565b818661290c9190614921565b612916919061541a565b92506006600a61292691906148d6565b836129319190614fc0565b92507f276db9d23116a976ba7effdda4335966433395e9df409133c37051b393bee4c5836040516129629190613a16565b60405180910390a150505b60006006600a61297d91906148d6565b8b6129889190614921565b90506129b733600a60009054906101000a900473ffffffffffffffffffffffffffffffffffffffff16836123c7565b6129f6576040517f08c379a00000000000000000000000000000000000000000000000000000000081526004016129ed906154f2565b60405180910390fd5b604051806101a001604052808d81526020018c81526020013373ffffffffffffffffffffffffffffffffffffffff1681526020018b81526020018a8152602001898152602001888152602001878152602001600081526020018681526020016001815260200183815260200160011515815250600f60008e8152602001908152602001600020600082015181600001556020820151816001015560408201518160020160006101000a81548173ffffffffffffffffffffffffffffffffffffffff021916908373ffffffffffffffffffffffffffffffffffffffff160217905550606082015181600301556080820151816004015560a0820151816005015560c0820151816006015560e0820151816007019080519060200190612b1b92919061388b565b506101008201518160080155610120820151816009015561014082015181600a015561016082015181600b015561018082015181600c0160006101000a81548160ff0219169083151502179055509050507fb9f801d6df87c696e55bebf0423b98eb6e8b9311a9ded8e8725634dc4bd4e72e8c8c338d8d8d8d8d60008e60016006600a612ba891906148d6565b8e612bb39190614fc0565b604051612bcb9c9b9a99989796959493929190615588565b60405180910390a1505050505050505050505050565b8173ffffffffffffffffffffffffffffffffffffffff168373ffffffffffffffffffffffffffffffffffffffff1603612c4f576040517f08c379a0000000000000000000000000000000000000000000000000000000008152600401612c4690615695565b60405180910390fd5b80600560008573ffffffffffffffffffffffffffffffffffffffff1673ffffffffffffffffffffffffffffffffffffffff16815260200190815260200160002060008473ffffffffffffffffffffffffffffffffffffffff1673ffffffffffffffffffffffffffffffffffffffff16815260200190815260200160002060006101000a81548160ff0219169083151502179055508173ffffffffffffffffffffffffffffffffffffffff168373ffffffffffffffffffffffffffffffffffffffff167f17307eab39ab6107e8899845ad3d59bd9653f200f220920489ca2b5937696c3183604051612d4091906139e2565b60405180910390a3505050565b612d588484846120ce565b612d6484848484613115565b612da3576040517f08c379a0000000000000000000000000000000000000000000000000000000008152600401612d9a90615727565b60405180910390fd5b50505050565b606060405180602001604052806000815250905090565b6060612dcb82611f2d565b6000612dd5612da9565b90506000815111612df55760405180602001604052806000815250612e20565b80612dff8461329c565b604051602001612e1092919061505d565b6040516020818303038152906040525b915050919050565b60007f01ffc9a7000000000000000000000000000000000000000000000000000000007bffffffffffffffffffffffffffffffffffffffffffffffffffffffff1916827bffffffffffffffffffffffffffffffffffffffffffffffffffffffff1916149050919050565b60008073ffffffffffffffffffffffffffffffffffffffff16612eb483612474565b73ffffffffffffffffffffffffffffffffffffffff1614159050919050565b600073ffffffffffffffffffffffffffffffffffffffff168473ffffffffffffffffffffffffffffffffffffffff16148015612f3b57508373ffffffffffffffffffffffffffffffffffffffff168373ffffffffffffffffffffffffffffffffffffffff1614155b15612f6057612f4c8484848461336a565b612f5582613370565b612f5f83836133b9565b5b50505050565b50505050565b6000612f7782610f76565b9050612f87816000846001612ed3565b612f9082610f76565b90506004600083815260200190815260200160002060006101000a81549073ffffffffffffffffffffffffffffffffffffffff02191690556001600360008373ffffffffffffffffffffffffffffffffffffffff1673ffffffffffffffffffffffffffffffffffffffff168152602001908152602001600020600082825403925050819055506002600083815260200190815260200160002060006101000a81549073ffffffffffffffffffffffffffffffffffffffff021916905581600073ffffffffffffffffffffffffffffffffffffffff168273ffffffffffffffffffffffffffffffffffffffff167fddf252ad1be2c89b69c2b068fc378daa952ba7f163c4a11628f55a4df523b3ef60405160405180910390a46130b6816000846001612f66565b5050565b6130c48383613438565b6130d16000848484613115565b613110576040517f08c379a000000000000000000000000000000000000000000000000000000000815260040161310790615727565b60405180910390fd5b505050565b60006131368473ffffffffffffffffffffffffffffffffffffffff16613655565b1561328f578373ffffffffffffffffffffffffffffffffffffffff1663150b7a0261315f611f78565b8786866040518563ffffffff1660e01b8152600401613181949392919061579c565b6020604051808303816000875af19250505080156131bd57506040513d601f19601f820116820180604052508101906131ba91906157fd565b60015b61323f573d80600081146131ed576040519150601f19603f3d011682016040523d82523d6000602084013e6131f2565b606091505b506000815103613237576040517f08c379a000000000000000000000000000000000000000000000000000000000815260040161322e90615727565b60405180910390fd5b805181602001fd5b63150b7a0260e01b7bffffffffffffffffffffffffffffffffffffffffffffffffffffffff1916817bffffffffffffffffffffffffffffffffffffffffffffffffffffffff191614915050613294565b600190505b949350505050565b6060600060016132ab84613678565b01905060008167ffffffffffffffff8111156132ca576132c9613c6a565b5b6040519080825280601f01601f1916602001820160405280156132fc5781602001600182028036833780820191505090505b509050600082602001820190505b60011561335f578080600190039150507f3031323334353637383961626364656600000000000000000000000000000000600a86061a8153600a858161335357613352614f91565b5b0494506000850361330a575b819350505050919050565b50505050565b600d805490506012600083815260200190815260200160002081905550600d81908060018154018082558091505060019003906000526020600020016000909190919091505550565b60006133c483611191565b905081601060008573ffffffffffffffffffffffffffffffffffffffff1673ffffffffffffffffffffffffffffffffffffffff168152602001908152602001600020600083815260200190815260200160002081905550806011600084815260200190815260200160002081905550505050565b600073ffffffffffffffffffffffffffffffffffffffff168273ffffffffffffffffffffffffffffffffffffffff16036134a7576040517f08c379a000000000000000000000000000000000000000000000000000000000815260040161349e90615876565b60405180910390fd5b6134b081612e92565b156134f0576040517f08c379a00000000000000000000000000000000000000000000000000000000081526004016134e7906158e2565b60405180910390fd5b6134fe600083836001612ed3565b61350781612e92565b15613547576040517f08c379a000000000000000000000000000000000000000000000000000000000815260040161353e906158e2565b60405180910390fd5b6001600360008473ffffffffffffffffffffffffffffffffffffffff1673ffffffffffffffffffffffffffffffffffffffff16815260200190815260200160002060008282540192505081905550816002600083815260200190815260200160002060006101000a81548173ffffffffffffffffffffffffffffffffffffffff021916908373ffffffffffffffffffffffffffffffffffffffff160217905550808273ffffffffffffffffffffffffffffffffffffffff16600073ffffffffffffffffffffffffffffffffffffffff167fddf252ad1be2c89b69c2b068fc378daa952ba7f163c4a11628f55a4df523b3ef60405160405180910390a4613651600083836001612f66565b5050565b6000808273ffffffffffffffffffffffffffffffffffffffff163b119050919050565b600080600090507a184f03e93ff9f4daa797ed6e38ed64bf6a1f01000000000000000083106136d6577a184f03e93ff9f4daa797ed6e38ed64bf6a1f01000000000000000083816136cc576136cb614f91565b5b0492506040810190505b6d04ee2d6d415b85acef81000000008310613713576d04ee2d6d415b85acef8100000000838161370957613708614f91565b5b0492506020810190505b662386f26fc10000831061374257662386f26fc10000838161373857613737614f91565b5b0492506010810190505b6305f5e100831061376b576305f5e100838161376157613760614f91565b5b0492506008810190505b612710831061379057612710838161378657613785614f91565b5b0492506004810190505b606483106137b357606483816137a9576137a8614f91565b5b0492506002810190505b600a83106137c2576001810190505b80915050919050565b604051806101a001604052806000815260200160008152602001600073ffffffffffffffffffffffffffffffffffffffff1681526020016000815260200160008152602001600081526020016000815260200160608152602001600081526020016000815260200160008152602001600081526020016000151581525090565b50805461385790614521565b6000825580601f106138695750613888565b601f0160209004906000526020600020908101906138879190613911565b5b50565b82805461389790614521565b90600052602060002090601f0160209004810192826138b95760008555613900565b82601f106138d257805160ff1916838001178555613900565b82800160010185558215613900579182015b828111156138ff5782518255916020019190600101906138e4565b5b50905061390d9190613911565b5090565b5b8082111561392a576000816000905550600101613912565b5090565b6000604051905090565b600080fd5b600080fd5b60007fffffffff0000000000000000000000000000000000000000000000000000000082169050919050565b61397781613942565b811461398257600080fd5b50565b6000813590506139948161396e565b92915050565b6000602082840312156139b0576139af613938565b5b60006139be84828501613985565b91505092915050565b60008115159050919050565b6139dc816139c7565b82525050565b60006020820190506139f760008301846139d3565b92915050565b6000819050919050565b613a10816139fd565b82525050565b6000602082019050613a2b6000830184613a07565b92915050565b600081519050919050565b600082825260208201905092915050565b60005b83811015613a6b578082015181840152602081019050613a50565b83811115613a7a576000848401525b50505050565b6000601f19601f8301169050919050565b6000613a9c82613a31565b613aa68185613a3c565b9350613ab6818560208601613a4d565b613abf81613a80565b840191505092915050565b60006020820190508181036000830152613ae48184613a91565b905092915050565b613af5816139fd565b8114613b0057600080fd5b50565b600081359050613b1281613aec565b92915050565b600060208284031215613b2e57613b2d613938565b5b6000613b3c84828501613b03565b91505092915050565b600073ffffffffffffffffffffffffffffffffffffffff82169050919050565b6000613b7082613b45565b9050919050565b613b8081613b65565b82525050565b6000602082019050613b9b6000830184613b77565b92915050565b613baa81613b65565b8114613bb557600080fd5b50565b600081359050613bc781613ba1565b92915050565b60008060408385031215613be457613be3613938565b5b6000613bf285828601613bb8565b9250506020613c0385828601613b03565b9150509250929050565b600080600060608486031215613c2657613c25613938565b5b6000613c3486828701613bb8565b9350506020613c4586828701613bb8565b9250506040613c5686828701613b03565b9150509250925092565b600080fd5b600080fd5b7f4e487b7100000000000000000000000000000000000000000000000000000000600052604160045260246000fd5b613ca282613a80565b810181811067ffffffffffffffff82111715613cc157613cc0613c6a565b5b80604052505050565b6000613cd461392e565b9050613ce08282613c99565b919050565b600067ffffffffffffffff821115613d0057613cff613c6a565b5b613d0982613a80565b9050602081019050919050565b82818337600083830152505050565b6000613d38613d3384613ce5565b613cca565b905082815260208101848484011115613d5457613d53613c65565b5b613d5f848285613d16565b509392505050565b600082601f830112613d7c57613d7b613c60565b5b8135613d8c848260208601613d25565b91505092915050565b600060208284031215613dab57613daa613938565b5b600082013567ffffffffffffffff811115613dc957613dc861393d565b5b613dd584828501613d67565b91505092915050565b613de7816139fd565b82525050565b613df681613b65565b82525050565b600082825260208201905092915050565b6000613e1882613a31565b613e228185613dfc565b9350613e32818560208601613a4d565b613e3b81613a80565b840191505092915050565b613e4f816139c7565b82525050565b60006101a083016000830151613e6e6000860182613dde565b506020830151613e816020860182613dde565b506040830151613e946040860182613ded565b506060830151613ea76060860182613dde565b506080830151613eba6080860182613dde565b5060a0830151613ecd60a0860182613dde565b5060c0830151613ee060c0860182613dde565b5060e083015184820360e0860152613ef88282613e0d565b915050610100830151613f0f610100860182613dde565b50610120830151613f24610120860182613dde565b50610140830151613f39610140860182613dde565b50610160830151613f4e610160860182613dde565b50610180830151613f63610180860182613e46565b508091505092915050565b60006020820190508181036000830152613f888184613e55565b905092915050565b600060208284031215613fa657613fa5613938565b5b6000613fb484828501613bb8565b91505092915050565b600081519050919050565b600082825260208201905092915050565b6000819050602082019050919050565b60006101a0830160008301516140026000860182613dde565b5060208301516140156020860182613dde565b5060408301516140286040860182613ded565b50606083015161403b6060860182613dde565b50608083015161404e6080860182613dde565b5060a083015161406160a0860182613dde565b5060c083015161407460c0860182613dde565b5060e083015184820360e086015261408c8282613e0d565b9150506101008301516140a3610100860182613dde565b506101208301516140b8610120860182613dde565b506101408301516140cd610140860182613dde565b506101608301516140e2610160860182613dde565b506101808301516140f7610180860182613e46565b508091505092915050565b600061410e8383613fe9565b905092915050565b6000602082019050919050565b600061412e82613fbd565b6141388185613fc8565b93508360208202850161414a85613fd9565b8060005b8581101561418657848403895281516141678582614102565b945061417283614116565b925060208a0199505060018101905061414e565b50829750879550505050505092915050565b600060208201905081810360008301526141b28184614123565b905092915050565b600080600080600080600080610100898b0312156141db576141da613938565b5b600089013567ffffffffffffffff8111156141f9576141f861393d565b5b6142058b828c01613d67565b98505060206142168b828c01613b03565b97505060406142278b828c01613b03565b96505060606142388b828c01613b03565b95505060806142498b828c01613b03565b94505060a061425a8b828c01613b03565b93505060c089013567ffffffffffffffff81111561427b5761427a61393d565b5b6142878b828c01613d67565b92505060e06142988b828c01613b03565b9150509295985092959890939650565b6142b1816139c7565b81146142bc57600080fd5b50565b6000813590506142ce816142a8565b92915050565b600080604083850312156142eb576142ea613938565b5b60006142f985828601613bb8565b925050602061430a858286016142bf565b9150509250929050565b6000819050919050565b600061433961433461432f84613b45565b614314565b613b45565b9050919050565b600061434b8261431e565b9050919050565b600061435d82614340565b9050919050565b61436d81614352565b82525050565b60006020820190506143886000830184614364565b92915050565b600067ffffffffffffffff8211156143a9576143a8613c6a565b5b6143b282613a80565b9050602081019050919050565b60006143d26143cd8461438e565b613cca565b9050828152602081018484840111156143ee576143ed613c65565b5b6143f9848285613d16565b509392505050565b600082601f83011261441657614415613c60565b5b81356144268482602086016143bf565b91505092915050565b6000806000806080858703121561444957614448613938565b5b600061445787828801613bb8565b945050602061446887828801613bb8565b935050604061447987828801613b03565b925050606085013567ffffffffffffffff81111561449a5761449961393d565b5b6144a687828801614401565b91505092959194509250565b600080604083850312156144c9576144c8613938565b5b60006144d785828601613bb8565b92505060206144e885828601613bb8565b9150509250929050565b7f4e487b7100000000000000000000000000000000000000000000000000000000600052602260045260246000fd5b6000600282049050600182168061453957607f821691505b60208210810361454c5761454b6144f2565b5b50919050565b7f4552433732313a20617070726f76616c20746f2063757272656e74206f776e6560008201527f7200000000000000000000000000000000000000000000000000000000000000602082015250565b60006145ae602183613a3c565b91506145b982614552565b604082019050919050565b600060208201905081810360008301526145dd816145a1565b9050919050565b7f4552433732313a20617070726f76652063616c6c6572206973206e6f7420746f60008201527f6b656e206f776e6572206f7220617070726f76656420666f7220616c6c000000602082015250565b6000614640603d83613a3c565b915061464b826145e4565b604082019050919050565b6000602082019050818103600083015261466f81614633565b9050919050565b7f4552433732313a2063616c6c6572206973206e6f7420746f6b656e206f776e6560008201527f72206f7220617070726f76656400000000000000000000000000000000000000602082015250565b60006146d2602d83613a3c565b91506146dd82614676565b604082019050919050565b60006020820190508181036000830152614701816146c5565b9050919050565b7f4f6e6c79206f776e65722063616e20776974686472617720666f756e64730000600082015250565b600061473e601e83613a3c565b915061474982614708565b602082019050919050565b6000602082019050818103600083015261476d81614731565b9050919050565b7f4e487b7100000000000000000000000000000000000000000000000000000000600052601160045260246000fd5b60008160011c9050919050565b6000808291508390505b60018511156147fa578086048111156147d6576147d5614774565b5b60018516156147e55780820291505b80810290506147f3856147a3565b94506147ba565b94509492505050565b60008261481357600190506148cf565b8161482157600090506148cf565b8160018114614837576002811461484157614870565b60019150506148cf565b60ff84111561485357614852614774565b5b8360020a91508482111561486a57614869614774565b5b506148cf565b5060208310610133831016604e8410600b84101617156148a55782820a9050838111156148a05761489f614774565b5b6148cf565b6148b284848460016147b0565b925090508184048111156148c9576148c8614774565b5b81810290505b9392505050565b60006148e1826139fd565b91506148ec836139fd565b92506149197fffffffffffffffffffffffffffffffffffffffffffffffffffffffffffffffff8484614803565b905092915050565b600061492c826139fd565b9150614937836139fd565b9250817fffffffffffffffffffffffffffffffffffffffffffffffffffffffffffffffff04831182151516156149705761496f614774565b5b828202905092915050565b7f496e646578206f7574206f6620626f756e647300000000000000000000000000600082015250565b60006149b1601383613a3c565b91506149bc8261497b565b602082019050919050565b600060208201905081810360008301526149e0816149a4565b9050919050565b7f596f7520617265206e6f74206f776e6572206f662074686973204e4654000000600082015250565b6000614a1d601d83613a3c565b9150614a28826149e7565b602082019050919050565b60006020820190508181036000830152614a4c81614a10565b9050919050565b7f596f752063616c696d656420616c6c2072657761726400000000000000000000600082015250565b6000614a89601683613a3c565b9150614a9482614a53565b602082019050919050565b60006020820190508181036000830152614ab881614a7c565b9050919050565b7f4e6f20617661696c61626c652072657761726473000000000000000000000000600082015250565b6000614af5601483613a3c565b9150614b0082614abf565b602082019050919050565b60006020820190508181036000830152614b2481614ae8565b9050919050565b7f5472616e73616374696f6e206572726f72000000000000000000000000000000600082015250565b6000614b61601183613a3c565b9150614b6c82614b2b565b602082019050919050565b60006020820190508181036000830152614b9081614b54565b9050919050565b6000614ba2826139fd565b9150614bad836139fd565b9250827fffffffffffffffffffffffffffffffffffffffffffffffffffffffffffffffff03821115614be257614be1614774565b5b828201905092915050565b600081905092915050565b6000614c0382613a31565b614c0d8185614bed565b9350614c1d818560208601613a4d565b80840191505092915050565b6000614c358284614bf8565b915081905092915050565b7f4e487b7100000000000000000000000000000000000000000000000000000000600052603260045260246000fd5b7f4552433732313a20696e76616c696420746f6b656e2049440000000000000000600082015250565b6000614ca5601883613a3c565b9150614cb082614c6f565b602082019050919050565b60006020820190508181036000830152614cd481614c98565b9050919050565b7f4552433732313a2061646472657373207a65726f206973206e6f74206120766160008201527f6c6964206f776e65720000000000000000000000000000000000000000000000602082015250565b6000614d37602983613a3c565b9150614d4282614cdb565b604082019050919050565b60006020820190508181036000830152614d6681614d2a565b9050919050565b6000614d78826139fd565b91507fffffffffffffffffffffffffffffffffffffffffffffffffffffffffffffffff8203614daa57614da9614774565b5b600182019050919050565b7f5072696365206d757374206265206174206c6561737420312077656900000000600082015250565b6000614deb601c83613a3c565b9150614df682614db5565b602082019050919050565b60006020820190508181036000830152614e1a81614dde565b9050919050565b7f6d6f6e74686c7900000000000000000000000000000000000000000000000000600082015250565b6000614e57600783614bed565b9150614e6282614e21565b600782019050919050565b6000614e7882614e4a565b9150819050919050565b7f636f6d706f756e64000000000000000000000000000000000000000000000000600082015250565b6000614eb8600883614bed565b9150614ec382614e82565b600882019050919050565b6000614ed982614eab565b9150819050919050565b7f496e76616c696420696e74657265737400000000000000000000000000000000600082015250565b6000614f19601083613a3c565b9150614f2482614ee3565b602082019050919050565b60006020820190508181036000830152614f4881614f0c565b9050919050565b600081519050614f5e81613aec565b92915050565b600060208284031215614f7a57614f79613938565b5b6000614f8884828501614f4f565b91505092915050565b7f4e487b7100000000000000000000000000000000000000000000000000000000600052601260045260246000fd5b6000614fcb826139fd565b9150614fd6836139fd565b925082614fe657614fe5614f91565b5b828204905092915050565b7f4f6e6c79206f776e65722063616e206465706f73697420666f756e6473000000600082015250565b6000615027601d83613a3c565b915061503282614ff1565b602082019050919050565b600060208201905081810360008301526150568161501a565b9050919050565b60006150698285614bf8565b91506150758284614bf8565b91508190509392505050565b7f4f776e61626c653a206e6577206f776e657220697320746865207a65726f206160008201527f6464726573730000000000000000000000000000000000000000000000000000602082015250565b60006150dd602683613a3c565b91506150e882615081565b604082019050919050565b6000602082019050818103600083015261510c816150d0565b9050919050565b7f4552433732313a207472616e736665722066726f6d20696e636f72726563742060008201527f6f776e6572000000000000000000000000000000000000000000000000000000602082015250565b600061516f602583613a3c565b915061517a82615113565b604082019050919050565b6000602082019050818103600083015261519e81615162565b9050919050565b7f4552433732313a207472616e7366657220746f20746865207a65726f2061646460008201527f7265737300000000000000000000000000000000000000000000000000000000602082015250565b6000615201602483613a3c565b915061520c826151a5565b604082019050919050565b60006020820190508181036000830152615230816151f4565b9050919050565b600060608201905061524c6000830186613b77565b6152596020830185613b77565b6152666040830184613a07565b949350505050565b60008151905061527d816142a8565b92915050565b60006020828403121561529957615298613938565b5b60006152a78482850161526e565b91505092915050565b7f4f776e61626c653a2063616c6c6572206973206e6f7420746865206f776e6572600082015250565b60006152e6602083613a3c565b91506152f1826152b0565b602082019050919050565b60006020820190508181036000830152615315816152d9565b9050919050565b7f45524337323155524953746f726167653a2055524920736574206f66206e6f6e60008201527f6578697374656e7420746f6b656e000000000000000000000000000000000000602082015250565b6000615378602e83613a3c565b91506153838261531c565b604082019050919050565b600060208201905081810360008301526153a78161536b565b9050919050565b7f5072696365206d757374206265206174206c6561737420313030205553445400600082015250565b60006153e4601f83613a3c565b91506153ef826153ae565b602082019050919050565b60006020820190508181036000830152615413816153d7565b9050919050565b6000615425826139fd565b9150615430836139fd565b92508282101561544357615442614774565b5b828203905092915050565b600060ff82169050919050565b6000615466826139fd565b91506154718361544e565b925061549e7fffffffffffffffffffffffffffffffffffffffffffffffffffffffffffffffff8484614803565b905092915050565b7f5472616e616374696f6e206572726f7200000000000000000000000000000000600082015250565b60006154dc601083613a3c565b91506154e7826154a6565b602082019050919050565b6000602082019050818103600083015261550b816154cf565b9050919050565b6000819050919050565b600061553761553261552d84615512565b614314565b6139fd565b9050919050565b6155478161551c565b82525050565b6000819050919050565b600061557261556d6155688461554d565b614314565b6139fd565b9050919050565b61558281615557565b82525050565b60006101808201905061559e600083018f613a07565b6155ab602083018e613a07565b6155b8604083018d613b77565b6155c5606083018c613a07565b6155d2608083018b613a07565b6155df60a083018a613a07565b6155ec60c0830189613a07565b81810360e08301526155fe8188613a91565b905061560e61010083018761553e565b61561c610120830186613a07565b61562a610140830185615579565b615638610160830184613a07565b9d9c50505050505050505050505050565b7f4552433732313a20617070726f766520746f2063616c6c657200000000000000600082015250565b600061567f601983613a3c565b915061568a82615649565b602082019050919050565b600060208201905081810360008301526156ae81615672565b9050919050565b7f4552433732313a207472616e7366657220746f206e6f6e20455243373231526560008201527f63656976657220696d706c656d656e7465720000000000000000000000000000602082015250565b6000615711603283613a3c565b915061571c826156b5565b604082019050919050565b6000602082019050818103600083015261574081615704565b9050919050565b600081519050919050565b600082825260208201905092915050565b600061576e82615747565b6157788185615752565b9350615788818560208601613a4d565b61579181613a80565b840191505092915050565b60006080820190506157b16000830187613b77565b6157be6020830186613b77565b6157cb6040830185613a07565b81810360608301526157dd8184615763565b905095945050505050565b6000815190506157f78161396e565b92915050565b60006020828403121561581357615812613938565b5b6000615821848285016157e8565b91505092915050565b7f4552433732313a206d696e7420746f20746865207a65726f2061646472657373600082015250565b6000615860602083613a3c565b915061586b8261582a565b602082019050919050565b6000602082019050818103600083015261588f81615853565b9050919050565b7f4552433732313a20746f6b656e20616c7265616479206d696e74656400000000600082015250565b60006158cc601c83613a3c565b91506158d782615896565b602082019050919050565b600060208201905081810360008301526158fb816158bf565b905091905056fea264697066735822122002c8e3231e7c96a805f0ea6ae30794928acd6f0c85733de57239b147f6a7030f64736f6c634300080d0033",
  "immutableReferences": {},
  "source": "// SPDX-License-Identifier: MIT\npragma solidity >=0.4.22 <0.9.0;\n\nimport \"@openzeppelin/contracts/token/ERC721/extensions/ERC721URIStorage.sol\";\nimport \"@openzeppelin/contracts/utils/Counters.sol\";\nimport \"@openzeppelin/contracts/access/Ownable.sol\";\nimport \"@openzeppelin/contracts/token/ERC20/IERC20.sol\";\nimport \"@openzeppelin/contracts/utils/math/SafeMath.sol\";\n\ncontract SPFNft is ERC721URIStorage, Ownable {\n  uint256 constant DECIMALS = 6; // Number of decimal places\n  uint256 constant BASE = 10**DECIMALS; // Base value\n  IERC20 public usdtToken = IERC20(0x1BBd7945868303A6B09E5232deD5EB1e7D095758);\n  address public usdtAddress = 0x1BBd7945868303A6B09E5232deD5EB1e7D095758;\n\n  using Counters for Counters.Counter;\n  address private contractOwner;\n\n  Counters.Counter private _listedItems;\n  Counters.Counter private _tokenIds;\n\n  // All Token Ids in array\n  uint256[] private _allNfts;\n\n  mapping(string => bool) private _usedTokenURIs;\n  mapping(uint => NFTItem) private _idToNftItem;\n\n  mapping(address => mapping(uint => uint)) private _ownedTokens;\n  mapping(uint => uint) private _idToOwnedIndex;\n\n  mapping(uint => uint) private _idToNftIndex;\n\n  enum RewardStatus {\n    redy,\n    claimed,\n    waiting\n  }\n\n  struct Reward {\n    uint date;\n    uint amount;\n    RewardStatus status;\n  }\n\n  struct NFTItem {\n    uint tokenId;\n    uint256 price;\n    address creator;\n    uint startDate;\n    uint endDate;\n    uint depositTerm;\n    uint depositInterest;\n    string interest;\n    uint rewardsClaimed;\n    uint payOff;\n    uint rewardsAvailable;\n    uint rewardProfit;\n    // Reward[] rewards;\n    bool isListed;\n  }\n\n  event NFTItemCreated (\n    uint tokenId,\n    uint price,\n    address creator,\n    uint startDate,\n    uint endDate,\n    uint depositTerm,\n    uint depositInterest,\n    string interest,\n    uint rewardsClaimed,\n    uint payOff,\n    uint rewardsAvailable,\n    uint rewardProfit\n  );\n\n  event ProfitClaimed (\n    uint profit\n  );\n\n  event Deposit(address indexed _from, uint _value);\n\n  event Withdrawal(address indexed _to, uint256 _value);\n\n  event LogRes(uint result);\n\n  uint public listingPrice = 0 ether;\n\n  constructor() ERC721(\"StagePointNft\", \"SPFNFT\") {\n    contractOwner = msg.sender;\n  }\n\n  function setListingPrice(uint newPrice) external onlyOwner {\n    require(newPrice > 0, \"Price must be at least 1 wei\");\n    listingPrice = newPrice;\n  } \n\n  function getNftItem(uint tokenId) public view returns (NFTItem memory) {\n    return _idToNftItem[tokenId];\n  }\n\n  function listedItemsCount() public view returns (uint) {\n    return _listedItems.current();\n  }\n\n  function tokenURIExists(string memory tokenURI) public view returns (bool) {\n    return _usedTokenURIs[tokenURI] == true;\n  }\n\n  function totalSupply() public view returns (uint) {\n    return _allNfts.length;\n  }\n\n  function tokenByIndex(uint index) public view returns (uint) {\n    require(index < totalSupply(), \"Index out of bounds\");\n    return _allNfts[index];\n  }\n\n  function tokenOfOwnerByIndex(address owner, uint index) public view returns (uint) {\n    require(index < ERC721.balanceOf(owner), \"Index out of bounds\");\n    return _ownedTokens[owner][index];\n  }\n\n  function getOwnedNfts() public view returns (NFTItem[] memory) {\n    uint ownedItemsCount = ERC721.balanceOf(msg.sender);\n    NFTItem[] memory items = new NFTItem[](ownedItemsCount);\n\n    for (uint i = 0; i < ownedItemsCount; i++) {\n      uint tokeId = tokenOfOwnerByIndex(msg.sender, i);\n      NFTItem storage item = _idToNftItem[tokeId];\n      items[i] = item;\n    }\n\n    return items;\n  }\n\n  function getAllNfts() public view returns (NFTItem[] memory) {\n    NFTItem[] memory items = new NFTItem[](_allNfts.length);\n\n    for (uint i = 0; i < _allNfts.length; i++) {\n      NFTItem storage item = _idToNftItem[_allNfts[i]];\n      items[i] = item;\n    }\n\n    return items;\n  }\n\n  function Time_call() public view returns (uint256){\n    return block.timestamp;\n  }\n\n\n  function burnToken(uint tokenId) public {\n    _burn(tokenId);\n  }\n\n  function transferUSDT(address from, address _to, uint256 _amount) internal returns (bool) {\n    return usdtToken.transferFrom(from, _to, _amount);\n  }\n\n  function mintToken(string memory tokenURI, uint256 price, uint startDate, uint endDate, uint depositTerm, uint depositInterest, string memory interest, uint payOff) public payable returns (uint) {\n    require(keccak256(abi.encodePacked(interest)) == keccak256(abi.encodePacked(\"monthly\")) || keccak256(abi.encodePacked(interest)) == keccak256(abi.encodePacked(\"compound\")), \"Invalid interest\");\n    // require(!tokenURIExists(tokenURI), \"Token URI already exists\");\n    // require(msg.value == listingPrice, \"Price must be qual to listing price\");\n    _tokenIds.increment();\n    _listedItems.increment();\n\n    uint newTokenId = _tokenIds.current();\n    _safeMint(msg.sender, newTokenId);\n    _setTokenURI(newTokenId, tokenURI);\n    _createNftItem(newTokenId, price, startDate, endDate, depositTerm, depositInterest, interest, payOff);\n    _usedTokenURIs[tokenURI] = true;\n\n    return newTokenId;\n  }\n\n\n  function _createNftItem(uint tokenId, uint256 price, uint startDate, uint endDate, uint depositTerm, uint depositInterest, string memory interest, uint payOff) private {\n    require(price > 100, \"Price must be at least 100 USDT\");\n\n    uint256 initialAmount = price;\n    uint256 annualInterestRate = (depositInterest * BASE) / 12 / 100;\n\n    uint256 returnAmount;\n\n    if (keccak256(abi.encodePacked(interest)) == keccak256(abi.encodePacked(\"monthly\"))) {\n      returnAmount = initialAmount * (1 + annualInterestRate) - initialAmount;\n    } else {\n      uint256 rate = BASE + annualInterestRate;\n      uint256 finalAmount = 1;\n      for (uint256 i = 0; i < depositTerm; i++){\n        finalAmount *= rate;\n        if (i > 1) {\n          finalAmount = finalAmount / BASE;\n        }\n      }\n      emit LogRes(finalAmount);\n      // uint256 a = SafeMath.mul(initialAmount, ((1 + annualInterestRate) ** depositTerm));\n      returnAmount = (initialAmount * finalAmount) - (initialAmount * (BASE ** 2));\n      returnAmount = returnAmount/BASE;\n      emit LogRes(returnAmount);\n      // returnAmount = (initialAmount * ((((BASE + annualInterestRate)) / BASE) ** (depositTerm * BASE)));\n      // uint b = (initialAmount * (BASE + annualInterestRate)) / BASE;\n      // emit LogRes(b);\n      // // uint p = (b ** (depositTerm * BASE)) / BASE;\n      // // emit LogRes(p);\n      // returnAmount = 0;\n    }\n\n    // require(returnAmount > 0, \"Nft creation error\");\n\n    uint decimalsPrice = price * BASE;\n    require(transferUSDT(msg.sender, address(contractOwner), decimalsPrice), \"Tranaction error\");\n\n\n    _idToNftItem[tokenId] = NFTItem(\n      tokenId,\n      price,\n      msg.sender,\n      startDate,\n      endDate,\n      depositTerm,\n      depositInterest,\n      interest,\n      0,\n      payOff,\n      1,\n      returnAmount,\n      true\n    );\n\n    emit NFTItemCreated(\n      tokenId,\n      price,\n      msg.sender,\n      startDate,\n      endDate,\n      depositTerm,\n      depositInterest,\n      interest,\n      0,\n      payOff,\n      1,\n      returnAmount / BASE\n    );\n  }\n\n  function _beforeTokenTransfer(address from, address to, uint tokenId, uint256 batchSize) internal virtual override {\n    if (from == address(0) && to != from) {\n      super._beforeTokenTransfer(from, to, tokenId, batchSize);\n      _addTokenToAllTokensEnumeration(tokenId);\n      _addTokenToOwnerEnumeration(to, tokenId);\n    } \n  }\n\n  function _addTokenToAllTokensEnumeration(uint tokenId) private {\n    _idToNftIndex[tokenId] = _allNfts.length;\n    _allNfts.push(tokenId);\n  }\n\n  function _addTokenToOwnerEnumeration(address to, uint tokenId) private {\n    uint lenght = ERC721.balanceOf(to);\n    _ownedTokens[to][lenght] = tokenId;\n    _idToOwnedIndex[tokenId] = lenght;\n  }\n\n  function _removeTokenFromOwnerEnumeration(address from, uint tokenId) private {\n    uint lastTokenIndex = ERC721.balanceOf(from) - 1;\n    uint tokenIndex = _idToOwnedIndex[tokenId];\n\n    if (tokenIndex != lastTokenIndex) {\n      uint lastTokenId = _ownedTokens[from][lastTokenIndex];\n      _ownedTokens[from][tokenId] = lastTokenId;\n      _idToOwnedIndex[lastTokenId] = tokenIndex;\n    }\n\n    delete _idToOwnedIndex[tokenId];\n    delete _ownedTokens[from][lastTokenIndex];\n  }\n\n  function _removeTokenFromAllTokensEnumeration(uint tokenId) private {\n    uint lastTokenIndex = _allNfts.length - 1;\n    uint tokenIndex = _idToNftIndex[tokenId];\n    uint lastTokenId = _allNfts[lastTokenIndex];\n\n    _allNfts[tokenIndex] = lastTokenId;\n    _idToNftIndex[lastTokenId] = tokenIndex;\n\n    delete _idToNftIndex[tokenId];\n    _allNfts.pop();\n  }\n\n  function deposit(uint amount) public payable {\n    require(msg.sender == contractOwner, \"Only owner can deposit founds\");\n    uint decimalsPrice = amount * BASE;\n    transferUSDT(msg.sender, address(this), decimalsPrice);\n    emit Deposit(msg.sender, msg.value);\n  }\n\n  function withdraw(uint256 _amount) public payable {\n    require(msg.sender == contractOwner, \"Only owner can withdraw founds\");\n    uint decimalsPrice = _amount * BASE;\n    transferUSDT(address(this), msg.sender, decimalsPrice);\n    emit Withdrawal(msg.sender, msg.value);\n  }\n\n  function claim(uint tokenId) public payable {\n    NFTItem storage item = _idToNftItem[tokenId];\n    require(item.creator == msg.sender, \"You are not owner of this NFT\");\n    require(item.rewardsClaimed < item.depositTerm, \"You calimed all reward\");\n    require(item.rewardsAvailable > 0, \"No available rewards\");\n\n    require(transferUSDT(address(this), msg.sender, item.rewardProfit * item.rewardsAvailable), \"Transaction error\");\n\n    _idToNftItem[tokenId].rewardsClaimed = item.rewardsClaimed + 1;\n    _idToNftItem[tokenId].rewardsAvailable = 0;\n  }\n\n  function getUSDTBalance() public view returns (uint256) {\n    return usdtToken.balanceOf(address(this)) / BASE;\n  }\n}",
  "sourcePath": "/Users/sluzbabezopasnosti/Documents/GitHub/StagePoint/frontend/contracts/SPFNft.sol",
  "compiler": {
    "name": "solc",
    "version": "0.8.13+commit.abaa5c0e.Emscripten.clang"
  },
  "schemaVersion": "3.4.16",
  "updatedAt": "2024-06-01T19:01:25.789Z",
  "networkType": "ethereum",
  "devdoc": {
    "kind": "dev",
    "methods": {
      "approve(address,uint256)": {
        "details": "See {IERC721-approve}."
      },
      "balanceOf(address)": {
        "details": "See {IERC721-balanceOf}."
      },
      "getApproved(uint256)": {
        "details": "See {IERC721-getApproved}."
      },
      "isApprovedForAll(address,address)": {
        "details": "See {IERC721-isApprovedForAll}."
      },
      "name()": {
        "details": "See {IERC721Metadata-name}."
      },
      "owner()": {
        "details": "Returns the address of the current owner."
      },
      "ownerOf(uint256)": {
        "details": "See {IERC721-ownerOf}."
      },
      "renounceOwnership()": {
        "details": "Leaves the contract without owner. It will not be possible to call `onlyOwner` functions. Can only be called by the current owner. NOTE: Renouncing ownership will leave the contract without an owner, thereby disabling any functionality that is only available to the owner."
      },
      "safeTransferFrom(address,address,uint256)": {
        "details": "See {IERC721-safeTransferFrom}."
      },
      "safeTransferFrom(address,address,uint256,bytes)": {
        "details": "See {IERC721-safeTransferFrom}."
      },
      "setApprovalForAll(address,bool)": {
        "details": "See {IERC721-setApprovalForAll}."
      },
      "supportsInterface(bytes4)": {
        "details": "See {IERC165-supportsInterface}"
      },
      "symbol()": {
        "details": "See {IERC721Metadata-symbol}."
      },
      "tokenURI(uint256)": {
        "details": "See {IERC721Metadata-tokenURI}."
      },
      "transferFrom(address,address,uint256)": {
        "details": "See {IERC721-transferFrom}."
      },
      "transferOwnership(address)": {
        "details": "Transfers ownership of the contract to a new account (`newOwner`). Can only be called by the current owner."
      }
    },
    "version": 1
  },
  "userdoc": {
    "kind": "user",
    "methods": {},
    "version": 1
  }
}