{
  "_format": "hh-sol-artifact-1",
  "contractName": "SPFNft",
  "sourceName": "contracts/SPFNft.sol",
  "abi": [
    {
      "inputs": [],
      "stateMutability": "nonpayable",
      "type": "constructor"
    },
    {
      "anonymous": false,
      "inputs": [
        {
          "indexed": true,
          "internalType": "address",
          "name": "owner",
          "type": "address"
        },
        {
          "indexed": true,
          "internalType": "address",
          "name": "approved",
          "type": "address"
        },
        {
          "indexed": true,
          "internalType": "uint256",
          "name": "tokenId",
          "type": "uint256"
        }
      ],
      "name": "Approval",
      "type": "event"
    },
    {
      "anonymous": false,
      "inputs": [
        {
          "indexed": true,
          "internalType": "address",
          "name": "owner",
          "type": "address"
        },
        {
          "indexed": true,
          "internalType": "address",
          "name": "operator",
          "type": "address"
        },
        {
          "indexed": false,
          "internalType": "bool",
          "name": "approved",
          "type": "bool"
        }
      ],
      "name": "ApprovalForAll",
      "type": "event"
    },
    {
      "anonymous": false,
      "inputs": [
        {
          "indexed": false,
          "internalType": "uint256",
          "name": "tokenId",
          "type": "uint256"
        },
        {
          "indexed": false,
          "internalType": "uint256",
          "name": "price",
          "type": "uint256"
        },
        {
          "indexed": false,
          "internalType": "address",
          "name": "creator",
          "type": "address"
        },
        {
          "indexed": false,
          "internalType": "uint256",
          "name": "startDate",
          "type": "uint256"
        },
        {
          "indexed": false,
          "internalType": "uint256",
          "name": "endDate",
          "type": "uint256"
        },
        {
          "indexed": false,
          "internalType": "uint256",
          "name": "depositTerm",
          "type": "uint256"
        },
        {
          "indexed": false,
          "internalType": "uint256",
          "name": "depositInterest",
          "type": "uint256"
        },
        {
          "indexed": false,
          "internalType": "string",
          "name": "interest",
          "type": "string"
        },
        {
          "indexed": false,
          "internalType": "uint256",
          "name": "rewardsClaimed",
          "type": "uint256"
        },
        {
          "indexed": false,
          "internalType": "uint256",
          "name": "payOff",
          "type": "uint256"
        },
        {
          "indexed": false,
          "internalType": "uint256",
          "name": "rewardsAvailable",
          "type": "uint256"
        },
        {
          "indexed": false,
          "internalType": "uint256",
          "name": "rewardProfit",
          "type": "uint256"
        }
      ],
      "name": "NFTItemCreated",
      "type": "event"
    },
    {
      "anonymous": false,
      "inputs": [
        {
          "indexed": true,
          "internalType": "address",
          "name": "previousOwner",
          "type": "address"
        },
        {
          "indexed": true,
          "internalType": "address",
          "name": "newOwner",
          "type": "address"
        }
      ],
      "name": "OwnershipTransferred",
      "type": "event"
    },
    {
      "anonymous": false,
      "inputs": [
        {
          "indexed": false,
          "internalType": "uint256",
          "name": "amount",
          "type": "uint256"
        },
        {
          "indexed": false,
          "internalType": "string",
          "name": "action",
          "type": "string"
        },
        {
          "indexed": false,
          "internalType": "uint256",
          "name": "date",
          "type": "uint256"
        },
        {
          "indexed": false,
          "internalType": "address",
          "name": "user",
          "type": "address"
        },
        {
          "indexed": false,
          "internalType": "uint256",
          "name": "tokenId",
          "type": "uint256"
        }
      ],
      "name": "Transaction",
      "type": "event"
    },
    {
      "anonymous": false,
      "inputs": [
        {
          "indexed": true,
          "internalType": "address",
          "name": "from",
          "type": "address"
        },
        {
          "indexed": true,
          "internalType": "address",
          "name": "to",
          "type": "address"
        },
        {
          "indexed": true,
          "internalType": "uint256",
          "name": "tokenId",
          "type": "uint256"
        }
      ],
      "name": "Transfer",
      "type": "event"
    },
    {
      "inputs": [],
      "name": "Time_call",
      "outputs": [
        {
          "internalType": "uint256",
          "name": "",
          "type": "uint256"
        }
      ],
      "stateMutability": "view",
      "type": "function"
    },
    {
      "inputs": [
        {
          "internalType": "address",
          "name": "to",
          "type": "address"
        },
        {
          "internalType": "uint256",
          "name": "tokenId",
          "type": "uint256"
        }
      ],
      "name": "approve",
      "outputs": [],
      "stateMutability": "nonpayable",
      "type": "function"
    },
    {
      "inputs": [
        {
          "internalType": "address",
          "name": "owner",
          "type": "address"
        }
      ],
      "name": "balanceOf",
      "outputs": [
        {
          "internalType": "uint256",
          "name": "",
          "type": "uint256"
        }
      ],
      "stateMutability": "view",
      "type": "function"
    },
    {
      "inputs": [
        {
          "internalType": "uint256",
          "name": "tokenId",
          "type": "uint256"
        }
      ],
      "name": "burnToken",
      "outputs": [],
      "stateMutability": "nonpayable",
      "type": "function"
    },
    {
      "inputs": [
        {
          "internalType": "uint256",
          "name": "tokenId",
          "type": "uint256"
        }
      ],
      "name": "claim",
      "outputs": [],
      "stateMutability": "payable",
      "type": "function"
    },
    {
      "inputs": [
        {
          "internalType": "uint256",
          "name": "amount",
          "type": "uint256"
        }
      ],
      "name": "deposit",
      "outputs": [],
      "stateMutability": "payable",
      "type": "function"
    },
    {
      "inputs": [],
      "name": "getAllNfts",
      "outputs": [
        {
          "components": [
            {
              "internalType": "uint256",
              "name": "tokenId",
              "type": "uint256"
            },
            {
              "internalType": "uint256",
              "name": "price",
              "type": "uint256"
            },
            {
              "internalType": "address",
              "name": "creator",
              "type": "address"
            },
            {
              "internalType": "uint256",
              "name": "startDate",
              "type": "uint256"
            },
            {
              "internalType": "uint256",
              "name": "endDate",
              "type": "uint256"
            },
            {
              "internalType": "uint256",
              "name": "depositTerm",
              "type": "uint256"
            },
            {
              "internalType": "uint256",
              "name": "depositInterest",
              "type": "uint256"
            },
            {
              "internalType": "string",
              "name": "interest",
              "type": "string"
            },
            {
              "internalType": "uint256",
              "name": "rewardsClaimed",
              "type": "uint256"
            },
            {
              "internalType": "uint256",
              "name": "payOff",
              "type": "uint256"
            },
            {
              "internalType": "uint256",
              "name": "rewardsAvailable",
              "type": "uint256"
            },
            {
              "internalType": "uint256",
              "name": "rewardProfit",
              "type": "uint256"
            },
            {
              "internalType": "bool",
              "name": "isListed",
              "type": "bool"
            }
          ],
          "internalType": "struct SPFNft.NFTItem[]",
          "name": "",
          "type": "tuple[]"
        }
      ],
      "stateMutability": "view",
      "type": "function"
    },
    {
      "inputs": [
        {
          "internalType": "uint256",
          "name": "tokenId",
          "type": "uint256"
        }
      ],
      "name": "getApproved",
      "outputs": [
        {
          "internalType": "address",
          "name": "",
          "type": "address"
        }
      ],
      "stateMutability": "view",
      "type": "function"
    },
    {
      "inputs": [
        {
          "internalType": "uint256",
          "name": "tokenId",
          "type": "uint256"
        }
      ],
      "name": "getNftItem",
      "outputs": [
        {
          "components": [
            {
              "internalType": "uint256",
              "name": "tokenId",
              "type": "uint256"
            },
            {
              "internalType": "uint256",
              "name": "price",
              "type": "uint256"
            },
            {
              "internalType": "address",
              "name": "creator",
              "type": "address"
            },
            {
              "internalType": "uint256",
              "name": "startDate",
              "type": "uint256"
            },
            {
              "internalType": "uint256",
              "name": "endDate",
              "type": "uint256"
            },
            {
              "internalType": "uint256",
              "name": "depositTerm",
              "type": "uint256"
            },
            {
              "internalType": "uint256",
              "name": "depositInterest",
              "type": "uint256"
            },
            {
              "internalType": "string",
              "name": "interest",
              "type": "string"
            },
            {
              "internalType": "uint256",
              "name": "rewardsClaimed",
              "type": "uint256"
            },
            {
              "internalType": "uint256",
              "name": "payOff",
              "type": "uint256"
            },
            {
              "internalType": "uint256",
              "name": "rewardsAvailable",
              "type": "uint256"
            },
            {
              "internalType": "uint256",
              "name": "rewardProfit",
              "type": "uint256"
            },
            {
              "internalType": "bool",
              "name": "isListed",
              "type": "bool"
            }
          ],
          "internalType": "struct SPFNft.NFTItem",
          "name": "",
          "type": "tuple"
        }
      ],
      "stateMutability": "view",
      "type": "function"
    },
    {
      "inputs": [],
      "name": "getOwnedNfts",
      "outputs": [
        {
          "components": [
            {
              "internalType": "uint256",
              "name": "tokenId",
              "type": "uint256"
            },
            {
              "internalType": "uint256",
              "name": "price",
              "type": "uint256"
            },
            {
              "internalType": "address",
              "name": "creator",
              "type": "address"
            },
            {
              "internalType": "uint256",
              "name": "startDate",
              "type": "uint256"
            },
            {
              "internalType": "uint256",
              "name": "endDate",
              "type": "uint256"
            },
            {
              "internalType": "uint256",
              "name": "depositTerm",
              "type": "uint256"
            },
            {
              "internalType": "uint256",
              "name": "depositInterest",
              "type": "uint256"
            },
            {
              "internalType": "string",
              "name": "interest",
              "type": "string"
            },
            {
              "internalType": "uint256",
              "name": "rewardsClaimed",
              "type": "uint256"
            },
            {
              "internalType": "uint256",
              "name": "payOff",
              "type": "uint256"
            },
            {
              "internalType": "uint256",
              "name": "rewardsAvailable",
              "type": "uint256"
            },
            {
              "internalType": "uint256",
              "name": "rewardProfit",
              "type": "uint256"
            },
            {
              "internalType": "bool",
              "name": "isListed",
              "type": "bool"
            }
          ],
          "internalType": "struct SPFNft.NFTItem[]",
          "name": "",
          "type": "tuple[]"
        }
      ],
      "stateMutability": "view",
      "type": "function"
    },
    {
      "inputs": [],
      "name": "getUSDTBalance",
      "outputs": [
        {
          "internalType": "uint256",
          "name": "",
          "type": "uint256"
        }
      ],
      "stateMutability": "view",
      "type": "function"
    },
    {
      "inputs": [
        {
          "internalType": "address",
          "name": "owner",
          "type": "address"
        },
        {
          "internalType": "address",
          "name": "operator",
          "type": "address"
        }
      ],
      "name": "isApprovedForAll",
      "outputs": [
        {
          "internalType": "bool",
          "name": "",
          "type": "bool"
        }
      ],
      "stateMutability": "view",
      "type": "function"
    },
    {
      "inputs": [],
      "name": "listedItemsCount",
      "outputs": [
        {
          "internalType": "uint256",
          "name": "",
          "type": "uint256"
        }
      ],
      "stateMutability": "view",
      "type": "function"
    },
    {
      "inputs": [],
      "name": "listingPrice",
      "outputs": [
        {
          "internalType": "uint256",
          "name": "",
          "type": "uint256"
        }
      ],
      "stateMutability": "view",
      "type": "function"
    },
    {
      "inputs": [
        {
          "internalType": "string",
          "name": "tokenURI",
          "type": "string"
        },
        {
          "internalType": "uint256",
          "name": "price",
          "type": "uint256"
        },
        {
          "internalType": "uint256",
          "name": "startDate",
          "type": "uint256"
        },
        {
          "internalType": "uint256",
          "name": "endDate",
          "type": "uint256"
        },
        {
          "internalType": "uint256",
          "name": "depositTerm",
          "type": "uint256"
        },
        {
          "internalType": "uint256",
          "name": "depositInterest",
          "type": "uint256"
        },
        {
          "internalType": "string",
          "name": "interest",
          "type": "string"
        },
        {
          "internalType": "uint256",
          "name": "payOff",
          "type": "uint256"
        }
      ],
      "name": "mintToken",
      "outputs": [
        {
          "internalType": "uint256",
          "name": "",
          "type": "uint256"
        }
      ],
      "stateMutability": "payable",
      "type": "function"
    },
    {
      "inputs": [],
      "name": "name",
      "outputs": [
        {
          "internalType": "string",
          "name": "",
          "type": "string"
        }
      ],
      "stateMutability": "view",
      "type": "function"
    },
    {
      "inputs": [],
      "name": "owner",
      "outputs": [
        {
          "internalType": "address",
          "name": "",
          "type": "address"
        }
      ],
      "stateMutability": "view",
      "type": "function"
    },
    {
      "inputs": [
        {
          "internalType": "uint256",
          "name": "tokenId",
          "type": "uint256"
        }
      ],
      "name": "ownerOf",
      "outputs": [
        {
          "internalType": "address",
          "name": "",
          "type": "address"
        }
      ],
      "stateMutability": "view",
      "type": "function"
    },
    {
      "inputs": [],
      "name": "renounceOwnership",
      "outputs": [],
      "stateMutability": "nonpayable",
      "type": "function"
    },
    {
      "inputs": [
        {
          "internalType": "address",
          "name": "from",
          "type": "address"
        },
        {
          "internalType": "address",
          "name": "to",
          "type": "address"
        },
        {
          "internalType": "uint256",
          "name": "tokenId",
          "type": "uint256"
        }
      ],
      "name": "safeTransferFrom",
      "outputs": [],
      "stateMutability": "nonpayable",
      "type": "function"
    },
    {
      "inputs": [
        {
          "internalType": "address",
          "name": "from",
          "type": "address"
        },
        {
          "internalType": "address",
          "name": "to",
          "type": "address"
        },
        {
          "internalType": "uint256",
          "name": "tokenId",
          "type": "uint256"
        },
        {
          "internalType": "bytes",
          "name": "_data",
          "type": "bytes"
        }
      ],
      "name": "safeTransferFrom",
      "outputs": [],
      "stateMutability": "nonpayable",
      "type": "function"
    },
    {
      "inputs": [
        {
          "internalType": "address",
          "name": "operator",
          "type": "address"
        },
        {
          "internalType": "bool",
          "name": "approved",
          "type": "bool"
        }
      ],
      "name": "setApprovalForAll",
      "outputs": [],
      "stateMutability": "nonpayable",
      "type": "function"
    },
    {
      "inputs": [
        {
          "internalType": "bytes4",
          "name": "interfaceId",
          "type": "bytes4"
        }
      ],
      "name": "supportsInterface",
      "outputs": [
        {
          "internalType": "bool",
          "name": "",
          "type": "bool"
        }
      ],
      "stateMutability": "view",
      "type": "function"
    },
    {
      "inputs": [],
      "name": "symbol",
      "outputs": [
        {
          "internalType": "string",
          "name": "",
          "type": "string"
        }
      ],
      "stateMutability": "view",
      "type": "function"
    },
    {
      "inputs": [
        {
          "internalType": "uint256",
          "name": "index",
          "type": "uint256"
        }
      ],
      "name": "tokenByIndex",
      "outputs": [
        {
          "internalType": "uint256",
          "name": "",
          "type": "uint256"
        }
      ],
      "stateMutability": "view",
      "type": "function"
    },
    {
      "inputs": [
        {
          "internalType": "address",
          "name": "owner",
          "type": "address"
        },
        {
          "internalType": "uint256",
          "name": "index",
          "type": "uint256"
        }
      ],
      "name": "tokenOfOwnerByIndex",
      "outputs": [
        {
          "internalType": "uint256",
          "name": "",
          "type": "uint256"
        }
      ],
      "stateMutability": "view",
      "type": "function"
    },
    {
      "inputs": [
        {
          "internalType": "uint256",
          "name": "tokenId",
          "type": "uint256"
        }
      ],
      "name": "tokenURI",
      "outputs": [
        {
          "internalType": "string",
          "name": "",
          "type": "string"
        }
      ],
      "stateMutability": "view",
      "type": "function"
    },
    {
      "inputs": [
        {
          "internalType": "string",
          "name": "tokenURI",
          "type": "string"
        }
      ],
      "name": "tokenURIExists",
      "outputs": [
        {
          "internalType": "bool",
          "name": "",
          "type": "bool"
        }
      ],
      "stateMutability": "view",
      "type": "function"
    },
    {
      "inputs": [],
      "name": "totalSupply",
      "outputs": [
        {
          "internalType": "uint256",
          "name": "",
          "type": "uint256"
        }
      ],
      "stateMutability": "view",
      "type": "function"
    },
    {
      "inputs": [
        {
          "internalType": "address",
          "name": "from",
          "type": "address"
        },
        {
          "internalType": "address",
          "name": "to",
          "type": "address"
        },
        {
          "internalType": "uint256",
          "name": "tokenId",
          "type": "uint256"
        }
      ],
      "name": "transferFrom",
      "outputs": [],
      "stateMutability": "nonpayable",
      "type": "function"
    },
    {
      "inputs": [
        {
          "internalType": "address",
          "name": "newOwner",
          "type": "address"
        }
      ],
      "name": "transferOwnership",
      "outputs": [],
      "stateMutability": "nonpayable",
      "type": "function"
    },
    {
      "inputs": [],
      "name": "usdtToken",
      "outputs": [
        {
          "internalType": "contract IERC20",
          "name": "",
          "type": "address"
        }
      ],
      "stateMutability": "view",
      "type": "function"
    },
    {
      "inputs": [
        {
          "internalType": "uint256",
          "name": "_amount",
          "type": "uint256"
        }
      ],
      "name": "withdraw",
      "outputs": [],
      "stateMutability": "payable",
      "type": "function"
    }
  ],
  "bytecode": "0x6080604052600880546001600160a01b031916739075770435462820c6a2857863bed7d7f4fb548e17905560006009553480156200003c57600080fd5b506040518060400160405280600d81526020016c14dd1859d9541bda5b9d13999d609a1b8152506040518060400160405280600681526020016514d41193919560d21b8152508160009081620000939190620001d4565b506001620000a28282620001d4565b505050620000bf620000b9620000d760201b60201c565b620000db565b600a80546001600160a01b03191633179055620002a0565b3390565b600780546001600160a01b038381166001600160a01b0319831681179093556040519116919082907f8be0079c531659141344cd1fd0a4f28419497f9722a3daafe3b4186f6b6457e090600090a35050565b634e487b7160e01b600052604160045260246000fd5b600181811c908216806200015857607f821691505b6020821081036200017957634e487b7160e01b600052602260045260246000fd5b50919050565b601f821115620001cf576000816000526020600020601f850160051c81016020861015620001aa5750805b601f850160051c820191505b81811015620001cb57828155600101620001b6565b5050505b505050565b81516001600160401b03811115620001f057620001f06200012d565b620002088162000201845462000143565b846200017f565b602080601f831160018114620002405760008415620002275750858301515b600019600386901b1c1916600185901b178555620001cb565b600085815260208120601f198616915b82811015620002715788860151825594840194600190910190840162000250565b5085821015620002905787850151600019600388901b60f8161c191681555b5050505050600190811b01905550565b61353a80620002b06000396000f3fe6080604052600436106101ee5760003560e01c806370cbcb431161010d578063a22cb465116100a0578063c78f19f91161006f578063c78f19f914610543578063c87b56dd14610559578063ccb4918d14610579578063e985e9c51461058e578063f2fde38b146105d757600080fd5b8063a22cb465146104d0578063a98ad46c146104f0578063b6b55f2514610510578063b88d4fde1461052357600080fd5b80638bc82885116100dc5780638bc82885146104755780638da5cb5b1461048857806395d89b41146104a65780639785fac8146104bb57600080fd5b806370cbcb4314610409578063715018a61461042b578063732e8d73146104405780637b47ec1a1461045557600080fd5b80632f745c59116101855780634f6ccce7116101545780634f6ccce71461037c5780636352211e1461039c5780636f1a0af5146103bc57806370a08231146103e957600080fd5b80632f745c5914610309578063379607f51461032957806342842e0e1461033c57806343d32ae71461035c57600080fd5b8063095ea7b3116101c1578063095ea7b31461029f57806318160ddd146102c157806323b872dd146102d65780632e1a7d4d146102f657600080fd5b806301ffc9a7146101f3578063032610301461022857806306fdde0314610245578063081812fc14610267575b600080fd5b3480156101ff57600080fd5b5061021361020e366004612b05565b6105f7565b60405190151581526020015b60405180910390f35b34801561023457600080fd5b50425b60405190815260200161021f565b34801561025157600080fd5b5061025a610649565b60405161021f9190612b72565b34801561027357600080fd5b50610287610282366004612b85565b6106db565b6040516001600160a01b03909116815260200161021f565b3480156102ab57600080fd5b506102bf6102ba366004612bba565b610768565b005b3480156102cd57600080fd5b50600d54610237565b3480156102e257600080fd5b506102bf6102f1366004612be4565b61087d565b6102bf610304366004612b85565b6108ae565b34801561031557600080fd5b50610237610324366004612bba565b610993565b6102bf610337366004612b85565b610a0b565b34801561034857600080fd5b506102bf610357366004612be4565b610c04565b34801561036857600080fd5b50610213610377366004612ccc565b610c1f565b34801561038857600080fd5b50610237610397366004612b85565b610c4f565b3480156103a857600080fd5b506102876103b7366004612b85565b610cc3565b3480156103c857600080fd5b506103dc6103d7366004612b85565b610d3a565b60405161021f9190612db3565b3480156103f557600080fd5b50610237610404366004612dc6565b610e82565b34801561041557600080fd5b5061041e610f09565b60405161021f9190612de1565b34801561043757600080fd5b506102bf6110f6565b34801561044c57600080fd5b5061041e61115c565b34801561046157600080fd5b506102bf610470366004612b85565b61136a565b610237610483366004612e45565b611376565b34801561049457600080fd5b506007546001600160a01b0316610287565b3480156104b257600080fd5b5061025a61154a565b3480156104c757600080fd5b50610237611559565b3480156104dc57600080fd5b506102bf6104eb366004612ef1565b6115e2565b3480156104fc57600080fd5b50600854610287906001600160a01b031681565b6102bf61051e366004612b85565b6115f1565b34801561052f57600080fd5b506102bf61053e366004612f28565b6116cc565b34801561054f57600080fd5b5061023760095481565b34801561056557600080fd5b5061025a610574366004612b85565b611704565b34801561058557600080fd5b5061023761187a565b34801561059a57600080fd5b506102136105a9366004612fa4565b6001600160a01b03918216600090815260056020908152604080832093909416825291909152205460ff1690565b3480156105e357600080fd5b506102bf6105f2366004612dc6565b611885565b60006001600160e01b031982166380ac58cd60e01b148061062857506001600160e01b03198216635b5e139f60e01b145b8061064357506301ffc9a760e01b6001600160e01b03198316145b92915050565b60606000805461065890612fd7565b80601f016020809104026020016040519081016040528092919081815260200182805461068490612fd7565b80156106d15780601f106106a6576101008083540402835291602001916106d1565b820191906000526020600020905b8154815290600101906020018083116106b457829003601f168201915b5050505050905090565b60006106e68261194d565b61074c5760405162461bcd60e51b815260206004820152602c60248201527f4552433732313a20617070726f76656420717565727920666f72206e6f6e657860448201526b34b9ba32b73a103a37b5b2b760a11b60648201526084015b60405180910390fd5b506000908152600460205260409020546001600160a01b031690565b600061077382610cc3565b9050806001600160a01b0316836001600160a01b0316036107e05760405162461bcd60e51b815260206004820152602160248201527f4552433732313a20617070726f76616c20746f2063757272656e74206f776e656044820152603960f91b6064820152608401610743565b336001600160a01b03821614806107fc57506107fc81336105a9565b61086e5760405162461bcd60e51b815260206004820152603860248201527f4552433732313a20617070726f76652063616c6c6572206973206e6f74206f7760448201527f6e6572206e6f7220617070726f76656420666f7220616c6c00000000000000006064820152608401610743565b610878838361196a565b505050565b61088733826119d8565b6108a35760405162461bcd60e51b81526004016107439061300b565b610878838383611abe565b600a546001600160a01b031633146109085760405162461bcd60e51b815260206004820152601e60248201527f4f6e6c79206f776e65722063616e20776974686472617720666f756e647300006044820152606401610743565b60006109166006600a613156565b6109209083613162565b905061092d303383611c65565b506040805183815260a06020820181905260119082015270436f6e747261637420776974686472617760781b60c082015242918101829052336060820152600060808201526000805160206134e58339815191529060e0015b60405180910390a1505050565b600061099e83610e82565b82106109e25760405162461bcd60e51b8152602060048201526013602482015272496e646578206f7574206f6620626f756e647360681b6044820152606401610743565b506001600160a01b03919091166000908152601060209081526040808320938352929052205490565b6000818152600f6020526040902060028101546001600160a01b03163314610a755760405162461bcd60e51b815260206004820152601d60248201527f596f7520617265206e6f74206f776e6572206f662074686973204e46540000006044820152606401610743565b8060050154816008015410610ac55760405162461bcd60e51b8152602060048201526016602482015275165bdd4818d85b1a5b595908185b1b081c995dd85c9960521b6044820152606401610743565b600081600a015411610b105760405162461bcd60e51b81526020600482015260146024820152734e6f20617661696c61626c65207265776172647360601b6044820152606401610743565b600081600a015482600b0154610b269190613162565b9050610b33303383611c65565b610b735760405162461bcd60e51b81526020600482015260116024820152702a3930b739b0b1ba34b7b71032b93937b960791b6044820152606401610743565b6008820154610b83906001613179565b6000848152600f602052604081206008810192909255600a909101819055426040805184815260a060208201819052600c908201526b52657761726420636c61696d60a01b60c0820152908101829052336060820152608081018690529091506000805160206134e58339815191529060e00160405180910390a150505050565b610878838383604051806020016040528060008152506116cc565b6000600e82604051610c31919061318c565b9081526040519081900360200190205460ff16151560011492915050565b6000610c5a600d5490565b8210610c9e5760405162461bcd60e51b8152602060048201526013602482015272496e646578206f7574206f6620626f756e647360681b6044820152606401610743565b600d8281548110610cb157610cb16131a8565b90600052602060002001549050919050565b6000818152600260205260408120546001600160a01b0316806106435760405162461bcd60e51b815260206004820152602960248201527f4552433732313a206f776e657220717565727920666f72206e6f6e657869737460448201526832b73a103a37b5b2b760b91b6064820152608401610743565b610d42612a2e565b6000828152600f602090815260409182902082516101a0810184528154815260018201549281019290925260028101546001600160a01b0316928201929092526003820154606082015260048201546080820152600582015460a0820152600682015460c082015260078201805491929160e084019190610dc290612fd7565b80601f0160208091040260200160405190810160405280929190818152602001828054610dee90612fd7565b8015610e3b5780601f10610e1057610100808354040283529160200191610e3b565b820191906000526020600020905b815481529060010190602001808311610e1e57829003601f168201915b50505091835250506008820154602082015260098201546040820152600a8201546060820152600b8201546080820152600c9091015460ff16151560a09091015292915050565b60006001600160a01b038216610eed5760405162461bcd60e51b815260206004820152602a60248201527f4552433732313a2062616c616e636520717565727920666f7220746865207a65604482015269726f206164647265737360b01b6064820152608401610743565b506001600160a01b031660009081526003602052604090205490565b60606000610f1633610e82565b905060008167ffffffffffffffff811115610f3357610f33612c20565b604051908082528060200260200182016040528015610f6c57816020015b610f59612a2e565b815260200190600190039081610f515790505b50905060005b828110156110ef576000610f863383610993565b6000818152600f602090815260409182902082516101a0810184528154815260018201549281019290925260028101546001600160a01b0316928201929092526003820154606082015260048201546080820152600582015460a0820152600682015460c082015260078201805493945091929091839160e08401919061100c90612fd7565b80601f016020809104026020016040519081016040528092919081815260200182805461103890612fd7565b80156110855780601f1061105a57610100808354040283529160200191611085565b820191906000526020600020905b81548152906001019060200180831161106857829003601f168201915b50505091835250506008820154602082015260098201546040820152600a8201546060820152600b8201546080820152600c9091015460ff16151560a09091015284518590859081106110da576110da6131a8565b60209081029190910101525050600101610f72565b5092915050565b6007546001600160a01b031633146111505760405162461bcd60e51b815260206004820181905260248201527f4f776e61626c653a2063616c6c6572206973206e6f7420746865206f776e65726044820152606401610743565b61115a6000611ce5565b565b600d5460609060009067ffffffffffffffff81111561117d5761117d612c20565b6040519080825280602002602001820160405280156111b657816020015b6111a3612a2e565b81526020019060019003908161119b5790505b50905060005b600d54811015611364576000600f6000600d84815481106111df576111df6131a8565b90600052602060002001548152602001908152602001600020905080604051806101a001604052908160008201548152602001600182015481526020016002820160009054906101000a90046001600160a01b03166001600160a01b03166001600160a01b031681526020016003820154815260200160048201548152602001600582015481526020016006820154815260200160078201805461128290612fd7565b80601f01602080910402602001604051908101604052809291908181526020018280546112ae90612fd7565b80156112fb5780601f106112d0576101008083540402835291602001916112fb565b820191906000526020600020905b8154815290600101906020018083116112de57829003601f168201915b50505091835250506008820154602082015260098201546040820152600a8201546060820152600b8201546080820152600c9091015460ff16151560a0909101528351849084908110611350576113506131a8565b6020908102919091010152506001016111bc565b50919050565b61137381611d37565b50565b604051666d6f6e74686c7960c81b602082015260009060270160405160208183030381529060405280519060200120836040516020016113b6919061318c565b60405160208183030381529060405280519060200120148061142957506040516718dbdb5c1bdd5b9960c21b60208201526028016040516020818303038152906040528051906020012083604051602001611411919061318c565b60405160208183030381529060405280519060200120145b6114685760405162461bcd60e51b815260206004820152601060248201526f125b9d985b1a59081a5b9d195c995cdd60821b6044820152606401610743565b611476600c80546001019055565b611484600b80546001019055565b600061148f600c5490565b905061149b3382611d77565b6114a5818b611d91565b6114b5818a8a8a8a8a8a8a611e15565b604080518a815260a0602082018190526007908201526611195c1bdcda5d60ca1b60c0820152428183018190523360608301526080820184905291516000805160206134e58339815191529181900360e00190a16001600e8c60405161151b919061318c565b908152604051908190036020019020805491151560ff1990921691909117905550905098975050505050505050565b60606001805461065890612fd7565b60006115676006600a613156565b6008546040516370a0823160e01b81523060048201526001600160a01b03909116906370a0823190602401602060405180830381865afa1580156115af573d6000803e3d6000fd5b505050506040513d601f19601f820116820180604052508101906115d391906131be565b6115dd91906131ed565b905090565b6115ed3383836121f2565b5050565b600a546001600160a01b0316331461164b5760405162461bcd60e51b815260206004820152601d60248201527f4f6e6c79206f776e65722063616e206465706f73697420666f756e64730000006044820152606401610743565b60006116596006600a613156565b6116639083613162565b9050611670333083611c65565b506040805183815260a0602082018190526010908201526f10dbdb9d1c9858dd0819195c1bdcda5d60821b60c082015242918101829052336060820152600060808201526000805160206134e58339815191529060e001610986565b6116d633836119d8565b6116f25760405162461bcd60e51b81526004016107439061300b565b6116fe848484846122c0565b50505050565b606061170f8261194d565b6117755760405162461bcd60e51b815260206004820152603160248201527f45524337323155524953746f726167653a2055524920717565727920666f72206044820152703737b732bc34b9ba32b73a103a37b5b2b760791b6064820152608401610743565b6000828152600660205260408120805461178e90612fd7565b80601f01602080910402602001604051908101604052809291908181526020018280546117ba90612fd7565b80156118075780601f106117dc57610100808354040283529160200191611807565b820191906000526020600020905b8154815290600101906020018083116117ea57829003601f168201915b50505050509050600061182560408051602081019091526000815290565b90508051600003611837575092915050565b815115611869578082604051602001611851929190613201565b60405160208183030381529060405292505050919050565b611872846122f3565b949350505050565b60006115dd600b5490565b6007546001600160a01b031633146118df5760405162461bcd60e51b815260206004820181905260248201527f4f776e61626c653a2063616c6c6572206973206e6f7420746865206f776e65726044820152606401610743565b6001600160a01b0381166119445760405162461bcd60e51b815260206004820152602660248201527f4f776e61626c653a206e6577206f776e657220697320746865207a65726f206160448201526564647265737360d01b6064820152608401610743565b61137381611ce5565b6000908152600260205260409020546001600160a01b0316151590565b600081815260046020526040902080546001600160a01b0319166001600160a01b038416908117909155819061199f82610cc3565b6001600160a01b03167f8c5be1e5ebec7d5bd14f71427d1e84f3dd0314c0f7b2291e5b200ac8c7c3b92560405160405180910390a45050565b60006119e38261194d565b611a445760405162461bcd60e51b815260206004820152602c60248201527f4552433732313a206f70657261746f7220717565727920666f72206e6f6e657860448201526b34b9ba32b73a103a37b5b2b760a11b6064820152608401610743565b6000611a4f83610cc3565b9050806001600160a01b0316846001600160a01b03161480611a8a5750836001600160a01b0316611a7f846106db565b6001600160a01b0316145b8061187257506001600160a01b0380821660009081526005602090815260408083209388168352929052205460ff16611872565b826001600160a01b0316611ad182610cc3565b6001600160a01b031614611b355760405162461bcd60e51b815260206004820152602560248201527f4552433732313a207472616e736665722066726f6d20696e636f72726563742060448201526437bbb732b960d91b6064820152608401610743565b6001600160a01b038216611b975760405162461bcd60e51b8152602060048201526024808201527f4552433732313a207472616e7366657220746f20746865207a65726f206164646044820152637265737360e01b6064820152608401610743565b611ba28383836123cb565b611bad60008261196a565b6001600160a01b0383166000908152600360205260408120805460019290611bd6908490613230565b90915550506001600160a01b0382166000908152600360205260408120805460019290611c04908490613179565b909155505060008181526002602052604080822080546001600160a01b0319166001600160a01b0386811691821790925591518493918716917fddf252ad1be2c89b69c2b068fc378daa952ba7f163c4a11628f55a4df523b3ef91a4505050565b6008546040516323b872dd60e01b81526001600160a01b03858116600483015284811660248301526044820184905260009216906323b872dd906064016020604051808303816000875af1158015611cc1573d6000803e3d6000fd5b505050506040513d601f19601f820116820180604052508101906118729190613243565b600780546001600160a01b038381166001600160a01b0319831681179093556040519116919082907f8be0079c531659141344cd1fd0a4f28419497f9722a3daafe3b4186f6b6457e090600090a35050565b611d4081612483565b60008181526006602052604090208054611d5990612fd7565b15905061137357600081815260066020526040812061137391612aa1565b6115ed82826040518060200160405280600081525061252a565b611d9a8261194d565b611dfd5760405162461bcd60e51b815260206004820152602e60248201527f45524337323155524953746f726167653a2055524920736574206f66206e6f6e60448201526d32bc34b9ba32b73a103a37b5b2b760911b6064820152608401610743565b600082815260066020526040902061087882826132b0565b60648711611e655760405162461bcd60e51b815260206004820152601f60248201527f5072696365206d757374206265206174206c65617374203130302055534454006044820152606401610743565b8660006064600c611e786006600a613156565b611e829088613162565b611e8c91906131ed565b611e9691906131ed565b90506000604051602001611eb790666d6f6e74686c7960c81b815260070190565b6040516020818303038152906040528051906020012085604051602001611ede919061318c565b6040516020818303038152906040528051906020012003611f205782611f05836001613179565b611f0f9085613162565b611f199190613230565b9050611fd2565b600082611f2f6006600a613156565b611f399190613179565b9050600160005b89811015611f7e57611f528383613162565b91506001811115611f7657611f696006600a613156565b611f7390836131ed565b91505b600101611f40565b506002611f8d6006600a613156565b611f979190613370565b611fa19086613162565b611fab8287613162565b611fb59190613230565b9250611fc36006600a613156565b611fcd90846131ed565b925050505b6000611fe06006600a613156565b611fea908c613162565b9050611ff7333083611c65565b6120365760405162461bcd60e51b815260206004820152601060248201526f2a3930b730b1ba34b7b71032b93937b960811b6044820152606401610743565b604051806101a001604052808d81526020018c8152602001336001600160a01b031681526020018b81526020018a8152602001898152602001888152602001878152602001600081526020018681526020016001815260200183815260200160011515815250600f60008e8152602001908152602001600020600082015181600001556020820151816001015560408201518160020160006101000a8154816001600160a01b0302191690836001600160a01b03160217905550606082015181600301556080820151816004015560a0820151816005015560c0820151816006015560e082015181600701908161212d91906132b0565b506101008201518160080155610120820151816009015561014082015181600a015561016082015181600b015561018082015181600c0160006101000a81548160ff0219169083151502179055509050507fb9f801d6df87c696e55bebf0423b98eb6e8b9311a9ded8e8725634dc4bd4e72e8c8c338d8d8d8d8d60008e60016006600a6121ba9190613156565b6121c4908f6131ed565b6040516121dc9c9b9a9998979695949392919061337f565b60405180910390a1505050505050505050505050565b816001600160a01b0316836001600160a01b0316036122535760405162461bcd60e51b815260206004820152601960248201527f4552433732313a20617070726f766520746f2063616c6c6572000000000000006044820152606401610743565b6001600160a01b03838116600081815260056020908152604080832094871680845294825291829020805460ff191686151590811790915591519182527f17307eab39ab6107e8899845ad3d59bd9653f200f220920489ca2b5937696c31910160405180910390a3505050565b6122cb848484611abe565b6122d78484848461255d565b6116fe5760405162461bcd60e51b8152600401610743906133f5565b60606122fe8261194d565b6123625760405162461bcd60e51b815260206004820152602f60248201527f4552433732314d657461646174613a2055524920717565727920666f72206e6f60448201526e3732bc34b9ba32b73a103a37b5b2b760891b6064820152608401610743565b600061237960408051602081019091526000815290565b9050600081511161239957604051806020016040528060008152506123c4565b806123a38461265e565b6040516020016123b4929190613201565b6040516020818303038152906040525b9392505050565b6001600160a01b0383166124265761242181600d80546000838152601260205260408120829055600182018355919091527fd7b6990105719101dabeb77144f2a3385c8033acd3af97e9423a695e81ad1eb50155565b612449565b816001600160a01b0316836001600160a01b03161461244957612449838261275f565b6001600160a01b03821661246057610878816127fc565b826001600160a01b0316826001600160a01b0316146108785761087882826128ab565b600061248e82610cc3565b905061249c816000846123cb565b6124a760008361196a565b6001600160a01b03811660009081526003602052604081208054600192906124d0908490613230565b909155505060008281526002602052604080822080546001600160a01b0319169055518391906001600160a01b038416907fddf252ad1be2c89b69c2b068fc378daa952ba7f163c4a11628f55a4df523b3ef908390a45050565b61253483836128ef565b612541600084848461255d565b6108785760405162461bcd60e51b8152600401610743906133f5565b60006001600160a01b0384163b1561265357604051630a85bd0160e11b81526001600160a01b0385169063150b7a02906125a1903390899088908890600401613447565b6020604051808303816000875af19250505080156125dc575060408051601f3d908101601f191682019092526125d991810190613484565b60015b612639573d80801561260a576040519150601f19603f3d011682016040523d82523d6000602084013e61260f565b606091505b5080516000036126315760405162461bcd60e51b8152600401610743906133f5565b805181602001fd5b6001600160e01b031916630a85bd0160e11b149050611872565b506001949350505050565b6060816000036126855750506040805180820190915260018152600360fc1b602082015290565b8160005b81156126af5780612699816134a1565b91506126a89050600a836131ed565b9150612689565b60008167ffffffffffffffff8111156126ca576126ca612c20565b6040519080825280601f01601f1916602001820160405280156126f4576020820181803683370190505b5090505b841561187257612709600183613230565b9150612716600a866134ba565b612721906030613179565b60f81b818381518110612736576127366131a8565b60200101906001600160f81b031916908160001a905350612758600a866131ed565b94506126f8565b6000600161276c84610e82565b6127769190613230565b6000838152601160205260409020549091508082146127c9576001600160a01b03841660009081526010602090815260408083208584528252808320548684528184208190558352601190915290208190555b5060009182526011602090815260408084208490556001600160a01b039094168352601081528383209183525290812055565b600d5460009061280e90600190613230565b600083815260126020526040812054600d8054939450909284908110612836576128366131a8565b9060005260206000200154905080600d8381548110612857576128576131a8565b600091825260208083209091019290925582815260129091526040808220849055858252812055600d80548061288f5761288f6134ce565b6001900381819060005260206000200160009055905550505050565b60006128b683610e82565b6001600160a01b039093166000908152601060209081526040808320868452825280832085905593825260119052919091209190915550565b6001600160a01b0382166129455760405162461bcd60e51b815260206004820181905260248201527f4552433732313a206d696e7420746f20746865207a65726f20616464726573736044820152606401610743565b61294e8161194d565b1561299b5760405162461bcd60e51b815260206004820152601c60248201527f4552433732313a20746f6b656e20616c7265616479206d696e746564000000006044820152606401610743565b6129a7600083836123cb565b6001600160a01b03821660009081526003602052604081208054600192906129d0908490613179565b909155505060008181526002602052604080822080546001600160a01b0319166001600160a01b03861690811790915590518392907fddf252ad1be2c89b69c2b068fc378daa952ba7f163c4a11628f55a4df523b3ef908290a45050565b604051806101a00160405280600081526020016000815260200160006001600160a01b031681526020016000815260200160008152602001600081526020016000815260200160608152602001600081526020016000815260200160008152602001600081526020016000151581525090565b508054612aad90612fd7565b6000825580601f10612abd575050565b601f01602090049060005260206000209081019061137391905b80821115612aeb5760008155600101612ad7565b5090565b6001600160e01b03198116811461137357600080fd5b600060208284031215612b1757600080fd5b81356123c481612aef565b60005b83811015612b3d578181015183820152602001612b25565b50506000910152565b60008151808452612b5e816020860160208601612b22565b601f01601f19169290920160200192915050565b6020815260006123c46020830184612b46565b600060208284031215612b9757600080fd5b5035919050565b80356001600160a01b0381168114612bb557600080fd5b919050565b60008060408385031215612bcd57600080fd5b612bd683612b9e565b946020939093013593505050565b600080600060608486031215612bf957600080fd5b612c0284612b9e565b9250612c1060208501612b9e565b9150604084013590509250925092565b634e487b7160e01b600052604160045260246000fd5b600067ffffffffffffffff80841115612c5157612c51612c20565b604051601f8501601f19908116603f01168101908282118183101715612c7957612c79612c20565b81604052809350858152868686011115612c9257600080fd5b858560208301376000602087830101525050509392505050565b600082601f830112612cbd57600080fd5b6123c483833560208501612c36565b600060208284031215612cde57600080fd5b813567ffffffffffffffff811115612cf557600080fd5b61187284828501612cac565b60006101a082518452602083015160208501526040830151612d2e60408601826001600160a01b03169052565b50606083015160608501526080830151608085015260a083015160a085015260c083015160c085015260e08301518160e0860152612d6e82860182612b46565b61010085810151908701526101208086015190870152610140808601519087015261016080860151908701526101809485015115159490950193909352509192915050565b6020815260006123c46020830184612d01565b600060208284031215612dd857600080fd5b6123c482612b9e565b600060208083016020845280855180835260408601915060408160051b87010192506020870160005b82811015612e3857603f19888603018452612e26858351612d01565b94509285019290850190600101612e0a565b5092979650505050505050565b600080600080600080600080610100898b031215612e6257600080fd5b883567ffffffffffffffff80821115612e7a57600080fd5b612e868c838d01612cac565b995060208b0135985060408b0135975060608b0135965060808b0135955060a08b0135945060c08b0135915080821115612ebf57600080fd5b50612ecc8b828c01612cac565b92505060e089013590509295985092959890939650565b801515811461137357600080fd5b60008060408385031215612f0457600080fd5b612f0d83612b9e565b91506020830135612f1d81612ee3565b809150509250929050565b60008060008060808587031215612f3e57600080fd5b612f4785612b9e565b9350612f5560208601612b9e565b925060408501359150606085013567ffffffffffffffff811115612f7857600080fd5b8501601f81018713612f8957600080fd5b612f9887823560208401612c36565b91505092959194509250565b60008060408385031215612fb757600080fd5b612fc083612b9e565b9150612fce60208401612b9e565b90509250929050565b600181811c90821680612feb57607f821691505b60208210810361136457634e487b7160e01b600052602260045260246000fd5b60208082526031908201527f4552433732313a207472616e736665722063616c6c6572206973206e6f74206f6040820152701ddb995c881b9bdc88185c1c1c9bdd9959607a1b606082015260800190565b634e487b7160e01b600052601160045260246000fd5b600181815b808511156130ad5781600019048211156130935761309361305c565b808516156130a057918102915b93841c9390800290613077565b509250929050565b6000826130c457506001610643565b816130d157506000610643565b81600181146130e757600281146130f15761310d565b6001915050610643565b60ff8411156131025761310261305c565b50506001821b610643565b5060208310610133831016604e8410600b8410161715613130575081810a610643565b61313a8383613072565b806000190482111561314e5761314e61305c565b029392505050565b60006123c483836130b5565b80820281158282048414176106435761064361305c565b808201808211156106435761064361305c565b6000825161319e818460208701612b22565b9190910192915050565b634e487b7160e01b600052603260045260246000fd5b6000602082840312156131d057600080fd5b5051919050565b634e487b7160e01b600052601260045260246000fd5b6000826131fc576131fc6131d7565b500490565b60008351613213818460208801612b22565b835190830190613227818360208801612b22565b01949350505050565b818103818111156106435761064361305c565b60006020828403121561325557600080fd5b81516123c481612ee3565b601f821115610878576000816000526020600020601f850160051c810160208610156132895750805b601f850160051c820191505b818110156132a857828155600101613295565b505050505050565b815167ffffffffffffffff8111156132ca576132ca612c20565b6132de816132d88454612fd7565b84613260565b602080601f83116001811461331357600084156132fb5750858301515b600019600386901b1c1916600185901b1785556132a8565b600085815260208120601f198616915b8281101561334257888601518255948401946001909101908401613323565b50858210156133605787850151600019600388901b60f8161c191681555b5050505050600190811b01905550565b60006123c460ff8416836130b5565b60006101808e83528d602084015260018060a01b038d1660408401528b60608401528a60808401528960a08401528860c08401528060e08401526133c581840189612b46565b915050856101008301528461012083015283610140830152826101608301529d9c50505050505050505050505050565b60208082526032908201527f4552433732313a207472616e7366657220746f206e6f6e20455243373231526560408201527131b2b4bb32b91034b6b83632b6b2b73a32b960711b606082015260800190565b6001600160a01b038581168252841660208201526040810183905260806060820181905260009061347a90830184612b46565b9695505050505050565b60006020828403121561349657600080fd5b81516123c481612aef565b6000600182016134b3576134b361305c565b5060010190565b6000826134c9576134c96131d7565b500690565b634e487b7160e01b600052603160045260246000fdfee720d61db15941cd5b3c730f4884a87b12c154902075bc4c1f7fc929c7378a4ea264697066735822122061b3e37afa3011fbb22d1debb697ac49524fe0d7ec4ae90255b99718ce1d703264736f6c63430008180033",
  "linkReferences": {},
  "deployedLinkReferences": {}
}