{
  "contractName": "SPFNft",
  "abi": [
    {
      "inputs": [],
      "stateMutability": "nonpayable",
      "type": "constructor"
    },
    {
      "anonymous": false,
      "inputs": [
        {
          "indexed": true,
          "internalType": "address",
          "name": "owner",
          "type": "address"
        },
        {
          "indexed": true,
          "internalType": "address",
          "name": "approved",
          "type": "address"
        },
        {
          "indexed": true,
          "internalType": "uint256",
          "name": "tokenId",
          "type": "uint256"
        }
      ],
      "name": "Approval",
      "type": "event"
    },
    {
      "anonymous": false,
      "inputs": [
        {
          "indexed": true,
          "internalType": "address",
          "name": "owner",
          "type": "address"
        },
        {
          "indexed": true,
          "internalType": "address",
          "name": "operator",
          "type": "address"
        },
        {
          "indexed": false,
          "internalType": "bool",
          "name": "approved",
          "type": "bool"
        }
      ],
      "name": "ApprovalForAll",
      "type": "event"
    },
    {
      "anonymous": false,
      "inputs": [
        {
          "indexed": false,
          "internalType": "uint256",
          "name": "_fromTokenId",
          "type": "uint256"
        },
        {
          "indexed": false,
          "internalType": "uint256",
          "name": "_toTokenId",
          "type": "uint256"
        }
      ],
      "name": "BatchMetadataUpdate",
      "type": "event"
    },
    {
      "anonymous": false,
      "inputs": [
        {
          "indexed": false,
          "internalType": "uint256",
          "name": "_tokenId",
          "type": "uint256"
        }
      ],
      "name": "MetadataUpdate",
      "type": "event"
    },
    {
      "anonymous": false,
      "inputs": [
        {
          "indexed": false,
          "internalType": "uint256",
          "name": "tokenId",
          "type": "uint256"
        },
        {
          "indexed": false,
          "internalType": "uint256",
          "name": "price",
          "type": "uint256"
        },
        {
          "indexed": false,
          "internalType": "address",
          "name": "creator",
          "type": "address"
        },
        {
          "indexed": false,
          "internalType": "bool",
          "name": "isListed",
          "type": "bool"
        }
      ],
      "name": "NFTItemCreated",
      "type": "event"
    },
    {
      "anonymous": false,
      "inputs": [
        {
          "indexed": true,
          "internalType": "address",
          "name": "previousOwner",
          "type": "address"
        },
        {
          "indexed": true,
          "internalType": "address",
          "name": "newOwner",
          "type": "address"
        }
      ],
      "name": "OwnershipTransferred",
      "type": "event"
    },
    {
      "anonymous": false,
      "inputs": [
        {
          "indexed": true,
          "internalType": "address",
          "name": "from",
          "type": "address"
        },
        {
          "indexed": true,
          "internalType": "address",
          "name": "to",
          "type": "address"
        },
        {
          "indexed": true,
          "internalType": "uint256",
          "name": "tokenId",
          "type": "uint256"
        }
      ],
      "name": "Transfer",
      "type": "event"
    },
    {
      "inputs": [
        {
          "internalType": "address",
          "name": "to",
          "type": "address"
        },
        {
          "internalType": "uint256",
          "name": "tokenId",
          "type": "uint256"
        }
      ],
      "name": "approve",
      "outputs": [],
      "stateMutability": "nonpayable",
      "type": "function"
    },
    {
      "inputs": [
        {
          "internalType": "address",
          "name": "owner",
          "type": "address"
        }
      ],
      "name": "balanceOf",
      "outputs": [
        {
          "internalType": "uint256",
          "name": "",
          "type": "uint256"
        }
      ],
      "stateMutability": "view",
      "type": "function",
      "constant": true
    },
    {
      "inputs": [
        {
          "internalType": "uint256",
          "name": "tokenId",
          "type": "uint256"
        }
      ],
      "name": "getApproved",
      "outputs": [
        {
          "internalType": "address",
          "name": "",
          "type": "address"
        }
      ],
      "stateMutability": "view",
      "type": "function",
      "constant": true
    },
    {
      "inputs": [
        {
          "internalType": "address",
          "name": "owner",
          "type": "address"
        },
        {
          "internalType": "address",
          "name": "operator",
          "type": "address"
        }
      ],
      "name": "isApprovedForAll",
      "outputs": [
        {
          "internalType": "bool",
          "name": "",
          "type": "bool"
        }
      ],
      "stateMutability": "view",
      "type": "function",
      "constant": true
    },
    {
      "inputs": [],
      "name": "listingPrice",
      "outputs": [
        {
          "internalType": "uint256",
          "name": "",
          "type": "uint256"
        }
      ],
      "stateMutability": "view",
      "type": "function",
      "constant": true
    },
    {
      "inputs": [],
      "name": "name",
      "outputs": [
        {
          "internalType": "string",
          "name": "",
          "type": "string"
        }
      ],
      "stateMutability": "view",
      "type": "function",
      "constant": true
    },
    {
      "inputs": [],
      "name": "owner",
      "outputs": [
        {
          "internalType": "address",
          "name": "",
          "type": "address"
        }
      ],
      "stateMutability": "view",
      "type": "function",
      "constant": true
    },
    {
      "inputs": [
        {
          "internalType": "uint256",
          "name": "tokenId",
          "type": "uint256"
        }
      ],
      "name": "ownerOf",
      "outputs": [
        {
          "internalType": "address",
          "name": "",
          "type": "address"
        }
      ],
      "stateMutability": "view",
      "type": "function",
      "constant": true
    },
    {
      "inputs": [],
      "name": "renounceOwnership",
      "outputs": [],
      "stateMutability": "nonpayable",
      "type": "function"
    },
    {
      "inputs": [
        {
          "internalType": "address",
          "name": "from",
          "type": "address"
        },
        {
          "internalType": "address",
          "name": "to",
          "type": "address"
        },
        {
          "internalType": "uint256",
          "name": "tokenId",
          "type": "uint256"
        }
      ],
      "name": "safeTransferFrom",
      "outputs": [],
      "stateMutability": "nonpayable",
      "type": "function"
    },
    {
      "inputs": [
        {
          "internalType": "address",
          "name": "from",
          "type": "address"
        },
        {
          "internalType": "address",
          "name": "to",
          "type": "address"
        },
        {
          "internalType": "uint256",
          "name": "tokenId",
          "type": "uint256"
        },
        {
          "internalType": "bytes",
          "name": "data",
          "type": "bytes"
        }
      ],
      "name": "safeTransferFrom",
      "outputs": [],
      "stateMutability": "nonpayable",
      "type": "function"
    },
    {
      "inputs": [
        {
          "internalType": "address",
          "name": "operator",
          "type": "address"
        },
        {
          "internalType": "bool",
          "name": "approved",
          "type": "bool"
        }
      ],
      "name": "setApprovalForAll",
      "outputs": [],
      "stateMutability": "nonpayable",
      "type": "function"
    },
    {
      "inputs": [
        {
          "internalType": "bytes4",
          "name": "interfaceId",
          "type": "bytes4"
        }
      ],
      "name": "supportsInterface",
      "outputs": [
        {
          "internalType": "bool",
          "name": "",
          "type": "bool"
        }
      ],
      "stateMutability": "view",
      "type": "function",
      "constant": true
    },
    {
      "inputs": [],
      "name": "symbol",
      "outputs": [
        {
          "internalType": "string",
          "name": "",
          "type": "string"
        }
      ],
      "stateMutability": "view",
      "type": "function",
      "constant": true
    },
    {
      "inputs": [
        {
          "internalType": "uint256",
          "name": "tokenId",
          "type": "uint256"
        }
      ],
      "name": "tokenURI",
      "outputs": [
        {
          "internalType": "string",
          "name": "",
          "type": "string"
        }
      ],
      "stateMutability": "view",
      "type": "function",
      "constant": true
    },
    {
      "inputs": [
        {
          "internalType": "address",
          "name": "from",
          "type": "address"
        },
        {
          "internalType": "address",
          "name": "to",
          "type": "address"
        },
        {
          "internalType": "uint256",
          "name": "tokenId",
          "type": "uint256"
        }
      ],
      "name": "transferFrom",
      "outputs": [],
      "stateMutability": "nonpayable",
      "type": "function"
    },
    {
      "inputs": [
        {
          "internalType": "address",
          "name": "newOwner",
          "type": "address"
        }
      ],
      "name": "transferOwnership",
      "outputs": [],
      "stateMutability": "nonpayable",
      "type": "function"
    },
    {
      "inputs": [
        {
          "internalType": "uint256",
          "name": "newPrice",
          "type": "uint256"
        }
      ],
      "name": "setListingPrice",
      "outputs": [],
      "stateMutability": "nonpayable",
      "type": "function"
    },
    {
      "inputs": [
        {
          "internalType": "uint256",
          "name": "tokenId",
          "type": "uint256"
        }
      ],
      "name": "getNftItem",
      "outputs": [
        {
          "components": [
            {
              "internalType": "uint256",
              "name": "tokenId",
              "type": "uint256"
            },
            {
              "internalType": "uint256",
              "name": "price",
              "type": "uint256"
            },
            {
              "internalType": "address",
              "name": "creator",
              "type": "address"
            },
            {
              "internalType": "bool",
              "name": "isListed",
              "type": "bool"
            }
          ],
          "internalType": "struct SPFNft.NFTItem",
          "name": "",
          "type": "tuple"
        }
      ],
      "stateMutability": "view",
      "type": "function",
      "constant": true
    },
    {
      "inputs": [],
      "name": "listedItemsCount",
      "outputs": [
        {
          "internalType": "uint256",
          "name": "",
          "type": "uint256"
        }
      ],
      "stateMutability": "view",
      "type": "function",
      "constant": true
    },
    {
      "inputs": [
        {
          "internalType": "string",
          "name": "tokenURI",
          "type": "string"
        }
      ],
      "name": "tokenURIExists",
      "outputs": [
        {
          "internalType": "bool",
          "name": "",
          "type": "bool"
        }
      ],
      "stateMutability": "view",
      "type": "function",
      "constant": true
    },
    {
      "inputs": [],
      "name": "totalSupply",
      "outputs": [
        {
          "internalType": "uint256",
          "name": "",
          "type": "uint256"
        }
      ],
      "stateMutability": "view",
      "type": "function",
      "constant": true
    },
    {
      "inputs": [
        {
          "internalType": "uint256",
          "name": "index",
          "type": "uint256"
        }
      ],
      "name": "tokenByIndex",
      "outputs": [
        {
          "internalType": "uint256",
          "name": "",
          "type": "uint256"
        }
      ],
      "stateMutability": "view",
      "type": "function",
      "constant": true
    },
    {
      "inputs": [
        {
          "internalType": "address",
          "name": "owner",
          "type": "address"
        },
        {
          "internalType": "uint256",
          "name": "index",
          "type": "uint256"
        }
      ],
      "name": "tokenOfOwnerByIndex",
      "outputs": [
        {
          "internalType": "uint256",
          "name": "",
          "type": "uint256"
        }
      ],
      "stateMutability": "view",
      "type": "function",
      "constant": true
    },
    {
      "inputs": [],
      "name": "getOwnedNfts",
      "outputs": [
        {
          "components": [
            {
              "internalType": "uint256",
              "name": "tokenId",
              "type": "uint256"
            },
            {
              "internalType": "uint256",
              "name": "price",
              "type": "uint256"
            },
            {
              "internalType": "address",
              "name": "creator",
              "type": "address"
            },
            {
              "internalType": "bool",
              "name": "isListed",
              "type": "bool"
            }
          ],
          "internalType": "struct SPFNft.NFTItem[]",
          "name": "",
          "type": "tuple[]"
        }
      ],
      "stateMutability": "view",
      "type": "function",
      "constant": true
    },
    {
      "inputs": [
        {
          "internalType": "uint256",
          "name": "tokenId",
          "type": "uint256"
        }
      ],
      "name": "burnToken",
      "outputs": [],
      "stateMutability": "nonpayable",
      "type": "function"
    },
    {
      "inputs": [
        {
          "internalType": "string",
          "name": "tokenURI",
          "type": "string"
        },
        {
          "internalType": "uint256",
          "name": "price",
          "type": "uint256"
        }
      ],
      "name": "mintToken",
      "outputs": [
        {
          "internalType": "uint256",
          "name": "",
          "type": "uint256"
        }
      ],
      "stateMutability": "payable",
      "type": "function",
      "payable": true
    }
  ],
  "bytecode": "0x60806040526658d15e176280006010553480156200001c57600080fd5b506040518060400160405280600c81526020017f4372656174757265734e465400000000000000000000000000000000000000008152506040518060400160405280600481526020017f434e4654000000000000000000000000000000000000000000000000000000008152508160009080519060200190620000a1929190620001b1565b508060019080519060200190620000ba929190620001b1565b505050620000dd620000d1620000e360201b60201c565b620000eb60201b60201c565b620002c5565b600033905090565b6000600760009054906101000a900473ffffffffffffffffffffffffffffffffffffffff16905081600760006101000a81548173ffffffffffffffffffffffffffffffffffffffff021916908373ffffffffffffffffffffffffffffffffffffffff1602179055508173ffffffffffffffffffffffffffffffffffffffff168173ffffffffffffffffffffffffffffffffffffffff167f8be0079c531659141344cd1fd0a4f28419497f9722a3daafe3b4186f6b6457e060405160405180910390a35050565b828054620001bf9062000290565b90600052602060002090601f016020900481019282620001e357600085556200022f565b82601f10620001fe57805160ff19168380011785556200022f565b828001600101855582156200022f579182015b828111156200022e57825182559160200191906001019062000211565b5b5090506200023e919062000242565b5090565b5b808211156200025d57600081600090555060010162000243565b5090565b7f4e487b7100000000000000000000000000000000000000000000000000000000600052602260045260246000fd5b60006002820490506001821680620002a957607f821691505b602082108103620002bf57620002be62000261565b5b50919050565b6140c180620002d56000396000f3fe60806040526004361061019c5760003560e01c806370cbcb43116100ec578063b88d4fde1161008a578063c87b56dd11610064578063c87b56dd146105f1578063ccb4918d1461062e578063e985e9c514610659578063f2fde38b146106965761019c565b8063b88d4fde1461056d578063c046372c14610596578063c78f19f9146105c65761019c565b80637c726b69116100c65780637c726b69146104c55780638da5cb5b146104ee57806395d89b4114610519578063a22cb465146105445761019c565b806370cbcb431461045a578063715018a6146104855780637b47ec1a1461049c5761019c565b80632f745c59116101595780634f6ccce7116101335780634f6ccce7146103665780636352211e146103a35780636f1a0af5146103e057806370a082311461041d5761019c565b80632f745c59146102c357806342842e0e1461030057806343d32ae7146103295761019c565b806301ffc9a7146101a157806306fdde03146101de578063081812fc14610209578063095ea7b31461024657806318160ddd1461026f57806323b872dd1461029a575b600080fd5b3480156101ad57600080fd5b506101c860048036038101906101c39190612c72565b6106bf565b6040516101d59190612cba565b60405180910390f35b3480156101ea57600080fd5b506101f3610720565b6040516102009190612d6e565b60405180910390f35b34801561021557600080fd5b50610230600480360381019061022b9190612dc6565b6107b2565b60405161023d9190612e34565b60405180910390f35b34801561025257600080fd5b5061026d60048036038101906102689190612e7b565b6107f8565b005b34801561027b57600080fd5b5061028461090f565b6040516102919190612eca565b60405180910390f35b3480156102a657600080fd5b506102c160048036038101906102bc9190612ee5565b61091c565b005b3480156102cf57600080fd5b506102ea60048036038101906102e59190612e7b565b61097c565b6040516102f79190612eca565b60405180910390f35b34801561030c57600080fd5b5061032760048036038101906103229190612ee5565b610a21565b005b34801561033557600080fd5b50610350600480360381019061034b919061306d565b610a41565b60405161035d9190612cba565b60405180910390f35b34801561037257600080fd5b5061038d60048036038101906103889190612dc6565b610a7d565b60405161039a9190612eca565b60405180910390f35b3480156103af57600080fd5b506103ca60048036038101906103c59190612dc6565b610aee565b6040516103d79190612e34565b60405180910390f35b3480156103ec57600080fd5b5061040760048036038101906104029190612dc6565b610b74565b6040516104149190613138565b60405180910390f35b34801561042957600080fd5b50610444600480360381019061043f9190613153565b610c26565b6040516104519190612eca565b60405180910390f35b34801561046657600080fd5b5061046f610cdd565b60405161047c9190613284565b60405180910390f35b34801561049157600080fd5b5061049a610e41565b005b3480156104a857600080fd5b506104c360048036038101906104be9190612dc6565b610e55565b005b3480156104d157600080fd5b506104ec60048036038101906104e79190612dc6565b610e61565b005b3480156104fa57600080fd5b50610503610eb6565b6040516105109190612e34565b60405180910390f35b34801561052557600080fd5b5061052e610ee0565b60405161053b9190612d6e565b60405180910390f35b34801561055057600080fd5b5061056b600480360381019061056691906132d2565b610f72565b005b34801561057957600080fd5b50610594600480360381019061058f91906133b3565b610f88565b005b6105b060048036038101906105ab9190613436565b610fea565b6040516105bd9190612eca565b60405180910390f35b3480156105d257600080fd5b506105db61106d565b6040516105e89190612eca565b60405180910390f35b3480156105fd57600080fd5b5061061860048036038101906106139190612dc6565b611073565b6040516106259190612d6e565b60405180910390f35b34801561063a57600080fd5b50610643611185565b6040516106509190612eca565b60405180910390f35b34801561066557600080fd5b50610680600480360381019061067b9190613492565b611196565b60405161068d9190612cba565b60405180910390f35b3480156106a257600080fd5b506106bd60048036038101906106b89190613153565b61122a565b005b6000634906490660e01b7bffffffffffffffffffffffffffffffffffffffffffffffffffffffff1916827bffffffffffffffffffffffffffffffffffffffffffffffffffffffff191614806107195750610718826112ad565b5b9050919050565b60606000805461072f90613501565b80601f016020809104026020016040519081016040528092919081815260200182805461075b90613501565b80156107a85780601f1061077d576101008083540402835291602001916107a8565b820191906000526020600020905b81548152906001019060200180831161078b57829003601f168201915b5050505050905090565b60006107bd8261138f565b6004600083815260200190815260200160002060009054906101000a900473ffffffffffffffffffffffffffffffffffffffff169050919050565b600061080382610aee565b90508073ffffffffffffffffffffffffffffffffffffffff168373ffffffffffffffffffffffffffffffffffffffff1603610873576040517f08c379a000000000000000000000000000000000000000000000000000000000815260040161086a906135a4565b60405180910390fd5b8073ffffffffffffffffffffffffffffffffffffffff166108926113da565b73ffffffffffffffffffffffffffffffffffffffff1614806108c157506108c0816108bb6113da565b611196565b5b610900576040517f08c379a00000000000000000000000000000000000000000000000000000000081526004016108f790613636565b60405180910390fd5b61090a83836113e2565b505050565b6000600a80549050905090565b61092d6109276113da565b8261149b565b61096c576040517f08c379a0000000000000000000000000000000000000000000000000000000008152600401610963906136c8565b60405180910390fd5b610977838383611530565b505050565b600061098783610c26565b82106109c8576040517f08c379a00000000000000000000000000000000000000000000000000000000081526004016109bf90613734565b60405180910390fd5b600d60008473ffffffffffffffffffffffffffffffffffffffff1673ffffffffffffffffffffffffffffffffffffffff168152602001908152602001600020600083815260200190815260200160002054905092915050565b610a3c83838360405180602001604052806000815250610f88565b505050565b600060011515600b83604051610a579190613790565b908152602001604051809103902060009054906101000a900460ff161515149050919050565b6000610a8761090f565b8210610ac8576040517f08c379a0000000000000000000000000000000000000000000000000000000008152600401610abf90613734565b60405180910390fd5b600a8281548110610adc57610adb6137a7565b5b90600052602060002001549050919050565b600080610afa83611829565b9050600073ffffffffffffffffffffffffffffffffffffffff168173ffffffffffffffffffffffffffffffffffffffff1603610b6b576040517f08c379a0000000000000000000000000000000000000000000000000000000008152600401610b6290613822565b60405180910390fd5b80915050919050565b610b7c612ae3565b600c600083815260200190815260200160002060405180608001604052908160008201548152602001600182015481526020016002820160009054906101000a900473ffffffffffffffffffffffffffffffffffffffff1673ffffffffffffffffffffffffffffffffffffffff1673ffffffffffffffffffffffffffffffffffffffff1681526020016002820160149054906101000a900460ff1615151515815250509050919050565b60008073ffffffffffffffffffffffffffffffffffffffff168273ffffffffffffffffffffffffffffffffffffffff1603610c96576040517f08c379a0000000000000000000000000000000000000000000000000000000008152600401610c8d906138b4565b60405180910390fd5b600360008373ffffffffffffffffffffffffffffffffffffffff1673ffffffffffffffffffffffffffffffffffffffff168152602001908152602001600020549050919050565b60606000610cea33610c26565b905060008167ffffffffffffffff811115610d0857610d07612f42565b5b604051908082528060200260200182016040528015610d4157816020015b610d2e612ae3565b815260200190600190039081610d265790505b50905060005b82811015610e38576000610d5b338361097c565b90506000600c600083815260200190815260200160002090508060405180608001604052908160008201548152602001600182015481526020016002820160009054906101000a900473ffffffffffffffffffffffffffffffffffffffff1673ffffffffffffffffffffffffffffffffffffffff1673ffffffffffffffffffffffffffffffffffffffff1681526020016002820160149054906101000a900460ff161515151581525050848481518110610e1857610e176137a7565b5b602002602001018190525050508080610e3090613903565b915050610d47565b50809250505090565b610e49611866565b610e5360006118e4565b565b610e5e816119aa565b50565b610e69611866565b60008111610eac576040517f08c379a0000000000000000000000000000000000000000000000000000000008152600401610ea390613997565b60405180910390fd5b8060108190555050565b6000600760009054906101000a900473ffffffffffffffffffffffffffffffffffffffff16905090565b606060018054610eef90613501565b80601f0160208091040260200160405190810160405280929190818152602001828054610f1b90613501565b8015610f685780601f10610f3d57610100808354040283529160200191610f68565b820191906000526020600020905b815481529060010190602001808311610f4b57829003601f168201915b5050505050905090565b610f84610f7d6113da565b83836119fd565b5050565b610f99610f936113da565b8361149b565b610fd8576040517f08c379a0000000000000000000000000000000000000000000000000000000008152600401610fcf906136c8565b60405180910390fd5b610fe484848484611b69565b50505050565b6000610ff66009611bc5565b6110006008611bc5565b600061100c6009611bdb565b90506110183382611be9565b6110228185611c07565b61102c8184611cb2565b6001600b8560405161103e9190613790565b908152602001604051809103902060006101000a81548160ff0219169083151502179055508091505092915050565b60105481565b606061107e8261138f565b600060066000848152602001908152602001600020805461109e90613501565b80601f01602080910402602001604051908101604052809291908181526020018280546110ca90613501565b80156111175780601f106110ec57610100808354040283529160200191611117565b820191906000526020600020905b8154815290600101906020018083116110fa57829003601f168201915b505050505090506000611128611e02565b9050600081510361113d578192505050611180565b60008251111561117257808260405160200161115a9291906139b7565b60405160208183030381529060405292505050611180565b61117b84611e19565b925050505b919050565b60006111916008611bdb565b905090565b6000600560008473ffffffffffffffffffffffffffffffffffffffff1673ffffffffffffffffffffffffffffffffffffffff16815260200190815260200160002060008373ffffffffffffffffffffffffffffffffffffffff1673ffffffffffffffffffffffffffffffffffffffff16815260200190815260200160002060009054906101000a900460ff16905092915050565b611232611866565b600073ffffffffffffffffffffffffffffffffffffffff168173ffffffffffffffffffffffffffffffffffffffff16036112a1576040517f08c379a000000000000000000000000000000000000000000000000000000000815260040161129890613a4d565b60405180910390fd5b6112aa816118e4565b50565b60007f80ac58cd000000000000000000000000000000000000000000000000000000007bffffffffffffffffffffffffffffffffffffffffffffffffffffffff1916827bffffffffffffffffffffffffffffffffffffffffffffffffffffffff1916148061137857507f5b5e139f000000000000000000000000000000000000000000000000000000007bffffffffffffffffffffffffffffffffffffffffffffffffffffffff1916827bffffffffffffffffffffffffffffffffffffffffffffffffffffffff1916145b80611388575061138782611e81565b5b9050919050565b61139881611eeb565b6113d7576040517f08c379a00000000000000000000000000000000000000000000000000000000081526004016113ce90613822565b60405180910390fd5b50565b600033905090565b816004600083815260200190815260200160002060006101000a81548173ffffffffffffffffffffffffffffffffffffffff021916908373ffffffffffffffffffffffffffffffffffffffff160217905550808273ffffffffffffffffffffffffffffffffffffffff1661145583610aee565b73ffffffffffffffffffffffffffffffffffffffff167f8c5be1e5ebec7d5bd14f71427d1e84f3dd0314c0f7b2291e5b200ac8c7c3b92560405160405180910390a45050565b6000806114a783610aee565b90508073ffffffffffffffffffffffffffffffffffffffff168473ffffffffffffffffffffffffffffffffffffffff1614806114e957506114e88185611196565b5b8061152757508373ffffffffffffffffffffffffffffffffffffffff1661150f846107b2565b73ffffffffffffffffffffffffffffffffffffffff16145b91505092915050565b8273ffffffffffffffffffffffffffffffffffffffff1661155082610aee565b73ffffffffffffffffffffffffffffffffffffffff16146115a6576040517f08c379a000000000000000000000000000000000000000000000000000000000815260040161159d90613adf565b60405180910390fd5b600073ffffffffffffffffffffffffffffffffffffffff168273ffffffffffffffffffffffffffffffffffffffff1603611615576040517f08c379a000000000000000000000000000000000000000000000000000000000815260040161160c90613b71565b60405180910390fd5b6116228383836001611f2c565b8273ffffffffffffffffffffffffffffffffffffffff1661164282610aee565b73ffffffffffffffffffffffffffffffffffffffff1614611698576040517f08c379a000000000000000000000000000000000000000000000000000000000815260040161168f90613adf565b60405180910390fd5b6004600082815260200190815260200160002060006101000a81549073ffffffffffffffffffffffffffffffffffffffff02191690556001600360008573ffffffffffffffffffffffffffffffffffffffff1673ffffffffffffffffffffffffffffffffffffffff168152602001908152602001600020600082825403925050819055506001600360008473ffffffffffffffffffffffffffffffffffffffff1673ffffffffffffffffffffffffffffffffffffffff16815260200190815260200160002060008282540192505081905550816002600083815260200190815260200160002060006101000a81548173ffffffffffffffffffffffffffffffffffffffff021916908373ffffffffffffffffffffffffffffffffffffffff160217905550808273ffffffffffffffffffffffffffffffffffffffff168473ffffffffffffffffffffffffffffffffffffffff167fddf252ad1be2c89b69c2b068fc378daa952ba7f163c4a11628f55a4df523b3ef60405160405180910390a46118248383836001612040565b505050565b60006002600083815260200190815260200160002060009054906101000a900473ffffffffffffffffffffffffffffffffffffffff169050919050565b61186e6113da565b73ffffffffffffffffffffffffffffffffffffffff1661188c610eb6565b73ffffffffffffffffffffffffffffffffffffffff16146118e2576040517f08c379a00000000000000000000000000000000000000000000000000000000081526004016118d990613bdd565b60405180910390fd5b565b6000600760009054906101000a900473ffffffffffffffffffffffffffffffffffffffff16905081600760006101000a81548173ffffffffffffffffffffffffffffffffffffffff021916908373ffffffffffffffffffffffffffffffffffffffff1602179055508173ffffffffffffffffffffffffffffffffffffffff168173ffffffffffffffffffffffffffffffffffffffff167f8be0079c531659141344cd1fd0a4f28419497f9722a3daafe3b4186f6b6457e060405160405180910390a35050565b6119b381612046565b60006006600083815260200190815260200160002080546119d390613501565b9050146119fa576006600082815260200190815260200160002060006119f99190612b23565b5b50565b8173ffffffffffffffffffffffffffffffffffffffff168373ffffffffffffffffffffffffffffffffffffffff1603611a6b576040517f08c379a0000000000000000000000000000000000000000000000000000000008152600401611a6290613c49565b60405180910390fd5b80600560008573ffffffffffffffffffffffffffffffffffffffff1673ffffffffffffffffffffffffffffffffffffffff16815260200190815260200160002060008473ffffffffffffffffffffffffffffffffffffffff1673ffffffffffffffffffffffffffffffffffffffff16815260200190815260200160002060006101000a81548160ff0219169083151502179055508173ffffffffffffffffffffffffffffffffffffffff168373ffffffffffffffffffffffffffffffffffffffff167f17307eab39ab6107e8899845ad3d59bd9653f200f220920489ca2b5937696c3183604051611b5c9190612cba565b60405180910390a3505050565b611b74848484611530565b611b8084848484612194565b611bbf576040517f08c379a0000000000000000000000000000000000000000000000000000000008152600401611bb690613cdb565b60405180910390fd5b50505050565b6001816000016000828254019250508190555050565b600081600001549050919050565b611c0382826040518060200160405280600081525061231b565b5050565b611c1082611eeb565b611c4f576040517f08c379a0000000000000000000000000000000000000000000000000000000008152600401611c4690613d6d565b60405180910390fd5b80600660008481526020019081526020016000209080519060200190611c76929190612b63565b507ff8e1a15aba9398e019f0b49df1a4fde98ee17ae345cb5f6b5e2c27f5033e8ce782604051611ca69190612eca565b60405180910390a15050565b60008111611cf5576040517f08c379a0000000000000000000000000000000000000000000000000000000008152600401611cec90613dd9565b60405180910390fd5b60405180608001604052808381526020018281526020013373ffffffffffffffffffffffffffffffffffffffff16815260200160011515815250600c6000848152602001908152602001600020600082015181600001556020820151816001015560408201518160020160006101000a81548173ffffffffffffffffffffffffffffffffffffffff021916908373ffffffffffffffffffffffffffffffffffffffff16021790555060608201518160020160146101000a81548160ff0219169083151502179055509050507f43f35c7892cef3db6314a5b129e161ca0731bb9e4a5d4f7244b605bb7b65b1158282336001604051611df69493929190613df9565b60405180910390a15050565b606060405180602001604052806000815250905090565b6060611e248261138f565b6000611e2e611e02565b90506000815111611e4e5760405180602001604052806000815250611e79565b80611e5884612376565b604051602001611e699291906139b7565b6040516020818303038152906040525b915050919050565b60007f01ffc9a7000000000000000000000000000000000000000000000000000000007bffffffffffffffffffffffffffffffffffffffffffffffffffffffff1916827bffffffffffffffffffffffffffffffffffffffffffffffffffffffff1916149050919050565b60008073ffffffffffffffffffffffffffffffffffffffff16611f0d83611829565b73ffffffffffffffffffffffffffffffffffffffff1614159050919050565b611f3884848484612444565b600073ffffffffffffffffffffffffffffffffffffffff168473ffffffffffffffffffffffffffffffffffffffff1603611f7a57611f758261244a565b611fb9565b8273ffffffffffffffffffffffffffffffffffffffff168473ffffffffffffffffffffffffffffffffffffffff1614611fb857611fb78483612493565b5b5b600073ffffffffffffffffffffffffffffffffffffffff168373ffffffffffffffffffffffffffffffffffffffff1603611ffb57611ff682612600565b61203a565b8373ffffffffffffffffffffffffffffffffffffffff168373ffffffffffffffffffffffffffffffffffffffff16146120395761203883836126d1565b5b5b50505050565b50505050565b600061205182610aee565b9050612061816000846001611f2c565b61206a82610aee565b90506004600083815260200190815260200160002060006101000a81549073ffffffffffffffffffffffffffffffffffffffff02191690556001600360008373ffffffffffffffffffffffffffffffffffffffff1673ffffffffffffffffffffffffffffffffffffffff168152602001908152602001600020600082825403925050819055506002600083815260200190815260200160002060006101000a81549073ffffffffffffffffffffffffffffffffffffffff021916905581600073ffffffffffffffffffffffffffffffffffffffff168273ffffffffffffffffffffffffffffffffffffffff167fddf252ad1be2c89b69c2b068fc378daa952ba7f163c4a11628f55a4df523b3ef60405160405180910390a4612190816000846001612040565b5050565b60006121b58473ffffffffffffffffffffffffffffffffffffffff16612750565b1561230e578373ffffffffffffffffffffffffffffffffffffffff1663150b7a026121de6113da565b8786866040518563ffffffff1660e01b81526004016122009493929190613e93565b6020604051808303816000875af192505050801561223c57506040513d601f19601f820116820180604052508101906122399190613ef4565b60015b6122be573d806000811461226c576040519150601f19603f3d011682016040523d82523d6000602084013e612271565b606091505b5060008151036122b6576040517f08c379a00000000000000000000000000000000000000000000000000000000081526004016122ad90613cdb565b60405180910390fd5b805181602001fd5b63150b7a0260e01b7bffffffffffffffffffffffffffffffffffffffffffffffffffffffff1916817bffffffffffffffffffffffffffffffffffffffffffffffffffffffff191614915050612313565b600190505b949350505050565b6123258383612773565b6123326000848484612194565b612371576040517f08c379a000000000000000000000000000000000000000000000000000000000815260040161236890613cdb565b60405180910390fd5b505050565b60606000600161238584612990565b01905060008167ffffffffffffffff8111156123a4576123a3612f42565b5b6040519080825280601f01601f1916602001820160405280156123d65781602001600182028036833780820191505090505b509050600082602001820190505b600115612439578080600190039150507f3031323334353637383961626364656600000000000000000000000000000000600a86061a8153600a858161242d5761242c613f21565b5b049450600085036123e4575b819350505050919050565b50505050565b600a80549050600f600083815260200190815260200160002081905550600a81908060018154018082558091505060019003906000526020600020016000909190919091505550565b600060016124a084610c26565b6124aa9190613f50565b90506000600e600084815260200190815260200160002054905081811461258f576000600d60008673ffffffffffffffffffffffffffffffffffffffff1673ffffffffffffffffffffffffffffffffffffffff168152602001908152602001600020600084815260200190815260200160002054905080600d60008773ffffffffffffffffffffffffffffffffffffffff1673ffffffffffffffffffffffffffffffffffffffff16815260200190815260200160002060008681526020019081526020016000208190555081600e600083815260200190815260200160002081905550505b600e600084815260200190815260200160002060009055600d60008573ffffffffffffffffffffffffffffffffffffffff1673ffffffffffffffffffffffffffffffffffffffff16815260200190815260200160002060008381526020019081526020016000206000905550505050565b60006001600a805490506126149190613f50565b90506000600f60008481526020019081526020016000205490506000600a8381548110612644576126436137a7565b5b9060005260206000200154905080600a8381548110612666576126656137a7565b5b906000526020600020018190555081600f600083815260200190815260200160002081905550600f600085815260200190815260200160002060009055600a8054806126b5576126b4613f84565b5b6001900381819060005260206000200160009055905550505050565b60006126dc83610c26565b905081600d60008573ffffffffffffffffffffffffffffffffffffffff1673ffffffffffffffffffffffffffffffffffffffff16815260200190815260200160002060008381526020019081526020016000208190555080600e600084815260200190815260200160002081905550505050565b6000808273ffffffffffffffffffffffffffffffffffffffff163b119050919050565b600073ffffffffffffffffffffffffffffffffffffffff168273ffffffffffffffffffffffffffffffffffffffff16036127e2576040517f08c379a00000000000000000000000000000000000000000000000000000000081526004016127d990613fff565b60405180910390fd5b6127eb81611eeb565b1561282b576040517f08c379a00000000000000000000000000000000000000000000000000000000081526004016128229061406b565b60405180910390fd5b612839600083836001611f2c565b61284281611eeb565b15612882576040517f08c379a00000000000000000000000000000000000000000000000000000000081526004016128799061406b565b60405180910390fd5b6001600360008473ffffffffffffffffffffffffffffffffffffffff1673ffffffffffffffffffffffffffffffffffffffff16815260200190815260200160002060008282540192505081905550816002600083815260200190815260200160002060006101000a81548173ffffffffffffffffffffffffffffffffffffffff021916908373ffffffffffffffffffffffffffffffffffffffff160217905550808273ffffffffffffffffffffffffffffffffffffffff16600073ffffffffffffffffffffffffffffffffffffffff167fddf252ad1be2c89b69c2b068fc378daa952ba7f163c4a11628f55a4df523b3ef60405160405180910390a461298c600083836001612040565b5050565b600080600090507a184f03e93ff9f4daa797ed6e38ed64bf6a1f01000000000000000083106129ee577a184f03e93ff9f4daa797ed6e38ed64bf6a1f01000000000000000083816129e4576129e3613f21565b5b0492506040810190505b6d04ee2d6d415b85acef81000000008310612a2b576d04ee2d6d415b85acef81000000008381612a2157612a20613f21565b5b0492506020810190505b662386f26fc100008310612a5a57662386f26fc100008381612a5057612a4f613f21565b5b0492506010810190505b6305f5e1008310612a83576305f5e1008381612a7957612a78613f21565b5b0492506008810190505b6127108310612aa8576127108381612a9e57612a9d613f21565b5b0492506004810190505b60648310612acb5760648381612ac157612ac0613f21565b5b0492506002810190505b600a8310612ada576001810190505b80915050919050565b60405180608001604052806000815260200160008152602001600073ffffffffffffffffffffffffffffffffffffffff1681526020016000151581525090565b508054612b2f90613501565b6000825580601f10612b415750612b60565b601f016020900490600052602060002090810190612b5f9190612be9565b5b50565b828054612b6f90613501565b90600052602060002090601f016020900481019282612b915760008555612bd8565b82601f10612baa57805160ff1916838001178555612bd8565b82800160010185558215612bd8579182015b82811115612bd7578251825591602001919060010190612bbc565b5b509050612be59190612be9565b5090565b5b80821115612c02576000816000905550600101612bea565b5090565b6000604051905090565b600080fd5b600080fd5b60007fffffffff0000000000000000000000000000000000000000000000000000000082169050919050565b612c4f81612c1a565b8114612c5a57600080fd5b50565b600081359050612c6c81612c46565b92915050565b600060208284031215612c8857612c87612c10565b5b6000612c9684828501612c5d565b91505092915050565b60008115159050919050565b612cb481612c9f565b82525050565b6000602082019050612ccf6000830184612cab565b92915050565b600081519050919050565b600082825260208201905092915050565b60005b83811015612d0f578082015181840152602081019050612cf4565b83811115612d1e576000848401525b50505050565b6000601f19601f8301169050919050565b6000612d4082612cd5565b612d4a8185612ce0565b9350612d5a818560208601612cf1565b612d6381612d24565b840191505092915050565b60006020820190508181036000830152612d888184612d35565b905092915050565b6000819050919050565b612da381612d90565b8114612dae57600080fd5b50565b600081359050612dc081612d9a565b92915050565b600060208284031215612ddc57612ddb612c10565b5b6000612dea84828501612db1565b91505092915050565b600073ffffffffffffffffffffffffffffffffffffffff82169050919050565b6000612e1e82612df3565b9050919050565b612e2e81612e13565b82525050565b6000602082019050612e496000830184612e25565b92915050565b612e5881612e13565b8114612e6357600080fd5b50565b600081359050612e7581612e4f565b92915050565b60008060408385031215612e9257612e91612c10565b5b6000612ea085828601612e66565b9250506020612eb185828601612db1565b9150509250929050565b612ec481612d90565b82525050565b6000602082019050612edf6000830184612ebb565b92915050565b600080600060608486031215612efe57612efd612c10565b5b6000612f0c86828701612e66565b9350506020612f1d86828701612e66565b9250506040612f2e86828701612db1565b9150509250925092565b600080fd5b600080fd5b7f4e487b7100000000000000000000000000000000000000000000000000000000600052604160045260246000fd5b612f7a82612d24565b810181811067ffffffffffffffff82111715612f9957612f98612f42565b5b80604052505050565b6000612fac612c06565b9050612fb88282612f71565b919050565b600067ffffffffffffffff821115612fd857612fd7612f42565b5b612fe182612d24565b9050602081019050919050565b82818337600083830152505050565b600061301061300b84612fbd565b612fa2565b90508281526020810184848401111561302c5761302b612f3d565b5b613037848285612fee565b509392505050565b600082601f83011261305457613053612f38565b5b8135613064848260208601612ffd565b91505092915050565b60006020828403121561308357613082612c10565b5b600082013567ffffffffffffffff8111156130a1576130a0612c15565b5b6130ad8482850161303f565b91505092915050565b6130bf81612d90565b82525050565b6130ce81612e13565b82525050565b6130dd81612c9f565b82525050565b6080820160008201516130f960008501826130b6565b50602082015161310c60208501826130b6565b50604082015161311f60408501826130c5565b50606082015161313260608501826130d4565b50505050565b600060808201905061314d60008301846130e3565b92915050565b60006020828403121561316957613168612c10565b5b600061317784828501612e66565b91505092915050565b600081519050919050565b600082825260208201905092915050565b6000819050602082019050919050565b6080820160008201516131c260008501826130b6565b5060208201516131d560208501826130b6565b5060408201516131e860408501826130c5565b5060608201516131fb60608501826130d4565b50505050565b600061320d83836131ac565b60808301905092915050565b6000602082019050919050565b600061323182613180565b61323b818561318b565b93506132468361319c565b8060005b8381101561327757815161325e8882613201565b975061326983613219565b92505060018101905061324a565b5085935050505092915050565b6000602082019050818103600083015261329e8184613226565b905092915050565b6132af81612c9f565b81146132ba57600080fd5b50565b6000813590506132cc816132a6565b92915050565b600080604083850312156132e9576132e8612c10565b5b60006132f785828601612e66565b9250506020613308858286016132bd565b9150509250929050565b600067ffffffffffffffff82111561332d5761332c612f42565b5b61333682612d24565b9050602081019050919050565b600061335661335184613312565b612fa2565b90508281526020810184848401111561337257613371612f3d565b5b61337d848285612fee565b509392505050565b600082601f83011261339a57613399612f38565b5b81356133aa848260208601613343565b91505092915050565b600080600080608085870312156133cd576133cc612c10565b5b60006133db87828801612e66565b94505060206133ec87828801612e66565b93505060406133fd87828801612db1565b925050606085013567ffffffffffffffff81111561341e5761341d612c15565b5b61342a87828801613385565b91505092959194509250565b6000806040838503121561344d5761344c612c10565b5b600083013567ffffffffffffffff81111561346b5761346a612c15565b5b6134778582860161303f565b925050602061348885828601612db1565b9150509250929050565b600080604083850312156134a9576134a8612c10565b5b60006134b785828601612e66565b92505060206134c885828601612e66565b9150509250929050565b7f4e487b7100000000000000000000000000000000000000000000000000000000600052602260045260246000fd5b6000600282049050600182168061351957607f821691505b60208210810361352c5761352b6134d2565b5b50919050565b7f4552433732313a20617070726f76616c20746f2063757272656e74206f776e6560008201527f7200000000000000000000000000000000000000000000000000000000000000602082015250565b600061358e602183612ce0565b915061359982613532565b604082019050919050565b600060208201905081810360008301526135bd81613581565b9050919050565b7f4552433732313a20617070726f76652063616c6c6572206973206e6f7420746f60008201527f6b656e206f776e6572206f7220617070726f76656420666f7220616c6c000000602082015250565b6000613620603d83612ce0565b915061362b826135c4565b604082019050919050565b6000602082019050818103600083015261364f81613613565b9050919050565b7f4552433732313a2063616c6c6572206973206e6f7420746f6b656e206f776e6560008201527f72206f7220617070726f76656400000000000000000000000000000000000000602082015250565b60006136b2602d83612ce0565b91506136bd82613656565b604082019050919050565b600060208201905081810360008301526136e1816136a5565b9050919050565b7f496e646578206f7574206f6620626f756e647300000000000000000000000000600082015250565b600061371e601383612ce0565b9150613729826136e8565b602082019050919050565b6000602082019050818103600083015261374d81613711565b9050919050565b600081905092915050565b600061376a82612cd5565b6137748185613754565b9350613784818560208601612cf1565b80840191505092915050565b600061379c828461375f565b915081905092915050565b7f4e487b7100000000000000000000000000000000000000000000000000000000600052603260045260246000fd5b7f4552433732313a20696e76616c696420746f6b656e2049440000000000000000600082015250565b600061380c601883612ce0565b9150613817826137d6565b602082019050919050565b6000602082019050818103600083015261383b816137ff565b9050919050565b7f4552433732313a2061646472657373207a65726f206973206e6f74206120766160008201527f6c6964206f776e65720000000000000000000000000000000000000000000000602082015250565b600061389e602983612ce0565b91506138a982613842565b604082019050919050565b600060208201905081810360008301526138cd81613891565b9050919050565b7f4e487b7100000000000000000000000000000000000000000000000000000000600052601160045260246000fd5b600061390e82612d90565b91507fffffffffffffffffffffffffffffffffffffffffffffffffffffffffffffffff82036139405761393f6138d4565b5b600182019050919050565b7f5072696365206d757374206265206174206c6561737420312077656900000000600082015250565b6000613981601c83612ce0565b915061398c8261394b565b602082019050919050565b600060208201905081810360008301526139b081613974565b9050919050565b60006139c3828561375f565b91506139cf828461375f565b91508190509392505050565b7f4f776e61626c653a206e6577206f776e657220697320746865207a65726f206160008201527f6464726573730000000000000000000000000000000000000000000000000000602082015250565b6000613a37602683612ce0565b9150613a42826139db565b604082019050919050565b60006020820190508181036000830152613a6681613a2a565b9050919050565b7f4552433732313a207472616e736665722066726f6d20696e636f72726563742060008201527f6f776e6572000000000000000000000000000000000000000000000000000000602082015250565b6000613ac9602583612ce0565b9150613ad482613a6d565b604082019050919050565b60006020820190508181036000830152613af881613abc565b9050919050565b7f4552433732313a207472616e7366657220746f20746865207a65726f2061646460008201527f7265737300000000000000000000000000000000000000000000000000000000602082015250565b6000613b5b602483612ce0565b9150613b6682613aff565b604082019050919050565b60006020820190508181036000830152613b8a81613b4e565b9050919050565b7f4f776e61626c653a2063616c6c6572206973206e6f7420746865206f776e6572600082015250565b6000613bc7602083612ce0565b9150613bd282613b91565b602082019050919050565b60006020820190508181036000830152613bf681613bba565b9050919050565b7f4552433732313a20617070726f766520746f2063616c6c657200000000000000600082015250565b6000613c33601983612ce0565b9150613c3e82613bfd565b602082019050919050565b60006020820190508181036000830152613c6281613c26565b9050919050565b7f4552433732313a207472616e7366657220746f206e6f6e20455243373231526560008201527f63656976657220696d706c656d656e7465720000000000000000000000000000602082015250565b6000613cc5603283612ce0565b9150613cd082613c69565b604082019050919050565b60006020820190508181036000830152613cf481613cb8565b9050919050565b7f45524337323155524953746f726167653a2055524920736574206f66206e6f6e60008201527f6578697374656e7420746f6b656e000000000000000000000000000000000000602082015250565b6000613d57602e83612ce0565b9150613d6282613cfb565b604082019050919050565b60006020820190508181036000830152613d8681613d4a565b9050919050565b7f5072696365206d757374206265206174206c6561737420317765690000000000600082015250565b6000613dc3601b83612ce0565b9150613dce82613d8d565b602082019050919050565b60006020820190508181036000830152613df281613db6565b9050919050565b6000608082019050613e0e6000830187612ebb565b613e1b6020830186612ebb565b613e286040830185612e25565b613e356060830184612cab565b95945050505050565b600081519050919050565b600082825260208201905092915050565b6000613e6582613e3e565b613e6f8185613e49565b9350613e7f818560208601612cf1565b613e8881612d24565b840191505092915050565b6000608082019050613ea86000830187612e25565b613eb56020830186612e25565b613ec26040830185612ebb565b8181036060830152613ed48184613e5a565b905095945050505050565b600081519050613eee81612c46565b92915050565b600060208284031215613f0a57613f09612c10565b5b6000613f1884828501613edf565b91505092915050565b7f4e487b7100000000000000000000000000000000000000000000000000000000600052601260045260246000fd5b6000613f5b82612d90565b9150613f6683612d90565b925082821015613f7957613f786138d4565b5b828203905092915050565b7f4e487b7100000000000000000000000000000000000000000000000000000000600052603160045260246000fd5b7f4552433732313a206d696e7420746f20746865207a65726f2061646472657373600082015250565b6000613fe9602083612ce0565b9150613ff482613fb3565b602082019050919050565b6000602082019050818103600083015261401881613fdc565b9050919050565b7f4552433732313a20746f6b656e20616c7265616479206d696e74656400000000600082015250565b6000614055601c83612ce0565b91506140608261401f565b602082019050919050565b6000602082019050818103600083015261408481614048565b905091905056fea26469706673582212203114a94f8cfbe164504f96ecbfb62c7ad5eef2f93c0c114aa06779145b2f351964736f6c634300080d0033",
  "immutableReferences": {},
  "source": "// SPDX-License-Identifier: MIT\npragma solidity >=0.4.22 <0.9.0;\n\nimport \"@openzeppelin/contracts/token/ERC721/extensions/ERC721URIStorage.sol\";\nimport \"@openzeppelin/contracts/utils/Counters.sol\";\nimport \"@openzeppelin/contracts/access/Ownable.sol\";\n\ncontract SPFNft is ERC721URIStorage, Ownable {\n  using Counters for Counters.Counter;\n\n  Counters.Counter private _listedItems;\n  Counters.Counter private _tokenIds;\n\n  // All Token Ids in array\n  uint256[] private _allNfts;\n\n  mapping(string => bool) private _usedTokenURIs;\n  mapping(uint => NFTItem) private _idToNftItem;\n\n  mapping(address => mapping(uint => uint)) private _ownedTokens;\n  mapping(uint => uint) private _idToOwnedIndex;\n\n  mapping(uint => uint) private _idToNftIndex;\n\n  struct NFTItem {\n    uint tokenId;\n    uint price;\n    address creator;\n    bool isListed;\n  }\n\n  event NFTItemCreated (\n    uint tokenId,\n    uint price,\n    address creator,\n    bool isListed\n  );\n\n  uint public listingPrice = 0.025 ether;\n\n  constructor() ERC721(\"CreaturesNFT\", \"CNFT\") {}\n\n  function setListingPrice(uint newPrice) external onlyOwner {\n    require(newPrice > 0, \"Price must be at least 1 wei\");\n    listingPrice = newPrice;\n  } \n\n  function getNftItem(uint tokenId) public view returns (NFTItem memory) {\n    return _idToNftItem[tokenId];\n  }\n\n  function listedItemsCount() public view returns (uint) {\n    return _listedItems.current();\n  }\n\n  function tokenURIExists(string memory tokenURI) public view returns (bool) {\n    return _usedTokenURIs[tokenURI] == true;\n  }\n\n  function totalSupply() public view returns (uint) {\n    return _allNfts.length;\n  }\n\n  function tokenByIndex(uint index) public view returns (uint) {\n    require(index < totalSupply(), \"Index out of bounds\");\n    return _allNfts[index];\n  }\n\n  function tokenOfOwnerByIndex(address owner, uint index) public view returns (uint) {\n    require(index < ERC721.balanceOf(owner), \"Index out of bounds\");\n    return _ownedTokens[owner][index];\n  }\n\n  function getOwnedNfts() public view returns (NFTItem[] memory) {\n    uint ownedItemsCount = ERC721.balanceOf(msg.sender);\n    NFTItem[] memory items = new NFTItem[](ownedItemsCount);\n\n    for (uint i = 0; i < ownedItemsCount; i++) {\n      uint tokeId = tokenOfOwnerByIndex(msg.sender, i);\n      NFTItem storage item = _idToNftItem[tokeId];\n      items[i] = item;\n    }\n\n    return items;\n  }\n\n\n  function burnToken(uint tokenId) public {\n    _burn(tokenId);\n  }\n\n  function mintToken(string memory tokenURI, uint price) public payable returns (uint) {\n    // require(!tokenURIExists(tokenURI), \"Token URI already exists\");\n    // require(msg.value == listingPrice, \"Price must be qual to listing price\");\n    _tokenIds.increment();\n    _listedItems.increment();\n\n    uint newTokenId = _tokenIds.current();\n    _safeMint(msg.sender, newTokenId);\n    _setTokenURI(newTokenId, tokenURI);\n    _createNftItem(newTokenId, price);\n    _usedTokenURIs[tokenURI] = true;\n\n    return newTokenId;\n  }\n\n\n  function _createNftItem(uint tokenId, uint price) private {\n    require(price > 0, \"Price must be at least 1wei\");\n\n    _idToNftItem[tokenId] = NFTItem(\n      tokenId,\n      price,\n      msg.sender,\n      true\n    );\n\n    emit NFTItemCreated(tokenId, price, msg.sender, true);\n  }\n\n  function _beforeTokenTransfer(address from, address to, uint tokenId, uint256 batchSize) internal virtual override {\n    super._beforeTokenTransfer(from, to, tokenId, batchSize);\n\n    if (from == address(0)) {\n      _addTokenToAllTokensEnumeration(tokenId);\n    } else if (from != to) {\n      _removeTokenFromOwnerEnumeration(from, tokenId);\n    }\n\n    if (to == address(0)) {\n      _removeTokenFromAllTokensEnumeration((tokenId));\n    } else if (to != from) {\n      _addTokenToOwnerEnumeration(to, tokenId);\n    }\n  }\n\n  function _addTokenToAllTokensEnumeration(uint tokenId) private {\n    _idToNftIndex[tokenId] = _allNfts.length;\n    _allNfts.push(tokenId);\n  }\n\n  function _addTokenToOwnerEnumeration(address to, uint tokenId) private {\n    uint lenght = ERC721.balanceOf(to);\n    _ownedTokens[to][lenght] = tokenId;\n    _idToOwnedIndex[tokenId] = lenght;\n  }\n\n  function _removeTokenFromOwnerEnumeration(address from, uint tokenId) private {\n    uint lastTokenIndex = ERC721.balanceOf(from) - 1;\n    uint tokenIndex = _idToOwnedIndex[tokenId];\n\n    if (tokenIndex != lastTokenIndex) {\n      uint lastTokenId = _ownedTokens[from][lastTokenIndex];\n      _ownedTokens[from][tokenId] = lastTokenId;\n      _idToOwnedIndex[lastTokenId] = tokenIndex;\n    }\n\n    delete _idToOwnedIndex[tokenId];\n    delete _ownedTokens[from][lastTokenIndex];\n  }\n\n  function _removeTokenFromAllTokensEnumeration(uint tokenId) private {\n    uint lastTokenIndex = _allNfts.length - 1;\n    uint tokenIndex = _idToNftIndex[tokenId];\n    uint lastTokenId = _allNfts[lastTokenIndex];\n\n    _allNfts[tokenIndex] = lastTokenId;\n    _idToNftIndex[lastTokenId] = tokenIndex;\n\n    delete _idToNftIndex[tokenId];\n    _allNfts.pop();\n  }\n}",
  "sourcePath": "/Users/sluzbabezopasnosti/Documents/GitHub/StagePoint/frontend/contracts/SPFNft.sol",
  "compiler": {
    "name": "solc",
    "version": "0.8.13+commit.abaa5c0e.Emscripten.clang"
  },
  "schemaVersion": "3.4.16",
  "updatedAt": "2024-03-31T19:41:16.433Z",
  "networkType": "ethereum",
  "devdoc": {
    "kind": "dev",
    "methods": {
      "approve(address,uint256)": {
        "details": "See {IERC721-approve}."
      },
      "balanceOf(address)": {
        "details": "See {IERC721-balanceOf}."
      },
      "getApproved(uint256)": {
        "details": "See {IERC721-getApproved}."
      },
      "isApprovedForAll(address,address)": {
        "details": "See {IERC721-isApprovedForAll}."
      },
      "name()": {
        "details": "See {IERC721Metadata-name}."
      },
      "owner()": {
        "details": "Returns the address of the current owner."
      },
      "ownerOf(uint256)": {
        "details": "See {IERC721-ownerOf}."
      },
      "renounceOwnership()": {
        "details": "Leaves the contract without owner. It will not be possible to call `onlyOwner` functions. Can only be called by the current owner. NOTE: Renouncing ownership will leave the contract without an owner, thereby disabling any functionality that is only available to the owner."
      },
      "safeTransferFrom(address,address,uint256)": {
        "details": "See {IERC721-safeTransferFrom}."
      },
      "safeTransferFrom(address,address,uint256,bytes)": {
        "details": "See {IERC721-safeTransferFrom}."
      },
      "setApprovalForAll(address,bool)": {
        "details": "See {IERC721-setApprovalForAll}."
      },
      "supportsInterface(bytes4)": {
        "details": "See {IERC165-supportsInterface}"
      },
      "symbol()": {
        "details": "See {IERC721Metadata-symbol}."
      },
      "tokenURI(uint256)": {
        "details": "See {IERC721Metadata-tokenURI}."
      },
      "transferFrom(address,address,uint256)": {
        "details": "See {IERC721-transferFrom}."
      },
      "transferOwnership(address)": {
        "details": "Transfers ownership of the contract to a new account (`newOwner`). Can only be called by the current owner."
      }
    },
    "version": 1
  },
  "userdoc": {
    "kind": "user",
    "methods": {},
    "version": 1
  }
}