{
  "contractName": "NftMarket",
  "abi": [
    {
      "inputs": [],
      "stateMutability": "nonpayable",
      "type": "constructor"
    },
    {
      "anonymous": false,
      "inputs": [
        {
          "indexed": true,
          "internalType": "address",
          "name": "owner",
          "type": "address"
        },
        {
          "indexed": true,
          "internalType": "address",
          "name": "approved",
          "type": "address"
        },
        {
          "indexed": true,
          "internalType": "uint256",
          "name": "tokenId",
          "type": "uint256"
        }
      ],
      "name": "Approval",
      "type": "event"
    },
    {
      "anonymous": false,
      "inputs": [
        {
          "indexed": true,
          "internalType": "address",
          "name": "owner",
          "type": "address"
        },
        {
          "indexed": true,
          "internalType": "address",
          "name": "operator",
          "type": "address"
        },
        {
          "indexed": false,
          "internalType": "bool",
          "name": "approved",
          "type": "bool"
        }
      ],
      "name": "ApprovalForAll",
      "type": "event"
    },
    {
      "anonymous": false,
      "inputs": [
        {
          "indexed": false,
          "internalType": "uint256",
          "name": "tokenId",
          "type": "uint256"
        },
        {
          "indexed": false,
          "internalType": "uint256",
          "name": "price",
          "type": "uint256"
        },
        {
          "indexed": false,
          "internalType": "address",
          "name": "creator",
          "type": "address"
        },
        {
          "indexed": false,
          "internalType": "bool",
          "name": "isListed",
          "type": "bool"
        }
      ],
      "name": "NFTItemCreated",
      "type": "event"
    },
    {
      "anonymous": false,
      "inputs": [
        {
          "indexed": true,
          "internalType": "address",
          "name": "previousOwner",
          "type": "address"
        },
        {
          "indexed": true,
          "internalType": "address",
          "name": "newOwner",
          "type": "address"
        }
      ],
      "name": "OwnershipTransferred",
      "type": "event"
    },
    {
      "anonymous": false,
      "inputs": [
        {
          "indexed": true,
          "internalType": "address",
          "name": "from",
          "type": "address"
        },
        {
          "indexed": true,
          "internalType": "address",
          "name": "to",
          "type": "address"
        },
        {
          "indexed": true,
          "internalType": "uint256",
          "name": "tokenId",
          "type": "uint256"
        }
      ],
      "name": "Transfer",
      "type": "event"
    },
    {
      "inputs": [
        {
          "internalType": "address",
          "name": "to",
          "type": "address"
        },
        {
          "internalType": "uint256",
          "name": "tokenId",
          "type": "uint256"
        }
      ],
      "name": "approve",
      "outputs": [],
      "stateMutability": "nonpayable",
      "type": "function"
    },
    {
      "inputs": [
        {
          "internalType": "address",
          "name": "owner",
          "type": "address"
        }
      ],
      "name": "balanceOf",
      "outputs": [
        {
          "internalType": "uint256",
          "name": "",
          "type": "uint256"
        }
      ],
      "stateMutability": "view",
      "type": "function",
      "constant": true
    },
    {
      "inputs": [
        {
          "internalType": "uint256",
          "name": "tokenId",
          "type": "uint256"
        }
      ],
      "name": "getApproved",
      "outputs": [
        {
          "internalType": "address",
          "name": "",
          "type": "address"
        }
      ],
      "stateMutability": "view",
      "type": "function",
      "constant": true
    },
    {
      "inputs": [
        {
          "internalType": "address",
          "name": "owner",
          "type": "address"
        },
        {
          "internalType": "address",
          "name": "operator",
          "type": "address"
        }
      ],
      "name": "isApprovedForAll",
      "outputs": [
        {
          "internalType": "bool",
          "name": "",
          "type": "bool"
        }
      ],
      "stateMutability": "view",
      "type": "function",
      "constant": true
    },
    {
      "inputs": [],
      "name": "listingPrice",
      "outputs": [
        {
          "internalType": "uint256",
          "name": "",
          "type": "uint256"
        }
      ],
      "stateMutability": "view",
      "type": "function",
      "constant": true
    },
    {
      "inputs": [],
      "name": "name",
      "outputs": [
        {
          "internalType": "string",
          "name": "",
          "type": "string"
        }
      ],
      "stateMutability": "view",
      "type": "function",
      "constant": true
    },
    {
      "inputs": [],
      "name": "owner",
      "outputs": [
        {
          "internalType": "address",
          "name": "",
          "type": "address"
        }
      ],
      "stateMutability": "view",
      "type": "function",
      "constant": true
    },
    {
      "inputs": [
        {
          "internalType": "uint256",
          "name": "tokenId",
          "type": "uint256"
        }
      ],
      "name": "ownerOf",
      "outputs": [
        {
          "internalType": "address",
          "name": "",
          "type": "address"
        }
      ],
      "stateMutability": "view",
      "type": "function",
      "constant": true
    },
    {
      "inputs": [],
      "name": "renounceOwnership",
      "outputs": [],
      "stateMutability": "nonpayable",
      "type": "function"
    },
    {
      "inputs": [
        {
          "internalType": "address",
          "name": "from",
          "type": "address"
        },
        {
          "internalType": "address",
          "name": "to",
          "type": "address"
        },
        {
          "internalType": "uint256",
          "name": "tokenId",
          "type": "uint256"
        }
      ],
      "name": "safeTransferFrom",
      "outputs": [],
      "stateMutability": "nonpayable",
      "type": "function"
    },
    {
      "inputs": [
        {
          "internalType": "address",
          "name": "from",
          "type": "address"
        },
        {
          "internalType": "address",
          "name": "to",
          "type": "address"
        },
        {
          "internalType": "uint256",
          "name": "tokenId",
          "type": "uint256"
        },
        {
          "internalType": "bytes",
          "name": "_data",
          "type": "bytes"
        }
      ],
      "name": "safeTransferFrom",
      "outputs": [],
      "stateMutability": "nonpayable",
      "type": "function"
    },
    {
      "inputs": [
        {
          "internalType": "address",
          "name": "operator",
          "type": "address"
        },
        {
          "internalType": "bool",
          "name": "approved",
          "type": "bool"
        }
      ],
      "name": "setApprovalForAll",
      "outputs": [],
      "stateMutability": "nonpayable",
      "type": "function"
    },
    {
      "inputs": [
        {
          "internalType": "bytes4",
          "name": "interfaceId",
          "type": "bytes4"
        }
      ],
      "name": "supportsInterface",
      "outputs": [
        {
          "internalType": "bool",
          "name": "",
          "type": "bool"
        }
      ],
      "stateMutability": "view",
      "type": "function",
      "constant": true
    },
    {
      "inputs": [],
      "name": "symbol",
      "outputs": [
        {
          "internalType": "string",
          "name": "",
          "type": "string"
        }
      ],
      "stateMutability": "view",
      "type": "function",
      "constant": true
    },
    {
      "inputs": [
        {
          "internalType": "uint256",
          "name": "tokenId",
          "type": "uint256"
        }
      ],
      "name": "tokenURI",
      "outputs": [
        {
          "internalType": "string",
          "name": "",
          "type": "string"
        }
      ],
      "stateMutability": "view",
      "type": "function",
      "constant": true
    },
    {
      "inputs": [
        {
          "internalType": "address",
          "name": "from",
          "type": "address"
        },
        {
          "internalType": "address",
          "name": "to",
          "type": "address"
        },
        {
          "internalType": "uint256",
          "name": "tokenId",
          "type": "uint256"
        }
      ],
      "name": "transferFrom",
      "outputs": [],
      "stateMutability": "nonpayable",
      "type": "function"
    },
    {
      "inputs": [
        {
          "internalType": "address",
          "name": "newOwner",
          "type": "address"
        }
      ],
      "name": "transferOwnership",
      "outputs": [],
      "stateMutability": "nonpayable",
      "type": "function"
    },
    {
      "inputs": [
        {
          "internalType": "uint256",
          "name": "newPrice",
          "type": "uint256"
        }
      ],
      "name": "setListingPrice",
      "outputs": [],
      "stateMutability": "nonpayable",
      "type": "function"
    },
    {
      "inputs": [
        {
          "internalType": "uint256",
          "name": "tokenId",
          "type": "uint256"
        }
      ],
      "name": "getNftItem",
      "outputs": [
        {
          "components": [
            {
              "internalType": "uint256",
              "name": "tokenId",
              "type": "uint256"
            },
            {
              "internalType": "uint256",
              "name": "price",
              "type": "uint256"
            },
            {
              "internalType": "address",
              "name": "creator",
              "type": "address"
            },
            {
              "internalType": "bool",
              "name": "isListed",
              "type": "bool"
            }
          ],
          "internalType": "struct NftMarket.NFTItem",
          "name": "",
          "type": "tuple"
        }
      ],
      "stateMutability": "view",
      "type": "function",
      "constant": true
    },
    {
      "inputs": [],
      "name": "listedItemsCount",
      "outputs": [
        {
          "internalType": "uint256",
          "name": "",
          "type": "uint256"
        }
      ],
      "stateMutability": "view",
      "type": "function",
      "constant": true
    },
    {
      "inputs": [
        {
          "internalType": "string",
          "name": "tokenURI",
          "type": "string"
        }
      ],
      "name": "tokenURIExists",
      "outputs": [
        {
          "internalType": "bool",
          "name": "",
          "type": "bool"
        }
      ],
      "stateMutability": "view",
      "type": "function",
      "constant": true
    },
    {
      "inputs": [],
      "name": "totalSupply",
      "outputs": [
        {
          "internalType": "uint256",
          "name": "",
          "type": "uint256"
        }
      ],
      "stateMutability": "view",
      "type": "function",
      "constant": true
    },
    {
      "inputs": [
        {
          "internalType": "uint256",
          "name": "index",
          "type": "uint256"
        }
      ],
      "name": "tokenByIndex",
      "outputs": [
        {
          "internalType": "uint256",
          "name": "",
          "type": "uint256"
        }
      ],
      "stateMutability": "view",
      "type": "function",
      "constant": true
    },
    {
      "inputs": [
        {
          "internalType": "address",
          "name": "owner",
          "type": "address"
        },
        {
          "internalType": "uint256",
          "name": "index",
          "type": "uint256"
        }
      ],
      "name": "tokenOfOwnerByIndex",
      "outputs": [
        {
          "internalType": "uint256",
          "name": "",
          "type": "uint256"
        }
      ],
      "stateMutability": "view",
      "type": "function",
      "constant": true
    },
    {
      "inputs": [],
      "name": "getAllNftsOnSale",
      "outputs": [
        {
          "components": [
            {
              "internalType": "uint256",
              "name": "tokenId",
              "type": "uint256"
            },
            {
              "internalType": "uint256",
              "name": "price",
              "type": "uint256"
            },
            {
              "internalType": "address",
              "name": "creator",
              "type": "address"
            },
            {
              "internalType": "bool",
              "name": "isListed",
              "type": "bool"
            }
          ],
          "internalType": "struct NftMarket.NFTItem[]",
          "name": "",
          "type": "tuple[]"
        }
      ],
      "stateMutability": "view",
      "type": "function",
      "constant": true
    },
    {
      "inputs": [],
      "name": "getOwnedNfts",
      "outputs": [
        {
          "components": [
            {
              "internalType": "uint256",
              "name": "tokenId",
              "type": "uint256"
            },
            {
              "internalType": "uint256",
              "name": "price",
              "type": "uint256"
            },
            {
              "internalType": "address",
              "name": "creator",
              "type": "address"
            },
            {
              "internalType": "bool",
              "name": "isListed",
              "type": "bool"
            }
          ],
          "internalType": "struct NftMarket.NFTItem[]",
          "name": "",
          "type": "tuple[]"
        }
      ],
      "stateMutability": "view",
      "type": "function",
      "constant": true
    },
    {
      "inputs": [
        {
          "internalType": "uint256",
          "name": "tokenId",
          "type": "uint256"
        }
      ],
      "name": "burnToken",
      "outputs": [],
      "stateMutability": "nonpayable",
      "type": "function"
    },
    {
      "inputs": [
        {
          "internalType": "string",
          "name": "tokenURI",
          "type": "string"
        },
        {
          "internalType": "uint256",
          "name": "price",
          "type": "uint256"
        }
      ],
      "name": "mintToken",
      "outputs": [
        {
          "internalType": "uint256",
          "name": "",
          "type": "uint256"
        }
      ],
      "stateMutability": "payable",
      "type": "function",
      "payable": true
    },
    {
      "inputs": [
        {
          "internalType": "uint256",
          "name": "tokenId",
          "type": "uint256"
        }
      ],
      "name": "buyNft",
      "outputs": [],
      "stateMutability": "payable",
      "type": "function",
      "payable": true
    },
    {
      "inputs": [
        {
          "internalType": "uint256",
          "name": "tokenId",
          "type": "uint256"
        },
        {
          "internalType": "uint256",
          "name": "newPrice",
          "type": "uint256"
        }
      ],
      "name": "placeNftOnSale",
      "outputs": [],
      "stateMutability": "payable",
      "type": "function",
      "payable": true
    }
  ],
  "bytecode": "0x60806040526658d15e176280006010553480156200001c57600080fd5b506040518060400160405280600c81526020017f4372656174757265734e465400000000000000000000000000000000000000008152506040518060400160405280600481526020017f434e4654000000000000000000000000000000000000000000000000000000008152508160009080519060200190620000a1929190620001b1565b508060019080519060200190620000ba929190620001b1565b505050620000dd620000d1620000e360201b60201c565b620000eb60201b60201c565b620002c5565b600033905090565b6000600760009054906101000a900473ffffffffffffffffffffffffffffffffffffffff16905081600760006101000a81548173ffffffffffffffffffffffffffffffffffffffff021916908373ffffffffffffffffffffffffffffffffffffffff1602179055508173ffffffffffffffffffffffffffffffffffffffff168173ffffffffffffffffffffffffffffffffffffffff167f8be0079c531659141344cd1fd0a4f28419497f9722a3daafe3b4186f6b6457e060405160405180910390a35050565b828054620001bf9062000290565b90600052602060002090601f016020900481019282620001e357600085556200022f565b82601f10620001fe57805160ff19168380011785556200022f565b828001600101855582156200022f579182015b828111156200022e57825182559160200191906001019062000211565b5b5090506200023e919062000242565b5090565b5b808211156200025d57600081600090555060010162000243565b5090565b7f4e487b7100000000000000000000000000000000000000000000000000000000600052602260045260246000fd5b60006002820490506001821680620002a957607f821691505b602082108103620002bf57620002be62000261565b5b50919050565b614b9080620002d56000396000f3fe6080604052600436106101cd5760003560e01c806370a08231116100f7578063a22cb46511610095578063c87b56dd11610064578063c87b56dd14610685578063ccb4918d146106c2578063e985e9c5146106ed578063f2fde38b1461072a576101cd565b8063a22cb465146105d8578063b88d4fde14610601578063c046372c1461062a578063c78f19f91461065a576101cd565b80637b47ec1a116100d15780637b47ec1a146105305780637c726b69146105595780638da5cb5b1461058257806395d89b41146105ad576101cd565b806370a08231146104b157806370cbcb43146104ee578063715018a614610519576101cd565b8063243adbdd1161016f57806343d32ae71161013e57806343d32ae7146103bd5780634f6ccce7146103fa5780636352211e146104375780636f1a0af514610474576101cd565b8063243adbdd146103105780632f745c591461032c57806336b536be1461036957806342842e0e14610394576101cd565b8063095ea7b3116101ab578063095ea7b31461027757806318160ddd146102a057806321f422e5146102cb57806323b872dd146102e7576101cd565b806301ffc9a7146101d257806306fdde031461020f578063081812fc1461023a575b600080fd5b3480156101de57600080fd5b506101f960048036038101906101f4919061312d565b610753565b6040516102069190613175565b60405180910390f35b34801561021b57600080fd5b50610224610835565b6040516102319190613229565b60405180910390f35b34801561024657600080fd5b50610261600480360381019061025c9190613281565b6108c7565b60405161026e91906132ef565b60405180910390f35b34801561028357600080fd5b5061029e60048036038101906102999190613336565b61094c565b005b3480156102ac57600080fd5b506102b5610a63565b6040516102c29190613385565b60405180910390f35b6102e560048036038101906102e091906133a0565b610a70565b005b3480156102f357600080fd5b5061030e600480360381019061030991906133e0565b610bec565b005b61032a60048036038101906103259190613281565b610c4c565b005b34801561033857600080fd5b50610353600480360381019061034e9190613336565b610db4565b6040516103609190613385565b60405180910390f35b34801561037557600080fd5b5061037e610e59565b60405161038b9190613564565b60405180910390f35b3480156103a057600080fd5b506103bb60048036038101906103b691906133e0565b610ff3565b005b3480156103c957600080fd5b506103e460048036038101906103df91906136bb565b611013565b6040516103f19190613175565b60405180910390f35b34801561040657600080fd5b50610421600480360381019061041c9190613281565b61104f565b60405161042e9190613385565b60405180910390f35b34801561044357600080fd5b5061045e60048036038101906104599190613281565b6110c0565b60405161046b91906132ef565b60405180910390f35b34801561048057600080fd5b5061049b60048036038101906104969190613281565b611171565b6040516104a89190613759565b60405180910390f35b3480156104bd57600080fd5b506104d860048036038101906104d39190613774565b611223565b6040516104e59190613385565b60405180910390f35b3480156104fa57600080fd5b506105036112da565b6040516105109190613564565b60405180910390f35b34801561052557600080fd5b5061052e61143e565b005b34801561053c57600080fd5b5061055760048036038101906105529190613281565b6114c6565b005b34801561056557600080fd5b50610580600480360381019061057b9190613281565b6114d2565b005b34801561058e57600080fd5b5061059761159b565b6040516105a491906132ef565b60405180910390f35b3480156105b957600080fd5b506105c26115c5565b6040516105cf9190613229565b60405180910390f35b3480156105e457600080fd5b506105ff60048036038101906105fa91906137cd565b611657565b005b34801561060d57600080fd5b50610628600480360381019061062391906138ae565b61166d565b005b610644600480360381019061063f9190613931565b6116cf565b6040516106519190613385565b60405180910390f35b34801561066657600080fd5b5061066f611752565b60405161067c9190613385565b60405180910390f35b34801561069157600080fd5b506106ac60048036038101906106a79190613281565b611758565b6040516106b99190613229565b60405180910390f35b3480156106ce57600080fd5b506106d76118a9565b6040516106e49190613385565b60405180910390f35b3480156106f957600080fd5b50610714600480360381019061070f919061398d565b6118ba565b6040516107219190613175565b60405180910390f35b34801561073657600080fd5b50610751600480360381019061074c9190613774565b61194e565b005b60007f80ac58cd000000000000000000000000000000000000000000000000000000007bffffffffffffffffffffffffffffffffffffffffffffffffffffffff1916827bffffffffffffffffffffffffffffffffffffffffffffffffffffffff1916148061081e57507f5b5e139f000000000000000000000000000000000000000000000000000000007bffffffffffffffffffffffffffffffffffffffffffffffffffffffff1916827bffffffffffffffffffffffffffffffffffffffffffffffffffffffff1916145b8061082e575061082d82611a45565b5b9050919050565b606060008054610844906139fc565b80601f0160208091040260200160405190810160405280929190818152602001828054610870906139fc565b80156108bd5780601f10610892576101008083540402835291602001916108bd565b820191906000526020600020905b8154815290600101906020018083116108a057829003601f168201915b5050505050905090565b60006108d282611aaf565b610911576040517f08c379a000000000000000000000000000000000000000000000000000000000815260040161090890613a9f565b60405180910390fd5b6004600083815260200190815260200160002060009054906101000a900473ffffffffffffffffffffffffffffffffffffffff169050919050565b6000610957826110c0565b90508073ffffffffffffffffffffffffffffffffffffffff168373ffffffffffffffffffffffffffffffffffffffff16036109c7576040517f08c379a00000000000000000000000000000000000000000000000000000000081526004016109be90613b31565b60405180910390fd5b8073ffffffffffffffffffffffffffffffffffffffff166109e6611b1b565b73ffffffffffffffffffffffffffffffffffffffff161480610a155750610a1481610a0f611b1b565b6118ba565b5b610a54576040517f08c379a0000000000000000000000000000000000000000000000000000000008152600401610a4b90613bc3565b60405180910390fd5b610a5e8383611b23565b505050565b6000600a80549050905090565b3373ffffffffffffffffffffffffffffffffffffffff16610a90836110c0565b73ffffffffffffffffffffffffffffffffffffffff1614610ae6576040517f08c379a0000000000000000000000000000000000000000000000000000000008152600401610add90613c2f565b60405180910390fd5b60001515600c600084815260200190815260200160002060020160149054906101000a900460ff16151514610b50576040517f08c379a0000000000000000000000000000000000000000000000000000000008152600401610b4790613c9b565b60405180910390fd5b6010543414610b94576040517f08c379a0000000000000000000000000000000000000000000000000000000008152600401610b8b90613d2d565b60405180910390fd5b6001600c600084815260200190815260200160002060020160146101000a81548160ff02191690831515021790555080600c600084815260200190815260200160002060010181905550610be86008611bdc565b5050565b610bfd610bf7611b1b565b82611bf2565b610c3c576040517f08c379a0000000000000000000000000000000000000000000000000000000008152600401610c3390613dbf565b60405180910390fd5b610c47838383611cd0565b505050565b6000600c60008381526020019081526020016000206001015490506000610c72836110c0565b90508073ffffffffffffffffffffffffffffffffffffffff163373ffffffffffffffffffffffffffffffffffffffff1603610ce2576040517f08c379a0000000000000000000000000000000000000000000000000000000008152600401610cd990613e2b565b60405180910390fd5b813414610d24576040517f08c379a0000000000000000000000000000000000000000000000000000000008152600401610d1b90613e97565b60405180910390fd5b6000600c600085815260200190815260200160002060020160146101000a81548160ff021916908315150217905550610d5d6008611f36565b610d68813385611cd0565b8073ffffffffffffffffffffffffffffffffffffffff166108fc349081150290604051600060405180830381858888f19350505050158015610dae573d6000803e3d6000fd5b50505050565b6000610dbf83611223565b8210610e00576040517f08c379a0000000000000000000000000000000000000000000000000000000008152600401610df790613f03565b60405180910390fd5b600d60008473ffffffffffffffffffffffffffffffffffffffff1673ffffffffffffffffffffffffffffffffffffffff168152602001908152602001600020600083815260200190815260200160002054905092915050565b60606000610e65610a63565b9050600080610e746008611f92565b67ffffffffffffffff811115610e8d57610e8c613590565b5b604051908082528060200260200182016040528015610ec657816020015b610eb3612f9e565b815260200190600190039081610eab5790505b50905060005b83811015610fe9576000610edf8261104f565b90506000600c60008381526020019081526020016000209050600115158160020160149054906101000a900460ff16151503610fd4578060405180608001604052908160008201548152602001600182015481526020016002820160009054906101000a900473ffffffffffffffffffffffffffffffffffffffff1673ffffffffffffffffffffffffffffffffffffffff1673ffffffffffffffffffffffffffffffffffffffff1681526020016002820160149054906101000a900460ff161515151581525050848681518110610fb957610fb8613f23565b5b6020026020010181905250600185610fd19190613f81565b94505b50508080610fe190613fd7565b915050610ecc565b5080935050505090565b61100e8383836040518060200160405280600081525061166d565b505050565b600060011515600b83604051611029919061405b565b908152602001604051809103902060009054906101000a900460ff161515149050919050565b6000611059610a63565b821061109a576040517f08c379a000000000000000000000000000000000000000000000000000000000815260040161109190613f03565b60405180910390fd5b600a82815481106110ae576110ad613f23565b5b90600052602060002001549050919050565b6000806002600084815260200190815260200160002060009054906101000a900473ffffffffffffffffffffffffffffffffffffffff169050600073ffffffffffffffffffffffffffffffffffffffff168173ffffffffffffffffffffffffffffffffffffffff1603611168576040517f08c379a000000000000000000000000000000000000000000000000000000000815260040161115f906140e4565b60405180910390fd5b80915050919050565b611179612f9e565b600c600083815260200190815260200160002060405180608001604052908160008201548152602001600182015481526020016002820160009054906101000a900473ffffffffffffffffffffffffffffffffffffffff1673ffffffffffffffffffffffffffffffffffffffff1673ffffffffffffffffffffffffffffffffffffffff1681526020016002820160149054906101000a900460ff1615151515815250509050919050565b60008073ffffffffffffffffffffffffffffffffffffffff168273ffffffffffffffffffffffffffffffffffffffff1603611293576040517f08c379a000000000000000000000000000000000000000000000000000000000815260040161128a90614176565b60405180910390fd5b600360008373ffffffffffffffffffffffffffffffffffffffff1673ffffffffffffffffffffffffffffffffffffffff168152602001908152602001600020549050919050565b606060006112e733611223565b905060008167ffffffffffffffff81111561130557611304613590565b5b60405190808252806020026020018201604052801561133e57816020015b61132b612f9e565b8152602001906001900390816113235790505b50905060005b828110156114355760006113583383610db4565b90506000600c600083815260200190815260200160002090508060405180608001604052908160008201548152602001600182015481526020016002820160009054906101000a900473ffffffffffffffffffffffffffffffffffffffff1673ffffffffffffffffffffffffffffffffffffffff1673ffffffffffffffffffffffffffffffffffffffff1681526020016002820160149054906101000a900460ff16151515158152505084848151811061141557611414613f23565b5b60200260200101819052505050808061142d90613fd7565b915050611344565b50809250505090565b611446611b1b565b73ffffffffffffffffffffffffffffffffffffffff1661146461159b565b73ffffffffffffffffffffffffffffffffffffffff16146114ba576040517f08c379a00000000000000000000000000000000000000000000000000000000081526004016114b1906141e2565b60405180910390fd5b6114c46000611fa0565b565b6114cf81612066565b50565b6114da611b1b565b73ffffffffffffffffffffffffffffffffffffffff166114f861159b565b73ffffffffffffffffffffffffffffffffffffffff161461154e576040517f08c379a0000000000000000000000000000000000000000000000000000000008152600401611545906141e2565b60405180910390fd5b60008111611591576040517f08c379a00000000000000000000000000000000000000000000000000000000081526004016115889061424e565b60405180910390fd5b8060108190555050565b6000600760009054906101000a900473ffffffffffffffffffffffffffffffffffffffff16905090565b6060600180546115d4906139fc565b80601f0160208091040260200160405190810160405280929190818152602001828054611600906139fc565b801561164d5780601f106116225761010080835404028352916020019161164d565b820191906000526020600020905b81548152906001019060200180831161163057829003601f168201915b5050505050905090565b611669611662611b1b565b83836120b9565b5050565b61167e611678611b1b565b83611bf2565b6116bd576040517f08c379a00000000000000000000000000000000000000000000000000000000081526004016116b490613dbf565b60405180910390fd5b6116c984848484612225565b50505050565b60006116db6009611bdc565b6116e56008611bdc565b60006116f16009611f92565b90506116fd3382612281565b611707818561229f565b6117118184612313565b6001600b85604051611723919061405b565b908152602001604051809103902060006101000a81548160ff0219169083151502179055508091505092915050565b60105481565b606061176382611aaf565b6117a2576040517f08c379a0000000000000000000000000000000000000000000000000000000008152600401611799906142e0565b60405180910390fd5b60006006600084815260200190815260200160002080546117c2906139fc565b80601f01602080910402602001604051908101604052809291908181526020018280546117ee906139fc565b801561183b5780601f106118105761010080835404028352916020019161183b565b820191906000526020600020905b81548152906001019060200180831161181e57829003601f168201915b50505050509050600061184c612463565b905060008151036118615781925050506118a4565b60008251111561189657808260405160200161187e929190614300565b604051602081830303815290604052925050506118a4565b61189f8461247a565b925050505b919050565b60006118b56008611f92565b905090565b6000600560008473ffffffffffffffffffffffffffffffffffffffff1673ffffffffffffffffffffffffffffffffffffffff16815260200190815260200160002060008373ffffffffffffffffffffffffffffffffffffffff1673ffffffffffffffffffffffffffffffffffffffff16815260200190815260200160002060009054906101000a900460ff16905092915050565b611956611b1b565b73ffffffffffffffffffffffffffffffffffffffff1661197461159b565b73ffffffffffffffffffffffffffffffffffffffff16146119ca576040517f08c379a00000000000000000000000000000000000000000000000000000000081526004016119c1906141e2565b60405180910390fd5b600073ffffffffffffffffffffffffffffffffffffffff168173ffffffffffffffffffffffffffffffffffffffff1603611a39576040517f08c379a0000000000000000000000000000000000000000000000000000000008152600401611a3090614396565b60405180910390fd5b611a4281611fa0565b50565b60007f01ffc9a7000000000000000000000000000000000000000000000000000000007bffffffffffffffffffffffffffffffffffffffffffffffffffffffff1916827bffffffffffffffffffffffffffffffffffffffffffffffffffffffff1916149050919050565b60008073ffffffffffffffffffffffffffffffffffffffff166002600084815260200190815260200160002060009054906101000a900473ffffffffffffffffffffffffffffffffffffffff1673ffffffffffffffffffffffffffffffffffffffff1614159050919050565b600033905090565b816004600083815260200190815260200160002060006101000a81548173ffffffffffffffffffffffffffffffffffffffff021916908373ffffffffffffffffffffffffffffffffffffffff160217905550808273ffffffffffffffffffffffffffffffffffffffff16611b96836110c0565b73ffffffffffffffffffffffffffffffffffffffff167f8c5be1e5ebec7d5bd14f71427d1e84f3dd0314c0f7b2291e5b200ac8c7c3b92560405160405180910390a45050565b6001816000016000828254019250508190555050565b6000611bfd82611aaf565b611c3c576040517f08c379a0000000000000000000000000000000000000000000000000000000008152600401611c3390614428565b60405180910390fd5b6000611c47836110c0565b90508073ffffffffffffffffffffffffffffffffffffffff168473ffffffffffffffffffffffffffffffffffffffff161480611cb657508373ffffffffffffffffffffffffffffffffffffffff16611c9e846108c7565b73ffffffffffffffffffffffffffffffffffffffff16145b80611cc75750611cc681856118ba565b5b91505092915050565b8273ffffffffffffffffffffffffffffffffffffffff16611cf0826110c0565b73ffffffffffffffffffffffffffffffffffffffff1614611d46576040517f08c379a0000000000000000000000000000000000000000000000000000000008152600401611d3d906144ba565b60405180910390fd5b600073ffffffffffffffffffffffffffffffffffffffff168273ffffffffffffffffffffffffffffffffffffffff1603611db5576040517f08c379a0000000000000000000000000000000000000000000000000000000008152600401611dac9061454c565b60405180910390fd5b611dc0838383612521565b611dcb600082611b23565b6001600360008573ffffffffffffffffffffffffffffffffffffffff1673ffffffffffffffffffffffffffffffffffffffff1681526020019081526020016000206000828254611e1b919061456c565b925050819055506001600360008473ffffffffffffffffffffffffffffffffffffffff1673ffffffffffffffffffffffffffffffffffffffff1681526020019081526020016000206000828254611e729190613f81565b92505081905550816002600083815260200190815260200160002060006101000a81548173ffffffffffffffffffffffffffffffffffffffff021916908373ffffffffffffffffffffffffffffffffffffffff160217905550808273ffffffffffffffffffffffffffffffffffffffff168473ffffffffffffffffffffffffffffffffffffffff167fddf252ad1be2c89b69c2b068fc378daa952ba7f163c4a11628f55a4df523b3ef60405160405180910390a4611f31838383612633565b505050565b60008160000154905060008111611f82576040517f08c379a0000000000000000000000000000000000000000000000000000000008152600401611f79906145ec565b60405180910390fd5b6001810382600001819055505050565b600081600001549050919050565b6000600760009054906101000a900473ffffffffffffffffffffffffffffffffffffffff16905081600760006101000a81548173ffffffffffffffffffffffffffffffffffffffff021916908373ffffffffffffffffffffffffffffffffffffffff1602179055508173ffffffffffffffffffffffffffffffffffffffff168173ffffffffffffffffffffffffffffffffffffffff167f8be0079c531659141344cd1fd0a4f28419497f9722a3daafe3b4186f6b6457e060405160405180910390a35050565b61206f81612638565b600060066000838152602001908152602001600020805461208f906139fc565b9050146120b6576006600082815260200190815260200160002060006120b59190612fde565b5b50565b8173ffffffffffffffffffffffffffffffffffffffff168373ffffffffffffffffffffffffffffffffffffffff1603612127576040517f08c379a000000000000000000000000000000000000000000000000000000000815260040161211e90614658565b60405180910390fd5b80600560008573ffffffffffffffffffffffffffffffffffffffff1673ffffffffffffffffffffffffffffffffffffffff16815260200190815260200160002060008473ffffffffffffffffffffffffffffffffffffffff1673ffffffffffffffffffffffffffffffffffffffff16815260200190815260200160002060006101000a81548160ff0219169083151502179055508173ffffffffffffffffffffffffffffffffffffffff168373ffffffffffffffffffffffffffffffffffffffff167f17307eab39ab6107e8899845ad3d59bd9653f200f220920489ca2b5937696c31836040516122189190613175565b60405180910390a3505050565b612230848484611cd0565b61223c84848484612755565b61227b576040517f08c379a0000000000000000000000000000000000000000000000000000000008152600401612272906146ea565b60405180910390fd5b50505050565b61229b8282604051806020016040528060008152506128dc565b5050565b6122a882611aaf565b6122e7576040517f08c379a00000000000000000000000000000000000000000000000000000000081526004016122de9061477c565b60405180910390fd5b8060066000848152602001908152602001600020908051906020019061230e92919061301e565b505050565b60008111612356576040517f08c379a000000000000000000000000000000000000000000000000000000000815260040161234d906147e8565b60405180910390fd5b60405180608001604052808381526020018281526020013373ffffffffffffffffffffffffffffffffffffffff16815260200160011515815250600c6000848152602001908152602001600020600082015181600001556020820151816001015560408201518160020160006101000a81548173ffffffffffffffffffffffffffffffffffffffff021916908373ffffffffffffffffffffffffffffffffffffffff16021790555060608201518160020160146101000a81548160ff0219169083151502179055509050507f43f35c7892cef3db6314a5b129e161ca0731bb9e4a5d4f7244b605bb7b65b11582823360016040516124579493929190614808565b60405180910390a15050565b606060405180602001604052806000815250905090565b606061248582611aaf565b6124c4576040517f08c379a00000000000000000000000000000000000000000000000000000000081526004016124bb906148bf565b60405180910390fd5b60006124ce612463565b905060008151116124ee5760405180602001604052806000815250612519565b806124f884612937565b604051602001612509929190614300565b6040516020818303038152906040525b915050919050565b61252c838383612a97565b600073ffffffffffffffffffffffffffffffffffffffff168373ffffffffffffffffffffffffffffffffffffffff160361256e5761256981612a9c565b6125ad565b8173ffffffffffffffffffffffffffffffffffffffff168373ffffffffffffffffffffffffffffffffffffffff16146125ac576125ab8382612ae5565b5b5b600073ffffffffffffffffffffffffffffffffffffffff168273ffffffffffffffffffffffffffffffffffffffff16036125ef576125ea81612c52565b61262e565b8273ffffffffffffffffffffffffffffffffffffffff168273ffffffffffffffffffffffffffffffffffffffff161461262d5761262c8282612d23565b5b5b505050565b505050565b6000612643826110c0565b905061265181600084612521565b61265c600083611b23565b6001600360008373ffffffffffffffffffffffffffffffffffffffff1673ffffffffffffffffffffffffffffffffffffffff16815260200190815260200160002060008282546126ac919061456c565b925050819055506002600083815260200190815260200160002060006101000a81549073ffffffffffffffffffffffffffffffffffffffff021916905581600073ffffffffffffffffffffffffffffffffffffffff168273ffffffffffffffffffffffffffffffffffffffff167fddf252ad1be2c89b69c2b068fc378daa952ba7f163c4a11628f55a4df523b3ef60405160405180910390a461275181600084612633565b5050565b60006127768473ffffffffffffffffffffffffffffffffffffffff16612da2565b156128cf578373ffffffffffffffffffffffffffffffffffffffff1663150b7a0261279f611b1b565b8786866040518563ffffffff1660e01b81526004016127c19493929190614934565b6020604051808303816000875af19250505080156127fd57506040513d601f19601f820116820180604052508101906127fa9190614995565b60015b61287f573d806000811461282d576040519150601f19603f3d011682016040523d82523d6000602084013e612832565b606091505b506000815103612877576040517f08c379a000000000000000000000000000000000000000000000000000000000815260040161286e906146ea565b60405180910390fd5b805181602001fd5b63150b7a0260e01b7bffffffffffffffffffffffffffffffffffffffffffffffffffffffff1916817bffffffffffffffffffffffffffffffffffffffffffffffffffffffff1916149150506128d4565b600190505b949350505050565b6128e68383612dc5565b6128f36000848484612755565b612932576040517f08c379a0000000000000000000000000000000000000000000000000000000008152600401612929906146ea565b60405180910390fd5b505050565b60606000820361297e576040518060400160405280600181526020017f30000000000000000000000000000000000000000000000000000000000000008152509050612a92565b600082905060005b600082146129b057808061299990613fd7565b915050600a826129a991906149f1565b9150612986565b60008167ffffffffffffffff8111156129cc576129cb613590565b5b6040519080825280601f01601f1916602001820160405280156129fe5781602001600182028036833780820191505090505b5090505b60008514612a8b57600182612a17919061456c565b9150600a85612a269190614a22565b6030612a329190613f81565b60f81b818381518110612a4857612a47613f23565b5b60200101907effffffffffffffffffffffffffffffffffffffffffffffffffffffffffffff1916908160001a905350600a85612a8491906149f1565b9450612a02565b8093505050505b919050565b505050565b600a80549050600f600083815260200190815260200160002081905550600a81908060018154018082558091505060019003906000526020600020016000909190919091505550565b60006001612af284611223565b612afc919061456c565b90506000600e6000848152602001908152602001600020549050818114612be1576000600d60008673ffffffffffffffffffffffffffffffffffffffff1673ffffffffffffffffffffffffffffffffffffffff168152602001908152602001600020600084815260200190815260200160002054905080600d60008773ffffffffffffffffffffffffffffffffffffffff1673ffffffffffffffffffffffffffffffffffffffff16815260200190815260200160002060008681526020019081526020016000208190555081600e600083815260200190815260200160002081905550505b600e600084815260200190815260200160002060009055600d60008573ffffffffffffffffffffffffffffffffffffffff1673ffffffffffffffffffffffffffffffffffffffff16815260200190815260200160002060008381526020019081526020016000206000905550505050565b60006001600a80549050612c66919061456c565b90506000600f60008481526020019081526020016000205490506000600a8381548110612c9657612c95613f23565b5b9060005260206000200154905080600a8381548110612cb857612cb7613f23565b5b906000526020600020018190555081600f600083815260200190815260200160002081905550600f600085815260200190815260200160002060009055600a805480612d0757612d06614a53565b5b6001900381819060005260206000200160009055905550505050565b6000612d2e83611223565b905081600d60008573ffffffffffffffffffffffffffffffffffffffff1673ffffffffffffffffffffffffffffffffffffffff16815260200190815260200160002060008381526020019081526020016000208190555080600e600084815260200190815260200160002081905550505050565b6000808273ffffffffffffffffffffffffffffffffffffffff163b119050919050565b600073ffffffffffffffffffffffffffffffffffffffff168273ffffffffffffffffffffffffffffffffffffffff1603612e34576040517f08c379a0000000000000000000000000000000000000000000000000000000008152600401612e2b90614ace565b60405180910390fd5b612e3d81611aaf565b15612e7d576040517f08c379a0000000000000000000000000000000000000000000000000000000008152600401612e7490614b3a565b60405180910390fd5b612e8960008383612521565b6001600360008473ffffffffffffffffffffffffffffffffffffffff1673ffffffffffffffffffffffffffffffffffffffff1681526020019081526020016000206000828254612ed99190613f81565b92505081905550816002600083815260200190815260200160002060006101000a81548173ffffffffffffffffffffffffffffffffffffffff021916908373ffffffffffffffffffffffffffffffffffffffff160217905550808273ffffffffffffffffffffffffffffffffffffffff16600073ffffffffffffffffffffffffffffffffffffffff167fddf252ad1be2c89b69c2b068fc378daa952ba7f163c4a11628f55a4df523b3ef60405160405180910390a4612f9a60008383612633565b5050565b60405180608001604052806000815260200160008152602001600073ffffffffffffffffffffffffffffffffffffffff1681526020016000151581525090565b508054612fea906139fc565b6000825580601f10612ffc575061301b565b601f01602090049060005260206000209081019061301a91906130a4565b5b50565b82805461302a906139fc565b90600052602060002090601f01602090048101928261304c5760008555613093565b82601f1061306557805160ff1916838001178555613093565b82800160010185558215613093579182015b82811115613092578251825591602001919060010190613077565b5b5090506130a091906130a4565b5090565b5b808211156130bd5760008160009055506001016130a5565b5090565b6000604051905090565b600080fd5b600080fd5b60007fffffffff0000000000000000000000000000000000000000000000000000000082169050919050565b61310a816130d5565b811461311557600080fd5b50565b60008135905061312781613101565b92915050565b600060208284031215613143576131426130cb565b5b600061315184828501613118565b91505092915050565b60008115159050919050565b61316f8161315a565b82525050565b600060208201905061318a6000830184613166565b92915050565b600081519050919050565b600082825260208201905092915050565b60005b838110156131ca5780820151818401526020810190506131af565b838111156131d9576000848401525b50505050565b6000601f19601f8301169050919050565b60006131fb82613190565b613205818561319b565b93506132158185602086016131ac565b61321e816131df565b840191505092915050565b6000602082019050818103600083015261324381846131f0565b905092915050565b6000819050919050565b61325e8161324b565b811461326957600080fd5b50565b60008135905061327b81613255565b92915050565b600060208284031215613297576132966130cb565b5b60006132a58482850161326c565b91505092915050565b600073ffffffffffffffffffffffffffffffffffffffff82169050919050565b60006132d9826132ae565b9050919050565b6132e9816132ce565b82525050565b600060208201905061330460008301846132e0565b92915050565b613313816132ce565b811461331e57600080fd5b50565b6000813590506133308161330a565b92915050565b6000806040838503121561334d5761334c6130cb565b5b600061335b85828601613321565b925050602061336c8582860161326c565b9150509250929050565b61337f8161324b565b82525050565b600060208201905061339a6000830184613376565b92915050565b600080604083850312156133b7576133b66130cb565b5b60006133c58582860161326c565b92505060206133d68582860161326c565b9150509250929050565b6000806000606084860312156133f9576133f86130cb565b5b600061340786828701613321565b935050602061341886828701613321565b92505060406134298682870161326c565b9150509250925092565b600081519050919050565b600082825260208201905092915050565b6000819050602082019050919050565b6134688161324b565b82525050565b613477816132ce565b82525050565b6134868161315a565b82525050565b6080820160008201516134a2600085018261345f565b5060208201516134b5602085018261345f565b5060408201516134c8604085018261346e565b5060608201516134db606085018261347d565b50505050565b60006134ed838361348c565b60808301905092915050565b6000602082019050919050565b600061351182613433565b61351b818561343e565b93506135268361344f565b8060005b8381101561355757815161353e88826134e1565b9750613549836134f9565b92505060018101905061352a565b5085935050505092915050565b6000602082019050818103600083015261357e8184613506565b905092915050565b600080fd5b600080fd5b7f4e487b7100000000000000000000000000000000000000000000000000000000600052604160045260246000fd5b6135c8826131df565b810181811067ffffffffffffffff821117156135e7576135e6613590565b5b80604052505050565b60006135fa6130c1565b905061360682826135bf565b919050565b600067ffffffffffffffff82111561362657613625613590565b5b61362f826131df565b9050602081019050919050565b82818337600083830152505050565b600061365e6136598461360b565b6135f0565b90508281526020810184848401111561367a5761367961358b565b5b61368584828561363c565b509392505050565b600082601f8301126136a2576136a1613586565b5b81356136b284826020860161364b565b91505092915050565b6000602082840312156136d1576136d06130cb565b5b600082013567ffffffffffffffff8111156136ef576136ee6130d0565b5b6136fb8482850161368d565b91505092915050565b60808201600082015161371a600085018261345f565b50602082015161372d602085018261345f565b506040820151613740604085018261346e565b506060820151613753606085018261347d565b50505050565b600060808201905061376e6000830184613704565b92915050565b60006020828403121561378a576137896130cb565b5b600061379884828501613321565b91505092915050565b6137aa8161315a565b81146137b557600080fd5b50565b6000813590506137c7816137a1565b92915050565b600080604083850312156137e4576137e36130cb565b5b60006137f285828601613321565b9250506020613803858286016137b8565b9150509250929050565b600067ffffffffffffffff82111561382857613827613590565b5b613831826131df565b9050602081019050919050565b600061385161384c8461380d565b6135f0565b90508281526020810184848401111561386d5761386c61358b565b5b61387884828561363c565b509392505050565b600082601f83011261389557613894613586565b5b81356138a584826020860161383e565b91505092915050565b600080600080608085870312156138c8576138c76130cb565b5b60006138d687828801613321565b94505060206138e787828801613321565b93505060406138f88782880161326c565b925050606085013567ffffffffffffffff811115613919576139186130d0565b5b61392587828801613880565b91505092959194509250565b60008060408385031215613948576139476130cb565b5b600083013567ffffffffffffffff811115613966576139656130d0565b5b6139728582860161368d565b92505060206139838582860161326c565b9150509250929050565b600080604083850312156139a4576139a36130cb565b5b60006139b285828601613321565b92505060206139c385828601613321565b9150509250929050565b7f4e487b7100000000000000000000000000000000000000000000000000000000600052602260045260246000fd5b60006002820490506001821680613a1457607f821691505b602082108103613a2757613a266139cd565b5b50919050565b7f4552433732313a20617070726f76656420717565727920666f72206e6f6e657860008201527f697374656e7420746f6b656e0000000000000000000000000000000000000000602082015250565b6000613a89602c8361319b565b9150613a9482613a2d565b604082019050919050565b60006020820190508181036000830152613ab881613a7c565b9050919050565b7f4552433732313a20617070726f76616c20746f2063757272656e74206f776e6560008201527f7200000000000000000000000000000000000000000000000000000000000000602082015250565b6000613b1b60218361319b565b9150613b2682613abf565b604082019050919050565b60006020820190508181036000830152613b4a81613b0e565b9050919050565b7f4552433732313a20617070726f76652063616c6c6572206973206e6f74206f7760008201527f6e6572206e6f7220617070726f76656420666f7220616c6c0000000000000000602082015250565b6000613bad60388361319b565b9150613bb882613b51565b604082019050919050565b60006020820190508181036000830152613bdc81613ba0565b9050919050565b7f596f7520617265206e6f74206f776e6572206f662074686973206e6674000000600082015250565b6000613c19601d8361319b565b9150613c2482613be3565b602082019050919050565b60006020820190508181036000830152613c4881613c0c565b9050919050565b7f4974656d20697320616c7265616479206f6e2073616c65000000000000000000600082015250565b6000613c8560178361319b565b9150613c9082613c4f565b602082019050919050565b60006020820190508181036000830152613cb481613c78565b9050919050565b7f5072696365206d75737420626520657175616c20746f206c697374696e67207060008201527f7269636500000000000000000000000000000000000000000000000000000000602082015250565b6000613d1760248361319b565b9150613d2282613cbb565b604082019050919050565b60006020820190508181036000830152613d4681613d0a565b9050919050565b7f4552433732313a207472616e736665722063616c6c6572206973206e6f74206f60008201527f776e6572206e6f7220617070726f766564000000000000000000000000000000602082015250565b6000613da960318361319b565b9150613db482613d4d565b604082019050919050565b60006020820190508181036000830152613dd881613d9c565b9050919050565b7f596f7520616c7265616479206f776e2074686973204e46540000000000000000600082015250565b6000613e1560188361319b565b9150613e2082613ddf565b602082019050919050565b60006020820190508181036000830152613e4481613e08565b9050919050565b7f506c65617365207375626d6974207468652061736b696e672070726963650000600082015250565b6000613e81601e8361319b565b9150613e8c82613e4b565b602082019050919050565b60006020820190508181036000830152613eb081613e74565b9050919050565b7f496e646578206f7574206f6620626f756e647300000000000000000000000000600082015250565b6000613eed60138361319b565b9150613ef882613eb7565b602082019050919050565b60006020820190508181036000830152613f1c81613ee0565b9050919050565b7f4e487b7100000000000000000000000000000000000000000000000000000000600052603260045260246000fd5b7f4e487b7100000000000000000000000000000000000000000000000000000000600052601160045260246000fd5b6000613f8c8261324b565b9150613f978361324b565b9250827fffffffffffffffffffffffffffffffffffffffffffffffffffffffffffffffff03821115613fcc57613fcb613f52565b5b828201905092915050565b6000613fe28261324b565b91507fffffffffffffffffffffffffffffffffffffffffffffffffffffffffffffffff820361401457614013613f52565b5b600182019050919050565b600081905092915050565b600061403582613190565b61403f818561401f565b935061404f8185602086016131ac565b80840191505092915050565b6000614067828461402a565b915081905092915050565b7f4552433732313a206f776e657220717565727920666f72206e6f6e657869737460008201527f656e7420746f6b656e0000000000000000000000000000000000000000000000602082015250565b60006140ce60298361319b565b91506140d982614072565b604082019050919050565b600060208201905081810360008301526140fd816140c1565b9050919050565b7f4552433732313a2062616c616e636520717565727920666f7220746865207a6560008201527f726f206164647265737300000000000000000000000000000000000000000000602082015250565b6000614160602a8361319b565b915061416b82614104565b604082019050919050565b6000602082019050818103600083015261418f81614153565b9050919050565b7f4f776e61626c653a2063616c6c6572206973206e6f7420746865206f776e6572600082015250565b60006141cc60208361319b565b91506141d782614196565b602082019050919050565b600060208201905081810360008301526141fb816141bf565b9050919050565b7f5072696365206d757374206265206174206c6561737420312077656900000000600082015250565b6000614238601c8361319b565b915061424382614202565b602082019050919050565b600060208201905081810360008301526142678161422b565b9050919050565b7f45524337323155524953746f726167653a2055524920717565727920666f722060008201527f6e6f6e6578697374656e7420746f6b656e000000000000000000000000000000602082015250565b60006142ca60318361319b565b91506142d58261426e565b604082019050919050565b600060208201905081810360008301526142f9816142bd565b9050919050565b600061430c828561402a565b9150614318828461402a565b91508190509392505050565b7f4f776e61626c653a206e6577206f776e657220697320746865207a65726f206160008201527f6464726573730000000000000000000000000000000000000000000000000000602082015250565b600061438060268361319b565b915061438b82614324565b604082019050919050565b600060208201905081810360008301526143af81614373565b9050919050565b7f4552433732313a206f70657261746f7220717565727920666f72206e6f6e657860008201527f697374656e7420746f6b656e0000000000000000000000000000000000000000602082015250565b6000614412602c8361319b565b915061441d826143b6565b604082019050919050565b6000602082019050818103600083015261444181614405565b9050919050565b7f4552433732313a207472616e736665722066726f6d20696e636f72726563742060008201527f6f776e6572000000000000000000000000000000000000000000000000000000602082015250565b60006144a460258361319b565b91506144af82614448565b604082019050919050565b600060208201905081810360008301526144d381614497565b9050919050565b7f4552433732313a207472616e7366657220746f20746865207a65726f2061646460008201527f7265737300000000000000000000000000000000000000000000000000000000602082015250565b600061453660248361319b565b9150614541826144da565b604082019050919050565b6000602082019050818103600083015261456581614529565b9050919050565b60006145778261324b565b91506145828361324b565b92508282101561459557614594613f52565b5b828203905092915050565b7f436f756e7465723a2064656372656d656e74206f766572666c6f770000000000600082015250565b60006145d6601b8361319b565b91506145e1826145a0565b602082019050919050565b60006020820190508181036000830152614605816145c9565b9050919050565b7f4552433732313a20617070726f766520746f2063616c6c657200000000000000600082015250565b600061464260198361319b565b915061464d8261460c565b602082019050919050565b6000602082019050818103600083015261467181614635565b9050919050565b7f4552433732313a207472616e7366657220746f206e6f6e20455243373231526560008201527f63656976657220696d706c656d656e7465720000000000000000000000000000602082015250565b60006146d460328361319b565b91506146df82614678565b604082019050919050565b60006020820190508181036000830152614703816146c7565b9050919050565b7f45524337323155524953746f726167653a2055524920736574206f66206e6f6e60008201527f6578697374656e7420746f6b656e000000000000000000000000000000000000602082015250565b6000614766602e8361319b565b91506147718261470a565b604082019050919050565b6000602082019050818103600083015261479581614759565b9050919050565b7f5072696365206d757374206265206174206c6561737420317765690000000000600082015250565b60006147d2601b8361319b565b91506147dd8261479c565b602082019050919050565b60006020820190508181036000830152614801816147c5565b9050919050565b600060808201905061481d6000830187613376565b61482a6020830186613376565b61483760408301856132e0565b6148446060830184613166565b95945050505050565b7f4552433732314d657461646174613a2055524920717565727920666f72206e6f60008201527f6e6578697374656e7420746f6b656e0000000000000000000000000000000000602082015250565b60006148a9602f8361319b565b91506148b48261484d565b604082019050919050565b600060208201905081810360008301526148d88161489c565b9050919050565b600081519050919050565b600082825260208201905092915050565b6000614906826148df565b61491081856148ea565b93506149208185602086016131ac565b614929816131df565b840191505092915050565b600060808201905061494960008301876132e0565b61495660208301866132e0565b6149636040830185613376565b818103606083015261497581846148fb565b905095945050505050565b60008151905061498f81613101565b92915050565b6000602082840312156149ab576149aa6130cb565b5b60006149b984828501614980565b91505092915050565b7f4e487b7100000000000000000000000000000000000000000000000000000000600052601260045260246000fd5b60006149fc8261324b565b9150614a078361324b565b925082614a1757614a166149c2565b5b828204905092915050565b6000614a2d8261324b565b9150614a388361324b565b925082614a4857614a476149c2565b5b828206905092915050565b7f4e487b7100000000000000000000000000000000000000000000000000000000600052603160045260246000fd5b7f4552433732313a206d696e7420746f20746865207a65726f2061646472657373600082015250565b6000614ab860208361319b565b9150614ac382614a82565b602082019050919050565b60006020820190508181036000830152614ae781614aab565b9050919050565b7f4552433732313a20746f6b656e20616c7265616479206d696e74656400000000600082015250565b6000614b24601c8361319b565b9150614b2f82614aee565b602082019050919050565b60006020820190508181036000830152614b5381614b17565b905091905056fea264697066735822122065c7fb9442687d0a34c59999e7d53a894b685621d662317535e107524a8fcc3664736f6c634300080d0033",
  "immutableReferences": {},
  "source": "// SPDX-License-Identifier: MIT\npragma solidity >=0.4.22 <0.9.0;\n\nimport \"@openzeppelin/contracts/token/ERC721/extensions/ERC721URIStorage.sol\";\nimport \"@openzeppelin/contracts/utils/Counters.sol\";\nimport \"@openzeppelin/contracts/access/Ownable.sol\";\n\ncontract NftMarket is ERC721URIStorage, Ownable {\n  using Counters for Counters.Counter;\n\n  Counters.Counter private _listedItems;\n  Counters.Counter private _tokenIds;\n\n  // All Token Ids in array\n  uint256[] private _allNfts;\n\n  mapping(string => bool) private _usedTokenURIs;\n  mapping(uint => NFTItem) private _idToNftItem;\n\n  mapping(address => mapping(uint => uint)) private _ownedTokens;\n  mapping(uint => uint) private _idToOwnedIndex;\n\n  mapping(uint => uint) private _idToNftIndex;\n\n  struct NFTItem {\n    uint tokenId;\n    uint price;\n    address creator;\n    bool isListed;\n  }\n\n  event NFTItemCreated (\n    uint tokenId,\n    uint price,\n    address creator,\n    bool isListed\n  );\n\n  uint public listingPrice = 0.025 ether;\n\n  constructor() ERC721(\"CreaturesNFT\", \"CNFT\") {}\n\n  function setListingPrice(uint newPrice) external onlyOwner {\n    require(newPrice > 0, \"Price must be at least 1 wei\");\n    listingPrice = newPrice;\n  } \n\n  function getNftItem(uint tokenId) public view returns (NFTItem memory) {\n    return _idToNftItem[tokenId];\n  }\n\n  function listedItemsCount() public view returns (uint) {\n    return _listedItems.current();\n  }\n\n  function tokenURIExists(string memory tokenURI) public view returns (bool) {\n    return _usedTokenURIs[tokenURI] == true;\n  }\n\n  function totalSupply() public view returns (uint) {\n    return _allNfts.length;\n  }\n\n  function tokenByIndex(uint index) public view returns (uint) {\n    require(index < totalSupply(), \"Index out of bounds\");\n    return _allNfts[index];\n  }\n\n  function tokenOfOwnerByIndex(address owner, uint index) public view returns (uint) {\n    require(index < ERC721.balanceOf(owner), \"Index out of bounds\");\n    return _ownedTokens[owner][index];\n  }\n\n  function getAllNftsOnSale() public view returns (NFTItem[] memory) {\n    uint allItemsCount = totalSupply();\n    uint currentIndex = 0;\n    NFTItem[] memory items = new NFTItem[](_listedItems.current());\n\n    for (uint i = 0; i < allItemsCount; i ++) {\n      uint tokenId = tokenByIndex((i));\n      NFTItem storage item = _idToNftItem[tokenId];\n\n      if (item.isListed == true) {\n        items[currentIndex] = item;\n        currentIndex += 1;\n      }\n    }\n\n    return items;\n  }\n\n  function getOwnedNfts() public view returns (NFTItem[] memory) {\n    uint ownedItemsCount = ERC721.balanceOf(msg.sender);\n    NFTItem[] memory items = new NFTItem[](ownedItemsCount);\n\n    for (uint i = 0; i < ownedItemsCount; i++) {\n      uint tokeId = tokenOfOwnerByIndex(msg.sender, i);\n      NFTItem storage item = _idToNftItem[tokeId];\n      items[i] = item;\n    }\n\n    return items;\n  }\n\n\n  function burnToken(uint tokenId) public {\n    _burn(tokenId);\n  }\n\n  function mintToken(string memory tokenURI, uint price) public payable returns (uint) {\n    // require(!tokenURIExists(tokenURI), \"Token URI already exists\");\n    // require(msg.value == listingPrice, \"Price must be qual to listing price\");\n    _tokenIds.increment();\n    _listedItems.increment();\n\n    uint newTokenId = _tokenIds.current();\n    _safeMint(msg.sender, newTokenId);\n    _setTokenURI(newTokenId, tokenURI);\n    _createNftItem(newTokenId, price);\n    _usedTokenURIs[tokenURI] = true;\n\n    return newTokenId;\n  }\n\n  function buyNft(\n    uint tokenId\n  ) public payable {\n    uint price = _idToNftItem[tokenId].price;\n    address owner = ownerOf(tokenId);\n\n    require(msg.sender != owner, \"You already own this NFT\");\n    require(msg.value == price, \"Please submit the asking price\");\n    _idToNftItem[tokenId].isListed = false;\n    _listedItems.decrement();\n\n    _transfer(owner, msg.sender, tokenId);\n    payable(owner).transfer(msg.value);\n  }\n\n  function placeNftOnSale(uint tokenId, uint newPrice) public payable {\n    require(ERC721.ownerOf(tokenId) == msg.sender, \"You are not owner of this nft\");\n    require(_idToNftItem[tokenId].isListed == false, \"Item is already on sale\");\n    require(msg.value == listingPrice, \"Price must be equal to listing price\");\n\n    _idToNftItem[tokenId].isListed = true;\n    _idToNftItem[tokenId].price = newPrice;\n    _listedItems.increment();\n  }\n\n  function _createNftItem(uint tokenId, uint price) private {\n    require(price > 0, \"Price must be at least 1wei\");\n\n    _idToNftItem[tokenId] = NFTItem(\n      tokenId,\n      price,\n      msg.sender,\n      true\n    );\n\n    emit NFTItemCreated(tokenId, price, msg.sender, true);\n  }\n\n  function _beforeTokenTransfer(address from, address to, uint tokenId) internal virtual override {\n    super._beforeTokenTransfer(from, to, tokenId);\n\n    if (from == address(0)) {\n      _addTokenToAllTokensEnumeration(tokenId);\n    } else if (from != to) {\n      _removeTokenFromOwnerEnumeration(from, tokenId);\n    }\n\n    if (to == address(0)) {\n      _removeTokenFromAllTokensEnumeration((tokenId));\n    } else if (to != from) {\n      _addTokenToOwnerEnumeration(to, tokenId);\n    }\n  }\n\n  function _addTokenToAllTokensEnumeration(uint tokenId) private {\n    _idToNftIndex[tokenId] = _allNfts.length;\n    _allNfts.push(tokenId);\n  }\n\n  function _addTokenToOwnerEnumeration(address to, uint tokenId) private {\n    uint lenght = ERC721.balanceOf(to);\n    _ownedTokens[to][lenght] = tokenId;\n    _idToOwnedIndex[tokenId] = lenght;\n  }\n\n  function _removeTokenFromOwnerEnumeration(address from, uint tokenId) private {\n    uint lastTokenIndex = ERC721.balanceOf(from) - 1;\n    uint tokenIndex = _idToOwnedIndex[tokenId];\n\n    if (tokenIndex != lastTokenIndex) {\n      uint lastTokenId = _ownedTokens[from][lastTokenIndex];\n      _ownedTokens[from][tokenId] = lastTokenId;\n      _idToOwnedIndex[lastTokenId] = tokenIndex;\n    }\n\n    delete _idToOwnedIndex[tokenId];\n    delete _ownedTokens[from][lastTokenIndex];\n  }\n\n  function _removeTokenFromAllTokensEnumeration(uint tokenId) private {\n    uint lastTokenIndex = _allNfts.length - 1;\n    uint tokenIndex = _idToNftIndex[tokenId];\n    uint lastTokenId = _allNfts[lastTokenIndex];\n\n    _allNfts[tokenIndex] = lastTokenId;\n    _idToNftIndex[lastTokenId] = tokenIndex;\n\n    delete _idToNftIndex[tokenId];\n    _allNfts.pop();\n  }\n}",
  "sourcePath": "/Users/sluzbabezopasnosti/Documents/GitHub/StagePoint/frontend/contracts/NftMarket.sol",
  "compiler": {
    "name": "solc",
    "version": "0.8.13+commit.abaa5c0e.Emscripten.clang"
  },
  "schemaVersion": "3.4.16",
  "updatedAt": "2023-12-04T23:11:50.998Z",
  "networkType": "ethereum",
  "devdoc": {
    "kind": "dev",
    "methods": {
      "approve(address,uint256)": {
        "details": "See {IERC721-approve}."
      },
      "balanceOf(address)": {
        "details": "See {IERC721-balanceOf}."
      },
      "getApproved(uint256)": {
        "details": "See {IERC721-getApproved}."
      },
      "isApprovedForAll(address,address)": {
        "details": "See {IERC721-isApprovedForAll}."
      },
      "name()": {
        "details": "See {IERC721Metadata-name}."
      },
      "owner()": {
        "details": "Returns the address of the current owner."
      },
      "ownerOf(uint256)": {
        "details": "See {IERC721-ownerOf}."
      },
      "renounceOwnership()": {
        "details": "Leaves the contract without owner. It will not be possible to call `onlyOwner` functions anymore. Can only be called by the current owner. NOTE: Renouncing ownership will leave the contract without an owner, thereby removing any functionality that is only available to the owner."
      },
      "safeTransferFrom(address,address,uint256)": {
        "details": "See {IERC721-safeTransferFrom}."
      },
      "safeTransferFrom(address,address,uint256,bytes)": {
        "details": "See {IERC721-safeTransferFrom}."
      },
      "setApprovalForAll(address,bool)": {
        "details": "See {IERC721-setApprovalForAll}."
      },
      "supportsInterface(bytes4)": {
        "details": "See {IERC165-supportsInterface}."
      },
      "symbol()": {
        "details": "See {IERC721Metadata-symbol}."
      },
      "tokenURI(uint256)": {
        "details": "See {IERC721Metadata-tokenURI}."
      },
      "transferFrom(address,address,uint256)": {
        "details": "See {IERC721-transferFrom}."
      },
      "transferOwnership(address)": {
        "details": "Transfers ownership of the contract to a new account (`newOwner`). Can only be called by the current owner."
      }
    },
    "version": 1
  },
  "userdoc": {
    "kind": "user",
    "methods": {},
    "version": 1
  }
}