{
  "contractName": "SPFNft",
  "abi": [
    {
      "inputs": [],
      "stateMutability": "nonpayable",
      "type": "constructor"
    },
    {
      "anonymous": false,
      "inputs": [
        {
          "indexed": true,
          "internalType": "address",
          "name": "owner",
          "type": "address"
        },
        {
          "indexed": true,
          "internalType": "address",
          "name": "approved",
          "type": "address"
        },
        {
          "indexed": true,
          "internalType": "uint256",
          "name": "tokenId",
          "type": "uint256"
        }
      ],
      "name": "Approval",
      "type": "event"
    },
    {
      "anonymous": false,
      "inputs": [
        {
          "indexed": true,
          "internalType": "address",
          "name": "owner",
          "type": "address"
        },
        {
          "indexed": true,
          "internalType": "address",
          "name": "operator",
          "type": "address"
        },
        {
          "indexed": false,
          "internalType": "bool",
          "name": "approved",
          "type": "bool"
        }
      ],
      "name": "ApprovalForAll",
      "type": "event"
    },
    {
      "anonymous": false,
      "inputs": [
        {
          "indexed": false,
          "internalType": "uint256",
          "name": "_fromTokenId",
          "type": "uint256"
        },
        {
          "indexed": false,
          "internalType": "uint256",
          "name": "_toTokenId",
          "type": "uint256"
        }
      ],
      "name": "BatchMetadataUpdate",
      "type": "event"
    },
    {
      "anonymous": false,
      "inputs": [
        {
          "indexed": true,
          "internalType": "address",
          "name": "_from",
          "type": "address"
        },
        {
          "indexed": false,
          "internalType": "uint256",
          "name": "_value",
          "type": "uint256"
        }
      ],
      "name": "Deposit",
      "type": "event"
    },
    {
      "anonymous": false,
      "inputs": [
        {
          "indexed": false,
          "internalType": "uint256",
          "name": "result",
          "type": "uint256"
        }
      ],
      "name": "LogRes",
      "type": "event"
    },
    {
      "anonymous": false,
      "inputs": [
        {
          "indexed": false,
          "internalType": "uint256",
          "name": "_tokenId",
          "type": "uint256"
        }
      ],
      "name": "MetadataUpdate",
      "type": "event"
    },
    {
      "anonymous": false,
      "inputs": [
        {
          "indexed": false,
          "internalType": "uint256",
          "name": "tokenId",
          "type": "uint256"
        },
        {
          "indexed": false,
          "internalType": "uint256",
          "name": "price",
          "type": "uint256"
        },
        {
          "indexed": false,
          "internalType": "address",
          "name": "creator",
          "type": "address"
        },
        {
          "indexed": false,
          "internalType": "uint256",
          "name": "startDate",
          "type": "uint256"
        },
        {
          "indexed": false,
          "internalType": "uint256",
          "name": "endDate",
          "type": "uint256"
        },
        {
          "indexed": false,
          "internalType": "uint256",
          "name": "depositTerm",
          "type": "uint256"
        },
        {
          "indexed": false,
          "internalType": "uint256",
          "name": "depositInterest",
          "type": "uint256"
        },
        {
          "indexed": false,
          "internalType": "string",
          "name": "interest",
          "type": "string"
        },
        {
          "indexed": false,
          "internalType": "uint256",
          "name": "rewardsClaimed",
          "type": "uint256"
        },
        {
          "indexed": false,
          "internalType": "uint256",
          "name": "payOff",
          "type": "uint256"
        },
        {
          "indexed": false,
          "internalType": "uint256",
          "name": "rewardsAvailable",
          "type": "uint256"
        },
        {
          "indexed": false,
          "internalType": "uint256",
          "name": "rewardProfit",
          "type": "uint256"
        }
      ],
      "name": "NFTItemCreated",
      "type": "event"
    },
    {
      "anonymous": false,
      "inputs": [
        {
          "indexed": true,
          "internalType": "address",
          "name": "previousOwner",
          "type": "address"
        },
        {
          "indexed": true,
          "internalType": "address",
          "name": "newOwner",
          "type": "address"
        }
      ],
      "name": "OwnershipTransferred",
      "type": "event"
    },
    {
      "anonymous": false,
      "inputs": [
        {
          "indexed": false,
          "internalType": "uint256",
          "name": "profit",
          "type": "uint256"
        }
      ],
      "name": "ProfitClaimed",
      "type": "event"
    },
    {
      "anonymous": false,
      "inputs": [
        {
          "indexed": true,
          "internalType": "address",
          "name": "from",
          "type": "address"
        },
        {
          "indexed": true,
          "internalType": "address",
          "name": "to",
          "type": "address"
        },
        {
          "indexed": true,
          "internalType": "uint256",
          "name": "tokenId",
          "type": "uint256"
        }
      ],
      "name": "Transfer",
      "type": "event"
    },
    {
      "anonymous": false,
      "inputs": [
        {
          "indexed": true,
          "internalType": "address",
          "name": "_to",
          "type": "address"
        },
        {
          "indexed": false,
          "internalType": "uint256",
          "name": "_value",
          "type": "uint256"
        }
      ],
      "name": "Withdrawal",
      "type": "event"
    },
    {
      "inputs": [
        {
          "internalType": "address",
          "name": "to",
          "type": "address"
        },
        {
          "internalType": "uint256",
          "name": "tokenId",
          "type": "uint256"
        }
      ],
      "name": "approve",
      "outputs": [],
      "stateMutability": "nonpayable",
      "type": "function"
    },
    {
      "inputs": [
        {
          "internalType": "address",
          "name": "owner",
          "type": "address"
        }
      ],
      "name": "balanceOf",
      "outputs": [
        {
          "internalType": "uint256",
          "name": "",
          "type": "uint256"
        }
      ],
      "stateMutability": "view",
      "type": "function"
    },
    {
      "inputs": [
        {
          "internalType": "uint256",
          "name": "tokenId",
          "type": "uint256"
        }
      ],
      "name": "getApproved",
      "outputs": [
        {
          "internalType": "address",
          "name": "",
          "type": "address"
        }
      ],
      "stateMutability": "view",
      "type": "function"
    },
    {
      "inputs": [
        {
          "internalType": "address",
          "name": "owner",
          "type": "address"
        },
        {
          "internalType": "address",
          "name": "operator",
          "type": "address"
        }
      ],
      "name": "isApprovedForAll",
      "outputs": [
        {
          "internalType": "bool",
          "name": "",
          "type": "bool"
        }
      ],
      "stateMutability": "view",
      "type": "function"
    },
    {
      "inputs": [],
      "name": "listingPrice",
      "outputs": [
        {
          "internalType": "uint256",
          "name": "",
          "type": "uint256"
        }
      ],
      "stateMutability": "view",
      "type": "function"
    },
    {
      "inputs": [],
      "name": "name",
      "outputs": [
        {
          "internalType": "string",
          "name": "",
          "type": "string"
        }
      ],
      "stateMutability": "view",
      "type": "function"
    },
    {
      "inputs": [],
      "name": "owner",
      "outputs": [
        {
          "internalType": "address",
          "name": "",
          "type": "address"
        }
      ],
      "stateMutability": "view",
      "type": "function"
    },
    {
      "inputs": [
        {
          "internalType": "uint256",
          "name": "tokenId",
          "type": "uint256"
        }
      ],
      "name": "ownerOf",
      "outputs": [
        {
          "internalType": "address",
          "name": "",
          "type": "address"
        }
      ],
      "stateMutability": "view",
      "type": "function"
    },
    {
      "inputs": [],
      "name": "renounceOwnership",
      "outputs": [],
      "stateMutability": "nonpayable",
      "type": "function"
    },
    {
      "inputs": [
        {
          "internalType": "address",
          "name": "from",
          "type": "address"
        },
        {
          "internalType": "address",
          "name": "to",
          "type": "address"
        },
        {
          "internalType": "uint256",
          "name": "tokenId",
          "type": "uint256"
        }
      ],
      "name": "safeTransferFrom",
      "outputs": [],
      "stateMutability": "nonpayable",
      "type": "function"
    },
    {
      "inputs": [
        {
          "internalType": "address",
          "name": "from",
          "type": "address"
        },
        {
          "internalType": "address",
          "name": "to",
          "type": "address"
        },
        {
          "internalType": "uint256",
          "name": "tokenId",
          "type": "uint256"
        },
        {
          "internalType": "bytes",
          "name": "data",
          "type": "bytes"
        }
      ],
      "name": "safeTransferFrom",
      "outputs": [],
      "stateMutability": "nonpayable",
      "type": "function"
    },
    {
      "inputs": [
        {
          "internalType": "address",
          "name": "operator",
          "type": "address"
        },
        {
          "internalType": "bool",
          "name": "approved",
          "type": "bool"
        }
      ],
      "name": "setApprovalForAll",
      "outputs": [],
      "stateMutability": "nonpayable",
      "type": "function"
    },
    {
      "inputs": [
        {
          "internalType": "bytes4",
          "name": "interfaceId",
          "type": "bytes4"
        }
      ],
      "name": "supportsInterface",
      "outputs": [
        {
          "internalType": "bool",
          "name": "",
          "type": "bool"
        }
      ],
      "stateMutability": "view",
      "type": "function"
    },
    {
      "inputs": [],
      "name": "symbol",
      "outputs": [
        {
          "internalType": "string",
          "name": "",
          "type": "string"
        }
      ],
      "stateMutability": "view",
      "type": "function"
    },
    {
      "inputs": [
        {
          "internalType": "uint256",
          "name": "tokenId",
          "type": "uint256"
        }
      ],
      "name": "tokenURI",
      "outputs": [
        {
          "internalType": "string",
          "name": "",
          "type": "string"
        }
      ],
      "stateMutability": "view",
      "type": "function"
    },
    {
      "inputs": [
        {
          "internalType": "address",
          "name": "from",
          "type": "address"
        },
        {
          "internalType": "address",
          "name": "to",
          "type": "address"
        },
        {
          "internalType": "uint256",
          "name": "tokenId",
          "type": "uint256"
        }
      ],
      "name": "transferFrom",
      "outputs": [],
      "stateMutability": "nonpayable",
      "type": "function"
    },
    {
      "inputs": [
        {
          "internalType": "address",
          "name": "newOwner",
          "type": "address"
        }
      ],
      "name": "transferOwnership",
      "outputs": [],
      "stateMutability": "nonpayable",
      "type": "function"
    },
    {
      "inputs": [],
      "name": "usdtToken",
      "outputs": [
        {
          "internalType": "contract IERC20",
          "name": "",
          "type": "address"
        }
      ],
      "stateMutability": "view",
      "type": "function"
    },
    {
      "inputs": [
        {
          "internalType": "uint256",
          "name": "newPrice",
          "type": "uint256"
        }
      ],
      "name": "setListingPrice",
      "outputs": [],
      "stateMutability": "nonpayable",
      "type": "function"
    },
    {
      "inputs": [
        {
          "internalType": "uint256",
          "name": "tokenId",
          "type": "uint256"
        }
      ],
      "name": "getNftItem",
      "outputs": [
        {
          "components": [
            {
              "internalType": "uint256",
              "name": "tokenId",
              "type": "uint256"
            },
            {
              "internalType": "uint256",
              "name": "price",
              "type": "uint256"
            },
            {
              "internalType": "address",
              "name": "creator",
              "type": "address"
            },
            {
              "internalType": "uint256",
              "name": "startDate",
              "type": "uint256"
            },
            {
              "internalType": "uint256",
              "name": "endDate",
              "type": "uint256"
            },
            {
              "internalType": "uint256",
              "name": "depositTerm",
              "type": "uint256"
            },
            {
              "internalType": "uint256",
              "name": "depositInterest",
              "type": "uint256"
            },
            {
              "internalType": "string",
              "name": "interest",
              "type": "string"
            },
            {
              "internalType": "uint256",
              "name": "rewardsClaimed",
              "type": "uint256"
            },
            {
              "internalType": "uint256",
              "name": "payOff",
              "type": "uint256"
            },
            {
              "internalType": "uint256",
              "name": "rewardsAvailable",
              "type": "uint256"
            },
            {
              "internalType": "uint256",
              "name": "rewardProfit",
              "type": "uint256"
            },
            {
              "internalType": "bool",
              "name": "isListed",
              "type": "bool"
            }
          ],
          "internalType": "struct SPFNft.NFTItem",
          "name": "",
          "type": "tuple"
        }
      ],
      "stateMutability": "view",
      "type": "function"
    },
    {
      "inputs": [],
      "name": "listedItemsCount",
      "outputs": [
        {
          "internalType": "uint256",
          "name": "",
          "type": "uint256"
        }
      ],
      "stateMutability": "view",
      "type": "function"
    },
    {
      "inputs": [
        {
          "internalType": "string",
          "name": "tokenURI",
          "type": "string"
        }
      ],
      "name": "tokenURIExists",
      "outputs": [
        {
          "internalType": "bool",
          "name": "",
          "type": "bool"
        }
      ],
      "stateMutability": "view",
      "type": "function"
    },
    {
      "inputs": [],
      "name": "totalSupply",
      "outputs": [
        {
          "internalType": "uint256",
          "name": "",
          "type": "uint256"
        }
      ],
      "stateMutability": "view",
      "type": "function"
    },
    {
      "inputs": [
        {
          "internalType": "uint256",
          "name": "index",
          "type": "uint256"
        }
      ],
      "name": "tokenByIndex",
      "outputs": [
        {
          "internalType": "uint256",
          "name": "",
          "type": "uint256"
        }
      ],
      "stateMutability": "view",
      "type": "function"
    },
    {
      "inputs": [
        {
          "internalType": "address",
          "name": "owner",
          "type": "address"
        },
        {
          "internalType": "uint256",
          "name": "index",
          "type": "uint256"
        }
      ],
      "name": "tokenOfOwnerByIndex",
      "outputs": [
        {
          "internalType": "uint256",
          "name": "",
          "type": "uint256"
        }
      ],
      "stateMutability": "view",
      "type": "function"
    },
    {
      "inputs": [],
      "name": "getOwnedNfts",
      "outputs": [
        {
          "components": [
            {
              "internalType": "uint256",
              "name": "tokenId",
              "type": "uint256"
            },
            {
              "internalType": "uint256",
              "name": "price",
              "type": "uint256"
            },
            {
              "internalType": "address",
              "name": "creator",
              "type": "address"
            },
            {
              "internalType": "uint256",
              "name": "startDate",
              "type": "uint256"
            },
            {
              "internalType": "uint256",
              "name": "endDate",
              "type": "uint256"
            },
            {
              "internalType": "uint256",
              "name": "depositTerm",
              "type": "uint256"
            },
            {
              "internalType": "uint256",
              "name": "depositInterest",
              "type": "uint256"
            },
            {
              "internalType": "string",
              "name": "interest",
              "type": "string"
            },
            {
              "internalType": "uint256",
              "name": "rewardsClaimed",
              "type": "uint256"
            },
            {
              "internalType": "uint256",
              "name": "payOff",
              "type": "uint256"
            },
            {
              "internalType": "uint256",
              "name": "rewardsAvailable",
              "type": "uint256"
            },
            {
              "internalType": "uint256",
              "name": "rewardProfit",
              "type": "uint256"
            },
            {
              "internalType": "bool",
              "name": "isListed",
              "type": "bool"
            }
          ],
          "internalType": "struct SPFNft.NFTItem[]",
          "name": "",
          "type": "tuple[]"
        }
      ],
      "stateMutability": "view",
      "type": "function"
    },
    {
      "inputs": [],
      "name": "getAllNfts",
      "outputs": [
        {
          "components": [
            {
              "internalType": "uint256",
              "name": "tokenId",
              "type": "uint256"
            },
            {
              "internalType": "uint256",
              "name": "price",
              "type": "uint256"
            },
            {
              "internalType": "address",
              "name": "creator",
              "type": "address"
            },
            {
              "internalType": "uint256",
              "name": "startDate",
              "type": "uint256"
            },
            {
              "internalType": "uint256",
              "name": "endDate",
              "type": "uint256"
            },
            {
              "internalType": "uint256",
              "name": "depositTerm",
              "type": "uint256"
            },
            {
              "internalType": "uint256",
              "name": "depositInterest",
              "type": "uint256"
            },
            {
              "internalType": "string",
              "name": "interest",
              "type": "string"
            },
            {
              "internalType": "uint256",
              "name": "rewardsClaimed",
              "type": "uint256"
            },
            {
              "internalType": "uint256",
              "name": "payOff",
              "type": "uint256"
            },
            {
              "internalType": "uint256",
              "name": "rewardsAvailable",
              "type": "uint256"
            },
            {
              "internalType": "uint256",
              "name": "rewardProfit",
              "type": "uint256"
            },
            {
              "internalType": "bool",
              "name": "isListed",
              "type": "bool"
            }
          ],
          "internalType": "struct SPFNft.NFTItem[]",
          "name": "",
          "type": "tuple[]"
        }
      ],
      "stateMutability": "view",
      "type": "function"
    },
    {
      "inputs": [],
      "name": "Time_call",
      "outputs": [
        {
          "internalType": "uint256",
          "name": "",
          "type": "uint256"
        }
      ],
      "stateMutability": "view",
      "type": "function"
    },
    {
      "inputs": [
        {
          "internalType": "uint256",
          "name": "tokenId",
          "type": "uint256"
        }
      ],
      "name": "burnToken",
      "outputs": [],
      "stateMutability": "nonpayable",
      "type": "function"
    },
    {
      "inputs": [
        {
          "internalType": "string",
          "name": "tokenURI",
          "type": "string"
        },
        {
          "internalType": "uint256",
          "name": "price",
          "type": "uint256"
        },
        {
          "internalType": "uint256",
          "name": "startDate",
          "type": "uint256"
        },
        {
          "internalType": "uint256",
          "name": "endDate",
          "type": "uint256"
        },
        {
          "internalType": "uint256",
          "name": "depositTerm",
          "type": "uint256"
        },
        {
          "internalType": "uint256",
          "name": "depositInterest",
          "type": "uint256"
        },
        {
          "internalType": "string",
          "name": "interest",
          "type": "string"
        },
        {
          "internalType": "uint256",
          "name": "payOff",
          "type": "uint256"
        }
      ],
      "name": "mintToken",
      "outputs": [
        {
          "internalType": "uint256",
          "name": "",
          "type": "uint256"
        }
      ],
      "stateMutability": "payable",
      "type": "function"
    },
    {
      "inputs": [
        {
          "internalType": "uint256",
          "name": "amount",
          "type": "uint256"
        }
      ],
      "name": "approveDeposit",
      "outputs": [
        {
          "internalType": "bool",
          "name": "",
          "type": "bool"
        }
      ],
      "stateMutability": "nonpayable",
      "type": "function"
    },
    {
      "inputs": [
        {
          "internalType": "uint256",
          "name": "amount",
          "type": "uint256"
        }
      ],
      "name": "deposit",
      "outputs": [],
      "stateMutability": "payable",
      "type": "function"
    },
    {
      "inputs": [
        {
          "internalType": "uint256",
          "name": "_amount",
          "type": "uint256"
        }
      ],
      "name": "withdraw",
      "outputs": [],
      "stateMutability": "payable",
      "type": "function"
    },
    {
      "inputs": [
        {
          "internalType": "uint256",
          "name": "tokenId",
          "type": "uint256"
        }
      ],
      "name": "claim",
      "outputs": [],
      "stateMutability": "payable",
      "type": "function"
    },
    {
      "inputs": [],
      "name": "getUSDTBalance",
      "outputs": [
        {
          "internalType": "uint256",
          "name": "",
          "type": "uint256"
        }
      ],
      "stateMutability": "view",
      "type": "function"
    }
  ],
  "bytecode": "0x6080604052739075770435462820c6a2857863bed7d7f4fb548e600860006101000a81548173ffffffffffffffffffffffffffffffffffffffff021916908373ffffffffffffffffffffffffffffffffffffffff16021790555060006012553480156200006b57600080fd5b506040518060400160405280600d81526020017f5374616765506f696e744e6674000000000000000000000000000000000000008152506040518060400160405280600681526020017f5350464e465400000000000000000000000000000000000000000000000000008152508160009080519060200190620000f092919062000241565b5080600190805190602001906200010992919062000241565b5050506200012c620001206200017360201b60201c565b6200017b60201b60201c565b33600960006101000a81548173ffffffffffffffffffffffffffffffffffffffff021916908373ffffffffffffffffffffffffffffffffffffffff16021790555062000355565b600033905090565b6000600760009054906101000a900473ffffffffffffffffffffffffffffffffffffffff16905081600760006101000a81548173ffffffffffffffffffffffffffffffffffffffff021916908373ffffffffffffffffffffffffffffffffffffffff1602179055508173ffffffffffffffffffffffffffffffffffffffff168173ffffffffffffffffffffffffffffffffffffffff167f8be0079c531659141344cd1fd0a4f28419497f9722a3daafe3b4186f6b6457e060405160405180910390a35050565b8280546200024f9062000320565b90600052602060002090601f016020900481019282620002735760008555620002bf565b82601f106200028e57805160ff1916838001178555620002bf565b82800160010185558215620002bf579182015b82811115620002be578251825591602001919060010190620002a1565b5b509050620002ce9190620002d2565b5090565b5b80821115620002ed576000816000905550600101620002d3565b5090565b7f4e487b7100000000000000000000000000000000000000000000000000000000600052602260045260246000fd5b600060028204905060018216806200033957607f821691505b6020821081036200034f576200034e620002f1565b5b50919050565b615cc280620003656000396000f3fe6080604052600436106102045760003560e01c806370cbcb4311610118578063a22cb465116100a0578063c78f19f91161006f578063c78f19f91461076b578063c87b56dd14610796578063ccb4918d146107d3578063e985e9c5146107fe578063f2fde38b1461083b57610204565b8063a22cb465146106d2578063a98ad46c146106fb578063b6b55f2514610726578063b88d4fde1461074257610204565b80637c726b69116100e75780637c726b69146105f85780638bc82885146106215780638da5cb5b1461065157806395d89b411461067c5780639785fac8146106a757610204565b806370cbcb4314610562578063715018a61461058d578063732e8d73146105a45780637b47ec1a146105cf57610204565b80632e1a7d4d1161019b57806343d32ae71161016a57806343d32ae7146104315780634f6ccce71461046e5780636352211e146104ab5780636f1a0af5146104e857806370a082311461052557610204565b80632e1a7d4d146103935780632f745c59146103af578063379607f5146103ec57806342842e0e1461040857610204565b8063095ea7b3116101d7578063095ea7b3146102d95780631409ff6e1461030257806318160ddd1461033f57806323b872dd1461036a57610204565b806301ffc9a714610209578063032610301461024657806306fdde0314610271578063081812fc1461029c575b600080fd5b34801561021557600080fd5b50610230600480360381019061022b9190613ccc565b610864565b60405161023d9190613d14565b60405180910390f35b34801561025257600080fd5b5061025b6108c5565b6040516102689190613d48565b60405180910390f35b34801561027d57600080fd5b506102866108cd565b6040516102939190613dfc565b60405180910390f35b3480156102a857600080fd5b506102c360048036038101906102be9190613e4a565b61095f565b6040516102d09190613eb8565b60405180910390f35b3480156102e557600080fd5b5061030060048036038101906102fb9190613eff565b6109a5565b005b34801561030e57600080fd5b5061032960048036038101906103249190613e4a565b610abc565b6040516103369190613d14565b60405180910390f35b34801561034b57600080fd5b50610354610b65565b6040516103619190613d48565b60405180910390f35b34801561037657600080fd5b50610391600480360381019061038c9190613f3f565b610b72565b005b6103ad60048036038101906103a89190613e4a565b610bd2565b005b3480156103bb57600080fd5b506103d660048036038101906103d19190613eff565b610cdd565b6040516103e39190613d48565b60405180910390f35b61040660048036038101906104019190613e4a565b610d82565b005b34801561041457600080fd5b5061042f600480360381019061042a9190613f3f565b610f64565b005b34801561043d57600080fd5b50610458600480360381019061045391906140c7565b610f84565b6040516104659190613d14565b60405180910390f35b34801561047a57600080fd5b5061049560048036038101906104909190613e4a565b610fc0565b6040516104a29190613d48565b60405180910390f35b3480156104b757600080fd5b506104d260048036038101906104cd9190613e4a565b611031565b6040516104df9190613eb8565b60405180910390f35b3480156104f457600080fd5b5061050f600480360381019061050a9190613e4a565b6110b7565b60405161051c91906142a0565b60405180910390f35b34801561053157600080fd5b5061054c600480360381019061054791906142c2565b61124c565b6040516105599190613d48565b60405180910390f35b34801561056e57600080fd5b50610577611303565b60405161058491906144ca565b60405180910390f35b34801561059957600080fd5b506105a261154a565b005b3480156105b057600080fd5b506105b961155e565b6040516105c691906144ca565b60405180910390f35b3480156105db57600080fd5b506105f660048036038101906105f19190613e4a565b6117b0565b005b34801561060457600080fd5b5061061f600480360381019061061a9190613e4a565b6117bc565b005b61063b600480360381019061063691906144ec565b611811565b6040516106489190613d48565b60405180910390f35b34801561065d57600080fd5b50610666611980565b6040516106739190613eb8565b60405180910390f35b34801561068857600080fd5b506106916119aa565b60405161069e9190613dfc565b60405180910390f35b3480156106b357600080fd5b506106bc611a3c565b6040516106c99190613d48565b60405180910390f35b3480156106de57600080fd5b506106f960048036038101906106f49190614606565b611af7565b005b34801561070757600080fd5b50610710611b0d565b60405161071d91906146a5565b60405180910390f35b610740600480360381019061073b9190613e4a565b611b33565b005b34801561074e57600080fd5b5061076960048036038101906107649190614761565b611c3e565b005b34801561077757600080fd5b50610780611ca0565b60405161078d9190613d48565b60405180910390f35b3480156107a257600080fd5b506107bd60048036038101906107b89190613e4a565b611ca6565b6040516107ca9190613dfc565b60405180910390f35b3480156107df57600080fd5b506107e8611db8565b6040516107f59190613d48565b60405180910390f35b34801561080a57600080fd5b50610825600480360381019061082091906147e4565b611dc9565b6040516108329190613d14565b60405180910390f35b34801561084757600080fd5b50610862600480360381019061085d91906142c2565b611e5d565b005b6000634906490660e01b7bffffffffffffffffffffffffffffffffffffffffffffffffffffffff1916827bffffffffffffffffffffffffffffffffffffffffffffffffffffffff191614806108be57506108bd82611ee0565b5b9050919050565b600042905090565b6060600080546108dc90614853565b80601f016020809104026020016040519081016040528092919081815260200182805461090890614853565b80156109555780601f1061092a57610100808354040283529160200191610955565b820191906000526020600020905b81548152906001019060200180831161093857829003601f168201915b5050505050905090565b600061096a82611fc2565b6004600083815260200190815260200160002060009054906101000a900473ffffffffffffffffffffffffffffffffffffffff169050919050565b60006109b082611031565b90508073ffffffffffffffffffffffffffffffffffffffff168373ffffffffffffffffffffffffffffffffffffffff1603610a20576040517f08c379a0000000000000000000000000000000000000000000000000000000008152600401610a17906148f6565b60405180910390fd5b8073ffffffffffffffffffffffffffffffffffffffff16610a3f61200d565b73ffffffffffffffffffffffffffffffffffffffff161480610a6e5750610a6d81610a6861200d565b611dc9565b5b610aad576040517f08c379a0000000000000000000000000000000000000000000000000000000008152600401610aa490614988565b60405180910390fd5b610ab78383612015565b505050565b6000600860009054906101000a900473ffffffffffffffffffffffffffffffffffffffff1673ffffffffffffffffffffffffffffffffffffffff1663095ea7b333846040518363ffffffff1660e01b8152600401610b1b9291906149a8565b6020604051808303816000875af1158015610b3a573d6000803e3d6000fd5b505050506040513d601f19601f82011682018060405250810190610b5e91906149e6565b9050919050565b6000600c80549050905090565b610b83610b7d61200d565b826120ce565b610bc2576040517f08c379a0000000000000000000000000000000000000000000000000000000008152600401610bb990614a85565b60405180910390fd5b610bcd838383612163565b505050565b600960009054906101000a900473ffffffffffffffffffffffffffffffffffffffff1673ffffffffffffffffffffffffffffffffffffffff163373ffffffffffffffffffffffffffffffffffffffff1614610c62576040517f08c379a0000000000000000000000000000000000000000000000000000000008152600401610c5990614af1565b60405180910390fd5b60006006600a610c729190614c73565b82610c7d9190614cbe565b9050610c8a30338361245c565b503373ffffffffffffffffffffffffffffffffffffffff167f7fcf532c15f0a6db0bd6d0e038bea71d30d808c7d98cb3bf7268a95bf5081b6534604051610cd19190613d48565b60405180910390a25050565b6000610ce88361124c565b8210610d29576040517f08c379a0000000000000000000000000000000000000000000000000000000008152600401610d2090614d64565b60405180910390fd5b600f60008473ffffffffffffffffffffffffffffffffffffffff1673ffffffffffffffffffffffffffffffffffffffff168152602001908152602001600020600083815260200190815260200160002054905092915050565b6000600e600083815260200190815260200160002090503373ffffffffffffffffffffffffffffffffffffffff168160020160009054906101000a900473ffffffffffffffffffffffffffffffffffffffff1673ffffffffffffffffffffffffffffffffffffffff1614610e2b576040517f08c379a0000000000000000000000000000000000000000000000000000000008152600401610e2290614dd0565b60405180910390fd5b8060050154816008015410610e75576040517f08c379a0000000000000000000000000000000000000000000000000000000008152600401610e6c90614e3c565b60405180910390fd5b600081600a015411610ebc576040517f08c379a0000000000000000000000000000000000000000000000000000000008152600401610eb390614ea8565b60405180910390fd5b610eda303383600a015484600b0154610ed59190614cbe565b61245c565b610f19576040517f08c379a0000000000000000000000000000000000000000000000000000000008152600401610f1090614f14565b60405180910390fd5b60018160080154610f2a9190614f34565b600e6000848152602001908152602001600020600801819055506000600e6000848152602001908152602001600020600a01819055505050565b610f7f83838360405180602001604052806000815250611c3e565b505050565b600060011515600d83604051610f9a9190614fc6565b908152602001604051809103902060009054906101000a900460ff161515149050919050565b6000610fca610b65565b821061100b576040517f08c379a000000000000000000000000000000000000000000000000000000000815260040161100290614d64565b60405180910390fd5b600c828154811061101f5761101e614fdd565b5b90600052602060002001549050919050565b60008061103d83612509565b9050600073ffffffffffffffffffffffffffffffffffffffff168173ffffffffffffffffffffffffffffffffffffffff16036110ae576040517f08c379a00000000000000000000000000000000000000000000000000000000081526004016110a590615058565b60405180910390fd5b80915050919050565b6110bf613afd565b600e6000838152602001908152602001600020604051806101a001604052908160008201548152602001600182015481526020016002820160009054906101000a900473ffffffffffffffffffffffffffffffffffffffff1673ffffffffffffffffffffffffffffffffffffffff1673ffffffffffffffffffffffffffffffffffffffff1681526020016003820154815260200160048201548152602001600582015481526020016006820154815260200160078201805461118090614853565b80601f01602080910402602001604051908101604052809291908181526020018280546111ac90614853565b80156111f95780601f106111ce576101008083540402835291602001916111f9565b820191906000526020600020905b8154815290600101906020018083116111dc57829003601f168201915b505050505081526020016008820154815260200160098201548152602001600a8201548152602001600b8201548152602001600c820160009054906101000a900460ff1615151515815250509050919050565b60008073ffffffffffffffffffffffffffffffffffffffff168273ffffffffffffffffffffffffffffffffffffffff16036112bc576040517f08c379a00000000000000000000000000000000000000000000000000000000081526004016112b3906150ea565b60405180910390fd5b600360008373ffffffffffffffffffffffffffffffffffffffff1673ffffffffffffffffffffffffffffffffffffffff168152602001908152602001600020549050919050565b606060006113103361124c565b905060008167ffffffffffffffff81111561132e5761132d613f9c565b5b60405190808252806020026020018201604052801561136757816020015b611354613afd565b81526020019060019003908161134c5790505b50905060005b828110156115415760006113813383610cdd565b90506000600e6000838152602001908152602001600020905080604051806101a001604052908160008201548152602001600182015481526020016002820160009054906101000a900473ffffffffffffffffffffffffffffffffffffffff1673ffffffffffffffffffffffffffffffffffffffff1673ffffffffffffffffffffffffffffffffffffffff1681526020016003820154815260200160048201548152602001600582015481526020016006820154815260200160078201805461144990614853565b80601f016020809104026020016040519081016040528092919081815260200182805461147590614853565b80156114c25780601f10611497576101008083540402835291602001916114c2565b820191906000526020600020905b8154815290600101906020018083116114a557829003601f168201915b505050505081526020016008820154815260200160098201548152602001600a8201548152602001600b8201548152602001600c820160009054906101000a900460ff16151515158152505084848151811061152157611520614fdd565b5b6020026020010181905250505080806115399061510a565b91505061136d565b50809250505090565b611552612546565b61155c60006125c4565b565b60606000600c8054905067ffffffffffffffff81111561158157611580613f9c565b5b6040519080825280602002602001820160405280156115ba57816020015b6115a7613afd565b81526020019060019003908161159f5790505b50905060005b600c805490508110156117a8576000600e6000600c84815481106115e7576115e6614fdd565b5b90600052602060002001548152602001908152602001600020905080604051806101a001604052908160008201548152602001600182015481526020016002820160009054906101000a900473ffffffffffffffffffffffffffffffffffffffff1673ffffffffffffffffffffffffffffffffffffffff1673ffffffffffffffffffffffffffffffffffffffff168152602001600382015481526020016004820154815260200160058201548152602001600682015481526020016007820180546116b190614853565b80601f01602080910402602001604051908101604052809291908181526020018280546116dd90614853565b801561172a5780601f106116ff5761010080835404028352916020019161172a565b820191906000526020600020905b81548152906001019060200180831161170d57829003601f168201915b505050505081526020016008820154815260200160098201548152602001600a8201548152602001600b8201548152602001600c820160009054906101000a900460ff16151515158152505083838151811061178957611788614fdd565b5b60200260200101819052505080806117a09061510a565b9150506115c0565b508091505090565b6117b98161268a565b50565b6117c4612546565b60008111611807576040517f08c379a00000000000000000000000000000000000000000000000000000000081526004016117fe9061519e565b60405180910390fd5b8060128190555050565b60006040516020016118229061520a565b60405160208183030381529060405280519060200120836040516020016118499190614fc6565b6040516020818303038152906040528051906020012014806118b457506040516020016118759061526b565b604051602081830303815290604052805190602001208360405160200161189c9190614fc6565b60405160208183030381529060405280519060200120145b6118f3576040517f08c379a00000000000000000000000000000000000000000000000000000000081526004016118ea906152cc565b60405180910390fd5b6118fd600b6126dd565b611907600a6126dd565b6000611913600b6126f3565b905061191f3382612701565b611929818b61271f565b611939818a8a8a8a8a8a8a6127ca565b6001600d8b60405161194b9190614fc6565b908152602001604051809103902060006101000a81548160ff0219169083151502179055508091505098975050505050505050565b6000600760009054906101000a900473ffffffffffffffffffffffffffffffffffffffff16905090565b6060600180546119b990614853565b80601f01602080910402602001604051908101604052809291908181526020018280546119e590614853565b8015611a325780601f10611a0757610100808354040283529160200191611a32565b820191906000526020600020905b815481529060010190602001808311611a1557829003601f168201915b5050505050905090565b60006006600a611a4c9190614c73565b600860009054906101000a900473ffffffffffffffffffffffffffffffffffffffff1673ffffffffffffffffffffffffffffffffffffffff166370a08231306040518263ffffffff1660e01b8152600401611aa79190613eb8565b602060405180830381865afa158015611ac4573d6000803e3d6000fd5b505050506040513d601f19601f82011682018060405250810190611ae89190615301565b611af2919061535d565b905090565b611b09611b0261200d565b8383612c54565b5050565b600860009054906101000a900473ffffffffffffffffffffffffffffffffffffffff1681565b600960009054906101000a900473ffffffffffffffffffffffffffffffffffffffff1673ffffffffffffffffffffffffffffffffffffffff163373ffffffffffffffffffffffffffffffffffffffff1614611bc3576040517f08c379a0000000000000000000000000000000000000000000000000000000008152600401611bba906153da565b60405180910390fd5b60006006600a611bd39190614c73565b82611bde9190614cbe565b9050611beb33308361245c565b503373ffffffffffffffffffffffffffffffffffffffff167fe1fffcc4923d04b559f4d29a8bfc6cda04eb5b0d3c460751c2402c5c5cc9109c34604051611c329190613d48565b60405180910390a25050565b611c4f611c4961200d565b836120ce565b611c8e576040517f08c379a0000000000000000000000000000000000000000000000000000000008152600401611c8590614a85565b60405180910390fd5b611c9a84848484612dc0565b50505050565b60125481565b6060611cb182611fc2565b6000600660008481526020019081526020016000208054611cd190614853565b80601f0160208091040260200160405190810160405280929190818152602001828054611cfd90614853565b8015611d4a5780601f10611d1f57610100808354040283529160200191611d4a565b820191906000526020600020905b815481529060010190602001808311611d2d57829003601f168201915b505050505090506000611d5b612e1c565b90506000815103611d70578192505050611db3565b600082511115611da5578082604051602001611d8d9291906153fa565b60405160208183030381529060405292505050611db3565b611dae84612e33565b925050505b919050565b6000611dc4600a6126f3565b905090565b6000600560008473ffffffffffffffffffffffffffffffffffffffff1673ffffffffffffffffffffffffffffffffffffffff16815260200190815260200160002060008373ffffffffffffffffffffffffffffffffffffffff1673ffffffffffffffffffffffffffffffffffffffff16815260200190815260200160002060009054906101000a900460ff16905092915050565b611e65612546565b600073ffffffffffffffffffffffffffffffffffffffff168173ffffffffffffffffffffffffffffffffffffffff1603611ed4576040517f08c379a0000000000000000000000000000000000000000000000000000000008152600401611ecb90615490565b60405180910390fd5b611edd816125c4565b50565b60007f80ac58cd000000000000000000000000000000000000000000000000000000007bffffffffffffffffffffffffffffffffffffffffffffffffffffffff1916827bffffffffffffffffffffffffffffffffffffffffffffffffffffffff19161480611fab57507f5b5e139f000000000000000000000000000000000000000000000000000000007bffffffffffffffffffffffffffffffffffffffffffffffffffffffff1916827bffffffffffffffffffffffffffffffffffffffffffffffffffffffff1916145b80611fbb5750611fba82612e9b565b5b9050919050565b611fcb81612f05565b61200a576040517f08c379a000000000000000000000000000000000000000000000000000000000815260040161200190615058565b60405180910390fd5b50565b600033905090565b816004600083815260200190815260200160002060006101000a81548173ffffffffffffffffffffffffffffffffffffffff021916908373ffffffffffffffffffffffffffffffffffffffff160217905550808273ffffffffffffffffffffffffffffffffffffffff1661208883611031565b73ffffffffffffffffffffffffffffffffffffffff167f8c5be1e5ebec7d5bd14f71427d1e84f3dd0314c0f7b2291e5b200ac8c7c3b92560405160405180910390a45050565b6000806120da83611031565b90508073ffffffffffffffffffffffffffffffffffffffff168473ffffffffffffffffffffffffffffffffffffffff16148061211c575061211b8185611dc9565b5b8061215a57508373ffffffffffffffffffffffffffffffffffffffff166121428461095f565b73ffffffffffffffffffffffffffffffffffffffff16145b91505092915050565b8273ffffffffffffffffffffffffffffffffffffffff1661218382611031565b73ffffffffffffffffffffffffffffffffffffffff16146121d9576040517f08c379a00000000000000000000000000000000000000000000000000000000081526004016121d090615522565b60405180910390fd5b600073ffffffffffffffffffffffffffffffffffffffff168273ffffffffffffffffffffffffffffffffffffffff1603612248576040517f08c379a000000000000000000000000000000000000000000000000000000000815260040161223f906155b4565b60405180910390fd5b6122558383836001612f46565b8273ffffffffffffffffffffffffffffffffffffffff1661227582611031565b73ffffffffffffffffffffffffffffffffffffffff16146122cb576040517f08c379a00000000000000000000000000000000000000000000000000000000081526004016122c290615522565b60405180910390fd5b6004600082815260200190815260200160002060006101000a81549073ffffffffffffffffffffffffffffffffffffffff02191690556001600360008573ffffffffffffffffffffffffffffffffffffffff1673ffffffffffffffffffffffffffffffffffffffff168152602001908152602001600020600082825403925050819055506001600360008473ffffffffffffffffffffffffffffffffffffffff1673ffffffffffffffffffffffffffffffffffffffff16815260200190815260200160002060008282540192505081905550816002600083815260200190815260200160002060006101000a81548173ffffffffffffffffffffffffffffffffffffffff021916908373ffffffffffffffffffffffffffffffffffffffff160217905550808273ffffffffffffffffffffffffffffffffffffffff168473ffffffffffffffffffffffffffffffffffffffff167fddf252ad1be2c89b69c2b068fc378daa952ba7f163c4a11628f55a4df523b3ef60405160405180910390a4612457838383600161305a565b505050565b6000600860009054906101000a900473ffffffffffffffffffffffffffffffffffffffff1673ffffffffffffffffffffffffffffffffffffffff166323b872dd8585856040518463ffffffff1660e01b81526004016124bd939291906155d4565b6020604051808303816000875af11580156124dc573d6000803e3d6000fd5b505050506040513d601f19601f8201168201806040525081019061250091906149e6565b90509392505050565b60006002600083815260200190815260200160002060009054906101000a900473ffffffffffffffffffffffffffffffffffffffff169050919050565b61254e61200d565b73ffffffffffffffffffffffffffffffffffffffff1661256c611980565b73ffffffffffffffffffffffffffffffffffffffff16146125c2576040517f08c379a00000000000000000000000000000000000000000000000000000000081526004016125b990615657565b60405180910390fd5b565b6000600760009054906101000a900473ffffffffffffffffffffffffffffffffffffffff16905081600760006101000a81548173ffffffffffffffffffffffffffffffffffffffff021916908373ffffffffffffffffffffffffffffffffffffffff1602179055508173ffffffffffffffffffffffffffffffffffffffff168173ffffffffffffffffffffffffffffffffffffffff167f8be0079c531659141344cd1fd0a4f28419497f9722a3daafe3b4186f6b6457e060405160405180910390a35050565b61269381613060565b60006006600083815260200190815260200160002080546126b390614853565b9050146126da576006600082815260200190815260200160002060006126d99190613b7d565b5b50565b6001816000016000828254019250508190555050565b600081600001549050919050565b61271b8282604051806020016040528060008152506131ae565b5050565b61272882612f05565b612767576040517f08c379a000000000000000000000000000000000000000000000000000000000815260040161275e906156e9565b60405180910390fd5b8060066000848152602001908152602001600020908051906020019061278e929190613bbd565b507ff8e1a15aba9398e019f0b49df1a4fde98ee17ae345cb5f6b5e2c27f5033e8ce7826040516127be9190613d48565b60405180910390a15050565b6064871161280d576040517f08c379a000000000000000000000000000000000000000000000000000000000815260040161280490615755565b60405180910390fd5b600087905060006064600c6006600a6128269190614c73565b876128319190614cbe565b61283b919061535d565b612845919061535d565b905060006040516020016128589061520a565b604051602081830303815290604052805190602001208560405160200161287f9190614fc6565b60405160208183030381529060405280519060200120036128c457828260016128a89190614f34565b846128b39190614cbe565b6128bd9190615775565b9050612a02565b6000826006600a6128d59190614c73565b6128df9190614f34565b905060006001905060005b898110156129385782826128fe9190614cbe565b91506001811115612925576006600a6129179190614c73565b82612922919061535d565b91505b80806129309061510a565b9150506128ea565b507f276db9d23116a976ba7effdda4335966433395e9df409133c37051b393bee4c5816040516129689190613d48565b60405180910390a160026006600a6129809190614c73565b61298a91906157b6565b856129959190614cbe565b81866129a19190614cbe565b6129ab9190615775565b92506006600a6129bb9190614c73565b836129c6919061535d565b92507f276db9d23116a976ba7effdda4335966433395e9df409133c37051b393bee4c5836040516129f79190613d48565b60405180910390a150505b60006006600a612a129190614c73565b8b612a1d9190614cbe565b9050612a2a33308361245c565b612a69576040517f08c379a0000000000000000000000000000000000000000000000000000000008152600401612a609061584d565b60405180910390fd5b604051806101a001604052808d81526020018c81526020013373ffffffffffffffffffffffffffffffffffffffff1681526020018b81526020018a8152602001898152602001888152602001878152602001600081526020018681526020016001815260200183815260200160011515815250600e60008e8152602001908152602001600020600082015181600001556020820151816001015560408201518160020160006101000a81548173ffffffffffffffffffffffffffffffffffffffff021916908373ffffffffffffffffffffffffffffffffffffffff160217905550606082015181600301556080820151816004015560a0820151816005015560c0820151816006015560e0820151816007019080519060200190612b8e929190613bbd565b506101008201518160080155610120820151816009015561014082015181600a015561016082015181600b015561018082015181600c0160006101000a81548160ff0219169083151502179055509050507fb9f801d6df87c696e55bebf0423b98eb6e8b9311a9ded8e8725634dc4bd4e72e8c8c338d8d8d8d8d60008e60016006600a612c1b9190614c73565b8e612c26919061535d565b604051612c3e9c9b9a999897969594939291906158e3565b60405180910390a1505050505050505050505050565b8173ffffffffffffffffffffffffffffffffffffffff168373ffffffffffffffffffffffffffffffffffffffff1603612cc2576040517f08c379a0000000000000000000000000000000000000000000000000000000008152600401612cb9906159f0565b60405180910390fd5b80600560008573ffffffffffffffffffffffffffffffffffffffff1673ffffffffffffffffffffffffffffffffffffffff16815260200190815260200160002060008473ffffffffffffffffffffffffffffffffffffffff1673ffffffffffffffffffffffffffffffffffffffff16815260200190815260200160002060006101000a81548160ff0219169083151502179055508173ffffffffffffffffffffffffffffffffffffffff168373ffffffffffffffffffffffffffffffffffffffff167f17307eab39ab6107e8899845ad3d59bd9653f200f220920489ca2b5937696c3183604051612db39190613d14565b60405180910390a3505050565b612dcb848484612163565b612dd784848484613209565b612e16576040517f08c379a0000000000000000000000000000000000000000000000000000000008152600401612e0d90615a82565b60405180910390fd5b50505050565b606060405180602001604052806000815250905090565b6060612e3e82611fc2565b6000612e48612e1c565b90506000815111612e685760405180602001604052806000815250612e93565b80612e7284613390565b604051602001612e839291906153fa565b6040516020818303038152906040525b915050919050565b60007f01ffc9a7000000000000000000000000000000000000000000000000000000007bffffffffffffffffffffffffffffffffffffffffffffffffffffffff1916827bffffffffffffffffffffffffffffffffffffffffffffffffffffffff1916149050919050565b60008073ffffffffffffffffffffffffffffffffffffffff16612f2783612509565b73ffffffffffffffffffffffffffffffffffffffff1614159050919050565b612f528484848461345e565b600073ffffffffffffffffffffffffffffffffffffffff168473ffffffffffffffffffffffffffffffffffffffff1603612f9457612f8f82613464565b612fd3565b8273ffffffffffffffffffffffffffffffffffffffff168473ffffffffffffffffffffffffffffffffffffffff1614612fd257612fd184836134ad565b5b5b600073ffffffffffffffffffffffffffffffffffffffff168373ffffffffffffffffffffffffffffffffffffffff1603613015576130108261361a565b613054565b8373ffffffffffffffffffffffffffffffffffffffff168373ffffffffffffffffffffffffffffffffffffffff16146130535761305283836136eb565b5b5b50505050565b50505050565b600061306b82611031565b905061307b816000846001612f46565b61308482611031565b90506004600083815260200190815260200160002060006101000a81549073ffffffffffffffffffffffffffffffffffffffff02191690556001600360008373ffffffffffffffffffffffffffffffffffffffff1673ffffffffffffffffffffffffffffffffffffffff168152602001908152602001600020600082825403925050819055506002600083815260200190815260200160002060006101000a81549073ffffffffffffffffffffffffffffffffffffffff021916905581600073ffffffffffffffffffffffffffffffffffffffff168273ffffffffffffffffffffffffffffffffffffffff167fddf252ad1be2c89b69c2b068fc378daa952ba7f163c4a11628f55a4df523b3ef60405160405180910390a46131aa81600084600161305a565b5050565b6131b8838361376a565b6131c56000848484613209565b613204576040517f08c379a00000000000000000000000000000000000000000000000000000000081526004016131fb90615a82565b60405180910390fd5b505050565b600061322a8473ffffffffffffffffffffffffffffffffffffffff16613987565b15613383578373ffffffffffffffffffffffffffffffffffffffff1663150b7a0261325361200d565b8786866040518563ffffffff1660e01b81526004016132759493929190615af7565b6020604051808303816000875af19250505080156132b157506040513d601f19601f820116820180604052508101906132ae9190615b58565b60015b613333573d80600081146132e1576040519150601f19603f3d011682016040523d82523d6000602084013e6132e6565b606091505b50600081510361332b576040517f08c379a000000000000000000000000000000000000000000000000000000000815260040161332290615a82565b60405180910390fd5b805181602001fd5b63150b7a0260e01b7bffffffffffffffffffffffffffffffffffffffffffffffffffffffff1916817bffffffffffffffffffffffffffffffffffffffffffffffffffffffff191614915050613388565b600190505b949350505050565b60606000600161339f846139aa565b01905060008167ffffffffffffffff8111156133be576133bd613f9c565b5b6040519080825280601f01601f1916602001820160405280156133f05781602001600182028036833780820191505090505b509050600082602001820190505b600115613453578080600190039150507f3031323334353637383961626364656600000000000000000000000000000000600a86061a8153600a85816134475761344661532e565b5b049450600085036133fe575b819350505050919050565b50505050565b600c805490506011600083815260200190815260200160002081905550600c81908060018154018082558091505060019003906000526020600020016000909190919091505550565b600060016134ba8461124c565b6134c49190615775565b90506000601060008481526020019081526020016000205490508181146135a9576000600f60008673ffffffffffffffffffffffffffffffffffffffff1673ffffffffffffffffffffffffffffffffffffffff168152602001908152602001600020600084815260200190815260200160002054905080600f60008773ffffffffffffffffffffffffffffffffffffffff1673ffffffffffffffffffffffffffffffffffffffff168152602001908152602001600020600086815260200190815260200160002081905550816010600083815260200190815260200160002081905550505b6010600084815260200190815260200160002060009055600f60008573ffffffffffffffffffffffffffffffffffffffff1673ffffffffffffffffffffffffffffffffffffffff16815260200190815260200160002060008381526020019081526020016000206000905550505050565b60006001600c8054905061362e9190615775565b90506000601160008481526020019081526020016000205490506000600c838154811061365e5761365d614fdd565b5b9060005260206000200154905080600c83815481106136805761367f614fdd565b5b90600052602060002001819055508160116000838152602001908152602001600020819055506011600085815260200190815260200160002060009055600c8054806136cf576136ce615b85565b5b6001900381819060005260206000200160009055905550505050565b60006136f68361124c565b905081600f60008573ffffffffffffffffffffffffffffffffffffffff1673ffffffffffffffffffffffffffffffffffffffff168152602001908152602001600020600083815260200190815260200160002081905550806010600084815260200190815260200160002081905550505050565b600073ffffffffffffffffffffffffffffffffffffffff168273ffffffffffffffffffffffffffffffffffffffff16036137d9576040517f08c379a00000000000000000000000000000000000000000000000000000000081526004016137d090615c00565b60405180910390fd5b6137e281612f05565b15613822576040517f08c379a000000000000000000000000000000000000000000000000000000000815260040161381990615c6c565b60405180910390fd5b613830600083836001612f46565b61383981612f05565b15613879576040517f08c379a000000000000000000000000000000000000000000000000000000000815260040161387090615c6c565b60405180910390fd5b6001600360008473ffffffffffffffffffffffffffffffffffffffff1673ffffffffffffffffffffffffffffffffffffffff16815260200190815260200160002060008282540192505081905550816002600083815260200190815260200160002060006101000a81548173ffffffffffffffffffffffffffffffffffffffff021916908373ffffffffffffffffffffffffffffffffffffffff160217905550808273ffffffffffffffffffffffffffffffffffffffff16600073ffffffffffffffffffffffffffffffffffffffff167fddf252ad1be2c89b69c2b068fc378daa952ba7f163c4a11628f55a4df523b3ef60405160405180910390a461398360008383600161305a565b5050565b6000808273ffffffffffffffffffffffffffffffffffffffff163b119050919050565b600080600090507a184f03e93ff9f4daa797ed6e38ed64bf6a1f0100000000000000008310613a08577a184f03e93ff9f4daa797ed6e38ed64bf6a1f01000000000000000083816139fe576139fd61532e565b5b0492506040810190505b6d04ee2d6d415b85acef81000000008310613a45576d04ee2d6d415b85acef81000000008381613a3b57613a3a61532e565b5b0492506020810190505b662386f26fc100008310613a7457662386f26fc100008381613a6a57613a6961532e565b5b0492506010810190505b6305f5e1008310613a9d576305f5e1008381613a9357613a9261532e565b5b0492506008810190505b6127108310613ac2576127108381613ab857613ab761532e565b5b0492506004810190505b60648310613ae55760648381613adb57613ada61532e565b5b0492506002810190505b600a8310613af4576001810190505b80915050919050565b604051806101a001604052806000815260200160008152602001600073ffffffffffffffffffffffffffffffffffffffff1681526020016000815260200160008152602001600081526020016000815260200160608152602001600081526020016000815260200160008152602001600081526020016000151581525090565b508054613b8990614853565b6000825580601f10613b9b5750613bba565b601f016020900490600052602060002090810190613bb99190613c43565b5b50565b828054613bc990614853565b90600052602060002090601f016020900481019282613beb5760008555613c32565b82601f10613c0457805160ff1916838001178555613c32565b82800160010185558215613c32579182015b82811115613c31578251825591602001919060010190613c16565b5b509050613c3f9190613c43565b5090565b5b80821115613c5c576000816000905550600101613c44565b5090565b6000604051905090565b600080fd5b600080fd5b60007fffffffff0000000000000000000000000000000000000000000000000000000082169050919050565b613ca981613c74565b8114613cb457600080fd5b50565b600081359050613cc681613ca0565b92915050565b600060208284031215613ce257613ce1613c6a565b5b6000613cf084828501613cb7565b91505092915050565b60008115159050919050565b613d0e81613cf9565b82525050565b6000602082019050613d296000830184613d05565b92915050565b6000819050919050565b613d4281613d2f565b82525050565b6000602082019050613d5d6000830184613d39565b92915050565b600081519050919050565b600082825260208201905092915050565b60005b83811015613d9d578082015181840152602081019050613d82565b83811115613dac576000848401525b50505050565b6000601f19601f8301169050919050565b6000613dce82613d63565b613dd88185613d6e565b9350613de8818560208601613d7f565b613df181613db2565b840191505092915050565b60006020820190508181036000830152613e168184613dc3565b905092915050565b613e2781613d2f565b8114613e3257600080fd5b50565b600081359050613e4481613e1e565b92915050565b600060208284031215613e6057613e5f613c6a565b5b6000613e6e84828501613e35565b91505092915050565b600073ffffffffffffffffffffffffffffffffffffffff82169050919050565b6000613ea282613e77565b9050919050565b613eb281613e97565b82525050565b6000602082019050613ecd6000830184613ea9565b92915050565b613edc81613e97565b8114613ee757600080fd5b50565b600081359050613ef981613ed3565b92915050565b60008060408385031215613f1657613f15613c6a565b5b6000613f2485828601613eea565b9250506020613f3585828601613e35565b9150509250929050565b600080600060608486031215613f5857613f57613c6a565b5b6000613f6686828701613eea565b9350506020613f7786828701613eea565b9250506040613f8886828701613e35565b9150509250925092565b600080fd5b600080fd5b7f4e487b7100000000000000000000000000000000000000000000000000000000600052604160045260246000fd5b613fd482613db2565b810181811067ffffffffffffffff82111715613ff357613ff2613f9c565b5b80604052505050565b6000614006613c60565b90506140128282613fcb565b919050565b600067ffffffffffffffff82111561403257614031613f9c565b5b61403b82613db2565b9050602081019050919050565b82818337600083830152505050565b600061406a61406584614017565b613ffc565b90508281526020810184848401111561408657614085613f97565b5b614091848285614048565b509392505050565b600082601f8301126140ae576140ad613f92565b5b81356140be848260208601614057565b91505092915050565b6000602082840312156140dd576140dc613c6a565b5b600082013567ffffffffffffffff8111156140fb576140fa613c6f565b5b61410784828501614099565b91505092915050565b61411981613d2f565b82525050565b61412881613e97565b82525050565b600082825260208201905092915050565b600061414a82613d63565b614154818561412e565b9350614164818560208601613d7f565b61416d81613db2565b840191505092915050565b61418181613cf9565b82525050565b60006101a0830160008301516141a06000860182614110565b5060208301516141b36020860182614110565b5060408301516141c6604086018261411f565b5060608301516141d96060860182614110565b5060808301516141ec6080860182614110565b5060a08301516141ff60a0860182614110565b5060c083015161421260c0860182614110565b5060e083015184820360e086015261422a828261413f565b915050610100830151614241610100860182614110565b50610120830151614256610120860182614110565b5061014083015161426b610140860182614110565b50610160830151614280610160860182614110565b50610180830151614295610180860182614178565b508091505092915050565b600060208201905081810360008301526142ba8184614187565b905092915050565b6000602082840312156142d8576142d7613c6a565b5b60006142e684828501613eea565b91505092915050565b600081519050919050565b600082825260208201905092915050565b6000819050602082019050919050565b60006101a0830160008301516143346000860182614110565b5060208301516143476020860182614110565b50604083015161435a604086018261411f565b50606083015161436d6060860182614110565b5060808301516143806080860182614110565b5060a083015161439360a0860182614110565b5060c08301516143a660c0860182614110565b5060e083015184820360e08601526143be828261413f565b9150506101008301516143d5610100860182614110565b506101208301516143ea610120860182614110565b506101408301516143ff610140860182614110565b50610160830151614414610160860182614110565b50610180830151614429610180860182614178565b508091505092915050565b6000614440838361431b565b905092915050565b6000602082019050919050565b6000614460826142ef565b61446a81856142fa565b93508360208202850161447c8561430b565b8060005b858110156144b857848403895281516144998582614434565b94506144a483614448565b925060208a01995050600181019050614480565b50829750879550505050505092915050565b600060208201905081810360008301526144e48184614455565b905092915050565b600080600080600080600080610100898b03121561450d5761450c613c6a565b5b600089013567ffffffffffffffff81111561452b5761452a613c6f565b5b6145378b828c01614099565b98505060206145488b828c01613e35565b97505060406145598b828c01613e35565b965050606061456a8b828c01613e35565b955050608061457b8b828c01613e35565b94505060a061458c8b828c01613e35565b93505060c089013567ffffffffffffffff8111156145ad576145ac613c6f565b5b6145b98b828c01614099565b92505060e06145ca8b828c01613e35565b9150509295985092959890939650565b6145e381613cf9565b81146145ee57600080fd5b50565b600081359050614600816145da565b92915050565b6000806040838503121561461d5761461c613c6a565b5b600061462b85828601613eea565b925050602061463c858286016145f1565b9150509250929050565b6000819050919050565b600061466b61466661466184613e77565b614646565b613e77565b9050919050565b600061467d82614650565b9050919050565b600061468f82614672565b9050919050565b61469f81614684565b82525050565b60006020820190506146ba6000830184614696565b92915050565b600067ffffffffffffffff8211156146db576146da613f9c565b5b6146e482613db2565b9050602081019050919050565b60006147046146ff846146c0565b613ffc565b9050828152602081018484840111156147205761471f613f97565b5b61472b848285614048565b509392505050565b600082601f83011261474857614747613f92565b5b81356147588482602086016146f1565b91505092915050565b6000806000806080858703121561477b5761477a613c6a565b5b600061478987828801613eea565b945050602061479a87828801613eea565b93505060406147ab87828801613e35565b925050606085013567ffffffffffffffff8111156147cc576147cb613c6f565b5b6147d887828801614733565b91505092959194509250565b600080604083850312156147fb576147fa613c6a565b5b600061480985828601613eea565b925050602061481a85828601613eea565b9150509250929050565b7f4e487b7100000000000000000000000000000000000000000000000000000000600052602260045260246000fd5b6000600282049050600182168061486b57607f821691505b60208210810361487e5761487d614824565b5b50919050565b7f4552433732313a20617070726f76616c20746f2063757272656e74206f776e6560008201527f7200000000000000000000000000000000000000000000000000000000000000602082015250565b60006148e0602183613d6e565b91506148eb82614884565b604082019050919050565b6000602082019050818103600083015261490f816148d3565b9050919050565b7f4552433732313a20617070726f76652063616c6c6572206973206e6f7420746f60008201527f6b656e206f776e6572206f7220617070726f76656420666f7220616c6c000000602082015250565b6000614972603d83613d6e565b915061497d82614916565b604082019050919050565b600060208201905081810360008301526149a181614965565b9050919050565b60006040820190506149bd6000830185613ea9565b6149ca6020830184613d39565b9392505050565b6000815190506149e0816145da565b92915050565b6000602082840312156149fc576149fb613c6a565b5b6000614a0a848285016149d1565b91505092915050565b7f4552433732313a2063616c6c6572206973206e6f7420746f6b656e206f776e6560008201527f72206f7220617070726f76656400000000000000000000000000000000000000602082015250565b6000614a6f602d83613d6e565b9150614a7a82614a13565b604082019050919050565b60006020820190508181036000830152614a9e81614a62565b9050919050565b7f4f6e6c79206f776e65722063616e20776974686472617720666f756e64730000600082015250565b6000614adb601e83613d6e565b9150614ae682614aa5565b602082019050919050565b60006020820190508181036000830152614b0a81614ace565b9050919050565b7f4e487b7100000000000000000000000000000000000000000000000000000000600052601160045260246000fd5b60008160011c9050919050565b6000808291508390505b6001851115614b9757808604811115614b7357614b72614b11565b5b6001851615614b825780820291505b8081029050614b9085614b40565b9450614b57565b94509492505050565b600082614bb05760019050614c6c565b81614bbe5760009050614c6c565b8160018114614bd45760028114614bde57614c0d565b6001915050614c6c565b60ff841115614bf057614bef614b11565b5b8360020a915084821115614c0757614c06614b11565b5b50614c6c565b5060208310610133831016604e8410600b8410161715614c425782820a905083811115614c3d57614c3c614b11565b5b614c6c565b614c4f8484846001614b4d565b92509050818404811115614c6657614c65614b11565b5b81810290505b9392505050565b6000614c7e82613d2f565b9150614c8983613d2f565b9250614cb67fffffffffffffffffffffffffffffffffffffffffffffffffffffffffffffffff8484614ba0565b905092915050565b6000614cc982613d2f565b9150614cd483613d2f565b9250817fffffffffffffffffffffffffffffffffffffffffffffffffffffffffffffffff0483118215151615614d0d57614d0c614b11565b5b828202905092915050565b7f496e646578206f7574206f6620626f756e647300000000000000000000000000600082015250565b6000614d4e601383613d6e565b9150614d5982614d18565b602082019050919050565b60006020820190508181036000830152614d7d81614d41565b9050919050565b7f596f7520617265206e6f74206f776e6572206f662074686973204e4654000000600082015250565b6000614dba601d83613d6e565b9150614dc582614d84565b602082019050919050565b60006020820190508181036000830152614de981614dad565b9050919050565b7f596f752063616c696d656420616c6c2072657761726400000000000000000000600082015250565b6000614e26601683613d6e565b9150614e3182614df0565b602082019050919050565b60006020820190508181036000830152614e5581614e19565b9050919050565b7f4e6f20617661696c61626c652072657761726473000000000000000000000000600082015250565b6000614e92601483613d6e565b9150614e9d82614e5c565b602082019050919050565b60006020820190508181036000830152614ec181614e85565b9050919050565b7f5472616e73616374696f6e206572726f72000000000000000000000000000000600082015250565b6000614efe601183613d6e565b9150614f0982614ec8565b602082019050919050565b60006020820190508181036000830152614f2d81614ef1565b9050919050565b6000614f3f82613d2f565b9150614f4a83613d2f565b9250827fffffffffffffffffffffffffffffffffffffffffffffffffffffffffffffffff03821115614f7f57614f7e614b11565b5b828201905092915050565b600081905092915050565b6000614fa082613d63565b614faa8185614f8a565b9350614fba818560208601613d7f565b80840191505092915050565b6000614fd28284614f95565b915081905092915050565b7f4e487b7100000000000000000000000000000000000000000000000000000000600052603260045260246000fd5b7f4552433732313a20696e76616c696420746f6b656e2049440000000000000000600082015250565b6000615042601883613d6e565b915061504d8261500c565b602082019050919050565b6000602082019050818103600083015261507181615035565b9050919050565b7f4552433732313a2061646472657373207a65726f206973206e6f74206120766160008201527f6c6964206f776e65720000000000000000000000000000000000000000000000602082015250565b60006150d4602983613d6e565b91506150df82615078565b604082019050919050565b60006020820190508181036000830152615103816150c7565b9050919050565b600061511582613d2f565b91507fffffffffffffffffffffffffffffffffffffffffffffffffffffffffffffffff820361514757615146614b11565b5b600182019050919050565b7f5072696365206d757374206265206174206c6561737420312077656900000000600082015250565b6000615188601c83613d6e565b915061519382615152565b602082019050919050565b600060208201905081810360008301526151b78161517b565b9050919050565b7f6d6f6e74686c7900000000000000000000000000000000000000000000000000600082015250565b60006151f4600783614f8a565b91506151ff826151be565b600782019050919050565b6000615215826151e7565b9150819050919050565b7f636f6d706f756e64000000000000000000000000000000000000000000000000600082015250565b6000615255600883614f8a565b91506152608261521f565b600882019050919050565b600061527682615248565b9150819050919050565b7f496e76616c696420696e74657265737400000000000000000000000000000000600082015250565b60006152b6601083613d6e565b91506152c182615280565b602082019050919050565b600060208201905081810360008301526152e5816152a9565b9050919050565b6000815190506152fb81613e1e565b92915050565b60006020828403121561531757615316613c6a565b5b6000615325848285016152ec565b91505092915050565b7f4e487b7100000000000000000000000000000000000000000000000000000000600052601260045260246000fd5b600061536882613d2f565b915061537383613d2f565b9250826153835761538261532e565b5b828204905092915050565b7f4f6e6c79206f776e65722063616e206465706f73697420666f756e6473000000600082015250565b60006153c4601d83613d6e565b91506153cf8261538e565b602082019050919050565b600060208201905081810360008301526153f3816153b7565b9050919050565b60006154068285614f95565b91506154128284614f95565b91508190509392505050565b7f4f776e61626c653a206e6577206f776e657220697320746865207a65726f206160008201527f6464726573730000000000000000000000000000000000000000000000000000602082015250565b600061547a602683613d6e565b91506154858261541e565b604082019050919050565b600060208201905081810360008301526154a98161546d565b9050919050565b7f4552433732313a207472616e736665722066726f6d20696e636f72726563742060008201527f6f776e6572000000000000000000000000000000000000000000000000000000602082015250565b600061550c602583613d6e565b9150615517826154b0565b604082019050919050565b6000602082019050818103600083015261553b816154ff565b9050919050565b7f4552433732313a207472616e7366657220746f20746865207a65726f2061646460008201527f7265737300000000000000000000000000000000000000000000000000000000602082015250565b600061559e602483613d6e565b91506155a982615542565b604082019050919050565b600060208201905081810360008301526155cd81615591565b9050919050565b60006060820190506155e96000830186613ea9565b6155f66020830185613ea9565b6156036040830184613d39565b949350505050565b7f4f776e61626c653a2063616c6c6572206973206e6f7420746865206f776e6572600082015250565b6000615641602083613d6e565b915061564c8261560b565b602082019050919050565b6000602082019050818103600083015261567081615634565b9050919050565b7f45524337323155524953746f726167653a2055524920736574206f66206e6f6e60008201527f6578697374656e7420746f6b656e000000000000000000000000000000000000602082015250565b60006156d3602e83613d6e565b91506156de82615677565b604082019050919050565b60006020820190508181036000830152615702816156c6565b9050919050565b7f5072696365206d757374206265206174206c6561737420313030205553445400600082015250565b600061573f601f83613d6e565b915061574a82615709565b602082019050919050565b6000602082019050818103600083015261576e81615732565b9050919050565b600061578082613d2f565b915061578b83613d2f565b92508282101561579e5761579d614b11565b5b828203905092915050565b600060ff82169050919050565b60006157c182613d2f565b91506157cc836157a9565b92506157f97fffffffffffffffffffffffffffffffffffffffffffffffffffffffffffffffff8484614ba0565b905092915050565b7f5472616e616374696f6e206572726f7200000000000000000000000000000000600082015250565b6000615837601083613d6e565b915061584282615801565b602082019050919050565b600060208201905081810360008301526158668161582a565b9050919050565b6000819050919050565b600061589261588d6158888461586d565b614646565b613d2f565b9050919050565b6158a281615877565b82525050565b6000819050919050565b60006158cd6158c86158c3846158a8565b614646565b613d2f565b9050919050565b6158dd816158b2565b82525050565b6000610180820190506158f9600083018f613d39565b615906602083018e613d39565b615913604083018d613ea9565b615920606083018c613d39565b61592d608083018b613d39565b61593a60a083018a613d39565b61594760c0830189613d39565b81810360e08301526159598188613dc3565b9050615969610100830187615899565b615977610120830186613d39565b6159856101408301856158d4565b615993610160830184613d39565b9d9c50505050505050505050505050565b7f4552433732313a20617070726f766520746f2063616c6c657200000000000000600082015250565b60006159da601983613d6e565b91506159e5826159a4565b602082019050919050565b60006020820190508181036000830152615a09816159cd565b9050919050565b7f4552433732313a207472616e7366657220746f206e6f6e20455243373231526560008201527f63656976657220696d706c656d656e7465720000000000000000000000000000602082015250565b6000615a6c603283613d6e565b9150615a7782615a10565b604082019050919050565b60006020820190508181036000830152615a9b81615a5f565b9050919050565b600081519050919050565b600082825260208201905092915050565b6000615ac982615aa2565b615ad38185615aad565b9350615ae3818560208601613d7f565b615aec81613db2565b840191505092915050565b6000608082019050615b0c6000830187613ea9565b615b196020830186613ea9565b615b266040830185613d39565b8181036060830152615b388184615abe565b905095945050505050565b600081519050615b5281613ca0565b92915050565b600060208284031215615b6e57615b6d613c6a565b5b6000615b7c84828501615b43565b91505092915050565b7f4e487b7100000000000000000000000000000000000000000000000000000000600052603160045260246000fd5b7f4552433732313a206d696e7420746f20746865207a65726f2061646472657373600082015250565b6000615bea602083613d6e565b9150615bf582615bb4565b602082019050919050565b60006020820190508181036000830152615c1981615bdd565b9050919050565b7f4552433732313a20746f6b656e20616c7265616479206d696e74656400000000600082015250565b6000615c56601c83613d6e565b9150615c6182615c20565b602082019050919050565b60006020820190508181036000830152615c8581615c49565b905091905056fea2646970667358221220fda55b7fbd5e550999992652aeae498fd6d4774bce12f750fd3ec46c13d2544a64736f6c634300080d0033",
  "immutableReferences": {},
  "source": "// SPDX-License-Identifier: MIT\npragma solidity >=0.4.22 <0.9.0;\n\nimport \"@openzeppelin/contracts/token/ERC721/extensions/ERC721URIStorage.sol\";\nimport \"@openzeppelin/contracts/utils/Counters.sol\";\nimport \"@openzeppelin/contracts/access/Ownable.sol\";\nimport \"@openzeppelin/contracts/token/ERC20/IERC20.sol\";\nimport \"@openzeppelin/contracts/utils/math/SafeMath.sol\";\nimport \"@openzeppelin/contracts/token/ERC721/ERC721.sol\";\nimport \"@openzeppelin/contracts/token/ERC721/IERC721.sol\";\nimport \"@openzeppelin/contracts/token/ERC20/utils/SafeERC20.sol\";\n\n\ncontract SPFNft is ERC721URIStorage, Ownable {\n  uint256 constant DECIMALS = 6; // Number of decimal places\n  uint256 constant BASE = 10**DECIMALS; // Base value\n  IERC20 public usdtToken = IERC20(0x9075770435462820c6a2857863bEd7d7F4fB548e);\n\n  using SafeERC20 for IERC20;\n\n  using Counters for Counters.Counter;\n  address private contractOwner;\n\n  Counters.Counter private _listedItems;\n  Counters.Counter private _tokenIds;\n\n  // All Token Ids in array\n  uint256[] private _allNfts;\n\n  mapping(string => bool) private _usedTokenURIs;\n  mapping(uint => NFTItem) private _idToNftItem;\n\n  mapping(address => mapping(uint => uint)) private _ownedTokens;\n  mapping(uint => uint) private _idToOwnedIndex;\n\n  mapping(uint => uint) private _idToNftIndex;\n\n  enum RewardStatus {\n    redy,\n    claimed,\n    waiting\n  }\n\n  struct Reward {\n    uint date;\n    uint amount;\n    RewardStatus status;\n  }\n\n  struct NFTItem {\n    uint tokenId;\n    uint256 price;\n    address creator;\n    uint startDate;\n    uint endDate;\n    uint depositTerm;\n    uint depositInterest;\n    string interest;\n    uint rewardsClaimed;\n    uint payOff;\n    uint rewardsAvailable;\n    uint rewardProfit;\n    // Reward[] rewards;\n    bool isListed;\n  }\n\n  event NFTItemCreated (\n    uint tokenId,\n    uint price,\n    address creator,\n    uint startDate,\n    uint endDate,\n    uint depositTerm,\n    uint depositInterest,\n    string interest,\n    uint rewardsClaimed,\n    uint payOff,\n    uint rewardsAvailable,\n    uint rewardProfit\n  );\n\n  event ProfitClaimed (\n    uint profit\n  );\n\n  event Deposit(address indexed _from, uint _value);\n\n  event Withdrawal(address indexed _to, uint256 _value);\n\n  event LogRes(uint result);\n\n  uint public listingPrice = 0 ether;\n\n  constructor() ERC721(\"StagePointNft\", \"SPFNFT\") {\n    contractOwner = msg.sender;\n  }\n\n  function setListingPrice(uint newPrice) external onlyOwner {\n    require(newPrice > 0, \"Price must be at least 1 wei\");\n    listingPrice = newPrice;\n  } \n\n  function getNftItem(uint tokenId) public view returns (NFTItem memory) {\n    return _idToNftItem[tokenId];\n  }\n\n  function listedItemsCount() public view returns (uint) {\n    return _listedItems.current();\n  }\n\n  function tokenURIExists(string memory tokenURI) public view returns (bool) {\n    return _usedTokenURIs[tokenURI] == true;\n  }\n\n  function totalSupply() public view returns (uint) {\n    return _allNfts.length;\n  }\n\n  function tokenByIndex(uint index) public view returns (uint) {\n    require(index < totalSupply(), \"Index out of bounds\");\n    return _allNfts[index];\n  }\n\n  function tokenOfOwnerByIndex(address owner, uint index) public view returns (uint) {\n    require(index < ERC721.balanceOf(owner), \"Index out of bounds\");\n    return _ownedTokens[owner][index];\n  }\n\n  function getOwnedNfts() public view returns (NFTItem[] memory) {\n    uint ownedItemsCount = ERC721.balanceOf(msg.sender);\n    NFTItem[] memory items = new NFTItem[](ownedItemsCount);\n\n    for (uint i = 0; i < ownedItemsCount; i++) {\n      uint tokeId = tokenOfOwnerByIndex(msg.sender, i);\n      NFTItem storage item = _idToNftItem[tokeId];\n      items[i] = item;\n    }\n\n    return items;\n  }\n\n  function getAllNfts() public view returns (NFTItem[] memory) {\n    NFTItem[] memory items = new NFTItem[](_allNfts.length);\n\n    for (uint i = 0; i < _allNfts.length; i++) {\n      NFTItem storage item = _idToNftItem[_allNfts[i]];\n      items[i] = item;\n    }\n\n    return items;\n  }\n\n  function Time_call() public view returns (uint256){\n    return block.timestamp;\n  }\n\n\n  function burnToken(uint tokenId) public {\n    _burn(tokenId);\n  }\n\n  function transferUSDT(address from, address _to, uint256 _amount) internal returns (bool) {\n    return usdtToken.transferFrom(from, _to, _amount);\n  }\n\n  function mintToken(string memory tokenURI, uint256 price, uint startDate, uint endDate, uint depositTerm, uint depositInterest, string memory interest, uint payOff) public payable returns (uint) {\n    require(keccak256(abi.encodePacked(interest)) == keccak256(abi.encodePacked(\"monthly\")) || keccak256(abi.encodePacked(interest)) == keccak256(abi.encodePacked(\"compound\")), \"Invalid interest\");\n    // require(!tokenURIExists(tokenURI), \"Token URI already exists\");\n    // require(msg.value == listingPrice, \"Price must be qual to listing price\");\n    _tokenIds.increment();\n    _listedItems.increment();\n\n    uint newTokenId = _tokenIds.current();\n    _safeMint(msg.sender, newTokenId);\n    _setTokenURI(newTokenId, tokenURI);\n    _createNftItem(newTokenId, price, startDate, endDate, depositTerm, depositInterest, interest, payOff);\n    _usedTokenURIs[tokenURI] = true;\n\n    return newTokenId;\n  }\n\n  function approveDeposit (uint amount) public returns(bool) {\n    return usdtToken.approve(msg.sender, amount);\n  }\n\n  function _createNftItem(uint tokenId, uint256 price, uint startDate, uint endDate, uint depositTerm, uint depositInterest, string memory interest, uint payOff) private {\n    require(price > 100, \"Price must be at least 100 USDT\");\n\n    uint256 initialAmount = price;\n    uint256 annualInterestRate = (depositInterest * BASE) / 12 / 100;\n\n    uint256 returnAmount;\n\n    if (keccak256(abi.encodePacked(interest)) == keccak256(abi.encodePacked(\"monthly\"))) {\n      returnAmount = initialAmount * (1 + annualInterestRate) - initialAmount;\n    } else {\n      uint256 rate = BASE + annualInterestRate;\n      uint256 finalAmount = 1;\n      for (uint256 i = 0; i < depositTerm; i++){\n        finalAmount *= rate;\n        if (i > 1) {\n          finalAmount = finalAmount / BASE;\n        }\n      }\n      emit LogRes(finalAmount);\n      // uint256 a = SafeMath.mul(initialAmount, ((1 + annualInterestRate) ** depositTerm));\n      returnAmount = (initialAmount * finalAmount) - (initialAmount * (BASE ** 2));\n      returnAmount = returnAmount/BASE;\n      emit LogRes(returnAmount);\n      // returnAmount = (initialAmount * ((((BASE + annualInterestRate)) / BASE) ** (depositTerm * BASE)));\n      // uint b = (initialAmount * (BASE + annualInterestRate)) / BASE;\n      // emit LogRes(b);\n      // // uint p = (b ** (depositTerm * BASE)) / BASE;\n      // // emit LogRes(p);\n      // returnAmount = 0;\n    }\n\n    // require(returnAmount > 0, \"Nft creation error\");\n\n    uint decimalsPrice = price * BASE;\n    require(transferUSDT(msg.sender, address(this), decimalsPrice), \"Tranaction error\");\n\n\n    _idToNftItem[tokenId] = NFTItem(\n      tokenId,\n      price,\n      msg.sender,\n      startDate,\n      endDate,\n      depositTerm,\n      depositInterest,\n      interest,\n      0,\n      payOff,\n      1,\n      returnAmount,\n      true\n    );\n\n    emit NFTItemCreated(\n      tokenId,\n      price,\n      msg.sender,\n      startDate,\n      endDate,\n      depositTerm,\n      depositInterest,\n      interest,\n      0,\n      payOff,\n      1,\n      returnAmount / BASE\n    );\n  }\n\n  function _beforeTokenTransfer(address from, address to, uint tokenId, uint256 batchSize) internal virtual override {\n    super._beforeTokenTransfer(from, to, tokenId, batchSize);\n\n    if (from == address(0)) {\n      _addTokenToAllTokensEnumeration(tokenId);\n    } else if (from != to) {\n      _removeTokenFromOwnerEnumeration(from, tokenId);\n    }\n\n    if (to == address(0)) {\n      _removeTokenFromAllTokensEnumeration((tokenId));\n    } else if (to != from) {\n      _addTokenToOwnerEnumeration(to, tokenId);\n    }\n  }\n\n  \n  function _addTokenToAllTokensEnumeration(uint tokenId) private {\n    _idToNftIndex[tokenId] = _allNfts.length;\n    _allNfts.push(tokenId);\n  }\n\n  function _addTokenToOwnerEnumeration(address to, uint tokenId) private {\n    uint lenght = ERC721.balanceOf(to);\n    _ownedTokens[to][lenght] = tokenId;\n    _idToOwnedIndex[tokenId] = lenght;\n  }\n\n  function _removeTokenFromOwnerEnumeration(address from, uint tokenId) private {\n    uint lastTokenIndex = ERC721.balanceOf(from) - 1;\n    uint tokenIndex = _idToOwnedIndex[tokenId];\n\n    if (tokenIndex != lastTokenIndex) {\n      uint lastTokenId = _ownedTokens[from][lastTokenIndex];\n      _ownedTokens[from][tokenId] = lastTokenId;\n      _idToOwnedIndex[lastTokenId] = tokenIndex;\n    }\n\n    delete _idToOwnedIndex[tokenId];\n    delete _ownedTokens[from][lastTokenIndex];\n  }\n\n  function _removeTokenFromAllTokensEnumeration(uint tokenId) private {\n    uint lastTokenIndex = _allNfts.length - 1;\n    uint tokenIndex = _idToNftIndex[tokenId];\n    uint lastTokenId = _allNfts[lastTokenIndex];\n\n    _allNfts[tokenIndex] = lastTokenId;\n    _idToNftIndex[lastTokenId] = tokenIndex;\n\n    delete _idToNftIndex[tokenId];\n    _allNfts.pop();\n  }\n\n  function deposit(uint amount) public payable {\n    require(msg.sender == contractOwner, \"Only owner can deposit founds\");\n    uint decimalsPrice = amount * BASE;\n    transferUSDT(msg.sender, address(this), decimalsPrice);\n    emit Deposit(msg.sender, msg.value);\n  }\n\n  function withdraw(uint256 _amount) public payable {\n    require(msg.sender == contractOwner, \"Only owner can withdraw founds\");\n    uint decimalsPrice = _amount * BASE;\n    transferUSDT(address(this), msg.sender, decimalsPrice);\n    emit Withdrawal(msg.sender, msg.value);\n  }\n\n  function claim(uint tokenId) public payable {\n    NFTItem storage item = _idToNftItem[tokenId];\n    require(item.creator == msg.sender, \"You are not owner of this NFT\");\n    require(item.rewardsClaimed < item.depositTerm, \"You calimed all reward\");\n    require(item.rewardsAvailable > 0, \"No available rewards\");\n\n    require(transferUSDT(address(this), msg.sender, item.rewardProfit * item.rewardsAvailable), \"Transaction error\");\n\n    _idToNftItem[tokenId].rewardsClaimed = item.rewardsClaimed + 1;\n    _idToNftItem[tokenId].rewardsAvailable = 0;\n  }\n\n  function getUSDTBalance() public view returns (uint256) {\n    return usdtToken.balanceOf(address(this)) / BASE;\n  }\n}",
  "sourcePath": "/Users/sluzbabezopasnosti/Documents/GitHub/StagePoint/frontend/contracts/SPFNft.sol",
  "compiler": {
    "name": "solc",
    "version": "0.8.13+commit.abaa5c0e.Emscripten.clang"
  },
  "schemaVersion": "3.4.16",
  "updatedAt": "2024-06-12T09:13:31.006Z",
  "devdoc": {
    "kind": "dev",
    "methods": {
      "approve(address,uint256)": {
        "details": "See {IERC721-approve}."
      },
      "balanceOf(address)": {
        "details": "See {IERC721-balanceOf}."
      },
      "getApproved(uint256)": {
        "details": "See {IERC721-getApproved}."
      },
      "isApprovedForAll(address,address)": {
        "details": "See {IERC721-isApprovedForAll}."
      },
      "name()": {
        "details": "See {IERC721Metadata-name}."
      },
      "owner()": {
        "details": "Returns the address of the current owner."
      },
      "ownerOf(uint256)": {
        "details": "See {IERC721-ownerOf}."
      },
      "renounceOwnership()": {
        "details": "Leaves the contract without owner. It will not be possible to call `onlyOwner` functions. Can only be called by the current owner. NOTE: Renouncing ownership will leave the contract without an owner, thereby disabling any functionality that is only available to the owner."
      },
      "safeTransferFrom(address,address,uint256)": {
        "details": "See {IERC721-safeTransferFrom}."
      },
      "safeTransferFrom(address,address,uint256,bytes)": {
        "details": "See {IERC721-safeTransferFrom}."
      },
      "setApprovalForAll(address,bool)": {
        "details": "See {IERC721-setApprovalForAll}."
      },
      "supportsInterface(bytes4)": {
        "details": "See {IERC165-supportsInterface}"
      },
      "symbol()": {
        "details": "See {IERC721Metadata-symbol}."
      },
      "tokenURI(uint256)": {
        "details": "See {IERC721Metadata-tokenURI}."
      },
      "transferFrom(address,address,uint256)": {
        "details": "See {IERC721-transferFrom}."
      },
      "transferOwnership(address)": {
        "details": "Transfers ownership of the contract to a new account (`newOwner`). Can only be called by the current owner."
      }
    },
    "version": 1
  },
  "userdoc": {
    "kind": "user",
    "methods": {},
    "version": 1
  }
}