{
  "_format": "hh-sol-artifact-1",
  "contractName": "SPFNftPolygon",
  "sourceName": "contracts/SPFNftPolygon.sol",
  "abi": [
    {
      "inputs": [],
      "stateMutability": "nonpayable",
      "type": "constructor"
    },
    {
      "anonymous": false,
      "inputs": [
        {
          "indexed": true,
          "internalType": "address",
          "name": "owner",
          "type": "address"
        },
        {
          "indexed": true,
          "internalType": "address",
          "name": "approved",
          "type": "address"
        },
        {
          "indexed": true,
          "internalType": "uint256",
          "name": "tokenId",
          "type": "uint256"
        }
      ],
      "name": "Approval",
      "type": "event"
    },
    {
      "anonymous": false,
      "inputs": [
        {
          "indexed": true,
          "internalType": "address",
          "name": "owner",
          "type": "address"
        },
        {
          "indexed": true,
          "internalType": "address",
          "name": "operator",
          "type": "address"
        },
        {
          "indexed": false,
          "internalType": "bool",
          "name": "approved",
          "type": "bool"
        }
      ],
      "name": "ApprovalForAll",
      "type": "event"
    },
    {
      "anonymous": false,
      "inputs": [
        {
          "indexed": false,
          "internalType": "uint256",
          "name": "tokenId",
          "type": "uint256"
        },
        {
          "indexed": false,
          "internalType": "uint256",
          "name": "price",
          "type": "uint256"
        },
        {
          "indexed": false,
          "internalType": "address",
          "name": "creator",
          "type": "address"
        },
        {
          "indexed": false,
          "internalType": "uint256",
          "name": "startDate",
          "type": "uint256"
        },
        {
          "indexed": false,
          "internalType": "uint256",
          "name": "endDate",
          "type": "uint256"
        },
        {
          "indexed": false,
          "internalType": "uint256",
          "name": "depositTerm",
          "type": "uint256"
        },
        {
          "indexed": false,
          "internalType": "uint256",
          "name": "depositInterest",
          "type": "uint256"
        },
        {
          "indexed": false,
          "internalType": "string",
          "name": "interest",
          "type": "string"
        },
        {
          "indexed": false,
          "internalType": "uint256",
          "name": "rewardsClaimed",
          "type": "uint256"
        },
        {
          "indexed": false,
          "internalType": "uint256",
          "name": "payOff",
          "type": "uint256"
        },
        {
          "indexed": false,
          "internalType": "uint256",
          "name": "rewardsAvailable",
          "type": "uint256"
        },
        {
          "indexed": false,
          "internalType": "uint256",
          "name": "rewardProfit",
          "type": "uint256"
        }
      ],
      "name": "NFTItemCreated",
      "type": "event"
    },
    {
      "anonymous": false,
      "inputs": [
        {
          "indexed": true,
          "internalType": "address",
          "name": "previousOwner",
          "type": "address"
        },
        {
          "indexed": true,
          "internalType": "address",
          "name": "newOwner",
          "type": "address"
        }
      ],
      "name": "OwnershipTransferred",
      "type": "event"
    },
    {
      "anonymous": false,
      "inputs": [
        {
          "indexed": false,
          "internalType": "uint256",
          "name": "amount",
          "type": "uint256"
        },
        {
          "indexed": false,
          "internalType": "string",
          "name": "action",
          "type": "string"
        },
        {
          "indexed": false,
          "internalType": "uint256",
          "name": "date",
          "type": "uint256"
        },
        {
          "indexed": false,
          "internalType": "address",
          "name": "user",
          "type": "address"
        },
        {
          "indexed": false,
          "internalType": "uint256",
          "name": "tokenId",
          "type": "uint256"
        }
      ],
      "name": "Transaction",
      "type": "event"
    },
    {
      "anonymous": false,
      "inputs": [
        {
          "indexed": true,
          "internalType": "address",
          "name": "from",
          "type": "address"
        },
        {
          "indexed": true,
          "internalType": "address",
          "name": "to",
          "type": "address"
        },
        {
          "indexed": true,
          "internalType": "uint256",
          "name": "tokenId",
          "type": "uint256"
        }
      ],
      "name": "Transfer",
      "type": "event"
    },
    {
      "inputs": [],
      "name": "Time_call",
      "outputs": [
        {
          "internalType": "uint256",
          "name": "",
          "type": "uint256"
        }
      ],
      "stateMutability": "view",
      "type": "function"
    },
    {
      "inputs": [
        {
          "internalType": "address",
          "name": "to",
          "type": "address"
        },
        {
          "internalType": "uint256",
          "name": "tokenId",
          "type": "uint256"
        }
      ],
      "name": "approve",
      "outputs": [],
      "stateMutability": "nonpayable",
      "type": "function"
    },
    {
      "inputs": [
        {
          "internalType": "address",
          "name": "owner",
          "type": "address"
        }
      ],
      "name": "balanceOf",
      "outputs": [
        {
          "internalType": "uint256",
          "name": "",
          "type": "uint256"
        }
      ],
      "stateMutability": "view",
      "type": "function"
    },
    {
      "inputs": [
        {
          "internalType": "uint256",
          "name": "tokenId",
          "type": "uint256"
        }
      ],
      "name": "burnToken",
      "outputs": [],
      "stateMutability": "nonpayable",
      "type": "function"
    },
    {
      "inputs": [
        {
          "internalType": "uint256",
          "name": "tokenId",
          "type": "uint256"
        }
      ],
      "name": "claim",
      "outputs": [],
      "stateMutability": "payable",
      "type": "function"
    },
    {
      "inputs": [
        {
          "internalType": "uint256",
          "name": "amount",
          "type": "uint256"
        }
      ],
      "name": "deposit",
      "outputs": [],
      "stateMutability": "payable",
      "type": "function"
    },
    {
      "inputs": [],
      "name": "getAllNfts",
      "outputs": [
        {
          "components": [
            {
              "internalType": "uint256",
              "name": "tokenId",
              "type": "uint256"
            },
            {
              "internalType": "uint256",
              "name": "price",
              "type": "uint256"
            },
            {
              "internalType": "address",
              "name": "creator",
              "type": "address"
            },
            {
              "internalType": "uint256",
              "name": "startDate",
              "type": "uint256"
            },
            {
              "internalType": "uint256",
              "name": "endDate",
              "type": "uint256"
            },
            {
              "internalType": "uint256",
              "name": "depositTerm",
              "type": "uint256"
            },
            {
              "internalType": "uint256",
              "name": "depositInterest",
              "type": "uint256"
            },
            {
              "internalType": "string",
              "name": "interest",
              "type": "string"
            },
            {
              "internalType": "uint256",
              "name": "rewardsClaimed",
              "type": "uint256"
            },
            {
              "internalType": "uint256",
              "name": "payOff",
              "type": "uint256"
            },
            {
              "internalType": "uint256",
              "name": "rewardsAvailable",
              "type": "uint256"
            },
            {
              "internalType": "uint256",
              "name": "rewardProfit",
              "type": "uint256"
            },
            {
              "internalType": "bool",
              "name": "isListed",
              "type": "bool"
            }
          ],
          "internalType": "struct SPFNftPolygon.NFTItem[]",
          "name": "",
          "type": "tuple[]"
        }
      ],
      "stateMutability": "view",
      "type": "function"
    },
    {
      "inputs": [
        {
          "internalType": "uint256",
          "name": "tokenId",
          "type": "uint256"
        }
      ],
      "name": "getApproved",
      "outputs": [
        {
          "internalType": "address",
          "name": "",
          "type": "address"
        }
      ],
      "stateMutability": "view",
      "type": "function"
    },
    {
      "inputs": [
        {
          "internalType": "uint256",
          "name": "tokenId",
          "type": "uint256"
        }
      ],
      "name": "getNftItem",
      "outputs": [
        {
          "components": [
            {
              "internalType": "uint256",
              "name": "tokenId",
              "type": "uint256"
            },
            {
              "internalType": "uint256",
              "name": "price",
              "type": "uint256"
            },
            {
              "internalType": "address",
              "name": "creator",
              "type": "address"
            },
            {
              "internalType": "uint256",
              "name": "startDate",
              "type": "uint256"
            },
            {
              "internalType": "uint256",
              "name": "endDate",
              "type": "uint256"
            },
            {
              "internalType": "uint256",
              "name": "depositTerm",
              "type": "uint256"
            },
            {
              "internalType": "uint256",
              "name": "depositInterest",
              "type": "uint256"
            },
            {
              "internalType": "string",
              "name": "interest",
              "type": "string"
            },
            {
              "internalType": "uint256",
              "name": "rewardsClaimed",
              "type": "uint256"
            },
            {
              "internalType": "uint256",
              "name": "payOff",
              "type": "uint256"
            },
            {
              "internalType": "uint256",
              "name": "rewardsAvailable",
              "type": "uint256"
            },
            {
              "internalType": "uint256",
              "name": "rewardProfit",
              "type": "uint256"
            },
            {
              "internalType": "bool",
              "name": "isListed",
              "type": "bool"
            }
          ],
          "internalType": "struct SPFNftPolygon.NFTItem",
          "name": "",
          "type": "tuple"
        }
      ],
      "stateMutability": "view",
      "type": "function"
    },
    {
      "inputs": [],
      "name": "getOwnedNfts",
      "outputs": [
        {
          "components": [
            {
              "internalType": "uint256",
              "name": "tokenId",
              "type": "uint256"
            },
            {
              "internalType": "uint256",
              "name": "price",
              "type": "uint256"
            },
            {
              "internalType": "address",
              "name": "creator",
              "type": "address"
            },
            {
              "internalType": "uint256",
              "name": "startDate",
              "type": "uint256"
            },
            {
              "internalType": "uint256",
              "name": "endDate",
              "type": "uint256"
            },
            {
              "internalType": "uint256",
              "name": "depositTerm",
              "type": "uint256"
            },
            {
              "internalType": "uint256",
              "name": "depositInterest",
              "type": "uint256"
            },
            {
              "internalType": "string",
              "name": "interest",
              "type": "string"
            },
            {
              "internalType": "uint256",
              "name": "rewardsClaimed",
              "type": "uint256"
            },
            {
              "internalType": "uint256",
              "name": "payOff",
              "type": "uint256"
            },
            {
              "internalType": "uint256",
              "name": "rewardsAvailable",
              "type": "uint256"
            },
            {
              "internalType": "uint256",
              "name": "rewardProfit",
              "type": "uint256"
            },
            {
              "internalType": "bool",
              "name": "isListed",
              "type": "bool"
            }
          ],
          "internalType": "struct SPFNftPolygon.NFTItem[]",
          "name": "",
          "type": "tuple[]"
        }
      ],
      "stateMutability": "view",
      "type": "function"
    },
    {
      "inputs": [],
      "name": "getUSDTBalance",
      "outputs": [
        {
          "internalType": "uint256",
          "name": "",
          "type": "uint256"
        }
      ],
      "stateMutability": "view",
      "type": "function"
    },
    {
      "inputs": [
        {
          "internalType": "address",
          "name": "owner",
          "type": "address"
        },
        {
          "internalType": "address",
          "name": "operator",
          "type": "address"
        }
      ],
      "name": "isApprovedForAll",
      "outputs": [
        {
          "internalType": "bool",
          "name": "",
          "type": "bool"
        }
      ],
      "stateMutability": "view",
      "type": "function"
    },
    {
      "inputs": [],
      "name": "listedItemsCount",
      "outputs": [
        {
          "internalType": "uint256",
          "name": "",
          "type": "uint256"
        }
      ],
      "stateMutability": "view",
      "type": "function"
    },
    {
      "inputs": [],
      "name": "listingPrice",
      "outputs": [
        {
          "internalType": "uint256",
          "name": "",
          "type": "uint256"
        }
      ],
      "stateMutability": "view",
      "type": "function"
    },
    {
      "inputs": [
        {
          "internalType": "string",
          "name": "tokenURI",
          "type": "string"
        },
        {
          "internalType": "uint256",
          "name": "price",
          "type": "uint256"
        },
        {
          "internalType": "uint256",
          "name": "startDate",
          "type": "uint256"
        },
        {
          "internalType": "uint256",
          "name": "endDate",
          "type": "uint256"
        },
        {
          "internalType": "uint256",
          "name": "depositTerm",
          "type": "uint256"
        },
        {
          "internalType": "uint256",
          "name": "depositInterest",
          "type": "uint256"
        },
        {
          "internalType": "string",
          "name": "interest",
          "type": "string"
        },
        {
          "internalType": "uint256",
          "name": "payOff",
          "type": "uint256"
        }
      ],
      "name": "mintToken",
      "outputs": [
        {
          "internalType": "uint256",
          "name": "",
          "type": "uint256"
        }
      ],
      "stateMutability": "payable",
      "type": "function"
    },
    {
      "inputs": [],
      "name": "name",
      "outputs": [
        {
          "internalType": "string",
          "name": "",
          "type": "string"
        }
      ],
      "stateMutability": "view",
      "type": "function"
    },
    {
      "inputs": [],
      "name": "owner",
      "outputs": [
        {
          "internalType": "address",
          "name": "",
          "type": "address"
        }
      ],
      "stateMutability": "view",
      "type": "function"
    },
    {
      "inputs": [
        {
          "internalType": "uint256",
          "name": "tokenId",
          "type": "uint256"
        }
      ],
      "name": "ownerOf",
      "outputs": [
        {
          "internalType": "address",
          "name": "",
          "type": "address"
        }
      ],
      "stateMutability": "view",
      "type": "function"
    },
    {
      "inputs": [],
      "name": "renounceOwnership",
      "outputs": [],
      "stateMutability": "nonpayable",
      "type": "function"
    },
    {
      "inputs": [
        {
          "internalType": "address",
          "name": "from",
          "type": "address"
        },
        {
          "internalType": "address",
          "name": "to",
          "type": "address"
        },
        {
          "internalType": "uint256",
          "name": "tokenId",
          "type": "uint256"
        }
      ],
      "name": "safeTransferFrom",
      "outputs": [],
      "stateMutability": "nonpayable",
      "type": "function"
    },
    {
      "inputs": [
        {
          "internalType": "address",
          "name": "from",
          "type": "address"
        },
        {
          "internalType": "address",
          "name": "to",
          "type": "address"
        },
        {
          "internalType": "uint256",
          "name": "tokenId",
          "type": "uint256"
        },
        {
          "internalType": "bytes",
          "name": "_data",
          "type": "bytes"
        }
      ],
      "name": "safeTransferFrom",
      "outputs": [],
      "stateMutability": "nonpayable",
      "type": "function"
    },
    {
      "inputs": [
        {
          "internalType": "address",
          "name": "operator",
          "type": "address"
        },
        {
          "internalType": "bool",
          "name": "approved",
          "type": "bool"
        }
      ],
      "name": "setApprovalForAll",
      "outputs": [],
      "stateMutability": "nonpayable",
      "type": "function"
    },
    {
      "inputs": [
        {
          "internalType": "bytes4",
          "name": "interfaceId",
          "type": "bytes4"
        }
      ],
      "name": "supportsInterface",
      "outputs": [
        {
          "internalType": "bool",
          "name": "",
          "type": "bool"
        }
      ],
      "stateMutability": "view",
      "type": "function"
    },
    {
      "inputs": [],
      "name": "symbol",
      "outputs": [
        {
          "internalType": "string",
          "name": "",
          "type": "string"
        }
      ],
      "stateMutability": "view",
      "type": "function"
    },
    {
      "inputs": [
        {
          "internalType": "uint256",
          "name": "index",
          "type": "uint256"
        }
      ],
      "name": "tokenByIndex",
      "outputs": [
        {
          "internalType": "uint256",
          "name": "",
          "type": "uint256"
        }
      ],
      "stateMutability": "view",
      "type": "function"
    },
    {
      "inputs": [
        {
          "internalType": "address",
          "name": "owner",
          "type": "address"
        },
        {
          "internalType": "uint256",
          "name": "index",
          "type": "uint256"
        }
      ],
      "name": "tokenOfOwnerByIndex",
      "outputs": [
        {
          "internalType": "uint256",
          "name": "",
          "type": "uint256"
        }
      ],
      "stateMutability": "view",
      "type": "function"
    },
    {
      "inputs": [
        {
          "internalType": "uint256",
          "name": "tokenId",
          "type": "uint256"
        }
      ],
      "name": "tokenURI",
      "outputs": [
        {
          "internalType": "string",
          "name": "",
          "type": "string"
        }
      ],
      "stateMutability": "view",
      "type": "function"
    },
    {
      "inputs": [
        {
          "internalType": "string",
          "name": "tokenURI",
          "type": "string"
        }
      ],
      "name": "tokenURIExists",
      "outputs": [
        {
          "internalType": "bool",
          "name": "",
          "type": "bool"
        }
      ],
      "stateMutability": "view",
      "type": "function"
    },
    {
      "inputs": [],
      "name": "totalSupply",
      "outputs": [
        {
          "internalType": "uint256",
          "name": "",
          "type": "uint256"
        }
      ],
      "stateMutability": "view",
      "type": "function"
    },
    {
      "inputs": [
        {
          "internalType": "address",
          "name": "from",
          "type": "address"
        },
        {
          "internalType": "address",
          "name": "to",
          "type": "address"
        },
        {
          "internalType": "uint256",
          "name": "tokenId",
          "type": "uint256"
        }
      ],
      "name": "transferFrom",
      "outputs": [],
      "stateMutability": "nonpayable",
      "type": "function"
    },
    {
      "inputs": [
        {
          "internalType": "address",
          "name": "newOwner",
          "type": "address"
        }
      ],
      "name": "transferOwnership",
      "outputs": [],
      "stateMutability": "nonpayable",
      "type": "function"
    },
    {
      "inputs": [],
      "name": "usdtToken",
      "outputs": [
        {
          "internalType": "contract IERC20",
          "name": "",
          "type": "address"
        }
      ],
      "stateMutability": "view",
      "type": "function"
    },
    {
      "inputs": [
        {
          "internalType": "uint256",
          "name": "_amount",
          "type": "uint256"
        }
      ],
      "name": "withdraw",
      "outputs": [],
      "stateMutability": "payable",
      "type": "function"
    }
  ],
  "bytecode": "0x6080604052600880546001600160a01b0319167376a5a3a1ec8aa32d7fc7bd7d4cd9c779a59ef88117905560006009553480156200003c57600080fd5b506040518060400160405280600d81526020016c14dd1859d9541bda5b9d13999d609a1b8152506040518060400160405280600681526020016514d41193919560d21b8152508160009081620000939190620001d4565b506001620000a28282620001d4565b505050620000bf620000b9620000d760201b60201c565b620000db565b600a80546001600160a01b03191633179055620002a0565b3390565b600780546001600160a01b038381166001600160a01b0319831681179093556040519116919082907f8be0079c531659141344cd1fd0a4f28419497f9722a3daafe3b4186f6b6457e090600090a35050565b634e487b7160e01b600052604160045260246000fd5b600181811c908216806200015857607f821691505b6020821081036200017957634e487b7160e01b600052602260045260246000fd5b50919050565b601f821115620001cf576000816000526020600020601f850160051c81016020861015620001aa5750805b601f850160051c820191505b81811015620001cb57828155600101620001b6565b5050505b505050565b81516001600160401b03811115620001f057620001f06200012d565b620002088162000201845462000143565b846200017f565b602080601f831160018114620002405760008415620002275750858301515b600019600386901b1c1916600185901b178555620001cb565b600085815260208120601f198616915b82811015620002715788860151825594840194600190910190840162000250565b5085821015620002905787850151600019600388901b60f8161c191681555b5050505050600190811b01905550565b61363780620002b06000396000f3fe6080604052600436106101ee5760003560e01c806370cbcb431161010d578063a22cb465116100a0578063c78f19f91161006f578063c78f19f914610543578063c87b56dd14610559578063ccb4918d14610579578063e985e9c51461058e578063f2fde38b146105d757600080fd5b8063a22cb465146104d0578063a98ad46c146104f0578063b6b55f2514610510578063b88d4fde1461052357600080fd5b80638bc82885116100dc5780638bc82885146104755780638da5cb5b1461048857806395d89b41146104a65780639785fac8146104bb57600080fd5b806370cbcb4314610409578063715018a61461042b578063732e8d73146104405780637b47ec1a1461045557600080fd5b80632f745c59116101855780634f6ccce7116101545780634f6ccce71461037c5780636352211e1461039c5780636f1a0af5146103bc57806370a08231146103e957600080fd5b80632f745c5914610309578063379607f51461032957806342842e0e1461033c57806343d32ae71461035c57600080fd5b8063095ea7b3116101c1578063095ea7b31461029f57806318160ddd146102c157806323b872dd146102d65780632e1a7d4d146102f657600080fd5b806301ffc9a7146101f3578063032610301461022857806306fdde0314610245578063081812fc14610267575b600080fd5b3480156101ff57600080fd5b5061021361020e366004612c02565b6105f7565b60405190151581526020015b60405180910390f35b34801561023457600080fd5b50425b60405190815260200161021f565b34801561025157600080fd5b5061025a610649565b60405161021f9190612c6f565b34801561027357600080fd5b50610287610282366004612c82565b6106db565b6040516001600160a01b03909116815260200161021f565b3480156102ab57600080fd5b506102bf6102ba366004612cb7565b610768565b005b3480156102cd57600080fd5b50600d54610237565b3480156102e257600080fd5b506102bf6102f1366004612ce1565b61087d565b6102bf610304366004612c82565b6108ae565b34801561031557600080fd5b50610237610324366004612cb7565b6109fc565b6102bf610337366004612c82565b610a74565b34801561034857600080fd5b506102bf610357366004612ce1565b610cfd565b34801561036857600080fd5b50610213610377366004612dc9565b610d18565b34801561038857600080fd5b50610237610397366004612c82565b610d48565b3480156103a857600080fd5b506102876103b7366004612c82565b610dbc565b3480156103c857600080fd5b506103dc6103d7366004612c82565b610e33565b60405161021f9190612eb0565b3480156103f557600080fd5b50610237610404366004612ec3565b610f7b565b34801561041557600080fd5b5061041e611002565b60405161021f9190612ede565b34801561043757600080fd5b506102bf6111ef565b34801561044c57600080fd5b5061041e611255565b34801561046157600080fd5b506102bf610470366004612c82565b611463565b610237610483366004612f42565b61146f565b34801561049457600080fd5b506007546001600160a01b0316610287565b3480156104b257600080fd5b5061025a611643565b3480156104c757600080fd5b50610237611652565b3480156104dc57600080fd5b506102bf6104eb366004612fee565b6116db565b3480156104fc57600080fd5b50600854610287906001600160a01b031681565b6102bf61051e366004612c82565b6116ea565b34801561052f57600080fd5b506102bf61053e366004613025565b6117c5565b34801561054f57600080fd5b5061023760095481565b34801561056557600080fd5b5061025a610574366004612c82565b6117fd565b34801561058557600080fd5b50610237611973565b34801561059a57600080fd5b506102136105a93660046130a1565b6001600160a01b03918216600090815260056020908152604080832093909416825291909152205460ff1690565b3480156105e357600080fd5b506102bf6105f2366004612ec3565b61197e565b60006001600160e01b031982166380ac58cd60e01b148061062857506001600160e01b03198216635b5e139f60e01b145b8061064357506301ffc9a760e01b6001600160e01b03198316145b92915050565b606060008054610658906130d4565b80601f0160208091040260200160405190810160405280929190818152602001828054610684906130d4565b80156106d15780601f106106a6576101008083540402835291602001916106d1565b820191906000526020600020905b8154815290600101906020018083116106b457829003601f168201915b5050505050905090565b60006106e682611a46565b61074c5760405162461bcd60e51b815260206004820152602c60248201527f4552433732313a20617070726f76656420717565727920666f72206e6f6e657860448201526b34b9ba32b73a103a37b5b2b760a11b60648201526084015b60405180910390fd5b506000908152600460205260409020546001600160a01b031690565b600061077382610dbc565b9050806001600160a01b0316836001600160a01b0316036107e05760405162461bcd60e51b815260206004820152602160248201527f4552433732313a20617070726f76616c20746f2063757272656e74206f776e656044820152603960f91b6064820152608401610743565b336001600160a01b03821614806107fc57506107fc81336105a9565b61086e5760405162461bcd60e51b815260206004820152603860248201527f4552433732313a20617070726f76652063616c6c6572206973206e6f74206f7760448201527f6e6572206e6f7220617070726f76656420666f7220616c6c00000000000000006064820152608401610743565b6108788383611a63565b505050565b6108873382611ad1565b6108a35760405162461bcd60e51b815260040161074390613108565b610878838383611bb7565b600a546001600160a01b031633146109085760405162461bcd60e51b815260206004820152601e60248201527f4f6e6c79206f776e65722063616e20776974686472617720666f756e647300006044820152606401610743565b60006109166012600a613253565b610920908361325f565b60085460405163a9059cbb60e01b8152336004820152602481018390529192506001600160a01b03169063a9059cbb906044016020604051808303816000875af1158015610972573d6000803e3d6000fd5b505050506040513d601f19601f820116820180604052508101906109969190613276565b506040805183815260a06020820181905260119082015270436f6e747261637420776974686472617760781b60c082015242918101829052336060820152600060808201526000805160206135e28339815191529060e0015b60405180910390a1505050565b6000610a0783610f7b565b8210610a4b5760405162461bcd60e51b8152602060048201526013602482015272496e646578206f7574206f6620626f756e647360681b6044820152606401610743565b506001600160a01b03919091166000908152601060209081526040808320938352929052205490565b6000818152600f6020526040902060028101546001600160a01b03163314610ade5760405162461bcd60e51b815260206004820152601d60248201527f596f7520617265206e6f74206f776e6572206f662074686973204e46540000006044820152606401610743565b8060050154816008015410610b2e5760405162461bcd60e51b8152602060048201526016602482015275165bdd4818d85b1a5b595908185b1b081c995dd85c9960521b6044820152606401610743565b600081600a015411610b795760405162461bcd60e51b81526020600482015260146024820152734e6f20617661696c61626c65207265776172647360601b6044820152606401610743565b6000610b876012600a613253565b82600a015483600b0154610b9b919061325f565b610ba5919061325f565b60085460405163a9059cbb60e01b8152336004820152602481018390529192506001600160a01b03169063a9059cbb906044016020604051808303816000875af1158015610bf7573d6000803e3d6000fd5b505050506040513d601f19601f82011682018060405250810190610c1b9190613276565b610c5b5760405162461bcd60e51b81526020600482015260116024820152702a3930b739b0b1ba34b7b71032b93937b960791b6044820152606401610743565b6008820154610c6b906001613293565b6000848152600f602052604081206008810192909255600a9182015542906000805160206135e283398151915290610ca590601290613253565b610caf90846132bc565b6040805191825260a060208301819052600c908301526b52657761726420636c61696d60a01b60c083015281018390523360608201526080810186905260e00160405180910390a150505050565b610878838383604051806020016040528060008152506117c5565b6000600e82604051610d2a91906132d0565b9081526040519081900360200190205460ff16151560011492915050565b6000610d53600d5490565b8210610d975760405162461bcd60e51b8152602060048201526013602482015272496e646578206f7574206f6620626f756e647360681b6044820152606401610743565b600d8281548110610daa57610daa6132ec565b90600052602060002001549050919050565b6000818152600260205260408120546001600160a01b0316806106435760405162461bcd60e51b815260206004820152602960248201527f4552433732313a206f776e657220717565727920666f72206e6f6e657869737460448201526832b73a103a37b5b2b760b91b6064820152608401610743565b610e3b612b2b565b6000828152600f602090815260409182902082516101a0810184528154815260018201549281019290925260028101546001600160a01b0316928201929092526003820154606082015260048201546080820152600582015460a0820152600682015460c082015260078201805491929160e084019190610ebb906130d4565b80601f0160208091040260200160405190810160405280929190818152602001828054610ee7906130d4565b8015610f345780601f10610f0957610100808354040283529160200191610f34565b820191906000526020600020905b815481529060010190602001808311610f1757829003601f168201915b50505091835250506008820154602082015260098201546040820152600a8201546060820152600b8201546080820152600c9091015460ff16151560a09091015292915050565b60006001600160a01b038216610fe65760405162461bcd60e51b815260206004820152602a60248201527f4552433732313a2062616c616e636520717565727920666f7220746865207a65604482015269726f206164647265737360b01b6064820152608401610743565b506001600160a01b031660009081526003602052604090205490565b6060600061100f33610f7b565b905060008167ffffffffffffffff81111561102c5761102c612d1d565b60405190808252806020026020018201604052801561106557816020015b611052612b2b565b81526020019060019003908161104a5790505b50905060005b828110156111e857600061107f33836109fc565b6000818152600f602090815260409182902082516101a0810184528154815260018201549281019290925260028101546001600160a01b0316928201929092526003820154606082015260048201546080820152600582015460a0820152600682015460c082015260078201805493945091929091839160e084019190611105906130d4565b80601f0160208091040260200160405190810160405280929190818152602001828054611131906130d4565b801561117e5780601f106111535761010080835404028352916020019161117e565b820191906000526020600020905b81548152906001019060200180831161116157829003601f168201915b50505091835250506008820154602082015260098201546040820152600a8201546060820152600b8201546080820152600c9091015460ff16151560a09091015284518590859081106111d3576111d36132ec565b6020908102919091010152505060010161106b565b5092915050565b6007546001600160a01b031633146112495760405162461bcd60e51b815260206004820181905260248201527f4f776e61626c653a2063616c6c6572206973206e6f7420746865206f776e65726044820152606401610743565b6112536000611d5e565b565b600d5460609060009067ffffffffffffffff81111561127657611276612d1d565b6040519080825280602002602001820160405280156112af57816020015b61129c612b2b565b8152602001906001900390816112945790505b50905060005b600d5481101561145d576000600f6000600d84815481106112d8576112d86132ec565b90600052602060002001548152602001908152602001600020905080604051806101a001604052908160008201548152602001600182015481526020016002820160009054906101000a90046001600160a01b03166001600160a01b03166001600160a01b031681526020016003820154815260200160048201548152602001600582015481526020016006820154815260200160078201805461137b906130d4565b80601f01602080910402602001604051908101604052809291908181526020018280546113a7906130d4565b80156113f45780601f106113c9576101008083540402835291602001916113f4565b820191906000526020600020905b8154815290600101906020018083116113d757829003601f168201915b50505091835250506008820154602082015260098201546040820152600a8201546060820152600b8201546080820152600c9091015460ff16151560a0909101528351849084908110611449576114496132ec565b6020908102919091010152506001016112b5565b50919050565b61146c81611db0565b50565b604051666d6f6e74686c7960c81b602082015260009060270160405160208183030381529060405280519060200120836040516020016114af91906132d0565b60405160208183030381529060405280519060200120148061152257506040516718dbdb5c1bdd5b9960c21b6020820152602801604051602081830303815290604052805190602001208360405160200161150a91906132d0565b60405160208183030381529060405280519060200120145b6115615760405162461bcd60e51b815260206004820152601060248201526f125b9d985b1a59081a5b9d195c995cdd60821b6044820152606401610743565b61156f600c80546001019055565b61157d600b80546001019055565b6000611588600c5490565b90506115943382611df0565b61159e818b611e0a565b6115ae818a8a8a8a8a8a8a611e8e565b604080518a815260a0602082018190526007908201526611195c1bdcda5d60ca1b60c0820152428183018190523360608301526080820184905291516000805160206135e28339815191529181900360e00190a16001600e8c60405161161491906132d0565b908152604051908190036020019020805491151560ff1990921691909117905550905098975050505050505050565b606060018054610658906130d4565b60006116606012600a613253565b6008546040516370a0823160e01b81523060048201526001600160a01b03909116906370a0823190602401602060405180830381865afa1580156116a8573d6000803e3d6000fd5b505050506040513d601f19601f820116820180604052508101906116cc9190613302565b6116d691906132bc565b905090565b6116e633838361226f565b5050565b600a546001600160a01b031633146117445760405162461bcd60e51b815260206004820152601d60248201527f4f6e6c79206f776e65722063616e206465706f73697420666f756e64730000006044820152606401610743565b60006117526012600a613253565b61175c908361325f565b905061176933308361233d565b506040805183815260a0602082018190526010908201526f10dbdb9d1c9858dd0819195c1bdcda5d60821b60c082015242918101829052336060820152600060808201526000805160206135e28339815191529060e0016109ef565b6117cf3383611ad1565b6117eb5760405162461bcd60e51b815260040161074390613108565b6117f7848484846123bd565b50505050565b606061180882611a46565b61186e5760405162461bcd60e51b815260206004820152603160248201527f45524337323155524953746f726167653a2055524920717565727920666f72206044820152703737b732bc34b9ba32b73a103a37b5b2b760791b6064820152608401610743565b60008281526006602052604081208054611887906130d4565b80601f01602080910402602001604051908101604052809291908181526020018280546118b3906130d4565b80156119005780601f106118d557610100808354040283529160200191611900565b820191906000526020600020905b8154815290600101906020018083116118e357829003601f168201915b50505050509050600061191e60408051602081019091526000815290565b90508051600003611930575092915050565b81511561196257808260405160200161194a92919061331b565b60405160208183030381529060405292505050919050565b61196b846123f0565b949350505050565b60006116d6600b5490565b6007546001600160a01b031633146119d85760405162461bcd60e51b815260206004820181905260248201527f4f776e61626c653a2063616c6c6572206973206e6f7420746865206f776e65726044820152606401610743565b6001600160a01b038116611a3d5760405162461bcd60e51b815260206004820152602660248201527f4f776e61626c653a206e6577206f776e657220697320746865207a65726f206160448201526564647265737360d01b6064820152608401610743565b61146c81611d5e565b6000908152600260205260409020546001600160a01b0316151590565b600081815260046020526040902080546001600160a01b0319166001600160a01b0384169081179091558190611a9882610dbc565b6001600160a01b03167f8c5be1e5ebec7d5bd14f71427d1e84f3dd0314c0f7b2291e5b200ac8c7c3b92560405160405180910390a45050565b6000611adc82611a46565b611b3d5760405162461bcd60e51b815260206004820152602c60248201527f4552433732313a206f70657261746f7220717565727920666f72206e6f6e657860448201526b34b9ba32b73a103a37b5b2b760a11b6064820152608401610743565b6000611b4883610dbc565b9050806001600160a01b0316846001600160a01b03161480611b835750836001600160a01b0316611b78846106db565b6001600160a01b0316145b8061196b57506001600160a01b0380821660009081526005602090815260408083209388168352929052205460ff1661196b565b826001600160a01b0316611bca82610dbc565b6001600160a01b031614611c2e5760405162461bcd60e51b815260206004820152602560248201527f4552433732313a207472616e736665722066726f6d20696e636f72726563742060448201526437bbb732b960d91b6064820152608401610743565b6001600160a01b038216611c905760405162461bcd60e51b8152602060048201526024808201527f4552433732313a207472616e7366657220746f20746865207a65726f206164646044820152637265737360e01b6064820152608401610743565b611c9b8383836124c8565b611ca6600082611a63565b6001600160a01b0383166000908152600360205260408120805460019290611ccf90849061334a565b90915550506001600160a01b0382166000908152600360205260408120805460019290611cfd908490613293565b909155505060008181526002602052604080822080546001600160a01b0319166001600160a01b0386811691821790925591518493918716917fddf252ad1be2c89b69c2b068fc378daa952ba7f163c4a11628f55a4df523b3ef91a4505050565b600780546001600160a01b038381166001600160a01b0319831681179093556040519116919082907f8be0079c531659141344cd1fd0a4f28419497f9722a3daafe3b4186f6b6457e090600090a35050565b611db981612580565b60008181526006602052604090208054611dd2906130d4565b15905061146c57600081815260066020526040812061146c91612b9e565b6116e6828260405180602001604052806000815250612627565b611e1382611a46565b611e765760405162461bcd60e51b815260206004820152602e60248201527f45524337323155524953746f726167653a2055524920736574206f66206e6f6e60448201526d32bc34b9ba32b73a103a37b5b2b760911b6064820152608401610743565b600082815260066020526040902061087882826133ad565b60648711611ede5760405162461bcd60e51b815260206004820152601f60248201527f5072696365206d757374206265206174206c65617374203130302055534454006044820152606401610743565b8660006064600c611ef16012600a613253565b611efb908861325f565b611f0591906132bc565b611f0f91906132bc565b90506000604051602001611f3090666d6f6e74686c7960c81b815260070190565b6040516020818303038152906040528051906020012085604051602001611f5791906132d0565b6040516020818303038152906040528051906020012003611f995782611f7e836001613293565b611f88908561325f565b611f92919061334a565b905061204b565b600082611fa86012600a613253565b611fb29190613293565b9050600160005b89811015611ff757611fcb838361325f565b91506001811115611fef57611fe26012600a613253565b611fec90836132bc565b91505b600101611fb9565b5060026120066012600a613253565b612010919061346d565b61201a908661325f565b612024828761325f565b61202e919061334a565b925061203c6012600a613253565b61204690846132bc565b925050505b60006120596012600a613253565b612063908c61325f565b905061207033308361233d565b6120af5760405162461bcd60e51b815260206004820152601060248201526f2a3930b730b1ba34b7b71032b93937b960811b6044820152606401610743565b604051806101a001604052808d81526020018c8152602001336001600160a01b031681526020018b81526020018a815260200189815260200188815260200187815260200160008152602001868152602001600181526020016012600a6121169190613253565b61212090856132bc565b81526001602091820181905260008f8152600f83526040908190208451815592840151918301919091558201516002820180546001600160a01b0319166001600160a01b03909216919091179055606082015160038201556080820151600482015560a0820151600582015560c0820151600682015560e082015160078201906121aa90826133ad565b506101008201518160080155610120820151816009015561014082015181600a015561016082015181600b015561018082015181600c0160006101000a81548160ff0219169083151502179055509050507fb9f801d6df87c696e55bebf0423b98eb6e8b9311a9ded8e8725634dc4bd4e72e8c8c338d8d8d8d8d60008e60016012600a6122379190613253565b612241908f6132bc565b6040516122599c9b9a9998979695949392919061347c565b60405180910390a1505050505050505050505050565b816001600160a01b0316836001600160a01b0316036122d05760405162461bcd60e51b815260206004820152601960248201527f4552433732313a20617070726f766520746f2063616c6c6572000000000000006044820152606401610743565b6001600160a01b03838116600081815260056020908152604080832094871680845294825291829020805460ff191686151590811790915591519182527f17307eab39ab6107e8899845ad3d59bd9653f200f220920489ca2b5937696c31910160405180910390a3505050565b6008546040516323b872dd60e01b81526001600160a01b03858116600483015284811660248301526044820184905260009216906323b872dd906064016020604051808303816000875af1158015612399573d6000803e3d6000fd5b505050506040513d601f19601f8201168201806040525081019061196b9190613276565b6123c8848484611bb7565b6123d48484848461265a565b6117f75760405162461bcd60e51b8152600401610743906134f2565b60606123fb82611a46565b61245f5760405162461bcd60e51b815260206004820152602f60248201527f4552433732314d657461646174613a2055524920717565727920666f72206e6f60448201526e3732bc34b9ba32b73a103a37b5b2b760891b6064820152608401610743565b600061247660408051602081019091526000815290565b9050600081511161249657604051806020016040528060008152506124c1565b806124a08461275b565b6040516020016124b192919061331b565b6040516020818303038152906040525b9392505050565b6001600160a01b0383166125235761251e81600d80546000838152601260205260408120829055600182018355919091527fd7b6990105719101dabeb77144f2a3385c8033acd3af97e9423a695e81ad1eb50155565b612546565b816001600160a01b0316836001600160a01b03161461254657612546838261285c565b6001600160a01b03821661255d57610878816128f9565b826001600160a01b0316826001600160a01b0316146108785761087882826129a8565b600061258b82610dbc565b9050612599816000846124c8565b6125a4600083611a63565b6001600160a01b03811660009081526003602052604081208054600192906125cd90849061334a565b909155505060008281526002602052604080822080546001600160a01b0319169055518391906001600160a01b038416907fddf252ad1be2c89b69c2b068fc378daa952ba7f163c4a11628f55a4df523b3ef908390a45050565b61263183836129ec565b61263e600084848461265a565b6108785760405162461bcd60e51b8152600401610743906134f2565b60006001600160a01b0384163b1561275057604051630a85bd0160e11b81526001600160a01b0385169063150b7a029061269e903390899088908890600401613544565b6020604051808303816000875af19250505080156126d9575060408051601f3d908101601f191682019092526126d691810190613581565b60015b612736573d808015612707576040519150601f19603f3d011682016040523d82523d6000602084013e61270c565b606091505b50805160000361272e5760405162461bcd60e51b8152600401610743906134f2565b805181602001fd5b6001600160e01b031916630a85bd0160e11b14905061196b565b506001949350505050565b6060816000036127825750506040805180820190915260018152600360fc1b602082015290565b8160005b81156127ac57806127968161359e565b91506127a59050600a836132bc565b9150612786565b60008167ffffffffffffffff8111156127c7576127c7612d1d565b6040519080825280601f01601f1916602001820160405280156127f1576020820181803683370190505b5090505b841561196b5761280660018361334a565b9150612813600a866135b7565b61281e906030613293565b60f81b818381518110612833576128336132ec565b60200101906001600160f81b031916908160001a905350612855600a866132bc565b94506127f5565b6000600161286984610f7b565b612873919061334a565b6000838152601160205260409020549091508082146128c6576001600160a01b03841660009081526010602090815260408083208584528252808320548684528184208190558352601190915290208190555b5060009182526011602090815260408084208490556001600160a01b039094168352601081528383209183525290812055565b600d5460009061290b9060019061334a565b600083815260126020526040812054600d8054939450909284908110612933576129336132ec565b9060005260206000200154905080600d8381548110612954576129546132ec565b600091825260208083209091019290925582815260129091526040808220849055858252812055600d80548061298c5761298c6135cb565b6001900381819060005260206000200160009055905550505050565b60006129b383610f7b565b6001600160a01b039093166000908152601060209081526040808320868452825280832085905593825260119052919091209190915550565b6001600160a01b038216612a425760405162461bcd60e51b815260206004820181905260248201527f4552433732313a206d696e7420746f20746865207a65726f20616464726573736044820152606401610743565b612a4b81611a46565b15612a985760405162461bcd60e51b815260206004820152601c60248201527f4552433732313a20746f6b656e20616c7265616479206d696e746564000000006044820152606401610743565b612aa4600083836124c8565b6001600160a01b0382166000908152600360205260408120805460019290612acd908490613293565b909155505060008181526002602052604080822080546001600160a01b0319166001600160a01b03861690811790915590518392907fddf252ad1be2c89b69c2b068fc378daa952ba7f163c4a11628f55a4df523b3ef908290a45050565b604051806101a00160405280600081526020016000815260200160006001600160a01b031681526020016000815260200160008152602001600081526020016000815260200160608152602001600081526020016000815260200160008152602001600081526020016000151581525090565b508054612baa906130d4565b6000825580601f10612bba575050565b601f01602090049060005260206000209081019061146c91905b80821115612be85760008155600101612bd4565b5090565b6001600160e01b03198116811461146c57600080fd5b600060208284031215612c1457600080fd5b81356124c181612bec565b60005b83811015612c3a578181015183820152602001612c22565b50506000910152565b60008151808452612c5b816020860160208601612c1f565b601f01601f19169290920160200192915050565b6020815260006124c16020830184612c43565b600060208284031215612c9457600080fd5b5035919050565b80356001600160a01b0381168114612cb257600080fd5b919050565b60008060408385031215612cca57600080fd5b612cd383612c9b565b946020939093013593505050565b600080600060608486031215612cf657600080fd5b612cff84612c9b565b9250612d0d60208501612c9b565b9150604084013590509250925092565b634e487b7160e01b600052604160045260246000fd5b600067ffffffffffffffff80841115612d4e57612d4e612d1d565b604051601f8501601f19908116603f01168101908282118183101715612d7657612d76612d1d565b81604052809350858152868686011115612d8f57600080fd5b858560208301376000602087830101525050509392505050565b600082601f830112612dba57600080fd5b6124c183833560208501612d33565b600060208284031215612ddb57600080fd5b813567ffffffffffffffff811115612df257600080fd5b61196b84828501612da9565b60006101a082518452602083015160208501526040830151612e2b60408601826001600160a01b03169052565b50606083015160608501526080830151608085015260a083015160a085015260c083015160c085015260e08301518160e0860152612e6b82860182612c43565b61010085810151908701526101208086015190870152610140808601519087015261016080860151908701526101809485015115159490950193909352509192915050565b6020815260006124c16020830184612dfe565b600060208284031215612ed557600080fd5b6124c182612c9b565b600060208083016020845280855180835260408601915060408160051b87010192506020870160005b82811015612f3557603f19888603018452612f23858351612dfe565b94509285019290850190600101612f07565b5092979650505050505050565b600080600080600080600080610100898b031215612f5f57600080fd5b883567ffffffffffffffff80821115612f7757600080fd5b612f838c838d01612da9565b995060208b0135985060408b0135975060608b0135965060808b0135955060a08b0135945060c08b0135915080821115612fbc57600080fd5b50612fc98b828c01612da9565b92505060e089013590509295985092959890939650565b801515811461146c57600080fd5b6000806040838503121561300157600080fd5b61300a83612c9b565b9150602083013561301a81612fe0565b809150509250929050565b6000806000806080858703121561303b57600080fd5b61304485612c9b565b935061305260208601612c9b565b925060408501359150606085013567ffffffffffffffff81111561307557600080fd5b8501601f8101871361308657600080fd5b61309587823560208401612d33565b91505092959194509250565b600080604083850312156130b457600080fd5b6130bd83612c9b565b91506130cb60208401612c9b565b90509250929050565b600181811c908216806130e857607f821691505b60208210810361145d57634e487b7160e01b600052602260045260246000fd5b60208082526031908201527f4552433732313a207472616e736665722063616c6c6572206973206e6f74206f6040820152701ddb995c881b9bdc88185c1c1c9bdd9959607a1b606082015260800190565b634e487b7160e01b600052601160045260246000fd5b600181815b808511156131aa57816000190482111561319057613190613159565b8085161561319d57918102915b93841c9390800290613174565b509250929050565b6000826131c157506001610643565b816131ce57506000610643565b81600181146131e457600281146131ee5761320a565b6001915050610643565b60ff8411156131ff576131ff613159565b50506001821b610643565b5060208310610133831016604e8410600b841016171561322d575081810a610643565b613237838361316f565b806000190482111561324b5761324b613159565b029392505050565b60006124c183836131b2565b808202811582820484141761064357610643613159565b60006020828403121561328857600080fd5b81516124c181612fe0565b8082018082111561064357610643613159565b634e487b7160e01b600052601260045260246000fd5b6000826132cb576132cb6132a6565b500490565b600082516132e2818460208701612c1f565b9190910192915050565b634e487b7160e01b600052603260045260246000fd5b60006020828403121561331457600080fd5b5051919050565b6000835161332d818460208801612c1f565b835190830190613341818360208801612c1f565b01949350505050565b8181038181111561064357610643613159565b601f821115610878576000816000526020600020601f850160051c810160208610156133865750805b601f850160051c820191505b818110156133a557828155600101613392565b505050505050565b815167ffffffffffffffff8111156133c7576133c7612d1d565b6133db816133d584546130d4565b8461335d565b602080601f83116001811461341057600084156133f85750858301515b600019600386901b1c1916600185901b1785556133a5565b600085815260208120601f198616915b8281101561343f57888601518255948401946001909101908401613420565b508582101561345d5787850151600019600388901b60f8161c191681555b5050505050600190811b01905550565b60006124c160ff8416836131b2565b60006101808e83528d602084015260018060a01b038d1660408401528b60608401528a60808401528960a08401528860c08401528060e08401526134c281840189612c43565b915050856101008301528461012083015283610140830152826101608301529d9c50505050505050505050505050565b60208082526032908201527f4552433732313a207472616e7366657220746f206e6f6e20455243373231526560408201527131b2b4bb32b91034b6b83632b6b2b73a32b960711b606082015260800190565b6001600160a01b038581168252841660208201526040810183905260806060820181905260009061357790830184612c43565b9695505050505050565b60006020828403121561359357600080fd5b81516124c181612bec565b6000600182016135b0576135b0613159565b5060010190565b6000826135c6576135c66132a6565b500690565b634e487b7160e01b600052603160045260246000fdfee720d61db15941cd5b3c730f4884a87b12c154902075bc4c1f7fc929c7378a4ea264697066735822122090067dce60d06a9e117f2dff0a0a74f760627d6981f3e4f9e7e1d4bda92621ef64736f6c63430008180033",
  "linkReferences": {},
  "deployedLinkReferences": {}
}