{
  "_format": "hh-sol-artifact-1",
  "contractName": "SPFNftPolygon",
  "sourceName": "contracts/SPFNftPolygon.sol",
  "abi": [
    {
      "inputs": [],
      "stateMutability": "nonpayable",
      "type": "constructor"
    },
    {
      "anonymous": false,
      "inputs": [
        {
          "indexed": true,
          "internalType": "address",
          "name": "owner",
          "type": "address"
        },
        {
          "indexed": true,
          "internalType": "address",
          "name": "approved",
          "type": "address"
        },
        {
          "indexed": true,
          "internalType": "uint256",
          "name": "tokenId",
          "type": "uint256"
        }
      ],
      "name": "Approval",
      "type": "event"
    },
    {
      "anonymous": false,
      "inputs": [
        {
          "indexed": true,
          "internalType": "address",
          "name": "owner",
          "type": "address"
        },
        {
          "indexed": true,
          "internalType": "address",
          "name": "operator",
          "type": "address"
        },
        {
          "indexed": false,
          "internalType": "bool",
          "name": "approved",
          "type": "bool"
        }
      ],
      "name": "ApprovalForAll",
      "type": "event"
    },
    {
      "anonymous": false,
      "inputs": [
        {
          "indexed": false,
          "internalType": "uint256",
          "name": "tokenId",
          "type": "uint256"
        },
        {
          "indexed": false,
          "internalType": "uint256",
          "name": "price",
          "type": "uint256"
        },
        {
          "indexed": false,
          "internalType": "address",
          "name": "creator",
          "type": "address"
        },
        {
          "indexed": false,
          "internalType": "uint256",
          "name": "startDate",
          "type": "uint256"
        },
        {
          "indexed": false,
          "internalType": "uint256",
          "name": "endDate",
          "type": "uint256"
        },
        {
          "indexed": false,
          "internalType": "uint256",
          "name": "depositTerm",
          "type": "uint256"
        },
        {
          "indexed": false,
          "internalType": "uint256",
          "name": "depositInterest",
          "type": "uint256"
        },
        {
          "indexed": false,
          "internalType": "string",
          "name": "interest",
          "type": "string"
        },
        {
          "indexed": false,
          "internalType": "uint256",
          "name": "rewardsClaimed",
          "type": "uint256"
        },
        {
          "indexed": false,
          "internalType": "uint256",
          "name": "payOff",
          "type": "uint256"
        },
        {
          "indexed": false,
          "internalType": "uint256",
          "name": "rewardsAvailable",
          "type": "uint256"
        },
        {
          "indexed": false,
          "internalType": "uint256",
          "name": "rewardProfit",
          "type": "uint256"
        }
      ],
      "name": "NFTItemCreated",
      "type": "event"
    },
    {
      "anonymous": false,
      "inputs": [
        {
          "indexed": true,
          "internalType": "address",
          "name": "previousOwner",
          "type": "address"
        },
        {
          "indexed": true,
          "internalType": "address",
          "name": "newOwner",
          "type": "address"
        }
      ],
      "name": "OwnershipTransferred",
      "type": "event"
    },
    {
      "anonymous": false,
      "inputs": [
        {
          "indexed": false,
          "internalType": "uint256",
          "name": "amount",
          "type": "uint256"
        },
        {
          "indexed": false,
          "internalType": "string",
          "name": "action",
          "type": "string"
        },
        {
          "indexed": false,
          "internalType": "uint256",
          "name": "date",
          "type": "uint256"
        },
        {
          "indexed": false,
          "internalType": "address",
          "name": "user",
          "type": "address"
        },
        {
          "indexed": false,
          "internalType": "uint256",
          "name": "tokenId",
          "type": "uint256"
        }
      ],
      "name": "Transaction",
      "type": "event"
    },
    {
      "anonymous": false,
      "inputs": [
        {
          "indexed": true,
          "internalType": "address",
          "name": "from",
          "type": "address"
        },
        {
          "indexed": true,
          "internalType": "address",
          "name": "to",
          "type": "address"
        },
        {
          "indexed": true,
          "internalType": "uint256",
          "name": "tokenId",
          "type": "uint256"
        }
      ],
      "name": "Transfer",
      "type": "event"
    },
    {
      "inputs": [],
      "name": "Time_call",
      "outputs": [
        {
          "internalType": "uint256",
          "name": "",
          "type": "uint256"
        }
      ],
      "stateMutability": "view",
      "type": "function"
    },
    {
      "inputs": [
        {
          "internalType": "address",
          "name": "to",
          "type": "address"
        },
        {
          "internalType": "uint256",
          "name": "tokenId",
          "type": "uint256"
        }
      ],
      "name": "approve",
      "outputs": [],
      "stateMutability": "nonpayable",
      "type": "function"
    },
    {
      "inputs": [
        {
          "internalType": "address",
          "name": "owner",
          "type": "address"
        }
      ],
      "name": "balanceOf",
      "outputs": [
        {
          "internalType": "uint256",
          "name": "",
          "type": "uint256"
        }
      ],
      "stateMutability": "view",
      "type": "function"
    },
    {
      "inputs": [
        {
          "internalType": "uint256",
          "name": "tokenId",
          "type": "uint256"
        }
      ],
      "name": "burnToken",
      "outputs": [],
      "stateMutability": "nonpayable",
      "type": "function"
    },
    {
      "inputs": [
        {
          "internalType": "uint256",
          "name": "tokenId",
          "type": "uint256"
        }
      ],
      "name": "claim",
      "outputs": [],
      "stateMutability": "payable",
      "type": "function"
    },
    {
      "inputs": [
        {
          "internalType": "uint256",
          "name": "amount",
          "type": "uint256"
        }
      ],
      "name": "deposit",
      "outputs": [],
      "stateMutability": "payable",
      "type": "function"
    },
    {
      "inputs": [],
      "name": "getAllNfts",
      "outputs": [
        {
          "components": [
            {
              "internalType": "uint256",
              "name": "tokenId",
              "type": "uint256"
            },
            {
              "internalType": "uint256",
              "name": "price",
              "type": "uint256"
            },
            {
              "internalType": "address",
              "name": "creator",
              "type": "address"
            },
            {
              "internalType": "uint256",
              "name": "startDate",
              "type": "uint256"
            },
            {
              "internalType": "uint256",
              "name": "endDate",
              "type": "uint256"
            },
            {
              "internalType": "uint256",
              "name": "depositTerm",
              "type": "uint256"
            },
            {
              "internalType": "uint256",
              "name": "depositInterest",
              "type": "uint256"
            },
            {
              "internalType": "string",
              "name": "interest",
              "type": "string"
            },
            {
              "internalType": "uint256",
              "name": "rewardsClaimed",
              "type": "uint256"
            },
            {
              "internalType": "uint256",
              "name": "payOff",
              "type": "uint256"
            },
            {
              "internalType": "uint256",
              "name": "rewardsAvailable",
              "type": "uint256"
            },
            {
              "internalType": "uint256",
              "name": "rewardProfit",
              "type": "uint256"
            },
            {
              "internalType": "bool",
              "name": "isListed",
              "type": "bool"
            }
          ],
          "internalType": "struct SPFNftPolygon.NFTItem[]",
          "name": "",
          "type": "tuple[]"
        }
      ],
      "stateMutability": "view",
      "type": "function"
    },
    {
      "inputs": [
        {
          "internalType": "uint256",
          "name": "tokenId",
          "type": "uint256"
        }
      ],
      "name": "getApproved",
      "outputs": [
        {
          "internalType": "address",
          "name": "",
          "type": "address"
        }
      ],
      "stateMutability": "view",
      "type": "function"
    },
    {
      "inputs": [
        {
          "internalType": "uint256",
          "name": "tokenId",
          "type": "uint256"
        }
      ],
      "name": "getNftItem",
      "outputs": [
        {
          "components": [
            {
              "internalType": "uint256",
              "name": "tokenId",
              "type": "uint256"
            },
            {
              "internalType": "uint256",
              "name": "price",
              "type": "uint256"
            },
            {
              "internalType": "address",
              "name": "creator",
              "type": "address"
            },
            {
              "internalType": "uint256",
              "name": "startDate",
              "type": "uint256"
            },
            {
              "internalType": "uint256",
              "name": "endDate",
              "type": "uint256"
            },
            {
              "internalType": "uint256",
              "name": "depositTerm",
              "type": "uint256"
            },
            {
              "internalType": "uint256",
              "name": "depositInterest",
              "type": "uint256"
            },
            {
              "internalType": "string",
              "name": "interest",
              "type": "string"
            },
            {
              "internalType": "uint256",
              "name": "rewardsClaimed",
              "type": "uint256"
            },
            {
              "internalType": "uint256",
              "name": "payOff",
              "type": "uint256"
            },
            {
              "internalType": "uint256",
              "name": "rewardsAvailable",
              "type": "uint256"
            },
            {
              "internalType": "uint256",
              "name": "rewardProfit",
              "type": "uint256"
            },
            {
              "internalType": "bool",
              "name": "isListed",
              "type": "bool"
            }
          ],
          "internalType": "struct SPFNftPolygon.NFTItem",
          "name": "",
          "type": "tuple"
        }
      ],
      "stateMutability": "view",
      "type": "function"
    },
    {
      "inputs": [
        {
          "internalType": "uint256",
          "name": "tokenId",
          "type": "uint256"
        }
      ],
      "name": "getOwnedNft",
      "outputs": [
        {
          "components": [
            {
              "internalType": "uint256",
              "name": "tokenId",
              "type": "uint256"
            },
            {
              "internalType": "uint256",
              "name": "price",
              "type": "uint256"
            },
            {
              "internalType": "address",
              "name": "creator",
              "type": "address"
            },
            {
              "internalType": "uint256",
              "name": "startDate",
              "type": "uint256"
            },
            {
              "internalType": "uint256",
              "name": "endDate",
              "type": "uint256"
            },
            {
              "internalType": "uint256",
              "name": "depositTerm",
              "type": "uint256"
            },
            {
              "internalType": "uint256",
              "name": "depositInterest",
              "type": "uint256"
            },
            {
              "internalType": "string",
              "name": "interest",
              "type": "string"
            },
            {
              "internalType": "uint256",
              "name": "rewardsClaimed",
              "type": "uint256"
            },
            {
              "internalType": "uint256",
              "name": "payOff",
              "type": "uint256"
            },
            {
              "internalType": "uint256",
              "name": "rewardsAvailable",
              "type": "uint256"
            },
            {
              "internalType": "uint256",
              "name": "rewardProfit",
              "type": "uint256"
            },
            {
              "internalType": "bool",
              "name": "isListed",
              "type": "bool"
            }
          ],
          "internalType": "struct SPFNftPolygon.NFTItem",
          "name": "",
          "type": "tuple"
        }
      ],
      "stateMutability": "view",
      "type": "function"
    },
    {
      "inputs": [],
      "name": "getOwnedNfts",
      "outputs": [
        {
          "components": [
            {
              "internalType": "uint256",
              "name": "tokenId",
              "type": "uint256"
            },
            {
              "internalType": "uint256",
              "name": "price",
              "type": "uint256"
            },
            {
              "internalType": "address",
              "name": "creator",
              "type": "address"
            },
            {
              "internalType": "uint256",
              "name": "startDate",
              "type": "uint256"
            },
            {
              "internalType": "uint256",
              "name": "endDate",
              "type": "uint256"
            },
            {
              "internalType": "uint256",
              "name": "depositTerm",
              "type": "uint256"
            },
            {
              "internalType": "uint256",
              "name": "depositInterest",
              "type": "uint256"
            },
            {
              "internalType": "string",
              "name": "interest",
              "type": "string"
            },
            {
              "internalType": "uint256",
              "name": "rewardsClaimed",
              "type": "uint256"
            },
            {
              "internalType": "uint256",
              "name": "payOff",
              "type": "uint256"
            },
            {
              "internalType": "uint256",
              "name": "rewardsAvailable",
              "type": "uint256"
            },
            {
              "internalType": "uint256",
              "name": "rewardProfit",
              "type": "uint256"
            },
            {
              "internalType": "bool",
              "name": "isListed",
              "type": "bool"
            }
          ],
          "internalType": "struct SPFNftPolygon.NFTItem[]",
          "name": "",
          "type": "tuple[]"
        }
      ],
      "stateMutability": "view",
      "type": "function"
    },
    {
      "inputs": [],
      "name": "getUSDTBalance",
      "outputs": [
        {
          "internalType": "uint256",
          "name": "",
          "type": "uint256"
        }
      ],
      "stateMutability": "view",
      "type": "function"
    },
    {
      "inputs": [
        {
          "internalType": "address",
          "name": "owner",
          "type": "address"
        },
        {
          "internalType": "address",
          "name": "operator",
          "type": "address"
        }
      ],
      "name": "isApprovedForAll",
      "outputs": [
        {
          "internalType": "bool",
          "name": "",
          "type": "bool"
        }
      ],
      "stateMutability": "view",
      "type": "function"
    },
    {
      "inputs": [],
      "name": "listedItemsCount",
      "outputs": [
        {
          "internalType": "uint256",
          "name": "",
          "type": "uint256"
        }
      ],
      "stateMutability": "view",
      "type": "function"
    },
    {
      "inputs": [],
      "name": "listingPrice",
      "outputs": [
        {
          "internalType": "uint256",
          "name": "",
          "type": "uint256"
        }
      ],
      "stateMutability": "view",
      "type": "function"
    },
    {
      "inputs": [
        {
          "internalType": "string",
          "name": "tokenURI",
          "type": "string"
        },
        {
          "internalType": "uint256",
          "name": "price",
          "type": "uint256"
        },
        {
          "internalType": "uint256",
          "name": "startDate",
          "type": "uint256"
        },
        {
          "internalType": "uint256",
          "name": "endDate",
          "type": "uint256"
        },
        {
          "internalType": "uint256",
          "name": "depositTerm",
          "type": "uint256"
        },
        {
          "internalType": "uint256",
          "name": "depositInterest",
          "type": "uint256"
        },
        {
          "internalType": "string",
          "name": "interest",
          "type": "string"
        },
        {
          "internalType": "uint256",
          "name": "payOff",
          "type": "uint256"
        }
      ],
      "name": "mintToken",
      "outputs": [
        {
          "internalType": "uint256",
          "name": "",
          "type": "uint256"
        }
      ],
      "stateMutability": "payable",
      "type": "function"
    },
    {
      "inputs": [],
      "name": "name",
      "outputs": [
        {
          "internalType": "string",
          "name": "",
          "type": "string"
        }
      ],
      "stateMutability": "view",
      "type": "function"
    },
    {
      "inputs": [],
      "name": "owner",
      "outputs": [
        {
          "internalType": "address",
          "name": "",
          "type": "address"
        }
      ],
      "stateMutability": "view",
      "type": "function"
    },
    {
      "inputs": [
        {
          "internalType": "uint256",
          "name": "tokenId",
          "type": "uint256"
        }
      ],
      "name": "ownerOf",
      "outputs": [
        {
          "internalType": "address",
          "name": "",
          "type": "address"
        }
      ],
      "stateMutability": "view",
      "type": "function"
    },
    {
      "inputs": [],
      "name": "renounceOwnership",
      "outputs": [],
      "stateMutability": "nonpayable",
      "type": "function"
    },
    {
      "inputs": [
        {
          "internalType": "address",
          "name": "from",
          "type": "address"
        },
        {
          "internalType": "address",
          "name": "to",
          "type": "address"
        },
        {
          "internalType": "uint256",
          "name": "tokenId",
          "type": "uint256"
        }
      ],
      "name": "safeTransferFrom",
      "outputs": [],
      "stateMutability": "nonpayable",
      "type": "function"
    },
    {
      "inputs": [
        {
          "internalType": "address",
          "name": "from",
          "type": "address"
        },
        {
          "internalType": "address",
          "name": "to",
          "type": "address"
        },
        {
          "internalType": "uint256",
          "name": "tokenId",
          "type": "uint256"
        },
        {
          "internalType": "bytes",
          "name": "_data",
          "type": "bytes"
        }
      ],
      "name": "safeTransferFrom",
      "outputs": [],
      "stateMutability": "nonpayable",
      "type": "function"
    },
    {
      "inputs": [
        {
          "internalType": "address",
          "name": "operator",
          "type": "address"
        },
        {
          "internalType": "bool",
          "name": "approved",
          "type": "bool"
        }
      ],
      "name": "setApprovalForAll",
      "outputs": [],
      "stateMutability": "nonpayable",
      "type": "function"
    },
    {
      "inputs": [
        {
          "internalType": "bytes4",
          "name": "interfaceId",
          "type": "bytes4"
        }
      ],
      "name": "supportsInterface",
      "outputs": [
        {
          "internalType": "bool",
          "name": "",
          "type": "bool"
        }
      ],
      "stateMutability": "view",
      "type": "function"
    },
    {
      "inputs": [],
      "name": "symbol",
      "outputs": [
        {
          "internalType": "string",
          "name": "",
          "type": "string"
        }
      ],
      "stateMutability": "view",
      "type": "function"
    },
    {
      "inputs": [
        {
          "internalType": "uint256",
          "name": "index",
          "type": "uint256"
        }
      ],
      "name": "tokenByIndex",
      "outputs": [
        {
          "internalType": "uint256",
          "name": "",
          "type": "uint256"
        }
      ],
      "stateMutability": "view",
      "type": "function"
    },
    {
      "inputs": [
        {
          "internalType": "address",
          "name": "owner",
          "type": "address"
        },
        {
          "internalType": "uint256",
          "name": "index",
          "type": "uint256"
        }
      ],
      "name": "tokenOfOwnerByIndex",
      "outputs": [
        {
          "internalType": "uint256",
          "name": "",
          "type": "uint256"
        }
      ],
      "stateMutability": "view",
      "type": "function"
    },
    {
      "inputs": [
        {
          "internalType": "uint256",
          "name": "tokenId",
          "type": "uint256"
        }
      ],
      "name": "tokenURI",
      "outputs": [
        {
          "internalType": "string",
          "name": "",
          "type": "string"
        }
      ],
      "stateMutability": "view",
      "type": "function"
    },
    {
      "inputs": [
        {
          "internalType": "string",
          "name": "tokenURI",
          "type": "string"
        }
      ],
      "name": "tokenURIExists",
      "outputs": [
        {
          "internalType": "bool",
          "name": "",
          "type": "bool"
        }
      ],
      "stateMutability": "view",
      "type": "function"
    },
    {
      "inputs": [],
      "name": "totalSupply",
      "outputs": [
        {
          "internalType": "uint256",
          "name": "",
          "type": "uint256"
        }
      ],
      "stateMutability": "view",
      "type": "function"
    },
    {
      "inputs": [
        {
          "internalType": "address",
          "name": "from",
          "type": "address"
        },
        {
          "internalType": "address",
          "name": "to",
          "type": "address"
        },
        {
          "internalType": "uint256",
          "name": "tokenId",
          "type": "uint256"
        }
      ],
      "name": "transferFrom",
      "outputs": [],
      "stateMutability": "nonpayable",
      "type": "function"
    },
    {
      "inputs": [
        {
          "internalType": "address",
          "name": "newOwner",
          "type": "address"
        }
      ],
      "name": "transferOwnership",
      "outputs": [],
      "stateMutability": "nonpayable",
      "type": "function"
    },
    {
      "inputs": [],
      "name": "usdtToken",
      "outputs": [
        {
          "internalType": "contract IERC20",
          "name": "",
          "type": "address"
        }
      ],
      "stateMutability": "view",
      "type": "function"
    },
    {
      "inputs": [
        {
          "internalType": "uint256",
          "name": "_amount",
          "type": "uint256"
        }
      ],
      "name": "withdraw",
      "outputs": [],
      "stateMutability": "payable",
      "type": "function"
    }
  ],
  "bytecode": "0x6080604052600880546001600160a01b0319167376a5a3a1ec8aa32d7fc7bd7d4cd9c779a59ef88117905560006009553480156200003c57600080fd5b506040518060400160405280600d81526020016c14dd1859d9541bda5b9d13999d609a1b8152506040518060400160405280600681526020016514d41193919560d21b8152508160009081620000939190620001d4565b506001620000a28282620001d4565b505050620000bf620000b9620000d760201b60201c565b620000db565b600a80546001600160a01b03191633179055620002a0565b3390565b600780546001600160a01b038381166001600160a01b0319831681179093556040519116919082907f8be0079c531659141344cd1fd0a4f28419497f9722a3daafe3b4186f6b6457e090600090a35050565b634e487b7160e01b600052604160045260246000fd5b600181811c908216806200015857607f821691505b6020821081036200017957634e487b7160e01b600052602260045260246000fd5b50919050565b601f821115620001cf576000816000526020600020601f850160051c81016020861015620001aa5750805b601f850160051c820191505b81811015620001cb57828155600101620001b6565b5050505b505050565b81516001600160401b03811115620001f057620001f06200012d565b620002088162000201845462000143565b846200017f565b602080601f831160018114620002405760008415620002275750858301515b600019600386901b1c1916600185901b178555620001cb565b600085815260208120601f198616915b82811015620002715788860151825594840194600190910190840162000250565b5085821015620002905787850151600019600388901b60f8161c191681555b5050505050600190811b01905550565b61358e80620002b06000396000f3fe6080604052600436106101f95760003560e01c8063715018a61161010d578063a22cb465116100a0578063c78f19f91161006f578063c78f19f91461054e578063c87b56dd14610564578063ccb4918d14610584578063e985e9c514610599578063f2fde38b146105e257600080fd5b8063a22cb465146104db578063a98ad46c146104fb578063b6b55f251461051b578063b88d4fde1461052e57600080fd5b80638da5cb5b116100dc5780638da5cb5b146104935780639233ba63146103c757806395d89b41146104b15780639785fac8146104c657600080fd5b8063715018a614610436578063732e8d731461044b5780637b47ec1a146104605780638bc828851461048057600080fd5b80632f745c59116101905780634f6ccce71161015f5780634f6ccce7146103875780636352211e146103a75780636f1a0af5146103c757806370a08231146103f457806370cbcb431461041457600080fd5b80632f745c5914610314578063379607f51461033457806342842e0e1461034757806343d32ae71461036757600080fd5b8063095ea7b3116101cc578063095ea7b3146102aa57806318160ddd146102cc57806323b872dd146102e15780632e1a7d4d1461030157600080fd5b806301ffc9a7146101fe578063032610301461023357806306fdde0314610250578063081812fc14610272575b600080fd5b34801561020a57600080fd5b5061021e610219366004612b59565b610602565b60405190151581526020015b60405180910390f35b34801561023f57600080fd5b50425b60405190815260200161022a565b34801561025c57600080fd5b50610265610654565b60405161022a9190612bc6565b34801561027e57600080fd5b5061029261028d366004612bd9565b6106e6565b6040516001600160a01b03909116815260200161022a565b3480156102b657600080fd5b506102ca6102c5366004612c0e565b610773565b005b3480156102d857600080fd5b50600d54610242565b3480156102ed57600080fd5b506102ca6102fc366004612c38565b610888565b6102ca61030f366004612bd9565b6108b9565b34801561032057600080fd5b5061024261032f366004612c0e565b6109ad565b6102ca610342366004612bd9565b610a25565b34801561035357600080fd5b506102ca610362366004612c38565b610cae565b34801561037357600080fd5b5061021e610382366004612d20565b610cc9565b34801561039357600080fd5b506102426103a2366004612bd9565b610cf9565b3480156103b357600080fd5b506102926103c2366004612bd9565b610d6d565b3480156103d357600080fd5b506103e76103e2366004612bd9565b610de4565b60405161022a9190612e07565b34801561040057600080fd5b5061024261040f366004612e1a565b610f2c565b34801561042057600080fd5b50610429610fb3565b60405161022a9190612e35565b34801561044257600080fd5b506102ca6111a0565b34801561045757600080fd5b50610429611206565b34801561046c57600080fd5b506102ca61047b366004612bd9565b611414565b61024261048e366004612e99565b611420565b34801561049f57600080fd5b506007546001600160a01b0316610292565b3480156104bd57600080fd5b506102656115f4565b3480156104d257600080fd5b50610242611603565b3480156104e757600080fd5b506102ca6104f6366004612f45565b61168c565b34801561050757600080fd5b50600854610292906001600160a01b031681565b6102ca610529366004612bd9565b61169b565b34801561053a57600080fd5b506102ca610549366004612f7c565b61171c565b34801561055a57600080fd5b5061024260095481565b34801561057057600080fd5b5061026561057f366004612bd9565b611754565b34801561059057600080fd5b506102426118ca565b3480156105a557600080fd5b5061021e6105b4366004612ff8565b6001600160a01b03918216600090815260056020908152604080832093909416825291909152205460ff1690565b3480156105ee57600080fd5b506102ca6105fd366004612e1a565b6118d5565b60006001600160e01b031982166380ac58cd60e01b148061063357506001600160e01b03198216635b5e139f60e01b145b8061064e57506301ffc9a760e01b6001600160e01b03198316145b92915050565b6060600080546106639061302b565b80601f016020809104026020016040519081016040528092919081815260200182805461068f9061302b565b80156106dc5780601f106106b1576101008083540402835291602001916106dc565b820191906000526020600020905b8154815290600101906020018083116106bf57829003601f168201915b5050505050905090565b60006106f18261199d565b6107575760405162461bcd60e51b815260206004820152602c60248201527f4552433732313a20617070726f76656420717565727920666f72206e6f6e657860448201526b34b9ba32b73a103a37b5b2b760a11b60648201526084015b60405180910390fd5b506000908152600460205260409020546001600160a01b031690565b600061077e82610d6d565b9050806001600160a01b0316836001600160a01b0316036107eb5760405162461bcd60e51b815260206004820152602160248201527f4552433732313a20617070726f76616c20746f2063757272656e74206f776e656044820152603960f91b606482015260840161074e565b336001600160a01b0382161480610807575061080781336105b4565b6108795760405162461bcd60e51b815260206004820152603860248201527f4552433732313a20617070726f76652063616c6c6572206973206e6f74206f7760448201527f6e6572206e6f7220617070726f76656420666f7220616c6c0000000000000000606482015260840161074e565b61088383836119ba565b505050565b6108923382611a28565b6108ae5760405162461bcd60e51b815260040161074e9061305f565b610883838383611b0e565b60006108c76012600a6131aa565b6108d190836131b6565b60085460405163a9059cbb60e01b8152336004820152602481018390529192506001600160a01b03169063a9059cbb906044016020604051808303816000875af1158015610923573d6000803e3d6000fd5b505050506040513d601f19601f8201168201806040525081019061094791906131cd565b506040805183815260a06020820181905260119082015270436f6e747261637420776974686472617760781b60c082015242918101829052336060820152600060808201526000805160206135398339815191529060e0015b60405180910390a1505050565b60006109b883610f2c565b82106109fc5760405162461bcd60e51b8152602060048201526013602482015272496e646578206f7574206f6620626f756e647360681b604482015260640161074e565b506001600160a01b03919091166000908152601060209081526040808320938352929052205490565b6000818152600f6020526040902060028101546001600160a01b03163314610a8f5760405162461bcd60e51b815260206004820152601d60248201527f596f7520617265206e6f74206f776e6572206f662074686973204e4654000000604482015260640161074e565b8060050154816008015410610adf5760405162461bcd60e51b8152602060048201526016602482015275165bdd4818d85b1a5b595908185b1b081c995dd85c9960521b604482015260640161074e565b600081600a015411610b2a5760405162461bcd60e51b81526020600482015260146024820152734e6f20617661696c61626c65207265776172647360601b604482015260640161074e565b6000610b386012600a6131aa565b82600a015483600b0154610b4c91906131b6565b610b5691906131b6565b60085460405163a9059cbb60e01b8152336004820152602481018390529192506001600160a01b03169063a9059cbb906044016020604051808303816000875af1158015610ba8573d6000803e3d6000fd5b505050506040513d601f19601f82011682018060405250810190610bcc91906131cd565b610c0c5760405162461bcd60e51b81526020600482015260116024820152702a3930b739b0b1ba34b7b71032b93937b960791b604482015260640161074e565b6008820154610c1c9060016131ea565b6000848152600f602052604081206008810192909255600a91820155429060008051602061353983398151915290610c56906012906131aa565b610c609084613213565b6040805191825260a060208301819052600c908301526b52657761726420636c61696d60a01b60c083015281018390523360608201526080810186905260e00160405180910390a150505050565b6108838383836040518060200160405280600081525061171c565b6000600e82604051610cdb9190613227565b9081526040519081900360200190205460ff16151560011492915050565b6000610d04600d5490565b8210610d485760405162461bcd60e51b8152602060048201526013602482015272496e646578206f7574206f6620626f756e647360681b604482015260640161074e565b600d8281548110610d5b57610d5b613243565b90600052602060002001549050919050565b6000818152600260205260408120546001600160a01b03168061064e5760405162461bcd60e51b815260206004820152602960248201527f4552433732313a206f776e657220717565727920666f72206e6f6e657869737460448201526832b73a103a37b5b2b760b91b606482015260840161074e565b610dec612a82565b6000828152600f602090815260409182902082516101a0810184528154815260018201549281019290925260028101546001600160a01b0316928201929092526003820154606082015260048201546080820152600582015460a0820152600682015460c082015260078201805491929160e084019190610e6c9061302b565b80601f0160208091040260200160405190810160405280929190818152602001828054610e989061302b565b8015610ee55780601f10610eba57610100808354040283529160200191610ee5565b820191906000526020600020905b815481529060010190602001808311610ec857829003601f168201915b50505091835250506008820154602082015260098201546040820152600a8201546060820152600b8201546080820152600c9091015460ff16151560a09091015292915050565b60006001600160a01b038216610f975760405162461bcd60e51b815260206004820152602a60248201527f4552433732313a2062616c616e636520717565727920666f7220746865207a65604482015269726f206164647265737360b01b606482015260840161074e565b506001600160a01b031660009081526003602052604090205490565b60606000610fc033610f2c565b905060008167ffffffffffffffff811115610fdd57610fdd612c74565b60405190808252806020026020018201604052801561101657816020015b611003612a82565b815260200190600190039081610ffb5790505b50905060005b8281101561119957600061103033836109ad565b6000818152600f602090815260409182902082516101a0810184528154815260018201549281019290925260028101546001600160a01b0316928201929092526003820154606082015260048201546080820152600582015460a0820152600682015460c082015260078201805493945091929091839160e0840191906110b69061302b565b80601f01602080910402602001604051908101604052809291908181526020018280546110e29061302b565b801561112f5780601f106111045761010080835404028352916020019161112f565b820191906000526020600020905b81548152906001019060200180831161111257829003601f168201915b50505091835250506008820154602082015260098201546040820152600a8201546060820152600b8201546080820152600c9091015460ff16151560a090910152845185908590811061118457611184613243565b6020908102919091010152505060010161101c565b5092915050565b6007546001600160a01b031633146111fa5760405162461bcd60e51b815260206004820181905260248201527f4f776e61626c653a2063616c6c6572206973206e6f7420746865206f776e6572604482015260640161074e565b6112046000611cb5565b565b600d5460609060009067ffffffffffffffff81111561122757611227612c74565b60405190808252806020026020018201604052801561126057816020015b61124d612a82565b8152602001906001900390816112455790505b50905060005b600d5481101561140e576000600f6000600d848154811061128957611289613243565b90600052602060002001548152602001908152602001600020905080604051806101a001604052908160008201548152602001600182015481526020016002820160009054906101000a90046001600160a01b03166001600160a01b03166001600160a01b031681526020016003820154815260200160048201548152602001600582015481526020016006820154815260200160078201805461132c9061302b565b80601f01602080910402602001604051908101604052809291908181526020018280546113589061302b565b80156113a55780601f1061137a576101008083540402835291602001916113a5565b820191906000526020600020905b81548152906001019060200180831161138857829003601f168201915b50505091835250506008820154602082015260098201546040820152600a8201546060820152600b8201546080820152600c9091015460ff16151560a09091015283518490849081106113fa576113fa613243565b602090810291909101015250600101611266565b50919050565b61141d81611d07565b50565b604051666d6f6e74686c7960c81b602082015260009060270160405160208183030381529060405280519060200120836040516020016114609190613227565b6040516020818303038152906040528051906020012014806114d357506040516718dbdb5c1bdd5b9960c21b602082015260280160405160208183030381529060405280519060200120836040516020016114bb9190613227565b60405160208183030381529060405280519060200120145b6115125760405162461bcd60e51b815260206004820152601060248201526f125b9d985b1a59081a5b9d195c995cdd60821b604482015260640161074e565b611520600c80546001019055565b61152e600b80546001019055565b6000611539600c5490565b90506115453382611d47565b61154f818b611d61565b61155f818a8a8a8a8a8a8a611de5565b604080518a815260a0602082018190526007908201526611195c1bdcda5d60ca1b60c0820152428183018190523360608301526080820184905291516000805160206135398339815191529181900360e00190a16001600e8c6040516115c59190613227565b908152604051908190036020019020805491151560ff1990921691909117905550905098975050505050505050565b6060600180546106639061302b565b60006116116012600a6131aa565b6008546040516370a0823160e01b81523060048201526001600160a01b03909116906370a0823190602401602060405180830381865afa158015611659573d6000803e3d6000fd5b505050506040513d601f19601f8201168201806040525081019061167d9190613259565b6116879190613213565b905090565b6116973383836121c6565b5050565b60006116a96012600a6131aa565b6116b390836131b6565b90506116c0333083612294565b506040805183815260a0602082018190526010908201526f10dbdb9d1c9858dd0819195c1bdcda5d60821b60c082015242918101829052336060820152600060808201526000805160206135398339815191529060e0016109a0565b6117263383611a28565b6117425760405162461bcd60e51b815260040161074e9061305f565b61174e84848484612314565b50505050565b606061175f8261199d565b6117c55760405162461bcd60e51b815260206004820152603160248201527f45524337323155524953746f726167653a2055524920717565727920666f72206044820152703737b732bc34b9ba32b73a103a37b5b2b760791b606482015260840161074e565b600082815260066020526040812080546117de9061302b565b80601f016020809104026020016040519081016040528092919081815260200182805461180a9061302b565b80156118575780601f1061182c57610100808354040283529160200191611857565b820191906000526020600020905b81548152906001019060200180831161183a57829003601f168201915b50505050509050600061187560408051602081019091526000815290565b90508051600003611887575092915050565b8151156118b95780826040516020016118a1929190613272565b60405160208183030381529060405292505050919050565b6118c284612347565b949350505050565b6000611687600b5490565b6007546001600160a01b0316331461192f5760405162461bcd60e51b815260206004820181905260248201527f4f776e61626c653a2063616c6c6572206973206e6f7420746865206f776e6572604482015260640161074e565b6001600160a01b0381166119945760405162461bcd60e51b815260206004820152602660248201527f4f776e61626c653a206e6577206f776e657220697320746865207a65726f206160448201526564647265737360d01b606482015260840161074e565b61141d81611cb5565b6000908152600260205260409020546001600160a01b0316151590565b600081815260046020526040902080546001600160a01b0319166001600160a01b03841690811790915581906119ef82610d6d565b6001600160a01b03167f8c5be1e5ebec7d5bd14f71427d1e84f3dd0314c0f7b2291e5b200ac8c7c3b92560405160405180910390a45050565b6000611a338261199d565b611a945760405162461bcd60e51b815260206004820152602c60248201527f4552433732313a206f70657261746f7220717565727920666f72206e6f6e657860448201526b34b9ba32b73a103a37b5b2b760a11b606482015260840161074e565b6000611a9f83610d6d565b9050806001600160a01b0316846001600160a01b03161480611ada5750836001600160a01b0316611acf846106e6565b6001600160a01b0316145b806118c257506001600160a01b0380821660009081526005602090815260408083209388168352929052205460ff166118c2565b826001600160a01b0316611b2182610d6d565b6001600160a01b031614611b855760405162461bcd60e51b815260206004820152602560248201527f4552433732313a207472616e736665722066726f6d20696e636f72726563742060448201526437bbb732b960d91b606482015260840161074e565b6001600160a01b038216611be75760405162461bcd60e51b8152602060048201526024808201527f4552433732313a207472616e7366657220746f20746865207a65726f206164646044820152637265737360e01b606482015260840161074e565b611bf283838361241f565b611bfd6000826119ba565b6001600160a01b0383166000908152600360205260408120805460019290611c269084906132a1565b90915550506001600160a01b0382166000908152600360205260408120805460019290611c549084906131ea565b909155505060008181526002602052604080822080546001600160a01b0319166001600160a01b0386811691821790925591518493918716917fddf252ad1be2c89b69c2b068fc378daa952ba7f163c4a11628f55a4df523b3ef91a4505050565b600780546001600160a01b038381166001600160a01b0319831681179093556040519116919082907f8be0079c531659141344cd1fd0a4f28419497f9722a3daafe3b4186f6b6457e090600090a35050565b611d10816124d7565b60008181526006602052604090208054611d299061302b565b15905061141d57600081815260066020526040812061141d91612af5565b61169782826040518060200160405280600081525061257e565b611d6a8261199d565b611dcd5760405162461bcd60e51b815260206004820152602e60248201527f45524337323155524953746f726167653a2055524920736574206f66206e6f6e60448201526d32bc34b9ba32b73a103a37b5b2b760911b606482015260840161074e565b60008281526006602052604090206108838282613304565b60648711611e355760405162461bcd60e51b815260206004820152601f60248201527f5072696365206d757374206265206174206c6561737420313030205553445400604482015260640161074e565b8660006064600c611e486012600a6131aa565b611e5290886131b6565b611e5c9190613213565b611e669190613213565b90506000604051602001611e8790666d6f6e74686c7960c81b815260070190565b6040516020818303038152906040528051906020012085604051602001611eae9190613227565b6040516020818303038152906040528051906020012003611ef05782611ed58360016131ea565b611edf90856131b6565b611ee991906132a1565b9050611fa2565b600082611eff6012600a6131aa565b611f0991906131ea565b9050600160005b89811015611f4e57611f2283836131b6565b91506001811115611f4657611f396012600a6131aa565b611f439083613213565b91505b600101611f10565b506002611f5d6012600a6131aa565b611f6791906133c4565b611f7190866131b6565b611f7b82876131b6565b611f8591906132a1565b9250611f936012600a6131aa565b611f9d9084613213565b925050505b6000611fb06012600a6131aa565b611fba908c6131b6565b9050611fc7333083612294565b6120065760405162461bcd60e51b815260206004820152601060248201526f2a3930b730b1ba34b7b71032b93937b960811b604482015260640161074e565b604051806101a001604052808d81526020018c8152602001336001600160a01b031681526020018b81526020018a815260200189815260200188815260200187815260200160008152602001868152602001600181526020016012600a61206d91906131aa565b6120779085613213565b81526001602091820181905260008f8152600f83526040908190208451815592840151918301919091558201516002820180546001600160a01b0319166001600160a01b03909216919091179055606082015160038201556080820151600482015560a0820151600582015560c0820151600682015560e082015160078201906121019082613304565b506101008201518160080155610120820151816009015561014082015181600a015561016082015181600b015561018082015181600c0160006101000a81548160ff0219169083151502179055509050507fb9f801d6df87c696e55bebf0423b98eb6e8b9311a9ded8e8725634dc4bd4e72e8c8c338d8d8d8d8d60008e60016012600a61218e91906131aa565b612198908f613213565b6040516121b09c9b9a999897969594939291906133d3565b60405180910390a1505050505050505050505050565b816001600160a01b0316836001600160a01b0316036122275760405162461bcd60e51b815260206004820152601960248201527f4552433732313a20617070726f766520746f2063616c6c657200000000000000604482015260640161074e565b6001600160a01b03838116600081815260056020908152604080832094871680845294825291829020805460ff191686151590811790915591519182527f17307eab39ab6107e8899845ad3d59bd9653f200f220920489ca2b5937696c31910160405180910390a3505050565b6008546040516323b872dd60e01b81526001600160a01b03858116600483015284811660248301526044820184905260009216906323b872dd906064016020604051808303816000875af11580156122f0573d6000803e3d6000fd5b505050506040513d601f19601f820116820180604052508101906118c291906131cd565b61231f848484611b0e565b61232b848484846125b1565b61174e5760405162461bcd60e51b815260040161074e90613449565b60606123528261199d565b6123b65760405162461bcd60e51b815260206004820152602f60248201527f4552433732314d657461646174613a2055524920717565727920666f72206e6f60448201526e3732bc34b9ba32b73a103a37b5b2b760891b606482015260840161074e565b60006123cd60408051602081019091526000815290565b905060008151116123ed5760405180602001604052806000815250612418565b806123f7846126b2565b604051602001612408929190613272565b6040516020818303038152906040525b9392505050565b6001600160a01b03831661247a5761247581600d80546000838152601260205260408120829055600182018355919091527fd7b6990105719101dabeb77144f2a3385c8033acd3af97e9423a695e81ad1eb50155565b61249d565b816001600160a01b0316836001600160a01b03161461249d5761249d83826127b3565b6001600160a01b0382166124b45761088381612850565b826001600160a01b0316826001600160a01b0316146108835761088382826128ff565b60006124e282610d6d565b90506124f08160008461241f565b6124fb6000836119ba565b6001600160a01b03811660009081526003602052604081208054600192906125249084906132a1565b909155505060008281526002602052604080822080546001600160a01b0319169055518391906001600160a01b038416907fddf252ad1be2c89b69c2b068fc378daa952ba7f163c4a11628f55a4df523b3ef908390a45050565b6125888383612943565b61259560008484846125b1565b6108835760405162461bcd60e51b815260040161074e90613449565b60006001600160a01b0384163b156126a757604051630a85bd0160e11b81526001600160a01b0385169063150b7a02906125f590339089908890889060040161349b565b6020604051808303816000875af1925050508015612630575060408051601f3d908101601f1916820190925261262d918101906134d8565b60015b61268d573d80801561265e576040519150601f19603f3d011682016040523d82523d6000602084013e612663565b606091505b5080516000036126855760405162461bcd60e51b815260040161074e90613449565b805181602001fd5b6001600160e01b031916630a85bd0160e11b1490506118c2565b506001949350505050565b6060816000036126d95750506040805180820190915260018152600360fc1b602082015290565b8160005b811561270357806126ed816134f5565b91506126fc9050600a83613213565b91506126dd565b60008167ffffffffffffffff81111561271e5761271e612c74565b6040519080825280601f01601f191660200182016040528015612748576020820181803683370190505b5090505b84156118c25761275d6001836132a1565b915061276a600a8661350e565b6127759060306131ea565b60f81b81838151811061278a5761278a613243565b60200101906001600160f81b031916908160001a9053506127ac600a86613213565b945061274c565b600060016127c084610f2c565b6127ca91906132a1565b60008381526011602052604090205490915080821461281d576001600160a01b03841660009081526010602090815260408083208584528252808320548684528184208190558352601190915290208190555b5060009182526011602090815260408084208490556001600160a01b039094168352601081528383209183525290812055565b600d54600090612862906001906132a1565b600083815260126020526040812054600d805493945090928490811061288a5761288a613243565b9060005260206000200154905080600d83815481106128ab576128ab613243565b600091825260208083209091019290925582815260129091526040808220849055858252812055600d8054806128e3576128e3613522565b6001900381819060005260206000200160009055905550505050565b600061290a83610f2c565b6001600160a01b039093166000908152601060209081526040808320868452825280832085905593825260119052919091209190915550565b6001600160a01b0382166129995760405162461bcd60e51b815260206004820181905260248201527f4552433732313a206d696e7420746f20746865207a65726f2061646472657373604482015260640161074e565b6129a28161199d565b156129ef5760405162461bcd60e51b815260206004820152601c60248201527f4552433732313a20746f6b656e20616c7265616479206d696e74656400000000604482015260640161074e565b6129fb6000838361241f565b6001600160a01b0382166000908152600360205260408120805460019290612a249084906131ea565b909155505060008181526002602052604080822080546001600160a01b0319166001600160a01b03861690811790915590518392907fddf252ad1be2c89b69c2b068fc378daa952ba7f163c4a11628f55a4df523b3ef908290a45050565b604051806101a00160405280600081526020016000815260200160006001600160a01b031681526020016000815260200160008152602001600081526020016000815260200160608152602001600081526020016000815260200160008152602001600081526020016000151581525090565b508054612b019061302b565b6000825580601f10612b11575050565b601f01602090049060005260206000209081019061141d91905b80821115612b3f5760008155600101612b2b565b5090565b6001600160e01b03198116811461141d57600080fd5b600060208284031215612b6b57600080fd5b813561241881612b43565b60005b83811015612b91578181015183820152602001612b79565b50506000910152565b60008151808452612bb2816020860160208601612b76565b601f01601f19169290920160200192915050565b6020815260006124186020830184612b9a565b600060208284031215612beb57600080fd5b5035919050565b80356001600160a01b0381168114612c0957600080fd5b919050565b60008060408385031215612c2157600080fd5b612c2a83612bf2565b946020939093013593505050565b600080600060608486031215612c4d57600080fd5b612c5684612bf2565b9250612c6460208501612bf2565b9150604084013590509250925092565b634e487b7160e01b600052604160045260246000fd5b600067ffffffffffffffff80841115612ca557612ca5612c74565b604051601f8501601f19908116603f01168101908282118183101715612ccd57612ccd612c74565b81604052809350858152868686011115612ce657600080fd5b858560208301376000602087830101525050509392505050565b600082601f830112612d1157600080fd5b61241883833560208501612c8a565b600060208284031215612d3257600080fd5b813567ffffffffffffffff811115612d4957600080fd5b6118c284828501612d00565b60006101a082518452602083015160208501526040830151612d8260408601826001600160a01b03169052565b50606083015160608501526080830151608085015260a083015160a085015260c083015160c085015260e08301518160e0860152612dc282860182612b9a565b61010085810151908701526101208086015190870152610140808601519087015261016080860151908701526101809485015115159490950193909352509192915050565b6020815260006124186020830184612d55565b600060208284031215612e2c57600080fd5b61241882612bf2565b600060208083016020845280855180835260408601915060408160051b87010192506020870160005b82811015612e8c57603f19888603018452612e7a858351612d55565b94509285019290850190600101612e5e565b5092979650505050505050565b600080600080600080600080610100898b031215612eb657600080fd5b883567ffffffffffffffff80821115612ece57600080fd5b612eda8c838d01612d00565b995060208b0135985060408b0135975060608b0135965060808b0135955060a08b0135945060c08b0135915080821115612f1357600080fd5b50612f208b828c01612d00565b92505060e089013590509295985092959890939650565b801515811461141d57600080fd5b60008060408385031215612f5857600080fd5b612f6183612bf2565b91506020830135612f7181612f37565b809150509250929050565b60008060008060808587031215612f9257600080fd5b612f9b85612bf2565b9350612fa960208601612bf2565b925060408501359150606085013567ffffffffffffffff811115612fcc57600080fd5b8501601f81018713612fdd57600080fd5b612fec87823560208401612c8a565b91505092959194509250565b6000806040838503121561300b57600080fd5b61301483612bf2565b915061302260208401612bf2565b90509250929050565b600181811c9082168061303f57607f821691505b60208210810361140e57634e487b7160e01b600052602260045260246000fd5b60208082526031908201527f4552433732313a207472616e736665722063616c6c6572206973206e6f74206f6040820152701ddb995c881b9bdc88185c1c1c9bdd9959607a1b606082015260800190565b634e487b7160e01b600052601160045260246000fd5b600181815b808511156131015781600019048211156130e7576130e76130b0565b808516156130f457918102915b93841c93908002906130cb565b509250929050565b6000826131185750600161064e565b816131255750600061064e565b816001811461313b576002811461314557613161565b600191505061064e565b60ff841115613156576131566130b0565b50506001821b61064e565b5060208310610133831016604e8410600b8410161715613184575081810a61064e565b61318e83836130c6565b80600019048211156131a2576131a26130b0565b029392505050565b60006124188383613109565b808202811582820484141761064e5761064e6130b0565b6000602082840312156131df57600080fd5b815161241881612f37565b8082018082111561064e5761064e6130b0565b634e487b7160e01b600052601260045260246000fd5b600082613222576132226131fd565b500490565b60008251613239818460208701612b76565b9190910192915050565b634e487b7160e01b600052603260045260246000fd5b60006020828403121561326b57600080fd5b5051919050565b60008351613284818460208801612b76565b835190830190613298818360208801612b76565b01949350505050565b8181038181111561064e5761064e6130b0565b601f821115610883576000816000526020600020601f850160051c810160208610156132dd5750805b601f850160051c820191505b818110156132fc578281556001016132e9565b505050505050565b815167ffffffffffffffff81111561331e5761331e612c74565b6133328161332c845461302b565b846132b4565b602080601f831160018114613367576000841561334f5750858301515b600019600386901b1c1916600185901b1785556132fc565b600085815260208120601f198616915b8281101561339657888601518255948401946001909101908401613377565b50858210156133b45787850151600019600388901b60f8161c191681555b5050505050600190811b01905550565b600061241860ff841683613109565b60006101808e83528d602084015260018060a01b038d1660408401528b60608401528a60808401528960a08401528860c08401528060e084015261341981840189612b9a565b915050856101008301528461012083015283610140830152826101608301529d9c50505050505050505050505050565b60208082526032908201527f4552433732313a207472616e7366657220746f206e6f6e20455243373231526560408201527131b2b4bb32b91034b6b83632b6b2b73a32b960711b606082015260800190565b6001600160a01b03858116825284166020820152604081018390526080606082018190526000906134ce90830184612b9a565b9695505050505050565b6000602082840312156134ea57600080fd5b815161241881612b43565b600060018201613507576135076130b0565b5060010190565b60008261351d5761351d6131fd565b500690565b634e487b7160e01b600052603160045260246000fdfee720d61db15941cd5b3c730f4884a87b12c154902075bc4c1f7fc929c7378a4ea2646970667358221220f871d8ec9ad15c07ee7890234b156a407d3e5cce978de7d4647d5d579c6ae7ba64736f6c63430008180033",
  "linkReferences": {},
  "deployedLinkReferences": {}
}