{
  "_format": "hh-sol-artifact-1",
  "contractName": "SPFNftPolygon",
  "sourceName": "contracts/SPFNftPolygon.sol",
  "abi": [
    {
      "inputs": [],
      "stateMutability": "nonpayable",
      "type": "constructor"
    },
    {
      "anonymous": false,
      "inputs": [
        {
          "indexed": true,
          "internalType": "address",
          "name": "owner",
          "type": "address"
        },
        {
          "indexed": true,
          "internalType": "address",
          "name": "approved",
          "type": "address"
        },
        {
          "indexed": true,
          "internalType": "uint256",
          "name": "tokenId",
          "type": "uint256"
        }
      ],
      "name": "Approval",
      "type": "event"
    },
    {
      "anonymous": false,
      "inputs": [
        {
          "indexed": true,
          "internalType": "address",
          "name": "owner",
          "type": "address"
        },
        {
          "indexed": true,
          "internalType": "address",
          "name": "operator",
          "type": "address"
        },
        {
          "indexed": false,
          "internalType": "bool",
          "name": "approved",
          "type": "bool"
        }
      ],
      "name": "ApprovalForAll",
      "type": "event"
    },
    {
      "anonymous": false,
      "inputs": [
        {
          "indexed": false,
          "internalType": "uint256",
          "name": "tokenId",
          "type": "uint256"
        },
        {
          "indexed": false,
          "internalType": "uint256",
          "name": "price",
          "type": "uint256"
        },
        {
          "indexed": false,
          "internalType": "address",
          "name": "creator",
          "type": "address"
        },
        {
          "indexed": false,
          "internalType": "uint256",
          "name": "startDate",
          "type": "uint256"
        },
        {
          "indexed": false,
          "internalType": "uint256",
          "name": "endDate",
          "type": "uint256"
        },
        {
          "indexed": false,
          "internalType": "uint256",
          "name": "depositTerm",
          "type": "uint256"
        },
        {
          "indexed": false,
          "internalType": "uint256",
          "name": "depositInterest",
          "type": "uint256"
        },
        {
          "indexed": false,
          "internalType": "string",
          "name": "interest",
          "type": "string"
        },
        {
          "indexed": false,
          "internalType": "uint256",
          "name": "rewardsClaimed",
          "type": "uint256"
        },
        {
          "indexed": false,
          "internalType": "uint256",
          "name": "payOff",
          "type": "uint256"
        },
        {
          "indexed": false,
          "internalType": "uint256",
          "name": "rewardsAvailable",
          "type": "uint256"
        },
        {
          "indexed": false,
          "internalType": "uint256",
          "name": "rewardProfit",
          "type": "uint256"
        }
      ],
      "name": "NFTItemCreated",
      "type": "event"
    },
    {
      "anonymous": false,
      "inputs": [
        {
          "indexed": true,
          "internalType": "address",
          "name": "previousOwner",
          "type": "address"
        },
        {
          "indexed": true,
          "internalType": "address",
          "name": "newOwner",
          "type": "address"
        }
      ],
      "name": "OwnershipTransferred",
      "type": "event"
    },
    {
      "anonymous": false,
      "inputs": [
        {
          "indexed": false,
          "internalType": "uint256",
          "name": "amount",
          "type": "uint256"
        },
        {
          "indexed": false,
          "internalType": "string",
          "name": "action",
          "type": "string"
        },
        {
          "indexed": false,
          "internalType": "uint256",
          "name": "date",
          "type": "uint256"
        },
        {
          "indexed": false,
          "internalType": "address",
          "name": "user",
          "type": "address"
        },
        {
          "indexed": false,
          "internalType": "uint256",
          "name": "tokenId",
          "type": "uint256"
        }
      ],
      "name": "Transaction",
      "type": "event"
    },
    {
      "anonymous": false,
      "inputs": [
        {
          "indexed": true,
          "internalType": "address",
          "name": "from",
          "type": "address"
        },
        {
          "indexed": true,
          "internalType": "address",
          "name": "to",
          "type": "address"
        },
        {
          "indexed": true,
          "internalType": "uint256",
          "name": "tokenId",
          "type": "uint256"
        }
      ],
      "name": "Transfer",
      "type": "event"
    },
    {
      "inputs": [],
      "name": "Time_call",
      "outputs": [
        {
          "internalType": "uint256",
          "name": "",
          "type": "uint256"
        }
      ],
      "stateMutability": "view",
      "type": "function"
    },
    {
      "inputs": [
        {
          "internalType": "address",
          "name": "to",
          "type": "address"
        },
        {
          "internalType": "uint256",
          "name": "tokenId",
          "type": "uint256"
        }
      ],
      "name": "approve",
      "outputs": [],
      "stateMutability": "nonpayable",
      "type": "function"
    },
    {
      "inputs": [
        {
          "internalType": "address",
          "name": "owner",
          "type": "address"
        }
      ],
      "name": "balanceOf",
      "outputs": [
        {
          "internalType": "uint256",
          "name": "",
          "type": "uint256"
        }
      ],
      "stateMutability": "view",
      "type": "function"
    },
    {
      "inputs": [
        {
          "internalType": "uint256",
          "name": "tokenId",
          "type": "uint256"
        }
      ],
      "name": "burnToken",
      "outputs": [],
      "stateMutability": "nonpayable",
      "type": "function"
    },
    {
      "inputs": [
        {
          "internalType": "uint256",
          "name": "tokenId",
          "type": "uint256"
        }
      ],
      "name": "claim",
      "outputs": [],
      "stateMutability": "payable",
      "type": "function"
    },
    {
      "inputs": [
        {
          "internalType": "uint256",
          "name": "amount",
          "type": "uint256"
        }
      ],
      "name": "deposit",
      "outputs": [],
      "stateMutability": "payable",
      "type": "function"
    },
    {
      "inputs": [],
      "name": "getAllNfts",
      "outputs": [
        {
          "components": [
            {
              "internalType": "uint256",
              "name": "tokenId",
              "type": "uint256"
            },
            {
              "internalType": "uint256",
              "name": "price",
              "type": "uint256"
            },
            {
              "internalType": "address",
              "name": "creator",
              "type": "address"
            },
            {
              "internalType": "uint256",
              "name": "startDate",
              "type": "uint256"
            },
            {
              "internalType": "uint256",
              "name": "endDate",
              "type": "uint256"
            },
            {
              "internalType": "uint256",
              "name": "depositTerm",
              "type": "uint256"
            },
            {
              "internalType": "uint256",
              "name": "depositInterest",
              "type": "uint256"
            },
            {
              "internalType": "string",
              "name": "interest",
              "type": "string"
            },
            {
              "internalType": "uint256",
              "name": "rewardsClaimed",
              "type": "uint256"
            },
            {
              "internalType": "uint256",
              "name": "payOff",
              "type": "uint256"
            },
            {
              "internalType": "uint256",
              "name": "rewardsAvailable",
              "type": "uint256"
            },
            {
              "internalType": "uint256",
              "name": "rewardProfit",
              "type": "uint256"
            },
            {
              "internalType": "bool",
              "name": "isListed",
              "type": "bool"
            }
          ],
          "internalType": "struct SPFNftPolygon.NFTItem[]",
          "name": "",
          "type": "tuple[]"
        }
      ],
      "stateMutability": "view",
      "type": "function"
    },
    {
      "inputs": [
        {
          "internalType": "uint256",
          "name": "tokenId",
          "type": "uint256"
        }
      ],
      "name": "getApproved",
      "outputs": [
        {
          "internalType": "address",
          "name": "",
          "type": "address"
        }
      ],
      "stateMutability": "view",
      "type": "function"
    },
    {
      "inputs": [
        {
          "internalType": "uint256",
          "name": "tokenId",
          "type": "uint256"
        }
      ],
      "name": "getNftItem",
      "outputs": [
        {
          "components": [
            {
              "internalType": "uint256",
              "name": "tokenId",
              "type": "uint256"
            },
            {
              "internalType": "uint256",
              "name": "price",
              "type": "uint256"
            },
            {
              "internalType": "address",
              "name": "creator",
              "type": "address"
            },
            {
              "internalType": "uint256",
              "name": "startDate",
              "type": "uint256"
            },
            {
              "internalType": "uint256",
              "name": "endDate",
              "type": "uint256"
            },
            {
              "internalType": "uint256",
              "name": "depositTerm",
              "type": "uint256"
            },
            {
              "internalType": "uint256",
              "name": "depositInterest",
              "type": "uint256"
            },
            {
              "internalType": "string",
              "name": "interest",
              "type": "string"
            },
            {
              "internalType": "uint256",
              "name": "rewardsClaimed",
              "type": "uint256"
            },
            {
              "internalType": "uint256",
              "name": "payOff",
              "type": "uint256"
            },
            {
              "internalType": "uint256",
              "name": "rewardsAvailable",
              "type": "uint256"
            },
            {
              "internalType": "uint256",
              "name": "rewardProfit",
              "type": "uint256"
            },
            {
              "internalType": "bool",
              "name": "isListed",
              "type": "bool"
            }
          ],
          "internalType": "struct SPFNftPolygon.NFTItem",
          "name": "",
          "type": "tuple"
        }
      ],
      "stateMutability": "view",
      "type": "function"
    },
    {
      "inputs": [
        {
          "internalType": "uint256",
          "name": "tokenId",
          "type": "uint256"
        }
      ],
      "name": "getOwnedNft",
      "outputs": [
        {
          "components": [
            {
              "internalType": "uint256",
              "name": "tokenId",
              "type": "uint256"
            },
            {
              "internalType": "uint256",
              "name": "price",
              "type": "uint256"
            },
            {
              "internalType": "address",
              "name": "creator",
              "type": "address"
            },
            {
              "internalType": "uint256",
              "name": "startDate",
              "type": "uint256"
            },
            {
              "internalType": "uint256",
              "name": "endDate",
              "type": "uint256"
            },
            {
              "internalType": "uint256",
              "name": "depositTerm",
              "type": "uint256"
            },
            {
              "internalType": "uint256",
              "name": "depositInterest",
              "type": "uint256"
            },
            {
              "internalType": "string",
              "name": "interest",
              "type": "string"
            },
            {
              "internalType": "uint256",
              "name": "rewardsClaimed",
              "type": "uint256"
            },
            {
              "internalType": "uint256",
              "name": "payOff",
              "type": "uint256"
            },
            {
              "internalType": "uint256",
              "name": "rewardsAvailable",
              "type": "uint256"
            },
            {
              "internalType": "uint256",
              "name": "rewardProfit",
              "type": "uint256"
            },
            {
              "internalType": "bool",
              "name": "isListed",
              "type": "bool"
            }
          ],
          "internalType": "struct SPFNftPolygon.NFTItem",
          "name": "",
          "type": "tuple"
        }
      ],
      "stateMutability": "view",
      "type": "function"
    },
    {
      "inputs": [],
      "name": "getOwnedNfts",
      "outputs": [
        {
          "components": [
            {
              "internalType": "uint256",
              "name": "tokenId",
              "type": "uint256"
            },
            {
              "internalType": "uint256",
              "name": "price",
              "type": "uint256"
            },
            {
              "internalType": "address",
              "name": "creator",
              "type": "address"
            },
            {
              "internalType": "uint256",
              "name": "startDate",
              "type": "uint256"
            },
            {
              "internalType": "uint256",
              "name": "endDate",
              "type": "uint256"
            },
            {
              "internalType": "uint256",
              "name": "depositTerm",
              "type": "uint256"
            },
            {
              "internalType": "uint256",
              "name": "depositInterest",
              "type": "uint256"
            },
            {
              "internalType": "string",
              "name": "interest",
              "type": "string"
            },
            {
              "internalType": "uint256",
              "name": "rewardsClaimed",
              "type": "uint256"
            },
            {
              "internalType": "uint256",
              "name": "payOff",
              "type": "uint256"
            },
            {
              "internalType": "uint256",
              "name": "rewardsAvailable",
              "type": "uint256"
            },
            {
              "internalType": "uint256",
              "name": "rewardProfit",
              "type": "uint256"
            },
            {
              "internalType": "bool",
              "name": "isListed",
              "type": "bool"
            }
          ],
          "internalType": "struct SPFNftPolygon.NFTItem[]",
          "name": "",
          "type": "tuple[]"
        }
      ],
      "stateMutability": "view",
      "type": "function"
    },
    {
      "inputs": [],
      "name": "getUSDTBalance",
      "outputs": [
        {
          "internalType": "uint256",
          "name": "",
          "type": "uint256"
        }
      ],
      "stateMutability": "view",
      "type": "function"
    },
    {
      "inputs": [
        {
          "internalType": "address",
          "name": "owner",
          "type": "address"
        },
        {
          "internalType": "address",
          "name": "operator",
          "type": "address"
        }
      ],
      "name": "isApprovedForAll",
      "outputs": [
        {
          "internalType": "bool",
          "name": "",
          "type": "bool"
        }
      ],
      "stateMutability": "view",
      "type": "function"
    },
    {
      "inputs": [],
      "name": "listedItemsCount",
      "outputs": [
        {
          "internalType": "uint256",
          "name": "",
          "type": "uint256"
        }
      ],
      "stateMutability": "view",
      "type": "function"
    },
    {
      "inputs": [],
      "name": "listingPrice",
      "outputs": [
        {
          "internalType": "uint256",
          "name": "",
          "type": "uint256"
        }
      ],
      "stateMutability": "view",
      "type": "function"
    },
    {
      "inputs": [
        {
          "internalType": "string",
          "name": "tokenURI",
          "type": "string"
        },
        {
          "internalType": "uint256",
          "name": "price",
          "type": "uint256"
        },
        {
          "internalType": "uint256",
          "name": "startDate",
          "type": "uint256"
        },
        {
          "internalType": "uint256",
          "name": "endDate",
          "type": "uint256"
        },
        {
          "internalType": "uint256",
          "name": "depositTerm",
          "type": "uint256"
        },
        {
          "internalType": "uint256",
          "name": "depositInterest",
          "type": "uint256"
        },
        {
          "internalType": "string",
          "name": "interest",
          "type": "string"
        },
        {
          "internalType": "uint256",
          "name": "payOff",
          "type": "uint256"
        }
      ],
      "name": "mintToken",
      "outputs": [
        {
          "internalType": "uint256",
          "name": "",
          "type": "uint256"
        }
      ],
      "stateMutability": "payable",
      "type": "function"
    },
    {
      "inputs": [],
      "name": "name",
      "outputs": [
        {
          "internalType": "string",
          "name": "",
          "type": "string"
        }
      ],
      "stateMutability": "view",
      "type": "function"
    },
    {
      "inputs": [],
      "name": "owner",
      "outputs": [
        {
          "internalType": "address",
          "name": "",
          "type": "address"
        }
      ],
      "stateMutability": "view",
      "type": "function"
    },
    {
      "inputs": [
        {
          "internalType": "uint256",
          "name": "tokenId",
          "type": "uint256"
        }
      ],
      "name": "ownerOf",
      "outputs": [
        {
          "internalType": "address",
          "name": "",
          "type": "address"
        }
      ],
      "stateMutability": "view",
      "type": "function"
    },
    {
      "inputs": [],
      "name": "renounceOwnership",
      "outputs": [],
      "stateMutability": "nonpayable",
      "type": "function"
    },
    {
      "inputs": [
        {
          "internalType": "address",
          "name": "from",
          "type": "address"
        },
        {
          "internalType": "address",
          "name": "to",
          "type": "address"
        },
        {
          "internalType": "uint256",
          "name": "tokenId",
          "type": "uint256"
        }
      ],
      "name": "safeTransferFrom",
      "outputs": [],
      "stateMutability": "nonpayable",
      "type": "function"
    },
    {
      "inputs": [
        {
          "internalType": "address",
          "name": "from",
          "type": "address"
        },
        {
          "internalType": "address",
          "name": "to",
          "type": "address"
        },
        {
          "internalType": "uint256",
          "name": "tokenId",
          "type": "uint256"
        },
        {
          "internalType": "bytes",
          "name": "_data",
          "type": "bytes"
        }
      ],
      "name": "safeTransferFrom",
      "outputs": [],
      "stateMutability": "nonpayable",
      "type": "function"
    },
    {
      "inputs": [
        {
          "internalType": "address",
          "name": "operator",
          "type": "address"
        },
        {
          "internalType": "bool",
          "name": "approved",
          "type": "bool"
        }
      ],
      "name": "setApprovalForAll",
      "outputs": [],
      "stateMutability": "nonpayable",
      "type": "function"
    },
    {
      "inputs": [
        {
          "internalType": "bytes4",
          "name": "interfaceId",
          "type": "bytes4"
        }
      ],
      "name": "supportsInterface",
      "outputs": [
        {
          "internalType": "bool",
          "name": "",
          "type": "bool"
        }
      ],
      "stateMutability": "view",
      "type": "function"
    },
    {
      "inputs": [],
      "name": "symbol",
      "outputs": [
        {
          "internalType": "string",
          "name": "",
          "type": "string"
        }
      ],
      "stateMutability": "view",
      "type": "function"
    },
    {
      "inputs": [
        {
          "internalType": "uint256",
          "name": "index",
          "type": "uint256"
        }
      ],
      "name": "tokenByIndex",
      "outputs": [
        {
          "internalType": "uint256",
          "name": "",
          "type": "uint256"
        }
      ],
      "stateMutability": "view",
      "type": "function"
    },
    {
      "inputs": [
        {
          "internalType": "address",
          "name": "owner",
          "type": "address"
        },
        {
          "internalType": "uint256",
          "name": "index",
          "type": "uint256"
        }
      ],
      "name": "tokenOfOwnerByIndex",
      "outputs": [
        {
          "internalType": "uint256",
          "name": "",
          "type": "uint256"
        }
      ],
      "stateMutability": "view",
      "type": "function"
    },
    {
      "inputs": [
        {
          "internalType": "uint256",
          "name": "tokenId",
          "type": "uint256"
        }
      ],
      "name": "tokenURI",
      "outputs": [
        {
          "internalType": "string",
          "name": "",
          "type": "string"
        }
      ],
      "stateMutability": "view",
      "type": "function"
    },
    {
      "inputs": [
        {
          "internalType": "string",
          "name": "tokenURI",
          "type": "string"
        }
      ],
      "name": "tokenURIExists",
      "outputs": [
        {
          "internalType": "bool",
          "name": "",
          "type": "bool"
        }
      ],
      "stateMutability": "view",
      "type": "function"
    },
    {
      "inputs": [],
      "name": "totalSupply",
      "outputs": [
        {
          "internalType": "uint256",
          "name": "",
          "type": "uint256"
        }
      ],
      "stateMutability": "view",
      "type": "function"
    },
    {
      "inputs": [
        {
          "internalType": "address",
          "name": "from",
          "type": "address"
        },
        {
          "internalType": "address",
          "name": "to",
          "type": "address"
        },
        {
          "internalType": "uint256",
          "name": "tokenId",
          "type": "uint256"
        }
      ],
      "name": "transferFrom",
      "outputs": [],
      "stateMutability": "nonpayable",
      "type": "function"
    },
    {
      "inputs": [
        {
          "internalType": "address",
          "name": "newOwner",
          "type": "address"
        }
      ],
      "name": "transferOwnership",
      "outputs": [],
      "stateMutability": "nonpayable",
      "type": "function"
    },
    {
      "inputs": [],
      "name": "usdtToken",
      "outputs": [
        {
          "internalType": "contract IERC20",
          "name": "",
          "type": "address"
        }
      ],
      "stateMutability": "view",
      "type": "function"
    },
    {
      "inputs": [
        {
          "internalType": "uint256",
          "name": "_amount",
          "type": "uint256"
        }
      ],
      "name": "withdraw",
      "outputs": [],
      "stateMutability": "payable",
      "type": "function"
    }
  ],
  "bytecode": "0x6080604052600880546001600160a01b0319167376a5a3a1ec8aa32d7fc7bd7d4cd9c779a59ef88117905560006009553480156200003c57600080fd5b506040518060400160405280600d81526020016c14dd1859d9541bda5b9d13999d609a1b8152506040518060400160405280600681526020016514d41193919560d21b8152508160009081620000939190620001d4565b506001620000a28282620001d4565b505050620000bf620000b9620000d760201b60201c565b620000db565b600a80546001600160a01b03191633179055620002a0565b3390565b600780546001600160a01b038381166001600160a01b0319831681179093556040519116919082907f8be0079c531659141344cd1fd0a4f28419497f9722a3daafe3b4186f6b6457e090600090a35050565b634e487b7160e01b600052604160045260246000fd5b600181811c908216806200015857607f821691505b6020821081036200017957634e487b7160e01b600052602260045260246000fd5b50919050565b601f821115620001cf576000816000526020600020601f850160051c81016020861015620001aa5750805b601f850160051c820191505b81811015620001cb57828155600101620001b6565b5050505b505050565b81516001600160401b03811115620001f057620001f06200012d565b620002088162000201845462000143565b846200017f565b602080601f831160018114620002405760008415620002275750858301515b600019600386901b1c1916600185901b178555620001cb565b600085815260208120601f198616915b82811015620002715788860151825594840194600190910190840162000250565b5085821015620002905787850151600019600388901b60f8161c191681555b5050505050600190811b01905550565b61364280620002b06000396000f3fe6080604052600436106101f95760003560e01c8063715018a61161010d578063a22cb465116100a0578063c78f19f91161006f578063c78f19f91461054e578063c87b56dd14610564578063ccb4918d14610584578063e985e9c514610599578063f2fde38b146105e257600080fd5b8063a22cb465146104db578063a98ad46c146104fb578063b6b55f251461051b578063b88d4fde1461052e57600080fd5b80638da5cb5b116100dc5780638da5cb5b146104935780639233ba63146103c757806395d89b41146104b15780639785fac8146104c657600080fd5b8063715018a614610436578063732e8d731461044b5780637b47ec1a146104605780638bc828851461048057600080fd5b80632f745c59116101905780634f6ccce71161015f5780634f6ccce7146103875780636352211e146103a75780636f1a0af5146103c757806370a08231146103f457806370cbcb431461041457600080fd5b80632f745c5914610314578063379607f51461033457806342842e0e1461034757806343d32ae71461036757600080fd5b8063095ea7b3116101cc578063095ea7b3146102aa57806318160ddd146102cc57806323b872dd146102e15780632e1a7d4d1461030157600080fd5b806301ffc9a7146101fe578063032610301461023357806306fdde0314610250578063081812fc14610272575b600080fd5b34801561020a57600080fd5b5061021e610219366004612c0d565b610602565b60405190151581526020015b60405180910390f35b34801561023f57600080fd5b50425b60405190815260200161022a565b34801561025c57600080fd5b50610265610654565b60405161022a9190612c7a565b34801561027e57600080fd5b5061029261028d366004612c8d565b6106e6565b6040516001600160a01b03909116815260200161022a565b3480156102b657600080fd5b506102ca6102c5366004612cc2565b610773565b005b3480156102d857600080fd5b50600d54610242565b3480156102ed57600080fd5b506102ca6102fc366004612cec565b610888565b6102ca61030f366004612c8d565b6108b9565b34801561032057600080fd5b5061024261032f366004612cc2565b610a07565b6102ca610342366004612c8d565b610a7f565b34801561035357600080fd5b506102ca610362366004612cec565b610d08565b34801561037357600080fd5b5061021e610382366004612dd4565b610d23565b34801561039357600080fd5b506102426103a2366004612c8d565b610d53565b3480156103b357600080fd5b506102926103c2366004612c8d565b610dc7565b3480156103d357600080fd5b506103e76103e2366004612c8d565b610e3e565b60405161022a9190612ebb565b34801561040057600080fd5b5061024261040f366004612ece565b610f86565b34801561042057600080fd5b5061042961100d565b60405161022a9190612ee9565b34801561044257600080fd5b506102ca6111fa565b34801561045757600080fd5b50610429611260565b34801561046c57600080fd5b506102ca61047b366004612c8d565b61146e565b61024261048e366004612f4d565b61147a565b34801561049f57600080fd5b506007546001600160a01b0316610292565b3480156104bd57600080fd5b5061026561164e565b3480156104d257600080fd5b5061024261165d565b3480156104e757600080fd5b506102ca6104f6366004612ff9565b6116e6565b34801561050757600080fd5b50600854610292906001600160a01b031681565b6102ca610529366004612c8d565b6116f5565b34801561053a57600080fd5b506102ca610549366004613030565b6117d0565b34801561055a57600080fd5b5061024260095481565b34801561057057600080fd5b5061026561057f366004612c8d565b611808565b34801561059057600080fd5b5061024261197e565b3480156105a557600080fd5b5061021e6105b43660046130ac565b6001600160a01b03918216600090815260056020908152604080832093909416825291909152205460ff1690565b3480156105ee57600080fd5b506102ca6105fd366004612ece565b611989565b60006001600160e01b031982166380ac58cd60e01b148061063357506001600160e01b03198216635b5e139f60e01b145b8061064e57506301ffc9a760e01b6001600160e01b03198316145b92915050565b606060008054610663906130df565b80601f016020809104026020016040519081016040528092919081815260200182805461068f906130df565b80156106dc5780601f106106b1576101008083540402835291602001916106dc565b820191906000526020600020905b8154815290600101906020018083116106bf57829003601f168201915b5050505050905090565b60006106f182611a51565b6107575760405162461bcd60e51b815260206004820152602c60248201527f4552433732313a20617070726f76656420717565727920666f72206e6f6e657860448201526b34b9ba32b73a103a37b5b2b760a11b60648201526084015b60405180910390fd5b506000908152600460205260409020546001600160a01b031690565b600061077e82610dc7565b9050806001600160a01b0316836001600160a01b0316036107eb5760405162461bcd60e51b815260206004820152602160248201527f4552433732313a20617070726f76616c20746f2063757272656e74206f776e656044820152603960f91b606482015260840161074e565b336001600160a01b0382161480610807575061080781336105b4565b6108795760405162461bcd60e51b815260206004820152603860248201527f4552433732313a20617070726f76652063616c6c6572206973206e6f74206f7760448201527f6e6572206e6f7220617070726f76656420666f7220616c6c0000000000000000606482015260840161074e565b6108838383611a6e565b505050565b6108923382611adc565b6108ae5760405162461bcd60e51b815260040161074e90613113565b610883838383611bc2565b600a546001600160a01b031633146109135760405162461bcd60e51b815260206004820152601e60248201527f4f6e6c79206f776e65722063616e20776974686472617720666f756e64730000604482015260640161074e565b60006109216012600a61325e565b61092b908361326a565b60085460405163a9059cbb60e01b8152336004820152602481018390529192506001600160a01b03169063a9059cbb906044016020604051808303816000875af115801561097d573d6000803e3d6000fd5b505050506040513d601f19601f820116820180604052508101906109a19190613281565b506040805183815260a06020820181905260119082015270436f6e747261637420776974686472617760781b60c082015242918101829052336060820152600060808201526000805160206135ed8339815191529060e0015b60405180910390a1505050565b6000610a1283610f86565b8210610a565760405162461bcd60e51b8152602060048201526013602482015272496e646578206f7574206f6620626f756e647360681b604482015260640161074e565b506001600160a01b03919091166000908152601060209081526040808320938352929052205490565b6000818152600f6020526040902060028101546001600160a01b03163314610ae95760405162461bcd60e51b815260206004820152601d60248201527f596f7520617265206e6f74206f776e6572206f662074686973204e4654000000604482015260640161074e565b8060050154816008015410610b395760405162461bcd60e51b8152602060048201526016602482015275165bdd4818d85b1a5b595908185b1b081c995dd85c9960521b604482015260640161074e565b600081600a015411610b845760405162461bcd60e51b81526020600482015260146024820152734e6f20617661696c61626c65207265776172647360601b604482015260640161074e565b6000610b926012600a61325e565b82600a015483600b0154610ba6919061326a565b610bb0919061326a565b60085460405163a9059cbb60e01b8152336004820152602481018390529192506001600160a01b03169063a9059cbb906044016020604051808303816000875af1158015610c02573d6000803e3d6000fd5b505050506040513d601f19601f82011682018060405250810190610c269190613281565b610c665760405162461bcd60e51b81526020600482015260116024820152702a3930b739b0b1ba34b7b71032b93937b960791b604482015260640161074e565b6008820154610c7690600161329e565b6000848152600f602052604081206008810192909255600a9182015542906000805160206135ed83398151915290610cb09060129061325e565b610cba90846132c7565b6040805191825260a060208301819052600c908301526b52657761726420636c61696d60a01b60c083015281018390523360608201526080810186905260e00160405180910390a150505050565b610883838383604051806020016040528060008152506117d0565b6000600e82604051610d3591906132db565b9081526040519081900360200190205460ff16151560011492915050565b6000610d5e600d5490565b8210610da25760405162461bcd60e51b8152602060048201526013602482015272496e646578206f7574206f6620626f756e647360681b604482015260640161074e565b600d8281548110610db557610db56132f7565b90600052602060002001549050919050565b6000818152600260205260408120546001600160a01b03168061064e5760405162461bcd60e51b815260206004820152602960248201527f4552433732313a206f776e657220717565727920666f72206e6f6e657869737460448201526832b73a103a37b5b2b760b91b606482015260840161074e565b610e46612b36565b6000828152600f602090815260409182902082516101a0810184528154815260018201549281019290925260028101546001600160a01b0316928201929092526003820154606082015260048201546080820152600582015460a0820152600682015460c082015260078201805491929160e084019190610ec6906130df565b80601f0160208091040260200160405190810160405280929190818152602001828054610ef2906130df565b8015610f3f5780601f10610f1457610100808354040283529160200191610f3f565b820191906000526020600020905b815481529060010190602001808311610f2257829003601f168201915b50505091835250506008820154602082015260098201546040820152600a8201546060820152600b8201546080820152600c9091015460ff16151560a09091015292915050565b60006001600160a01b038216610ff15760405162461bcd60e51b815260206004820152602a60248201527f4552433732313a2062616c616e636520717565727920666f7220746865207a65604482015269726f206164647265737360b01b606482015260840161074e565b506001600160a01b031660009081526003602052604090205490565b6060600061101a33610f86565b905060008167ffffffffffffffff81111561103757611037612d28565b60405190808252806020026020018201604052801561107057816020015b61105d612b36565b8152602001906001900390816110555790505b50905060005b828110156111f357600061108a3383610a07565b6000818152600f602090815260409182902082516101a0810184528154815260018201549281019290925260028101546001600160a01b0316928201929092526003820154606082015260048201546080820152600582015460a0820152600682015460c082015260078201805493945091929091839160e084019190611110906130df565b80601f016020809104026020016040519081016040528092919081815260200182805461113c906130df565b80156111895780601f1061115e57610100808354040283529160200191611189565b820191906000526020600020905b81548152906001019060200180831161116c57829003601f168201915b50505091835250506008820154602082015260098201546040820152600a8201546060820152600b8201546080820152600c9091015460ff16151560a09091015284518590859081106111de576111de6132f7565b60209081029190910101525050600101611076565b5092915050565b6007546001600160a01b031633146112545760405162461bcd60e51b815260206004820181905260248201527f4f776e61626c653a2063616c6c6572206973206e6f7420746865206f776e6572604482015260640161074e565b61125e6000611d69565b565b600d5460609060009067ffffffffffffffff81111561128157611281612d28565b6040519080825280602002602001820160405280156112ba57816020015b6112a7612b36565b81526020019060019003908161129f5790505b50905060005b600d54811015611468576000600f6000600d84815481106112e3576112e36132f7565b90600052602060002001548152602001908152602001600020905080604051806101a001604052908160008201548152602001600182015481526020016002820160009054906101000a90046001600160a01b03166001600160a01b03166001600160a01b0316815260200160038201548152602001600482015481526020016005820154815260200160068201548152602001600782018054611386906130df565b80601f01602080910402602001604051908101604052809291908181526020018280546113b2906130df565b80156113ff5780601f106113d4576101008083540402835291602001916113ff565b820191906000526020600020905b8154815290600101906020018083116113e257829003601f168201915b50505091835250506008820154602082015260098201546040820152600a8201546060820152600b8201546080820152600c9091015460ff16151560a0909101528351849084908110611454576114546132f7565b6020908102919091010152506001016112c0565b50919050565b61147781611dbb565b50565b604051666d6f6e74686c7960c81b602082015260009060270160405160208183030381529060405280519060200120836040516020016114ba91906132db565b60405160208183030381529060405280519060200120148061152d57506040516718dbdb5c1bdd5b9960c21b6020820152602801604051602081830303815290604052805190602001208360405160200161151591906132db565b60405160208183030381529060405280519060200120145b61156c5760405162461bcd60e51b815260206004820152601060248201526f125b9d985b1a59081a5b9d195c995cdd60821b604482015260640161074e565b61157a600c80546001019055565b611588600b80546001019055565b6000611593600c5490565b905061159f3382611dfb565b6115a9818b611e15565b6115b9818a8a8a8a8a8a8a611e99565b604080518a815260a0602082018190526007908201526611195c1bdcda5d60ca1b60c0820152428183018190523360608301526080820184905291516000805160206135ed8339815191529181900360e00190a16001600e8c60405161161f91906132db565b908152604051908190036020019020805491151560ff1990921691909117905550905098975050505050505050565b606060018054610663906130df565b600061166b6012600a61325e565b6008546040516370a0823160e01b81523060048201526001600160a01b03909116906370a0823190602401602060405180830381865afa1580156116b3573d6000803e3d6000fd5b505050506040513d601f19601f820116820180604052508101906116d7919061330d565b6116e191906132c7565b905090565b6116f133838361227a565b5050565b600a546001600160a01b0316331461174f5760405162461bcd60e51b815260206004820152601d60248201527f4f6e6c79206f776e65722063616e206465706f73697420666f756e6473000000604482015260640161074e565b600061175d6012600a61325e565b611767908361326a565b9050611774333083612348565b506040805183815260a0602082018190526010908201526f10dbdb9d1c9858dd0819195c1bdcda5d60821b60c082015242918101829052336060820152600060808201526000805160206135ed8339815191529060e0016109fa565b6117da3383611adc565b6117f65760405162461bcd60e51b815260040161074e90613113565b611802848484846123c8565b50505050565b606061181382611a51565b6118795760405162461bcd60e51b815260206004820152603160248201527f45524337323155524953746f726167653a2055524920717565727920666f72206044820152703737b732bc34b9ba32b73a103a37b5b2b760791b606482015260840161074e565b60008281526006602052604081208054611892906130df565b80601f01602080910402602001604051908101604052809291908181526020018280546118be906130df565b801561190b5780601f106118e05761010080835404028352916020019161190b565b820191906000526020600020905b8154815290600101906020018083116118ee57829003601f168201915b50505050509050600061192960408051602081019091526000815290565b9050805160000361193b575092915050565b81511561196d578082604051602001611955929190613326565b60405160208183030381529060405292505050919050565b611976846123fb565b949350505050565b60006116e1600b5490565b6007546001600160a01b031633146119e35760405162461bcd60e51b815260206004820181905260248201527f4f776e61626c653a2063616c6c6572206973206e6f7420746865206f776e6572604482015260640161074e565b6001600160a01b038116611a485760405162461bcd60e51b815260206004820152602660248201527f4f776e61626c653a206e6577206f776e657220697320746865207a65726f206160448201526564647265737360d01b606482015260840161074e565b61147781611d69565b6000908152600260205260409020546001600160a01b0316151590565b600081815260046020526040902080546001600160a01b0319166001600160a01b0384169081179091558190611aa382610dc7565b6001600160a01b03167f8c5be1e5ebec7d5bd14f71427d1e84f3dd0314c0f7b2291e5b200ac8c7c3b92560405160405180910390a45050565b6000611ae782611a51565b611b485760405162461bcd60e51b815260206004820152602c60248201527f4552433732313a206f70657261746f7220717565727920666f72206e6f6e657860448201526b34b9ba32b73a103a37b5b2b760a11b606482015260840161074e565b6000611b5383610dc7565b9050806001600160a01b0316846001600160a01b03161480611b8e5750836001600160a01b0316611b83846106e6565b6001600160a01b0316145b8061197657506001600160a01b0380821660009081526005602090815260408083209388168352929052205460ff16611976565b826001600160a01b0316611bd582610dc7565b6001600160a01b031614611c395760405162461bcd60e51b815260206004820152602560248201527f4552433732313a207472616e736665722066726f6d20696e636f72726563742060448201526437bbb732b960d91b606482015260840161074e565b6001600160a01b038216611c9b5760405162461bcd60e51b8152602060048201526024808201527f4552433732313a207472616e7366657220746f20746865207a65726f206164646044820152637265737360e01b606482015260840161074e565b611ca68383836124d3565b611cb1600082611a6e565b6001600160a01b0383166000908152600360205260408120805460019290611cda908490613355565b90915550506001600160a01b0382166000908152600360205260408120805460019290611d0890849061329e565b909155505060008181526002602052604080822080546001600160a01b0319166001600160a01b0386811691821790925591518493918716917fddf252ad1be2c89b69c2b068fc378daa952ba7f163c4a11628f55a4df523b3ef91a4505050565b600780546001600160a01b038381166001600160a01b0319831681179093556040519116919082907f8be0079c531659141344cd1fd0a4f28419497f9722a3daafe3b4186f6b6457e090600090a35050565b611dc48161258b565b60008181526006602052604090208054611ddd906130df565b15905061147757600081815260066020526040812061147791612ba9565b6116f1828260405180602001604052806000815250612632565b611e1e82611a51565b611e815760405162461bcd60e51b815260206004820152602e60248201527f45524337323155524953746f726167653a2055524920736574206f66206e6f6e60448201526d32bc34b9ba32b73a103a37b5b2b760911b606482015260840161074e565b600082815260066020526040902061088382826133b8565b60648711611ee95760405162461bcd60e51b815260206004820152601f60248201527f5072696365206d757374206265206174206c6561737420313030205553445400604482015260640161074e565b8660006064600c611efc6012600a61325e565b611f06908861326a565b611f1091906132c7565b611f1a91906132c7565b90506000604051602001611f3b90666d6f6e74686c7960c81b815260070190565b6040516020818303038152906040528051906020012085604051602001611f6291906132db565b6040516020818303038152906040528051906020012003611fa45782611f8983600161329e565b611f93908561326a565b611f9d9190613355565b9050612056565b600082611fb36012600a61325e565b611fbd919061329e565b9050600160005b8981101561200257611fd6838361326a565b91506001811115611ffa57611fed6012600a61325e565b611ff790836132c7565b91505b600101611fc4565b5060026120116012600a61325e565b61201b9190613478565b612025908661326a565b61202f828761326a565b6120399190613355565b92506120476012600a61325e565b61205190846132c7565b925050505b60006120646012600a61325e565b61206e908c61326a565b905061207b333083612348565b6120ba5760405162461bcd60e51b815260206004820152601060248201526f2a3930b730b1ba34b7b71032b93937b960811b604482015260640161074e565b604051806101a001604052808d81526020018c8152602001336001600160a01b031681526020018b81526020018a815260200189815260200188815260200187815260200160008152602001868152602001600181526020016012600a612121919061325e565b61212b90856132c7565b81526001602091820181905260008f8152600f83526040908190208451815592840151918301919091558201516002820180546001600160a01b0319166001600160a01b03909216919091179055606082015160038201556080820151600482015560a0820151600582015560c0820151600682015560e082015160078201906121b590826133b8565b506101008201518160080155610120820151816009015561014082015181600a015561016082015181600b015561018082015181600c0160006101000a81548160ff0219169083151502179055509050507fb9f801d6df87c696e55bebf0423b98eb6e8b9311a9ded8e8725634dc4bd4e72e8c8c338d8d8d8d8d60008e60016012600a612242919061325e565b61224c908f6132c7565b6040516122649c9b9a99989796959493929190613487565b60405180910390a1505050505050505050505050565b816001600160a01b0316836001600160a01b0316036122db5760405162461bcd60e51b815260206004820152601960248201527f4552433732313a20617070726f766520746f2063616c6c657200000000000000604482015260640161074e565b6001600160a01b03838116600081815260056020908152604080832094871680845294825291829020805460ff191686151590811790915591519182527f17307eab39ab6107e8899845ad3d59bd9653f200f220920489ca2b5937696c31910160405180910390a3505050565b6008546040516323b872dd60e01b81526001600160a01b03858116600483015284811660248301526044820184905260009216906323b872dd906064016020604051808303816000875af11580156123a4573d6000803e3d6000fd5b505050506040513d601f19601f820116820180604052508101906119769190613281565b6123d3848484611bc2565b6123df84848484612665565b6118025760405162461bcd60e51b815260040161074e906134fd565b606061240682611a51565b61246a5760405162461bcd60e51b815260206004820152602f60248201527f4552433732314d657461646174613a2055524920717565727920666f72206e6f60448201526e3732bc34b9ba32b73a103a37b5b2b760891b606482015260840161074e565b600061248160408051602081019091526000815290565b905060008151116124a157604051806020016040528060008152506124cc565b806124ab84612766565b6040516020016124bc929190613326565b6040516020818303038152906040525b9392505050565b6001600160a01b03831661252e5761252981600d80546000838152601260205260408120829055600182018355919091527fd7b6990105719101dabeb77144f2a3385c8033acd3af97e9423a695e81ad1eb50155565b612551565b816001600160a01b0316836001600160a01b031614612551576125518382612867565b6001600160a01b0382166125685761088381612904565b826001600160a01b0316826001600160a01b0316146108835761088382826129b3565b600061259682610dc7565b90506125a4816000846124d3565b6125af600083611a6e565b6001600160a01b03811660009081526003602052604081208054600192906125d8908490613355565b909155505060008281526002602052604080822080546001600160a01b0319169055518391906001600160a01b038416907fddf252ad1be2c89b69c2b068fc378daa952ba7f163c4a11628f55a4df523b3ef908390a45050565b61263c83836129f7565b6126496000848484612665565b6108835760405162461bcd60e51b815260040161074e906134fd565b60006001600160a01b0384163b1561275b57604051630a85bd0160e11b81526001600160a01b0385169063150b7a02906126a990339089908890889060040161354f565b6020604051808303816000875af19250505080156126e4575060408051601f3d908101601f191682019092526126e19181019061358c565b60015b612741573d808015612712576040519150601f19603f3d011682016040523d82523d6000602084013e612717565b606091505b5080516000036127395760405162461bcd60e51b815260040161074e906134fd565b805181602001fd5b6001600160e01b031916630a85bd0160e11b149050611976565b506001949350505050565b60608160000361278d5750506040805180820190915260018152600360fc1b602082015290565b8160005b81156127b757806127a1816135a9565b91506127b09050600a836132c7565b9150612791565b60008167ffffffffffffffff8111156127d2576127d2612d28565b6040519080825280601f01601f1916602001820160405280156127fc576020820181803683370190505b5090505b841561197657612811600183613355565b915061281e600a866135c2565b61282990603061329e565b60f81b81838151811061283e5761283e6132f7565b60200101906001600160f81b031916908160001a905350612860600a866132c7565b9450612800565b6000600161287484610f86565b61287e9190613355565b6000838152601160205260409020549091508082146128d1576001600160a01b03841660009081526010602090815260408083208584528252808320548684528184208190558352601190915290208190555b5060009182526011602090815260408084208490556001600160a01b039094168352601081528383209183525290812055565b600d5460009061291690600190613355565b600083815260126020526040812054600d805493945090928490811061293e5761293e6132f7565b9060005260206000200154905080600d838154811061295f5761295f6132f7565b600091825260208083209091019290925582815260129091526040808220849055858252812055600d805480612997576129976135d6565b6001900381819060005260206000200160009055905550505050565b60006129be83610f86565b6001600160a01b039093166000908152601060209081526040808320868452825280832085905593825260119052919091209190915550565b6001600160a01b038216612a4d5760405162461bcd60e51b815260206004820181905260248201527f4552433732313a206d696e7420746f20746865207a65726f2061646472657373604482015260640161074e565b612a5681611a51565b15612aa35760405162461bcd60e51b815260206004820152601c60248201527f4552433732313a20746f6b656e20616c7265616479206d696e74656400000000604482015260640161074e565b612aaf600083836124d3565b6001600160a01b0382166000908152600360205260408120805460019290612ad890849061329e565b909155505060008181526002602052604080822080546001600160a01b0319166001600160a01b03861690811790915590518392907fddf252ad1be2c89b69c2b068fc378daa952ba7f163c4a11628f55a4df523b3ef908290a45050565b604051806101a00160405280600081526020016000815260200160006001600160a01b031681526020016000815260200160008152602001600081526020016000815260200160608152602001600081526020016000815260200160008152602001600081526020016000151581525090565b508054612bb5906130df565b6000825580601f10612bc5575050565b601f01602090049060005260206000209081019061147791905b80821115612bf35760008155600101612bdf565b5090565b6001600160e01b03198116811461147757600080fd5b600060208284031215612c1f57600080fd5b81356124cc81612bf7565b60005b83811015612c45578181015183820152602001612c2d565b50506000910152565b60008151808452612c66816020860160208601612c2a565b601f01601f19169290920160200192915050565b6020815260006124cc6020830184612c4e565b600060208284031215612c9f57600080fd5b5035919050565b80356001600160a01b0381168114612cbd57600080fd5b919050565b60008060408385031215612cd557600080fd5b612cde83612ca6565b946020939093013593505050565b600080600060608486031215612d0157600080fd5b612d0a84612ca6565b9250612d1860208501612ca6565b9150604084013590509250925092565b634e487b7160e01b600052604160045260246000fd5b600067ffffffffffffffff80841115612d5957612d59612d28565b604051601f8501601f19908116603f01168101908282118183101715612d8157612d81612d28565b81604052809350858152868686011115612d9a57600080fd5b858560208301376000602087830101525050509392505050565b600082601f830112612dc557600080fd5b6124cc83833560208501612d3e565b600060208284031215612de657600080fd5b813567ffffffffffffffff811115612dfd57600080fd5b61197684828501612db4565b60006101a082518452602083015160208501526040830151612e3660408601826001600160a01b03169052565b50606083015160608501526080830151608085015260a083015160a085015260c083015160c085015260e08301518160e0860152612e7682860182612c4e565b61010085810151908701526101208086015190870152610140808601519087015261016080860151908701526101809485015115159490950193909352509192915050565b6020815260006124cc6020830184612e09565b600060208284031215612ee057600080fd5b6124cc82612ca6565b600060208083016020845280855180835260408601915060408160051b87010192506020870160005b82811015612f4057603f19888603018452612f2e858351612e09565b94509285019290850190600101612f12565b5092979650505050505050565b600080600080600080600080610100898b031215612f6a57600080fd5b883567ffffffffffffffff80821115612f8257600080fd5b612f8e8c838d01612db4565b995060208b0135985060408b0135975060608b0135965060808b0135955060a08b0135945060c08b0135915080821115612fc757600080fd5b50612fd48b828c01612db4565b92505060e089013590509295985092959890939650565b801515811461147757600080fd5b6000806040838503121561300c57600080fd5b61301583612ca6565b9150602083013561302581612feb565b809150509250929050565b6000806000806080858703121561304657600080fd5b61304f85612ca6565b935061305d60208601612ca6565b925060408501359150606085013567ffffffffffffffff81111561308057600080fd5b8501601f8101871361309157600080fd5b6130a087823560208401612d3e565b91505092959194509250565b600080604083850312156130bf57600080fd5b6130c883612ca6565b91506130d660208401612ca6565b90509250929050565b600181811c908216806130f357607f821691505b60208210810361146857634e487b7160e01b600052602260045260246000fd5b60208082526031908201527f4552433732313a207472616e736665722063616c6c6572206973206e6f74206f6040820152701ddb995c881b9bdc88185c1c1c9bdd9959607a1b606082015260800190565b634e487b7160e01b600052601160045260246000fd5b600181815b808511156131b557816000190482111561319b5761319b613164565b808516156131a857918102915b93841c939080029061317f565b509250929050565b6000826131cc5750600161064e565b816131d95750600061064e565b81600181146131ef57600281146131f957613215565b600191505061064e565b60ff84111561320a5761320a613164565b50506001821b61064e565b5060208310610133831016604e8410600b8410161715613238575081810a61064e565b613242838361317a565b806000190482111561325657613256613164565b029392505050565b60006124cc83836131bd565b808202811582820484141761064e5761064e613164565b60006020828403121561329357600080fd5b81516124cc81612feb565b8082018082111561064e5761064e613164565b634e487b7160e01b600052601260045260246000fd5b6000826132d6576132d66132b1565b500490565b600082516132ed818460208701612c2a565b9190910192915050565b634e487b7160e01b600052603260045260246000fd5b60006020828403121561331f57600080fd5b5051919050565b60008351613338818460208801612c2a565b83519083019061334c818360208801612c2a565b01949350505050565b8181038181111561064e5761064e613164565b601f821115610883576000816000526020600020601f850160051c810160208610156133915750805b601f850160051c820191505b818110156133b05782815560010161339d565b505050505050565b815167ffffffffffffffff8111156133d2576133d2612d28565b6133e6816133e084546130df565b84613368565b602080601f83116001811461341b57600084156134035750858301515b600019600386901b1c1916600185901b1785556133b0565b600085815260208120601f198616915b8281101561344a5788860151825594840194600190910190840161342b565b50858210156134685787850151600019600388901b60f8161c191681555b5050505050600190811b01905550565b60006124cc60ff8416836131bd565b60006101808e83528d602084015260018060a01b038d1660408401528b60608401528a60808401528960a08401528860c08401528060e08401526134cd81840189612c4e565b915050856101008301528461012083015283610140830152826101608301529d9c50505050505050505050505050565b60208082526032908201527f4552433732313a207472616e7366657220746f206e6f6e20455243373231526560408201527131b2b4bb32b91034b6b83632b6b2b73a32b960711b606082015260800190565b6001600160a01b038581168252841660208201526040810183905260806060820181905260009061358290830184612c4e565b9695505050505050565b60006020828403121561359e57600080fd5b81516124cc81612bf7565b6000600182016135bb576135bb613164565b5060010190565b6000826135d1576135d16132b1565b500690565b634e487b7160e01b600052603160045260246000fdfee720d61db15941cd5b3c730f4884a87b12c154902075bc4c1f7fc929c7378a4ea2646970667358221220c68d4f531c0e9e4008390266bb4bd73e10919fed2033298cfd9657a5b3417cbf64736f6c63430008180033",
  "linkReferences": {},
  "deployedLinkReferences": {}
}